{
	"BASE-LEARN/ArraysExercise.sol": {
		"ArraysAndTimestampExercise": {
			"abi": [
				{
					"inputs": [],
					"stateMutability": "nonpayable",
					"type": "constructor"
				},
				{
					"inputs": [],
					"name": "afterY2K",
					"outputs": [
						{
							"internalType": "uint256[]",
							"name": "recentTimestamps",
							"type": "uint256[]"
						},
						{
							"internalType": "address[]",
							"name": "recentSenders",
							"type": "address[]"
						}
					],
					"stateMutability": "view",
					"type": "function"
				},
				{
					"inputs": [
						{
							"internalType": "uint256[]",
							"name": "_toAppend",
							"type": "uint256[]"
						}
					],
					"name": "appendToNumbers",
					"outputs": [],
					"stateMutability": "nonpayable",
					"type": "function"
				},
				{
					"inputs": [],
					"name": "getNumbers",
					"outputs": [
						{
							"internalType": "uint256[]",
							"name": "",
							"type": "uint256[]"
						}
					],
					"stateMutability": "view",
					"type": "function"
				},
				{
					"inputs": [
						{
							"internalType": "uint256",
							"name": "",
							"type": "uint256"
						}
					],
					"name": "numbers",
					"outputs": [
						{
							"internalType": "uint256",
							"name": "",
							"type": "uint256"
						}
					],
					"stateMutability": "view",
					"type": "function"
				},
				{
					"inputs": [],
					"name": "resetNumbers",
					"outputs": [],
					"stateMutability": "nonpayable",
					"type": "function"
				},
				{
					"inputs": [],
					"name": "resetSenders",
					"outputs": [],
					"stateMutability": "nonpayable",
					"type": "function"
				},
				{
					"inputs": [],
					"name": "resetTimestamps",
					"outputs": [],
					"stateMutability": "nonpayable",
					"type": "function"
				},
				{
					"inputs": [
						{
							"internalType": "uint256",
							"name": "_unixTimestamp",
							"type": "uint256"
						}
					],
					"name": "saveTimestamp",
					"outputs": [],
					"stateMutability": "nonpayable",
					"type": "function"
				},
				{
					"inputs": [
						{
							"internalType": "uint256",
							"name": "",
							"type": "uint256"
						}
					],
					"name": "senders",
					"outputs": [
						{
							"internalType": "address",
							"name": "",
							"type": "address"
						}
					],
					"stateMutability": "view",
					"type": "function"
				},
				{
					"inputs": [
						{
							"internalType": "uint256",
							"name": "",
							"type": "uint256"
						}
					],
					"name": "timestamps",
					"outputs": [
						{
							"internalType": "uint256",
							"name": "",
							"type": "uint256"
						}
					],
					"stateMutability": "view",
					"type": "function"
				}
			],
			"devdoc": {
				"kind": "dev",
				"methods": {
					"afterY2K()": {
						"returns": {
							"recentSenders": "alamat pengirim yang sesuai",
							"recentTimestamps": "daftar timestamp setelah 946702800"
						}
					}
				},
				"version": 1
			},
			"evm": {
				"assembly": "    /* \"BASE-LEARN/ArraysExercise.sol\":61:2179  contract ArraysAndTimestampExercise {... */\n  mstore(0x40, 0x80)\n    /* \"BASE-LEARN/ArraysExercise.sol\":202:249  constructor() {... */\n  callvalue\n  dup1\n  iszero\n  tag_1\n  jumpi\n  0x00\n  dup1\n  revert\ntag_1:\n  pop\n    /* \"BASE-LEARN/ArraysExercise.sol\":227:241  resetNumbers() */\n  tag_4\n    /* \"BASE-LEARN/ArraysExercise.sol\":227:239  resetNumbers */\n  shl(0x20, tag_5)\n    /* \"BASE-LEARN/ArraysExercise.sol\":227:241  resetNumbers() */\n  0x20\n  shr\n  jump\t// in\ntag_4:\n    /* \"BASE-LEARN/ArraysExercise.sol\":61:2179  contract ArraysAndTimestampExercise {... */\n  jump(tag_6)\n    /* \"BASE-LEARN/ArraysExercise.sol\":257:404  function resetNumbers() public {... */\ntag_5:\n    /* \"BASE-LEARN/ArraysExercise.sol\":306:313  numbers */\n  0x00\n  dup1\n    /* \"BASE-LEARN/ArraysExercise.sol\":299:313  delete numbers */\n  tag_8\n  swap2\n  swap1\n  tag_9\n  jump\t// in\ntag_8:\n    /* \"BASE-LEARN/ArraysExercise.sol\":329:335  uint i */\n  0x00\n    /* \"BASE-LEARN/ArraysExercise.sol\":338:339  1 */\n  0x01\n    /* \"BASE-LEARN/ArraysExercise.sol\":329:339  uint i = 1 */\n  swap1\n  pop\n    /* \"BASE-LEARN/ArraysExercise.sol\":324:397  for (uint i = 1; i <= 10; i++) {... */\ntag_10:\n    /* \"BASE-LEARN/ArraysExercise.sol\":346:348  10 */\n  0x0a\n    /* \"BASE-LEARN/ArraysExercise.sol\":341:342  i */\n  dup2\n    /* \"BASE-LEARN/ArraysExercise.sol\":341:348  i <= 10 */\n  gt\n    /* \"BASE-LEARN/ArraysExercise.sol\":324:397  for (uint i = 1; i <= 10; i++) {... */\n  tag_11\n  jumpi\n    /* \"BASE-LEARN/ArraysExercise.sol\":370:377  numbers */\n  0x00\n    /* \"BASE-LEARN/ArraysExercise.sol\":383:384  i */\n  dup2\n    /* \"BASE-LEARN/ArraysExercise.sol\":370:385  numbers.push(i) */\n  swap1\n  dup1\n  0x01\n  dup2\n  sload\n  add\n  dup1\n  dup3\n  sstore\n  dup1\n  swap2\n  pop\n  pop\n  0x01\n  swap1\n  sub\n  swap1\n  0x00\n  mstore\n  keccak256(0x00, 0x20)\n  add\n  0x00\n  swap1\n  swap2\n  swap1\n  swap2\n  swap1\n  swap2\n  pop\n  sstore\n    /* \"BASE-LEARN/ArraysExercise.sol\":350:353  i++ */\n  dup1\n  dup1\n  tag_14\n  swap1\n  tag_15\n  jump\t// in\ntag_14:\n  swap2\n  pop\n  pop\n    /* \"BASE-LEARN/ArraysExercise.sol\":324:397  for (uint i = 1; i <= 10; i++) {... */\n  jump(tag_10)\ntag_11:\n  pop\n    /* \"BASE-LEARN/ArraysExercise.sol\":257:404  function resetNumbers() public {... */\n  jump\t// out\n    /* \"BASE-LEARN/ArraysExercise.sol\":61:2179  contract ArraysAndTimestampExercise {... */\ntag_9:\n  pop\n  dup1\n  sload\n  0x00\n  dup3\n  sstore\n  swap1\n  0x00\n  mstore\n  keccak256(0x00, 0x20)\n  swap1\n  dup2\n  add\n  swap1\n  tag_17\n  swap2\n  swap1\n  tag_18\n  jump\t// in\ntag_17:\n  pop\n  jump\t// out\ntag_18:\ntag_19:\n  dup1\n  dup3\n  gt\n  iszero\n  tag_20\n  jumpi\n  0x00\n  dup2\n  0x00\n  swap1\n  sstore\n  pop\n  0x01\n  add\n  jump(tag_19)\ntag_20:\n  pop\n  swap1\n  jump\t// out\n    /* \"#utility.yul\":7:187   */\ntag_21:\n    /* \"#utility.yul\":55:132   */\n  0x4e487b7100000000000000000000000000000000000000000000000000000000\n    /* \"#utility.yul\":52:53   */\n  0x00\n    /* \"#utility.yul\":45:133   */\n  mstore\n    /* \"#utility.yul\":152:156   */\n  0x11\n    /* \"#utility.yul\":149:150   */\n  0x04\n    /* \"#utility.yul\":142:157   */\n  mstore\n    /* \"#utility.yul\":176:180   */\n  0x24\n    /* \"#utility.yul\":173:174   */\n  0x00\n    /* \"#utility.yul\":166:181   */\n  revert\n    /* \"#utility.yul\":193:270   */\ntag_22:\n    /* \"#utility.yul\":230:237   */\n  0x00\n    /* \"#utility.yul\":259:264   */\n  dup2\n    /* \"#utility.yul\":248:264   */\n  swap1\n  pop\n    /* \"#utility.yul\":193:270   */\n  swap2\n  swap1\n  pop\n  jump\t// out\n    /* \"#utility.yul\":276:509   */\ntag_15:\n    /* \"#utility.yul\":315:318   */\n  0x00\n    /* \"#utility.yul\":338:362   */\n  tag_27\n    /* \"#utility.yul\":356:361   */\n  dup3\n    /* \"#utility.yul\":338:362   */\n  tag_22\n  jump\t// in\ntag_27:\n    /* \"#utility.yul\":329:362   */\n  swap2\n  pop\n    /* \"#utility.yul\":384:450   */\n  0xffffffffffffffffffffffffffffffffffffffffffffffffffffffffffffffff\n    /* \"#utility.yul\":377:382   */\n  dup3\n    /* \"#utility.yul\":374:451   */\n  sub\n    /* \"#utility.yul\":371:474   */\n  tag_28\n  jumpi\n    /* \"#utility.yul\":454:472   */\n  tag_29\n  tag_21\n  jump\t// in\ntag_29:\n    /* \"#utility.yul\":371:474   */\ntag_28:\n    /* \"#utility.yul\":501:502   */\n  0x01\n    /* \"#utility.yul\":494:499   */\n  dup3\n    /* \"#utility.yul\":490:503   */\n  add\n    /* \"#utility.yul\":483:503   */\n  swap1\n  pop\n    /* \"#utility.yul\":276:509   */\n  swap2\n  swap1\n  pop\n  jump\t// out\n    /* \"BASE-LEARN/ArraysExercise.sol\":61:2179  contract ArraysAndTimestampExercise {... */\ntag_6:\n  dataSize(sub_0)\n  dup1\n  dataOffset(sub_0)\n  0x00\n  codecopy\n  0x00\n  return\nstop\n\nsub_0: assembly {\n        /* \"BASE-LEARN/ArraysExercise.sol\":61:2179  contract ArraysAndTimestampExercise {... */\n      mstore(0x40, 0x80)\n      callvalue\n      dup1\n      iszero\n      tag_1\n      jumpi\n      0x00\n      dup1\n      revert\n    tag_1:\n      pop\n      jumpi(tag_2, lt(calldatasize, 0x04))\n      shr(0xe0, calldataload(0x00))\n      dup1\n      0x9977c78a\n      gt\n      tag_13\n      jumpi\n      dup1\n      0x9977c78a\n      eq\n      tag_8\n      jumpi\n      dup1\n      0xa00b7acd\n      eq\n      tag_9\n      jumpi\n      dup1\n      0xade82bfd\n      eq\n      tag_10\n      jumpi\n      dup1\n      0xb1cebac5\n      eq\n      tag_11\n      jumpi\n      dup1\n      0xd39fa233\n      eq\n      tag_12\n      jumpi\n      jump(tag_2)\n    tag_13:\n      dup1\n      0x20aaf79a\n      eq\n      tag_3\n      jumpi\n      dup1\n      0x4f9377db\n      eq\n      tag_4\n      jumpi\n      dup1\n      0x7f66b1b8\n      eq\n      tag_5\n      jumpi\n      dup1\n      0x89f915f6\n      eq\n      tag_6\n      jumpi\n      dup1\n      0x8bc33af3\n      eq\n      tag_7\n      jumpi\n    tag_2:\n      0x00\n      dup1\n      revert\n        /* \"BASE-LEARN/ArraysExercise.sol\":1085:1949  function afterY2K()... */\n    tag_3:\n      tag_14\n      tag_15\n      jump\t// in\n    tag_14:\n      mload(0x40)\n      tag_16\n      swap3\n      swap2\n      swap1\n      tag_17\n      jump\t// in\n    tag_16:\n      mload(0x40)\n      dup1\n      swap2\n      sub\n      swap1\n      return\n        /* \"BASE-LEARN/ArraysExercise.sol\":412:588  function appendToNumbers(uint[] calldata _toAppend) external {... */\n    tag_4:\n      tag_18\n      0x04\n      dup1\n      calldatasize\n      sub\n      dup2\n      add\n      swap1\n      tag_19\n      swap2\n      swap1\n      tag_20\n      jump\t// in\n    tag_19:\n      tag_21\n      jump\t// in\n    tag_18:\n      stop\n        /* \"BASE-LEARN/ArraysExercise.sol\":1994:2058  function resetSenders() public {... */\n    tag_5:\n      tag_22\n      tag_23\n      jump\t// in\n    tag_22:\n      stop\n        /* \"BASE-LEARN/ArraysExercise.sol\":596:689  function getNumbers() external view returns (uint[] memory) {... */\n    tag_6:\n      tag_24\n      tag_25\n      jump\t// in\n    tag_24:\n      mload(0x40)\n      tag_26\n      swap2\n      swap1\n      tag_27\n      jump\t// in\n    tag_26:\n      mload(0x40)\n      dup1\n      swap2\n      sub\n      swap1\n      return\n        /* \"BASE-LEARN/ArraysExercise.sol\":166:193  uint256[] public timestamps */\n    tag_7:\n      tag_28\n      0x04\n      dup1\n      calldatasize\n      sub\n      dup2\n      add\n      swap1\n      tag_29\n      swap2\n      swap1\n      tag_30\n      jump\t// in\n    tag_29:\n      tag_31\n      jump\t// in\n    tag_28:\n      mload(0x40)\n      tag_32\n      swap2\n      swap1\n      tag_33\n      jump\t// in\n    tag_32:\n      mload(0x40)\n      dup1\n      swap2\n      sub\n      swap1\n      return\n        /* \"BASE-LEARN/ArraysExercise.sol\":135:159  address[] public senders */\n    tag_8:\n      tag_34\n      0x04\n      dup1\n      calldatasize\n      sub\n      dup2\n      add\n      swap1\n      tag_35\n      swap2\n      swap1\n      tag_30\n      jump\t// in\n    tag_35:\n      tag_36\n      jump\t// in\n    tag_34:\n      mload(0x40)\n      tag_37\n      swap2\n      swap1\n      tag_38\n      jump\t// in\n    tag_37:\n      mload(0x40)\n      dup1\n      swap2\n      sub\n      swap1\n      return\n        /* \"BASE-LEARN/ArraysExercise.sol\":760:899  function saveTimestamp(uint256 _unixTimestamp) public {... */\n    tag_9:\n      tag_39\n      0x04\n      dup1\n      calldatasize\n      sub\n      dup2\n      add\n      swap1\n      tag_40\n      swap2\n      swap1\n      tag_30\n      jump\t// in\n    tag_40:\n      tag_41\n      jump\t// in\n    tag_39:\n      stop\n        /* \"BASE-LEARN/ArraysExercise.sol\":2106:2176  function resetTimestamps() public {... */\n    tag_10:\n      tag_42\n      tag_43\n      jump\t// in\n    tag_42:\n      stop\n        /* \"BASE-LEARN/ArraysExercise.sol\":257:404  function resetNumbers() public {... */\n    tag_11:\n      tag_44\n      tag_45\n      jump\t// in\n    tag_44:\n      stop\n        /* \"BASE-LEARN/ArraysExercise.sol\":104:128  uint256[] public numbers */\n    tag_12:\n      tag_46\n      0x04\n      dup1\n      calldatasize\n      sub\n      dup2\n      add\n      swap1\n      tag_47\n      swap2\n      swap1\n      tag_30\n      jump\t// in\n    tag_47:\n      tag_48\n      jump\t// in\n    tag_46:\n      mload(0x40)\n      tag_49\n      swap2\n      swap1\n      tag_33\n      jump\t// in\n    tag_49:\n      mload(0x40)\n      dup1\n      swap2\n      sub\n      swap1\n      return\n        /* \"BASE-LEARN/ArraysExercise.sol\":1085:1949  function afterY2K()... */\n    tag_15:\n        /* \"BASE-LEARN/ArraysExercise.sol\":1153:1186  uint256[] memory recentTimestamps */\n      0x60\n        /* \"BASE-LEARN/ArraysExercise.sol\":1188:1218  address[] memory recentSenders */\n      dup1\n        /* \"BASE-LEARN/ArraysExercise.sol\":1236:1249  uint256 count */\n      0x00\n        /* \"BASE-LEARN/ArraysExercise.sol\":1264:1278  uint256 length */\n      dup1\n        /* \"BASE-LEARN/ArraysExercise.sol\":1281:1291  timestamps */\n      0x02\n        /* \"BASE-LEARN/ArraysExercise.sol\":1281:1298  timestamps.length */\n      dup1\n      sload\n      swap1\n      pop\n        /* \"BASE-LEARN/ArraysExercise.sol\":1264:1298  uint256 length = timestamps.length */\n      swap1\n      pop\n        /* \"BASE-LEARN/ArraysExercise.sol\":1358:1367  uint256 i */\n      0x00\n        /* \"BASE-LEARN/ArraysExercise.sol\":1353:1489  for (uint256 i = 0; i < length; i++) {... */\n    tag_51:\n        /* \"BASE-LEARN/ArraysExercise.sol\":1377:1383  length */\n      dup2\n        /* \"BASE-LEARN/ArraysExercise.sol\":1373:1374  i */\n      dup2\n        /* \"BASE-LEARN/ArraysExercise.sol\":1373:1383  i < length */\n      lt\n        /* \"BASE-LEARN/ArraysExercise.sol\":1353:1489  for (uint256 i = 0; i < length; i++) {... */\n      iszero\n      tag_52\n      jumpi\n        /* \"BASE-LEARN/ArraysExercise.sol\":1425:1434  946702800 */\n      0x386d89d0\n        /* \"BASE-LEARN/ArraysExercise.sol\":1409:1419  timestamps */\n      0x02\n        /* \"BASE-LEARN/ArraysExercise.sol\":1420:1421  i */\n      dup3\n        /* \"BASE-LEARN/ArraysExercise.sol\":1409:1422  timestamps[i] */\n      dup2\n      sload\n      dup2\n      lt\n      tag_54\n      jumpi\n      tag_55\n      tag_56\n      jump\t// in\n    tag_55:\n    tag_54:\n      swap1\n      0x00\n      mstore\n      keccak256(0x00, 0x20)\n      add\n      sload\n        /* \"BASE-LEARN/ArraysExercise.sol\":1409:1434  timestamps[i] > 946702800 */\n      gt\n        /* \"BASE-LEARN/ArraysExercise.sol\":1405:1478  if (timestamps[i] > 946702800) {... */\n      iszero\n      tag_58\n      jumpi\n        /* \"BASE-LEARN/ArraysExercise.sol\":1455:1462  count++ */\n      dup3\n      dup1\n      tag_59\n      swap1\n      tag_60\n      jump\t// in\n    tag_59:\n      swap4\n      pop\n      pop\n        /* \"BASE-LEARN/ArraysExercise.sol\":1405:1478  if (timestamps[i] > 946702800) {... */\n    tag_58:\n        /* \"BASE-LEARN/ArraysExercise.sol\":1385:1388  i++ */\n      dup1\n      dup1\n      tag_61\n      swap1\n      tag_60\n      jump\t// in\n    tag_61:\n      swap2\n      pop\n      pop\n        /* \"BASE-LEARN/ArraysExercise.sol\":1353:1489  for (uint256 i = 0; i < length; i++) {... */\n      jump(tag_51)\n    tag_52:\n      pop\n        /* \"BASE-LEARN/ArraysExercise.sol\":1562:1567  count */\n      dup2\n        /* \"BASE-LEARN/ArraysExercise.sol\":1548:1568  new uint256[](count) */\n      0xffffffffffffffff\n      dup2\n      gt\n      iszero\n      tag_62\n      jumpi\n      tag_63\n      tag_64\n      jump\t// in\n    tag_63:\n    tag_62:\n      mload(0x40)\n      swap1\n      dup1\n      dup3\n      mstore\n      dup1\n      0x20\n      mul\n      0x20\n      add\n      dup3\n      add\n      0x40\n      mstore\n      dup1\n      iszero\n      tag_65\n      jumpi\n      dup2\n      0x20\n      add\n      0x20\n      dup3\n      mul\n      dup1\n      calldatasize\n      dup4\n      calldatacopy\n      dup1\n      dup3\n      add\n      swap2\n      pop\n      pop\n      swap1\n      pop\n    tag_65:\n      pop\n        /* \"BASE-LEARN/ArraysExercise.sol\":1529:1568  recentTimestamps = new uint256[](count) */\n      swap4\n      pop\n        /* \"BASE-LEARN/ArraysExercise.sol\":1609:1614  count */\n      dup2\n        /* \"BASE-LEARN/ArraysExercise.sol\":1595:1615  new address[](count) */\n      0xffffffffffffffff\n      dup2\n      gt\n      iszero\n      tag_66\n      jumpi\n      tag_67\n      tag_64\n      jump\t// in\n    tag_67:\n    tag_66:\n      mload(0x40)\n      swap1\n      dup1\n      dup3\n      mstore\n      dup1\n      0x20\n      mul\n      0x20\n      add\n      dup3\n      add\n      0x40\n      mstore\n      dup1\n      iszero\n      tag_68\n      jumpi\n      dup2\n      0x20\n      add\n      0x20\n      dup3\n      mul\n      dup1\n      calldatasize\n      dup4\n      calldatacopy\n      dup1\n      dup3\n      add\n      swap2\n      pop\n      pop\n      swap1\n      pop\n    tag_68:\n      pop\n        /* \"BASE-LEARN/ArraysExercise.sol\":1579:1615  recentSenders = new address[](count) */\n      swap3\n      pop\n        /* \"BASE-LEARN/ArraysExercise.sol\":1668:1681  uint256 index */\n      0x00\n        /* \"BASE-LEARN/ArraysExercise.sol\":1701:1710  uint256 i */\n      dup1\n        /* \"BASE-LEARN/ArraysExercise.sol\":1696:1942  for (uint256 i = 0; i < length; i++) {... */\n    tag_69:\n        /* \"BASE-LEARN/ArraysExercise.sol\":1720:1726  length */\n      dup3\n        /* \"BASE-LEARN/ArraysExercise.sol\":1716:1717  i */\n      dup2\n        /* \"BASE-LEARN/ArraysExercise.sol\":1716:1726  i < length */\n      lt\n        /* \"BASE-LEARN/ArraysExercise.sol\":1696:1942  for (uint256 i = 0; i < length; i++) {... */\n      iszero\n      tag_70\n      jumpi\n        /* \"BASE-LEARN/ArraysExercise.sol\":1768:1777  946702800 */\n      0x386d89d0\n        /* \"BASE-LEARN/ArraysExercise.sol\":1752:1762  timestamps */\n      0x02\n        /* \"BASE-LEARN/ArraysExercise.sol\":1763:1764  i */\n      dup3\n        /* \"BASE-LEARN/ArraysExercise.sol\":1752:1765  timestamps[i] */\n      dup2\n      sload\n      dup2\n      lt\n      tag_72\n      jumpi\n      tag_73\n      tag_56\n      jump\t// in\n    tag_73:\n    tag_72:\n      swap1\n      0x00\n      mstore\n      keccak256(0x00, 0x20)\n      add\n      sload\n        /* \"BASE-LEARN/ArraysExercise.sol\":1752:1777  timestamps[i] > 946702800 */\n      gt\n        /* \"BASE-LEARN/ArraysExercise.sol\":1748:1931  if (timestamps[i] > 946702800) {... */\n      iszero\n      tag_75\n      jumpi\n        /* \"BASE-LEARN/ArraysExercise.sol\":1824:1834  timestamps */\n      0x02\n        /* \"BASE-LEARN/ArraysExercise.sol\":1835:1836  i */\n      dup2\n        /* \"BASE-LEARN/ArraysExercise.sol\":1824:1837  timestamps[i] */\n      dup2\n      sload\n      dup2\n      lt\n      tag_76\n      jumpi\n      tag_77\n      tag_56\n      jump\t// in\n    tag_77:\n    tag_76:\n      swap1\n      0x00\n      mstore\n      keccak256(0x00, 0x20)\n      add\n      sload\n        /* \"BASE-LEARN/ArraysExercise.sol\":1798:1814  recentTimestamps */\n      dup7\n        /* \"BASE-LEARN/ArraysExercise.sol\":1815:1820  index */\n      dup4\n        /* \"BASE-LEARN/ArraysExercise.sol\":1798:1821  recentTimestamps[index] */\n      dup2\n      mload\n      dup2\n      lt\n      tag_79\n      jumpi\n      tag_80\n      tag_56\n      jump\t// in\n    tag_80:\n    tag_79:\n      0x20\n      mul\n      0x20\n      add\n      add\n        /* \"BASE-LEARN/ArraysExercise.sol\":1798:1837  recentTimestamps[index] = timestamps[i] */\n      dup2\n      dup2\n      mstore\n      pop\n      pop\n        /* \"BASE-LEARN/ArraysExercise.sol\":1879:1886  senders */\n      0x01\n        /* \"BASE-LEARN/ArraysExercise.sol\":1887:1888  i */\n      dup2\n        /* \"BASE-LEARN/ArraysExercise.sol\":1879:1889  senders[i] */\n      dup2\n      sload\n      dup2\n      lt\n      tag_81\n      jumpi\n      tag_82\n      tag_56\n      jump\t// in\n    tag_82:\n    tag_81:\n      swap1\n      0x00\n      mstore\n      keccak256(0x00, 0x20)\n      add\n      0x00\n      swap1\n      sload\n      swap1\n      0x0100\n      exp\n      swap1\n      div\n      0xffffffffffffffffffffffffffffffffffffffff\n      and\n        /* \"BASE-LEARN/ArraysExercise.sol\":1856:1869  recentSenders */\n      dup6\n        /* \"BASE-LEARN/ArraysExercise.sol\":1870:1875  index */\n      dup4\n        /* \"BASE-LEARN/ArraysExercise.sol\":1856:1876  recentSenders[index] */\n      dup2\n      mload\n      dup2\n      lt\n      tag_84\n      jumpi\n      tag_85\n      tag_56\n      jump\t// in\n    tag_85:\n    tag_84:\n      0x20\n      mul\n      0x20\n      add\n      add\n        /* \"BASE-LEARN/ArraysExercise.sol\":1856:1889  recentSenders[index] = senders[i] */\n      swap1\n      0xffffffffffffffffffffffffffffffffffffffff\n      and\n      swap1\n      dup2\n      0xffffffffffffffffffffffffffffffffffffffff\n      and\n      dup2\n      mstore\n      pop\n      pop\n        /* \"BASE-LEARN/ArraysExercise.sol\":1908:1915  index++ */\n      dup2\n      dup1\n      tag_86\n      swap1\n      tag_60\n      jump\t// in\n    tag_86:\n      swap3\n      pop\n      pop\n        /* \"BASE-LEARN/ArraysExercise.sol\":1748:1931  if (timestamps[i] > 946702800) {... */\n    tag_75:\n        /* \"BASE-LEARN/ArraysExercise.sol\":1728:1731  i++ */\n      dup1\n      dup1\n      tag_87\n      swap1\n      tag_60\n      jump\t// in\n    tag_87:\n      swap2\n      pop\n      pop\n        /* \"BASE-LEARN/ArraysExercise.sol\":1696:1942  for (uint256 i = 0; i < length; i++) {... */\n      jump(tag_69)\n    tag_70:\n      pop\n        /* \"BASE-LEARN/ArraysExercise.sol\":1225:1949  {... */\n      pop\n      pop\n      pop\n        /* \"BASE-LEARN/ArraysExercise.sol\":1085:1949  function afterY2K()... */\n      swap1\n      swap2\n      jump\t// out\n        /* \"BASE-LEARN/ArraysExercise.sol\":412:588  function appendToNumbers(uint[] calldata _toAppend) external {... */\n    tag_21:\n        /* \"BASE-LEARN/ArraysExercise.sol\":489:495  uint i */\n      0x00\n        /* \"BASE-LEARN/ArraysExercise.sol\":484:581  for (uint i = 0; i < _toAppend.length; i++) {... */\n    tag_89:\n        /* \"BASE-LEARN/ArraysExercise.sol\":505:514  _toAppend */\n      dup3\n      dup3\n        /* \"BASE-LEARN/ArraysExercise.sol\":505:521  _toAppend.length */\n      swap1\n      pop\n        /* \"BASE-LEARN/ArraysExercise.sol\":501:502  i */\n      dup2\n        /* \"BASE-LEARN/ArraysExercise.sol\":501:521  i < _toAppend.length */\n      lt\n        /* \"BASE-LEARN/ArraysExercise.sol\":484:581  for (uint i = 0; i < _toAppend.length; i++) {... */\n      iszero\n      tag_90\n      jumpi\n        /* \"BASE-LEARN/ArraysExercise.sol\":543:550  numbers */\n      0x00\n        /* \"BASE-LEARN/ArraysExercise.sol\":556:565  _toAppend */\n      dup4\n      dup4\n        /* \"BASE-LEARN/ArraysExercise.sol\":566:567  i */\n      dup4\n        /* \"BASE-LEARN/ArraysExercise.sol\":556:568  _toAppend[i] */\n      dup2\n      dup2\n      lt\n      tag_92\n      jumpi\n      tag_93\n      tag_56\n      jump\t// in\n    tag_93:\n    tag_92:\n      swap1\n      pop\n      0x20\n      mul\n      add\n      calldataload\n        /* \"BASE-LEARN/ArraysExercise.sol\":543:569  numbers.push(_toAppend[i]) */\n      swap1\n      dup1\n      0x01\n      dup2\n      sload\n      add\n      dup1\n      dup3\n      sstore\n      dup1\n      swap2\n      pop\n      pop\n      0x01\n      swap1\n      sub\n      swap1\n      0x00\n      mstore\n      keccak256(0x00, 0x20)\n      add\n      0x00\n      swap1\n      swap2\n      swap1\n      swap2\n      swap1\n      swap2\n      pop\n      sstore\n        /* \"BASE-LEARN/ArraysExercise.sol\":523:526  i++ */\n      dup1\n      dup1\n      tag_95\n      swap1\n      tag_60\n      jump\t// in\n    tag_95:\n      swap2\n      pop\n      pop\n        /* \"BASE-LEARN/ArraysExercise.sol\":484:581  for (uint i = 0; i < _toAppend.length; i++) {... */\n      jump(tag_89)\n    tag_90:\n      pop\n        /* \"BASE-LEARN/ArraysExercise.sol\":412:588  function appendToNumbers(uint[] calldata _toAppend) external {... */\n      pop\n      pop\n      jump\t// out\n        /* \"BASE-LEARN/ArraysExercise.sol\":1994:2058  function resetSenders() public {... */\n    tag_23:\n        /* \"BASE-LEARN/ArraysExercise.sol\":2043:2050  senders */\n      0x01\n      0x00\n        /* \"BASE-LEARN/ArraysExercise.sol\":2036:2050  delete senders */\n      tag_97\n      swap2\n      swap1\n      tag_98\n      jump\t// in\n    tag_97:\n        /* \"BASE-LEARN/ArraysExercise.sol\":1994:2058  function resetSenders() public {... */\n      jump\t// out\n        /* \"BASE-LEARN/ArraysExercise.sol\":596:689  function getNumbers() external view returns (uint[] memory) {... */\n    tag_25:\n        /* \"BASE-LEARN/ArraysExercise.sol\":641:654  uint[] memory */\n      0x60\n        /* \"BASE-LEARN/ArraysExercise.sol\":674:681  numbers */\n      0x00\n        /* \"BASE-LEARN/ArraysExercise.sol\":667:681  return numbers */\n      dup1\n      sload\n      dup1\n      0x20\n      mul\n      0x20\n      add\n      mload(0x40)\n      swap1\n      dup2\n      add\n      0x40\n      mstore\n      dup1\n      swap3\n      swap2\n      swap1\n      dup2\n      dup2\n      mstore\n      0x20\n      add\n      dup3\n      dup1\n      sload\n      dup1\n      iszero\n      tag_100\n      jumpi\n      0x20\n      mul\n      dup3\n      add\n      swap2\n      swap1\n      0x00\n      mstore\n      keccak256(0x00, 0x20)\n      swap1\n    tag_101:\n      dup2\n      sload\n      dup2\n      mstore\n      0x20\n      add\n      swap1\n      0x01\n      add\n      swap1\n      dup1\n      dup4\n      gt\n      tag_101\n      jumpi\n    tag_100:\n      pop\n      pop\n      pop\n      pop\n      pop\n      swap1\n      pop\n        /* \"BASE-LEARN/ArraysExercise.sol\":596:689  function getNumbers() external view returns (uint[] memory) {... */\n      swap1\n      jump\t// out\n        /* \"BASE-LEARN/ArraysExercise.sol\":166:193  uint256[] public timestamps */\n    tag_31:\n      0x02\n      dup2\n      dup2\n      sload\n      dup2\n      lt\n      tag_102\n      jumpi\n      0x00\n      dup1\n      revert\n    tag_102:\n      swap1\n      0x00\n      mstore\n      keccak256(0x00, 0x20)\n      add\n      0x00\n      swap2\n      pop\n      swap1\n      pop\n      sload\n      dup2\n      jump\t// out\n        /* \"BASE-LEARN/ArraysExercise.sol\":135:159  address[] public senders */\n    tag_36:\n      0x01\n      dup2\n      dup2\n      sload\n      dup2\n      lt\n      tag_104\n      jumpi\n      0x00\n      dup1\n      revert\n    tag_104:\n      swap1\n      0x00\n      mstore\n      keccak256(0x00, 0x20)\n      add\n      0x00\n      swap2\n      pop\n      sload\n      swap1\n      0x0100\n      exp\n      swap1\n      div\n      0xffffffffffffffffffffffffffffffffffffffff\n      and\n      dup2\n      jump\t// out\n        /* \"BASE-LEARN/ArraysExercise.sol\":760:899  function saveTimestamp(uint256 _unixTimestamp) public {... */\n    tag_41:\n        /* \"BASE-LEARN/ArraysExercise.sol\":825:832  senders */\n      0x01\n        /* \"BASE-LEARN/ArraysExercise.sol\":838:848  msg.sender */\n      caller\n        /* \"BASE-LEARN/ArraysExercise.sol\":825:849  senders.push(msg.sender) */\n      swap1\n      dup1\n      0x01\n      dup2\n      sload\n      add\n      dup1\n      dup3\n      sstore\n      dup1\n      swap2\n      pop\n      pop\n      0x01\n      swap1\n      sub\n      swap1\n      0x00\n      mstore\n      keccak256(0x00, 0x20)\n      add\n      0x00\n      swap1\n      swap2\n      swap1\n      swap2\n      swap1\n      swap2\n      0x0100\n      exp\n      dup2\n      sload\n      dup2\n      0xffffffffffffffffffffffffffffffffffffffff\n      mul\n      not\n      and\n      swap1\n      dup4\n      0xffffffffffffffffffffffffffffffffffffffff\n      and\n      mul\n      or\n      swap1\n      sstore\n      pop\n        /* \"BASE-LEARN/ArraysExercise.sol\":860:870  timestamps */\n      0x02\n        /* \"BASE-LEARN/ArraysExercise.sol\":876:890  _unixTimestamp */\n      dup2\n        /* \"BASE-LEARN/ArraysExercise.sol\":860:891  timestamps.push(_unixTimestamp) */\n      swap1\n      dup1\n      0x01\n      dup2\n      sload\n      add\n      dup1\n      dup3\n      sstore\n      dup1\n      swap2\n      pop\n      pop\n      0x01\n      swap1\n      sub\n      swap1\n      0x00\n      mstore\n      keccak256(0x00, 0x20)\n      add\n      0x00\n      swap1\n      swap2\n      swap1\n      swap2\n      swap1\n      swap2\n      pop\n      sstore\n        /* \"BASE-LEARN/ArraysExercise.sol\":760:899  function saveTimestamp(uint256 _unixTimestamp) public {... */\n      pop\n      jump\t// out\n        /* \"BASE-LEARN/ArraysExercise.sol\":2106:2176  function resetTimestamps() public {... */\n    tag_43:\n        /* \"BASE-LEARN/ArraysExercise.sol\":2158:2168  timestamps */\n      0x02\n      0x00\n        /* \"BASE-LEARN/ArraysExercise.sol\":2151:2168  delete timestamps */\n      tag_110\n      swap2\n      swap1\n      tag_111\n      jump\t// in\n    tag_110:\n        /* \"BASE-LEARN/ArraysExercise.sol\":2106:2176  function resetTimestamps() public {... */\n      jump\t// out\n        /* \"BASE-LEARN/ArraysExercise.sol\":257:404  function resetNumbers() public {... */\n    tag_45:\n        /* \"BASE-LEARN/ArraysExercise.sol\":306:313  numbers */\n      0x00\n      dup1\n        /* \"BASE-LEARN/ArraysExercise.sol\":299:313  delete numbers */\n      tag_113\n      swap2\n      swap1\n      tag_111\n      jump\t// in\n    tag_113:\n        /* \"BASE-LEARN/ArraysExercise.sol\":329:335  uint i */\n      0x00\n        /* \"BASE-LEARN/ArraysExercise.sol\":338:339  1 */\n      0x01\n        /* \"BASE-LEARN/ArraysExercise.sol\":329:339  uint i = 1 */\n      swap1\n      pop\n        /* \"BASE-LEARN/ArraysExercise.sol\":324:397  for (uint i = 1; i <= 10; i++) {... */\n    tag_114:\n        /* \"BASE-LEARN/ArraysExercise.sol\":346:348  10 */\n      0x0a\n        /* \"BASE-LEARN/ArraysExercise.sol\":341:342  i */\n      dup2\n        /* \"BASE-LEARN/ArraysExercise.sol\":341:348  i <= 10 */\n      gt\n        /* \"BASE-LEARN/ArraysExercise.sol\":324:397  for (uint i = 1; i <= 10; i++) {... */\n      tag_115\n      jumpi\n        /* \"BASE-LEARN/ArraysExercise.sol\":370:377  numbers */\n      0x00\n        /* \"BASE-LEARN/ArraysExercise.sol\":383:384  i */\n      dup2\n        /* \"BASE-LEARN/ArraysExercise.sol\":370:385  numbers.push(i) */\n      swap1\n      dup1\n      0x01\n      dup2\n      sload\n      add\n      dup1\n      dup3\n      sstore\n      dup1\n      swap2\n      pop\n      pop\n      0x01\n      swap1\n      sub\n      swap1\n      0x00\n      mstore\n      keccak256(0x00, 0x20)\n      add\n      0x00\n      swap1\n      swap2\n      swap1\n      swap2\n      swap1\n      swap2\n      pop\n      sstore\n        /* \"BASE-LEARN/ArraysExercise.sol\":350:353  i++ */\n      dup1\n      dup1\n      tag_118\n      swap1\n      tag_60\n      jump\t// in\n    tag_118:\n      swap2\n      pop\n      pop\n        /* \"BASE-LEARN/ArraysExercise.sol\":324:397  for (uint i = 1; i <= 10; i++) {... */\n      jump(tag_114)\n    tag_115:\n      pop\n        /* \"BASE-LEARN/ArraysExercise.sol\":257:404  function resetNumbers() public {... */\n      jump\t// out\n        /* \"BASE-LEARN/ArraysExercise.sol\":104:128  uint256[] public numbers */\n    tag_48:\n      0x00\n      dup2\n      dup2\n      sload\n      dup2\n      lt\n      tag_119\n      jumpi\n      0x00\n      dup1\n      revert\n    tag_119:\n      swap1\n      0x00\n      mstore\n      keccak256(0x00, 0x20)\n      add\n      0x00\n      swap2\n      pop\n      swap1\n      pop\n      sload\n      dup2\n      jump\t// out\n    tag_98:\n      pop\n      dup1\n      sload\n      0x00\n      dup3\n      sstore\n      swap1\n      0x00\n      mstore\n      keccak256(0x00, 0x20)\n      swap1\n      dup2\n      add\n      swap1\n      tag_122\n      swap2\n      swap1\n      tag_123\n      jump\t// in\n    tag_122:\n      pop\n      jump\t// out\n    tag_111:\n      pop\n      dup1\n      sload\n      0x00\n      dup3\n      sstore\n      swap1\n      0x00\n      mstore\n      keccak256(0x00, 0x20)\n      swap1\n      dup2\n      add\n      swap1\n      tag_125\n      swap2\n      swap1\n      tag_123\n      jump\t// in\n    tag_125:\n      pop\n      jump\t// out\n    tag_123:\n    tag_126:\n      dup1\n      dup3\n      gt\n      iszero\n      tag_127\n      jumpi\n      0x00\n      dup2\n      0x00\n      swap1\n      sstore\n      pop\n      0x01\n      add\n      jump(tag_126)\n    tag_127:\n      pop\n      swap1\n      jump\t// out\n        /* \"#utility.yul\":7:121   */\n    tag_128:\n        /* \"#utility.yul\":74:80   */\n      0x00\n        /* \"#utility.yul\":108:113   */\n      dup2\n        /* \"#utility.yul\":102:114   */\n      mload\n        /* \"#utility.yul\":92:114   */\n      swap1\n      pop\n        /* \"#utility.yul\":7:121   */\n      swap2\n      swap1\n      pop\n      jump\t// out\n        /* \"#utility.yul\":127:311   */\n    tag_129:\n        /* \"#utility.yul\":226:237   */\n      0x00\n        /* \"#utility.yul\":260:266   */\n      dup3\n        /* \"#utility.yul\":255:258   */\n      dup3\n        /* \"#utility.yul\":248:267   */\n      mstore\n        /* \"#utility.yul\":300:304   */\n      0x20\n        /* \"#utility.yul\":295:298   */\n      dup3\n        /* \"#utility.yul\":291:305   */\n      add\n        /* \"#utility.yul\":276:305   */\n      swap1\n      pop\n        /* \"#utility.yul\":127:311   */\n      swap3\n      swap2\n      pop\n      pop\n      jump\t// out\n        /* \"#utility.yul\":317:449   */\n    tag_130:\n        /* \"#utility.yul\":384:388   */\n      0x00\n        /* \"#utility.yul\":407:410   */\n      dup2\n        /* \"#utility.yul\":399:410   */\n      swap1\n      pop\n        /* \"#utility.yul\":437:441   */\n      0x20\n        /* \"#utility.yul\":432:435   */\n      dup3\n        /* \"#utility.yul\":428:442   */\n      add\n        /* \"#utility.yul\":420:442   */\n      swap1\n      pop\n        /* \"#utility.yul\":317:449   */\n      swap2\n      swap1\n      pop\n      jump\t// out\n        /* \"#utility.yul\":455:532   */\n    tag_131:\n        /* \"#utility.yul\":492:499   */\n      0x00\n        /* \"#utility.yul\":521:526   */\n      dup2\n        /* \"#utility.yul\":510:526   */\n      swap1\n      pop\n        /* \"#utility.yul\":455:532   */\n      swap2\n      swap1\n      pop\n      jump\t// out\n        /* \"#utility.yul\":538:646   */\n    tag_132:\n        /* \"#utility.yul\":615:639   */\n      tag_163\n        /* \"#utility.yul\":633:638   */\n      dup2\n        /* \"#utility.yul\":615:639   */\n      tag_131\n      jump\t// in\n    tag_163:\n        /* \"#utility.yul\":610:613   */\n      dup3\n        /* \"#utility.yul\":603:640   */\n      mstore\n        /* \"#utility.yul\":538:646   */\n      pop\n      pop\n      jump\t// out\n        /* \"#utility.yul\":652:831   */\n    tag_133:\n        /* \"#utility.yul\":721:731   */\n      0x00\n        /* \"#utility.yul\":742:788   */\n      tag_165\n        /* \"#utility.yul\":784:787   */\n      dup4\n        /* \"#utility.yul\":776:782   */\n      dup4\n        /* \"#utility.yul\":742:788   */\n      tag_132\n      jump\t// in\n    tag_165:\n        /* \"#utility.yul\":820:824   */\n      0x20\n        /* \"#utility.yul\":815:818   */\n      dup4\n        /* \"#utility.yul\":811:825   */\n      add\n        /* \"#utility.yul\":797:825   */\n      swap1\n      pop\n        /* \"#utility.yul\":652:831   */\n      swap3\n      swap2\n      pop\n      pop\n      jump\t// out\n        /* \"#utility.yul\":837:950   */\n    tag_134:\n        /* \"#utility.yul\":907:911   */\n      0x00\n        /* \"#utility.yul\":939:943   */\n      0x20\n        /* \"#utility.yul\":934:937   */\n      dup3\n        /* \"#utility.yul\":930:944   */\n      add\n        /* \"#utility.yul\":922:944   */\n      swap1\n      pop\n        /* \"#utility.yul\":837:950   */\n      swap2\n      swap1\n      pop\n      jump\t// out\n        /* \"#utility.yul\":986:1718   */\n    tag_135:\n        /* \"#utility.yul\":1105:1108   */\n      0x00\n        /* \"#utility.yul\":1134:1188   */\n      tag_168\n        /* \"#utility.yul\":1182:1187   */\n      dup3\n        /* \"#utility.yul\":1134:1188   */\n      tag_128\n      jump\t// in\n    tag_168:\n        /* \"#utility.yul\":1204:1290   */\n      tag_169\n        /* \"#utility.yul\":1283:1289   */\n      dup2\n        /* \"#utility.yul\":1278:1281   */\n      dup6\n        /* \"#utility.yul\":1204:1290   */\n      tag_129\n      jump\t// in\n    tag_169:\n        /* \"#utility.yul\":1197:1290   */\n      swap4\n      pop\n        /* \"#utility.yul\":1314:1370   */\n      tag_170\n        /* \"#utility.yul\":1364:1369   */\n      dup4\n        /* \"#utility.yul\":1314:1370   */\n      tag_130\n      jump\t// in\n    tag_170:\n        /* \"#utility.yul\":1393:1400   */\n      dup1\n        /* \"#utility.yul\":1424:1425   */\n      0x00\n        /* \"#utility.yul\":1409:1693   */\n    tag_171:\n        /* \"#utility.yul\":1434:1440   */\n      dup4\n        /* \"#utility.yul\":1431:1432   */\n      dup2\n        /* \"#utility.yul\":1428:1441   */\n      lt\n        /* \"#utility.yul\":1409:1693   */\n      iszero\n      tag_173\n      jumpi\n        /* \"#utility.yul\":1510:1516   */\n      dup2\n        /* \"#utility.yul\":1504:1517   */\n      mload\n        /* \"#utility.yul\":1537:1600   */\n      tag_174\n        /* \"#utility.yul\":1596:1599   */\n      dup9\n        /* \"#utility.yul\":1581:1594   */\n      dup3\n        /* \"#utility.yul\":1537:1600   */\n      tag_133\n      jump\t// in\n    tag_174:\n        /* \"#utility.yul\":1530:1600   */\n      swap8\n      pop\n        /* \"#utility.yul\":1623:1683   */\n      tag_175\n        /* \"#utility.yul\":1676:1682   */\n      dup4\n        /* \"#utility.yul\":1623:1683   */\n      tag_134\n      jump\t// in\n    tag_175:\n        /* \"#utility.yul\":1613:1683   */\n      swap3\n      pop\n        /* \"#utility.yul\":1469:1693   */\n      pop\n        /* \"#utility.yul\":1456:1457   */\n      0x01\n        /* \"#utility.yul\":1453:1454   */\n      dup2\n        /* \"#utility.yul\":1449:1458   */\n      add\n        /* \"#utility.yul\":1444:1458   */\n      swap1\n      pop\n        /* \"#utility.yul\":1409:1693   */\n      jump(tag_171)\n    tag_173:\n        /* \"#utility.yul\":1413:1427   */\n      pop\n        /* \"#utility.yul\":1709:1712   */\n      dup6\n        /* \"#utility.yul\":1702:1712   */\n      swap4\n      pop\n        /* \"#utility.yul\":1110:1718   */\n      pop\n      pop\n      pop\n        /* \"#utility.yul\":986:1718   */\n      swap3\n      swap2\n      pop\n      pop\n      jump\t// out\n        /* \"#utility.yul\":1724:1838   */\n    tag_136:\n        /* \"#utility.yul\":1791:1797   */\n      0x00\n        /* \"#utility.yul\":1825:1830   */\n      dup2\n        /* \"#utility.yul\":1819:1831   */\n      mload\n        /* \"#utility.yul\":1809:1831   */\n      swap1\n      pop\n        /* \"#utility.yul\":1724:1838   */\n      swap2\n      swap1\n      pop\n      jump\t// out\n        /* \"#utility.yul\":1844:2028   */\n    tag_137:\n        /* \"#utility.yul\":1943:1954   */\n      0x00\n        /* \"#utility.yul\":1977:1983   */\n      dup3\n        /* \"#utility.yul\":1972:1975   */\n      dup3\n        /* \"#utility.yul\":1965:1984   */\n      mstore\n        /* \"#utility.yul\":2017:2021   */\n      0x20\n        /* \"#utility.yul\":2012:2015   */\n      dup3\n        /* \"#utility.yul\":2008:2022   */\n      add\n        /* \"#utility.yul\":1993:2022   */\n      swap1\n      pop\n        /* \"#utility.yul\":1844:2028   */\n      swap3\n      swap2\n      pop\n      pop\n      jump\t// out\n        /* \"#utility.yul\":2034:2166   */\n    tag_138:\n        /* \"#utility.yul\":2101:2105   */\n      0x00\n        /* \"#utility.yul\":2124:2127   */\n      dup2\n        /* \"#utility.yul\":2116:2127   */\n      swap1\n      pop\n        /* \"#utility.yul\":2154:2158   */\n      0x20\n        /* \"#utility.yul\":2149:2152   */\n      dup3\n        /* \"#utility.yul\":2145:2159   */\n      add\n        /* \"#utility.yul\":2137:2159   */\n      swap1\n      pop\n        /* \"#utility.yul\":2034:2166   */\n      swap2\n      swap1\n      pop\n      jump\t// out\n        /* \"#utility.yul\":2172:2298   */\n    tag_139:\n        /* \"#utility.yul\":2209:2216   */\n      0x00\n        /* \"#utility.yul\":2249:2291   */\n      0xffffffffffffffffffffffffffffffffffffffff\n        /* \"#utility.yul\":2242:2247   */\n      dup3\n        /* \"#utility.yul\":2238:2292   */\n      and\n        /* \"#utility.yul\":2227:2292   */\n      swap1\n      pop\n        /* \"#utility.yul\":2172:2298   */\n      swap2\n      swap1\n      pop\n      jump\t// out\n        /* \"#utility.yul\":2304:2400   */\n    tag_140:\n        /* \"#utility.yul\":2341:2348   */\n      0x00\n        /* \"#utility.yul\":2370:2394   */\n      tag_181\n        /* \"#utility.yul\":2388:2393   */\n      dup3\n        /* \"#utility.yul\":2370:2394   */\n      tag_139\n      jump\t// in\n    tag_181:\n        /* \"#utility.yul\":2359:2394   */\n      swap1\n      pop\n        /* \"#utility.yul\":2304:2400   */\n      swap2\n      swap1\n      pop\n      jump\t// out\n        /* \"#utility.yul\":2406:2514   */\n    tag_141:\n        /* \"#utility.yul\":2483:2507   */\n      tag_183\n        /* \"#utility.yul\":2501:2506   */\n      dup2\n        /* \"#utility.yul\":2483:2507   */\n      tag_140\n      jump\t// in\n    tag_183:\n        /* \"#utility.yul\":2478:2481   */\n      dup3\n        /* \"#utility.yul\":2471:2508   */\n      mstore\n        /* \"#utility.yul\":2406:2514   */\n      pop\n      pop\n      jump\t// out\n        /* \"#utility.yul\":2520:2699   */\n    tag_142:\n        /* \"#utility.yul\":2589:2599   */\n      0x00\n        /* \"#utility.yul\":2610:2656   */\n      tag_185\n        /* \"#utility.yul\":2652:2655   */\n      dup4\n        /* \"#utility.yul\":2644:2650   */\n      dup4\n        /* \"#utility.yul\":2610:2656   */\n      tag_141\n      jump\t// in\n    tag_185:\n        /* \"#utility.yul\":2688:2692   */\n      0x20\n        /* \"#utility.yul\":2683:2686   */\n      dup4\n        /* \"#utility.yul\":2679:2693   */\n      add\n        /* \"#utility.yul\":2665:2693   */\n      swap1\n      pop\n        /* \"#utility.yul\":2520:2699   */\n      swap3\n      swap2\n      pop\n      pop\n      jump\t// out\n        /* \"#utility.yul\":2705:2818   */\n    tag_143:\n        /* \"#utility.yul\":2775:2779   */\n      0x00\n        /* \"#utility.yul\":2807:2811   */\n      0x20\n        /* \"#utility.yul\":2802:2805   */\n      dup3\n        /* \"#utility.yul\":2798:2812   */\n      add\n        /* \"#utility.yul\":2790:2812   */\n      swap1\n      pop\n        /* \"#utility.yul\":2705:2818   */\n      swap2\n      swap1\n      pop\n      jump\t// out\n        /* \"#utility.yul\":2854:3586   */\n    tag_144:\n        /* \"#utility.yul\":2973:2976   */\n      0x00\n        /* \"#utility.yul\":3002:3056   */\n      tag_188\n        /* \"#utility.yul\":3050:3055   */\n      dup3\n        /* \"#utility.yul\":3002:3056   */\n      tag_136\n      jump\t// in\n    tag_188:\n        /* \"#utility.yul\":3072:3158   */\n      tag_189\n        /* \"#utility.yul\":3151:3157   */\n      dup2\n        /* \"#utility.yul\":3146:3149   */\n      dup6\n        /* \"#utility.yul\":3072:3158   */\n      tag_137\n      jump\t// in\n    tag_189:\n        /* \"#utility.yul\":3065:3158   */\n      swap4\n      pop\n        /* \"#utility.yul\":3182:3238   */\n      tag_190\n        /* \"#utility.yul\":3232:3237   */\n      dup4\n        /* \"#utility.yul\":3182:3238   */\n      tag_138\n      jump\t// in\n    tag_190:\n        /* \"#utility.yul\":3261:3268   */\n      dup1\n        /* \"#utility.yul\":3292:3293   */\n      0x00\n        /* \"#utility.yul\":3277:3561   */\n    tag_191:\n        /* \"#utility.yul\":3302:3308   */\n      dup4\n        /* \"#utility.yul\":3299:3300   */\n      dup2\n        /* \"#utility.yul\":3296:3309   */\n      lt\n        /* \"#utility.yul\":3277:3561   */\n      iszero\n      tag_193\n      jumpi\n        /* \"#utility.yul\":3378:3384   */\n      dup2\n        /* \"#utility.yul\":3372:3385   */\n      mload\n        /* \"#utility.yul\":3405:3468   */\n      tag_194\n        /* \"#utility.yul\":3464:3467   */\n      dup9\n        /* \"#utility.yul\":3449:3462   */\n      dup3\n        /* \"#utility.yul\":3405:3468   */\n      tag_142\n      jump\t// in\n    tag_194:\n        /* \"#utility.yul\":3398:3468   */\n      swap8\n      pop\n        /* \"#utility.yul\":3491:3551   */\n      tag_195\n        /* \"#utility.yul\":3544:3550   */\n      dup4\n        /* \"#utility.yul\":3491:3551   */\n      tag_143\n      jump\t// in\n    tag_195:\n        /* \"#utility.yul\":3481:3551   */\n      swap3\n      pop\n        /* \"#utility.yul\":3337:3561   */\n      pop\n        /* \"#utility.yul\":3324:3325   */\n      0x01\n        /* \"#utility.yul\":3321:3322   */\n      dup2\n        /* \"#utility.yul\":3317:3326   */\n      add\n        /* \"#utility.yul\":3312:3326   */\n      swap1\n      pop\n        /* \"#utility.yul\":3277:3561   */\n      jump(tag_191)\n    tag_193:\n        /* \"#utility.yul\":3281:3295   */\n      pop\n        /* \"#utility.yul\":3577:3580   */\n      dup6\n        /* \"#utility.yul\":3570:3580   */\n      swap4\n      pop\n        /* \"#utility.yul\":2978:3586   */\n      pop\n      pop\n      pop\n        /* \"#utility.yul\":2854:3586   */\n      swap3\n      swap2\n      pop\n      pop\n      jump\t// out\n        /* \"#utility.yul\":3592:4226   */\n    tag_17:\n        /* \"#utility.yul\":3813:3817   */\n      0x00\n        /* \"#utility.yul\":3851:3853   */\n      0x40\n        /* \"#utility.yul\":3840:3849   */\n      dup3\n        /* \"#utility.yul\":3836:3854   */\n      add\n        /* \"#utility.yul\":3828:3854   */\n      swap1\n      pop\n        /* \"#utility.yul\":3900:3909   */\n      dup2\n        /* \"#utility.yul\":3894:3898   */\n      dup2\n        /* \"#utility.yul\":3890:3910   */\n      sub\n        /* \"#utility.yul\":3886:3887   */\n      0x00\n        /* \"#utility.yul\":3875:3884   */\n      dup4\n        /* \"#utility.yul\":3871:3888   */\n      add\n        /* \"#utility.yul\":3864:3911   */\n      mstore\n        /* \"#utility.yul\":3928:4036   */\n      tag_197\n        /* \"#utility.yul\":4031:4035   */\n      dup2\n        /* \"#utility.yul\":4022:4028   */\n      dup6\n        /* \"#utility.yul\":3928:4036   */\n      tag_135\n      jump\t// in\n    tag_197:\n        /* \"#utility.yul\":3920:4036   */\n      swap1\n      pop\n        /* \"#utility.yul\":4083:4092   */\n      dup2\n        /* \"#utility.yul\":4077:4081   */\n      dup2\n        /* \"#utility.yul\":4073:4093   */\n      sub\n        /* \"#utility.yul\":4068:4070   */\n      0x20\n        /* \"#utility.yul\":4057:4066   */\n      dup4\n        /* \"#utility.yul\":4053:4071   */\n      add\n        /* \"#utility.yul\":4046:4094   */\n      mstore\n        /* \"#utility.yul\":4111:4219   */\n      tag_198\n        /* \"#utility.yul\":4214:4218   */\n      dup2\n        /* \"#utility.yul\":4205:4211   */\n      dup5\n        /* \"#utility.yul\":4111:4219   */\n      tag_144\n      jump\t// in\n    tag_198:\n        /* \"#utility.yul\":4103:4219   */\n      swap1\n      pop\n        /* \"#utility.yul\":3592:4226   */\n      swap4\n      swap3\n      pop\n      pop\n      pop\n      jump\t// out\n        /* \"#utility.yul\":4313:4430   */\n    tag_146:\n        /* \"#utility.yul\":4422:4423   */\n      0x00\n        /* \"#utility.yul\":4419:4420   */\n      dup1\n        /* \"#utility.yul\":4412:4424   */\n      revert\n        /* \"#utility.yul\":4436:4553   */\n    tag_147:\n        /* \"#utility.yul\":4545:4546   */\n      0x00\n        /* \"#utility.yul\":4542:4543   */\n      dup1\n        /* \"#utility.yul\":4535:4547   */\n      revert\n        /* \"#utility.yul\":4559:4676   */\n    tag_148:\n        /* \"#utility.yul\":4668:4669   */\n      0x00\n        /* \"#utility.yul\":4665:4666   */\n      dup1\n        /* \"#utility.yul\":4658:4670   */\n      revert\n        /* \"#utility.yul\":4682:4799   */\n    tag_149:\n        /* \"#utility.yul\":4791:4792   */\n      0x00\n        /* \"#utility.yul\":4788:4789   */\n      dup1\n        /* \"#utility.yul\":4781:4793   */\n      revert\n        /* \"#utility.yul\":4805:4922   */\n    tag_150:\n        /* \"#utility.yul\":4914:4915   */\n      0x00\n        /* \"#utility.yul\":4911:4912   */\n      dup1\n        /* \"#utility.yul\":4904:4916   */\n      revert\n        /* \"#utility.yul\":4945:5513   */\n    tag_151:\n        /* \"#utility.yul\":5018:5026   */\n      0x00\n        /* \"#utility.yul\":5028:5034   */\n      dup1\n        /* \"#utility.yul\":5078:5081   */\n      dup4\n        /* \"#utility.yul\":5071:5075   */\n      0x1f\n        /* \"#utility.yul\":5063:5069   */\n      dup5\n        /* \"#utility.yul\":5059:5076   */\n      add\n        /* \"#utility.yul\":5055:5082   */\n      slt\n        /* \"#utility.yul\":5045:5167   */\n      tag_206\n      jumpi\n        /* \"#utility.yul\":5086:5165   */\n      tag_207\n      tag_148\n      jump\t// in\n    tag_207:\n        /* \"#utility.yul\":5045:5167   */\n    tag_206:\n        /* \"#utility.yul\":5199:5205   */\n      dup3\n        /* \"#utility.yul\":5186:5206   */\n      calldataload\n        /* \"#utility.yul\":5176:5206   */\n      swap1\n      pop\n        /* \"#utility.yul\":5229:5247   */\n      0xffffffffffffffff\n        /* \"#utility.yul\":5221:5227   */\n      dup2\n        /* \"#utility.yul\":5218:5248   */\n      gt\n        /* \"#utility.yul\":5215:5332   */\n      iszero\n      tag_208\n      jumpi\n        /* \"#utility.yul\":5251:5330   */\n      tag_209\n      tag_149\n      jump\t// in\n    tag_209:\n        /* \"#utility.yul\":5215:5332   */\n    tag_208:\n        /* \"#utility.yul\":5365:5369   */\n      0x20\n        /* \"#utility.yul\":5357:5363   */\n      dup4\n        /* \"#utility.yul\":5353:5370   */\n      add\n        /* \"#utility.yul\":5341:5370   */\n      swap2\n      pop\n        /* \"#utility.yul\":5419:5422   */\n      dup4\n        /* \"#utility.yul\":5411:5415   */\n      0x20\n        /* \"#utility.yul\":5403:5409   */\n      dup3\n        /* \"#utility.yul\":5399:5416   */\n      mul\n        /* \"#utility.yul\":5389:5397   */\n      dup4\n        /* \"#utility.yul\":5385:5417   */\n      add\n        /* \"#utility.yul\":5382:5423   */\n      gt\n        /* \"#utility.yul\":5379:5507   */\n      iszero\n      tag_210\n      jumpi\n        /* \"#utility.yul\":5426:5505   */\n      tag_211\n      tag_150\n      jump\t// in\n    tag_211:\n        /* \"#utility.yul\":5379:5507   */\n    tag_210:\n        /* \"#utility.yul\":4945:5513   */\n      swap3\n      pop\n      swap3\n      swap1\n      pop\n      jump\t// out\n        /* \"#utility.yul\":5519:6078   */\n    tag_20:\n        /* \"#utility.yul\":5605:5611   */\n      0x00\n        /* \"#utility.yul\":5613:5619   */\n      dup1\n        /* \"#utility.yul\":5662:5664   */\n      0x20\n        /* \"#utility.yul\":5650:5659   */\n      dup4\n        /* \"#utility.yul\":5641:5648   */\n      dup6\n        /* \"#utility.yul\":5637:5660   */\n      sub\n        /* \"#utility.yul\":5633:5665   */\n      slt\n        /* \"#utility.yul\":5630:5749   */\n      iszero\n      tag_213\n      jumpi\n        /* \"#utility.yul\":5668:5747   */\n      tag_214\n      tag_146\n      jump\t// in\n    tag_214:\n        /* \"#utility.yul\":5630:5749   */\n    tag_213:\n        /* \"#utility.yul\":5816:5817   */\n      0x00\n        /* \"#utility.yul\":5805:5814   */\n      dup4\n        /* \"#utility.yul\":5801:5818   */\n      add\n        /* \"#utility.yul\":5788:5819   */\n      calldataload\n        /* \"#utility.yul\":5846:5864   */\n      0xffffffffffffffff\n        /* \"#utility.yul\":5838:5844   */\n      dup2\n        /* \"#utility.yul\":5835:5865   */\n      gt\n        /* \"#utility.yul\":5832:5949   */\n      iszero\n      tag_215\n      jumpi\n        /* \"#utility.yul\":5868:5947   */\n      tag_216\n      tag_147\n      jump\t// in\n    tag_216:\n        /* \"#utility.yul\":5832:5949   */\n    tag_215:\n        /* \"#utility.yul\":5981:6061   */\n      tag_217\n        /* \"#utility.yul\":6053:6060   */\n      dup6\n        /* \"#utility.yul\":6044:6050   */\n      dup3\n        /* \"#utility.yul\":6033:6042   */\n      dup7\n        /* \"#utility.yul\":6029:6051   */\n      add\n        /* \"#utility.yul\":5981:6061   */\n      tag_151\n      jump\t// in\n    tag_217:\n        /* \"#utility.yul\":5963:6061   */\n      swap3\n      pop\n      swap3\n      pop\n        /* \"#utility.yul\":5759:6071   */\n      pop\n        /* \"#utility.yul\":5519:6078   */\n      swap3\n      pop\n      swap3\n      swap1\n      pop\n      jump\t// out\n        /* \"#utility.yul\":6084:6457   */\n    tag_27:\n        /* \"#utility.yul\":6227:6231   */\n      0x00\n        /* \"#utility.yul\":6265:6267   */\n      0x20\n        /* \"#utility.yul\":6254:6263   */\n      dup3\n        /* \"#utility.yul\":6250:6268   */\n      add\n        /* \"#utility.yul\":6242:6268   */\n      swap1\n      pop\n        /* \"#utility.yul\":6314:6323   */\n      dup2\n        /* \"#utility.yul\":6308:6312   */\n      dup2\n        /* \"#utility.yul\":6304:6324   */\n      sub\n        /* \"#utility.yul\":6300:6301   */\n      0x00\n        /* \"#utility.yul\":6289:6298   */\n      dup4\n        /* \"#utility.yul\":6285:6302   */\n      add\n        /* \"#utility.yul\":6278:6325   */\n      mstore\n        /* \"#utility.yul\":6342:6450   */\n      tag_219\n        /* \"#utility.yul\":6445:6449   */\n      dup2\n        /* \"#utility.yul\":6436:6442   */\n      dup5\n        /* \"#utility.yul\":6342:6450   */\n      tag_135\n      jump\t// in\n    tag_219:\n        /* \"#utility.yul\":6334:6450   */\n      swap1\n      pop\n        /* \"#utility.yul\":6084:6457   */\n      swap3\n      swap2\n      pop\n      pop\n      jump\t// out\n        /* \"#utility.yul\":6463:6585   */\n    tag_152:\n        /* \"#utility.yul\":6536:6560   */\n      tag_221\n        /* \"#utility.yul\":6554:6559   */\n      dup2\n        /* \"#utility.yul\":6536:6560   */\n      tag_131\n      jump\t// in\n    tag_221:\n        /* \"#utility.yul\":6529:6534   */\n      dup2\n        /* \"#utility.yul\":6526:6561   */\n      eq\n        /* \"#utility.yul\":6516:6579   */\n      tag_222\n      jumpi\n        /* \"#utility.yul\":6575:6576   */\n      0x00\n        /* \"#utility.yul\":6572:6573   */\n      dup1\n        /* \"#utility.yul\":6565:6577   */\n      revert\n        /* \"#utility.yul\":6516:6579   */\n    tag_222:\n        /* \"#utility.yul\":6463:6585   */\n      pop\n      jump\t// out\n        /* \"#utility.yul\":6591:6730   */\n    tag_153:\n        /* \"#utility.yul\":6637:6642   */\n      0x00\n        /* \"#utility.yul\":6675:6681   */\n      dup2\n        /* \"#utility.yul\":6662:6682   */\n      calldataload\n        /* \"#utility.yul\":6653:6682   */\n      swap1\n      pop\n        /* \"#utility.yul\":6691:6724   */\n      tag_224\n        /* \"#utility.yul\":6718:6723   */\n      dup2\n        /* \"#utility.yul\":6691:6724   */\n      tag_152\n      jump\t// in\n    tag_224:\n        /* \"#utility.yul\":6591:6730   */\n      swap3\n      swap2\n      pop\n      pop\n      jump\t// out\n        /* \"#utility.yul\":6736:7065   */\n    tag_30:\n        /* \"#utility.yul\":6795:6801   */\n      0x00\n        /* \"#utility.yul\":6844:6846   */\n      0x20\n        /* \"#utility.yul\":6832:6841   */\n      dup3\n        /* \"#utility.yul\":6823:6830   */\n      dup5\n        /* \"#utility.yul\":6819:6842   */\n      sub\n        /* \"#utility.yul\":6815:6847   */\n      slt\n        /* \"#utility.yul\":6812:6931   */\n      iszero\n      tag_226\n      jumpi\n        /* \"#utility.yul\":6850:6929   */\n      tag_227\n      tag_146\n      jump\t// in\n    tag_227:\n        /* \"#utility.yul\":6812:6931   */\n    tag_226:\n        /* \"#utility.yul\":6970:6971   */\n      0x00\n        /* \"#utility.yul\":6995:7048   */\n      tag_228\n        /* \"#utility.yul\":7040:7047   */\n      dup5\n        /* \"#utility.yul\":7031:7037   */\n      dup3\n        /* \"#utility.yul\":7020:7029   */\n      dup6\n        /* \"#utility.yul\":7016:7038   */\n      add\n        /* \"#utility.yul\":6995:7048   */\n      tag_153\n      jump\t// in\n    tag_228:\n        /* \"#utility.yul\":6985:7048   */\n      swap2\n      pop\n        /* \"#utility.yul\":6941:7058   */\n      pop\n        /* \"#utility.yul\":6736:7065   */\n      swap3\n      swap2\n      pop\n      pop\n      jump\t// out\n        /* \"#utility.yul\":7071:7189   */\n    tag_154:\n        /* \"#utility.yul\":7158:7182   */\n      tag_230\n        /* \"#utility.yul\":7176:7181   */\n      dup2\n        /* \"#utility.yul\":7158:7182   */\n      tag_131\n      jump\t// in\n    tag_230:\n        /* \"#utility.yul\":7153:7156   */\n      dup3\n        /* \"#utility.yul\":7146:7183   */\n      mstore\n        /* \"#utility.yul\":7071:7189   */\n      pop\n      pop\n      jump\t// out\n        /* \"#utility.yul\":7195:7417   */\n    tag_33:\n        /* \"#utility.yul\":7288:7292   */\n      0x00\n        /* \"#utility.yul\":7326:7328   */\n      0x20\n        /* \"#utility.yul\":7315:7324   */\n      dup3\n        /* \"#utility.yul\":7311:7329   */\n      add\n        /* \"#utility.yul\":7303:7329   */\n      swap1\n      pop\n        /* \"#utility.yul\":7339:7410   */\n      tag_232\n        /* \"#utility.yul\":7407:7408   */\n      0x00\n        /* \"#utility.yul\":7396:7405   */\n      dup4\n        /* \"#utility.yul\":7392:7409   */\n      add\n        /* \"#utility.yul\":7383:7389   */\n      dup5\n        /* \"#utility.yul\":7339:7410   */\n      tag_154\n      jump\t// in\n    tag_232:\n        /* \"#utility.yul\":7195:7417   */\n      swap3\n      swap2\n      pop\n      pop\n      jump\t// out\n        /* \"#utility.yul\":7423:7541   */\n    tag_155:\n        /* \"#utility.yul\":7510:7534   */\n      tag_234\n        /* \"#utility.yul\":7528:7533   */\n      dup2\n        /* \"#utility.yul\":7510:7534   */\n      tag_140\n      jump\t// in\n    tag_234:\n        /* \"#utility.yul\":7505:7508   */\n      dup3\n        /* \"#utility.yul\":7498:7535   */\n      mstore\n        /* \"#utility.yul\":7423:7541   */\n      pop\n      pop\n      jump\t// out\n        /* \"#utility.yul\":7547:7769   */\n    tag_38:\n        /* \"#utility.yul\":7640:7644   */\n      0x00\n        /* \"#utility.yul\":7678:7680   */\n      0x20\n        /* \"#utility.yul\":7667:7676   */\n      dup3\n        /* \"#utility.yul\":7663:7681   */\n      add\n        /* \"#utility.yul\":7655:7681   */\n      swap1\n      pop\n        /* \"#utility.yul\":7691:7762   */\n      tag_236\n        /* \"#utility.yul\":7759:7760   */\n      0x00\n        /* \"#utility.yul\":7748:7757   */\n      dup4\n        /* \"#utility.yul\":7744:7761   */\n      add\n        /* \"#utility.yul\":7735:7741   */\n      dup5\n        /* \"#utility.yul\":7691:7762   */\n      tag_155\n      jump\t// in\n    tag_236:\n        /* \"#utility.yul\":7547:7769   */\n      swap3\n      swap2\n      pop\n      pop\n      jump\t// out\n        /* \"#utility.yul\":7775:7955   */\n    tag_56:\n        /* \"#utility.yul\":7823:7900   */\n      0x4e487b7100000000000000000000000000000000000000000000000000000000\n        /* \"#utility.yul\":7820:7821   */\n      0x00\n        /* \"#utility.yul\":7813:7901   */\n      mstore\n        /* \"#utility.yul\":7920:7924   */\n      0x32\n        /* \"#utility.yul\":7917:7918   */\n      0x04\n        /* \"#utility.yul\":7910:7925   */\n      mstore\n        /* \"#utility.yul\":7944:7948   */\n      0x24\n        /* \"#utility.yul\":7941:7942   */\n      0x00\n        /* \"#utility.yul\":7934:7949   */\n      revert\n        /* \"#utility.yul\":7961:8141   */\n    tag_156:\n        /* \"#utility.yul\":8009:8086   */\n      0x4e487b7100000000000000000000000000000000000000000000000000000000\n        /* \"#utility.yul\":8006:8007   */\n      0x00\n        /* \"#utility.yul\":7999:8087   */\n      mstore\n        /* \"#utility.yul\":8106:8110   */\n      0x11\n        /* \"#utility.yul\":8103:8104   */\n      0x04\n        /* \"#utility.yul\":8096:8111   */\n      mstore\n        /* \"#utility.yul\":8130:8134   */\n      0x24\n        /* \"#utility.yul\":8127:8128   */\n      0x00\n        /* \"#utility.yul\":8120:8135   */\n      revert\n        /* \"#utility.yul\":8147:8380   */\n    tag_60:\n        /* \"#utility.yul\":8186:8189   */\n      0x00\n        /* \"#utility.yul\":8209:8233   */\n      tag_240\n        /* \"#utility.yul\":8227:8232   */\n      dup3\n        /* \"#utility.yul\":8209:8233   */\n      tag_131\n      jump\t// in\n    tag_240:\n        /* \"#utility.yul\":8200:8233   */\n      swap2\n      pop\n        /* \"#utility.yul\":8255:8321   */\n      0xffffffffffffffffffffffffffffffffffffffffffffffffffffffffffffffff\n        /* \"#utility.yul\":8248:8253   */\n      dup3\n        /* \"#utility.yul\":8245:8322   */\n      sub\n        /* \"#utility.yul\":8242:8345   */\n      tag_241\n      jumpi\n        /* \"#utility.yul\":8325:8343   */\n      tag_242\n      tag_156\n      jump\t// in\n    tag_242:\n        /* \"#utility.yul\":8242:8345   */\n    tag_241:\n        /* \"#utility.yul\":8372:8373   */\n      0x01\n        /* \"#utility.yul\":8365:8370   */\n      dup3\n        /* \"#utility.yul\":8361:8374   */\n      add\n        /* \"#utility.yul\":8354:8374   */\n      swap1\n      pop\n        /* \"#utility.yul\":8147:8380   */\n      swap2\n      swap1\n      pop\n      jump\t// out\n        /* \"#utility.yul\":8386:8566   */\n    tag_64:\n        /* \"#utility.yul\":8434:8511   */\n      0x4e487b7100000000000000000000000000000000000000000000000000000000\n        /* \"#utility.yul\":8431:8432   */\n      0x00\n        /* \"#utility.yul\":8424:8512   */\n      mstore\n        /* \"#utility.yul\":8531:8535   */\n      0x41\n        /* \"#utility.yul\":8528:8529   */\n      0x04\n        /* \"#utility.yul\":8521:8536   */\n      mstore\n        /* \"#utility.yul\":8555:8559   */\n      0x24\n        /* \"#utility.yul\":8552:8553   */\n      0x00\n        /* \"#utility.yul\":8545:8560   */\n      revert\n\n    auxdata: 0xa2646970667358221220b76e759327952bb1bac8b6054206edfeb4eff3a7318ef6ac9b2ada30aaaa4e7064736f6c63430008140033\n}\n",
				"bytecode": {
					"linkReferences": {},
					"object": "608060405234801561000f575f80fd5b5061001e61002360201b60201c565b61012e565b5f8061002f9190610078565b5f600190505b600a8111610075575f81908060018154018082558091505060019003905f5260205f20015f9091909190915055808061006d906100e7565b915050610035565b50565b5080545f8255905f5260205f20908101906100939190610096565b50565b5b808211156100ad575f815f905550600101610097565b5090565b7f4e487b71000000000000000000000000000000000000000000000000000000005f52601160045260245ffd5b5f819050919050565b5f6100f1826100de565b91507fffffffffffffffffffffffffffffffffffffffffffffffffffffffffffffffff8203610123576101226100b1565b5b600182019050919050565b610abb8061013b5f395ff3fe608060405234801561000f575f80fd5b506004361061009c575f3560e01c80639977c78a116100645780639977c78a14610133578063a00b7acd14610163578063ade82bfd1461017f578063b1cebac514610189578063d39fa233146101935761009c565b806320aaf79a146100a05780634f9377db146100bf5780637f66b1b8146100db57806389f915f6146100e55780638bc33af314610103575b5f80fd5b6100a86101c3565b6040516100b6929190610809565b60405180910390f35b6100d960048036038101906100d491906108a7565b6103dd565b005b6100e3610440565b005b6100ed61044f565b6040516100fa91906108f2565b60405180910390f35b61011d6004803603810190610118919061093c565b6104a4565b60405161012a9190610976565b60405180910390f35b61014d6004803603810190610148919061093c565b6104c4565b60405161015a919061099e565b60405180910390f35b61017d6004803603810190610178919061093c565b6104ff565b005b610187610588565b005b610191610597565b005b6101ad60048036038101906101a8919061093c565b6105ec565b6040516101ba9190610976565b60405180910390f35b6060805f8060028054905090505f5b818110156102245763386d89d0600282815481106101f3576101f26109b7565b5b905f5260205f200154111561021157828061020d90610a11565b9350505b808061021c90610a11565b9150506101d2565b508167ffffffffffffffff81111561023f5761023e610a58565b5b60405190808252806020026020018201604052801561026d5781602001602082028036833780820191505090505b5093508167ffffffffffffffff81111561028a57610289610a58565b5b6040519080825280602002602001820160405280156102b85781602001602082028036833780820191505090505b5092505f805b828110156103d55763386d89d0600282815481106102df576102de6109b7565b5b905f5260205f20015411156103c25760028181548110610302576103016109b7565b5b905f5260205f20015486838151811061031e5761031d6109b7565b5b6020026020010181815250506001818154811061033e5761033d6109b7565b5b905f5260205f20015f9054906101000a900473ffffffffffffffffffffffffffffffffffffffff16858381518110610379576103786109b7565b5b602002602001019073ffffffffffffffffffffffffffffffffffffffff16908173ffffffffffffffffffffffffffffffffffffffff168152505081806103be90610a11565b9250505b80806103cd90610a11565b9150506102be565b505050509091565b5f5b8282905081101561043b575f8383838181106103fe576103fd6109b7565b5b90506020020135908060018154018082558091505060019003905f5260205f20015f9091909190915055808061043390610a11565b9150506103df565b505050565b60015f61044d919061060b565b565b60605f80548060200260200160405190810160405280929190818152602001828054801561049a57602002820191905f5260205f20905b815481526020019060010190808311610486575b5050505050905090565b600281815481106104b3575f80fd5b905f5260205f20015f915090505481565b600181815481106104d3575f80fd5b905f5260205f20015f915054906101000a900473ffffffffffffffffffffffffffffffffffffffff1681565b600133908060018154018082558091505060019003905f5260205f20015f9091909190916101000a81548173ffffffffffffffffffffffffffffffffffffffff021916908373ffffffffffffffffffffffffffffffffffffffff160217905550600281908060018154018082558091505060019003905f5260205f20015f909190919091505550565b60025f6105959190610629565b565b5f806105a39190610629565b5f600190505b600a81116105e9575f81908060018154018082558091505060019003905f5260205f20015f909190919091505580806105e190610a11565b9150506105a9565b50565b5f81815481106105fa575f80fd5b905f5260205f20015f915090505481565b5080545f8255905f5260205f20908101906106269190610647565b50565b5080545f8255905f5260205f20908101906106449190610647565b50565b5b8082111561065e575f815f905550600101610648565b5090565b5f81519050919050565b5f82825260208201905092915050565b5f819050602082019050919050565b5f819050919050565b61069d8161068b565b82525050565b5f6106ae8383610694565b60208301905092915050565b5f602082019050919050565b5f6106d082610662565b6106da818561066c565b93506106e58361067c565b805f5b838110156107155781516106fc88826106a3565b9750610707836106ba565b9250506001810190506106e8565b5085935050505092915050565b5f81519050919050565b5f82825260208201905092915050565b5f819050602082019050919050565b5f73ffffffffffffffffffffffffffffffffffffffff82169050919050565b5f6107748261074b565b9050919050565b6107848161076a565b82525050565b5f610795838361077b565b60208301905092915050565b5f602082019050919050565b5f6107b782610722565b6107c1818561072c565b93506107cc8361073c565b805f5b838110156107fc5781516107e3888261078a565b97506107ee836107a1565b9250506001810190506107cf565b5085935050505092915050565b5f6040820190508181035f83015261082181856106c6565b9050818103602083015261083581846107ad565b90509392505050565b5f80fd5b5f80fd5b5f80fd5b5f80fd5b5f80fd5b5f8083601f84011261086757610866610846565b5b8235905067ffffffffffffffff8111156108845761088361084a565b5b6020830191508360208202830111156108a05761089f61084e565b5b9250929050565b5f80602083850312156108bd576108bc61083e565b5b5f83013567ffffffffffffffff8111156108da576108d9610842565b5b6108e685828601610852565b92509250509250929050565b5f6020820190508181035f83015261090a81846106c6565b905092915050565b61091b8161068b565b8114610925575f80fd5b50565b5f8135905061093681610912565b92915050565b5f602082840312156109515761095061083e565b5b5f61095e84828501610928565b91505092915050565b6109708161068b565b82525050565b5f6020820190506109895f830184610967565b92915050565b6109988161076a565b82525050565b5f6020820190506109b15f83018461098f565b92915050565b7f4e487b71000000000000000000000000000000000000000000000000000000005f52603260045260245ffd5b7f4e487b71000000000000000000000000000000000000000000000000000000005f52601160045260245ffd5b5f610a1b8261068b565b91507fffffffffffffffffffffffffffffffffffffffffffffffffffffffffffffffff8203610a4d57610a4c6109e4565b5b600182019050919050565b7f4e487b71000000000000000000000000000000000000000000000000000000005f52604160045260245ffdfea2646970667358221220b76e759327952bb1bac8b6054206edfeb4eff3a7318ef6ac9b2ada30aaaa4e7064736f6c63430008140033",
					"opcodes": "PUSH1 0x80 PUSH1 0x40 MSTORE CALLVALUE DUP1 ISZERO PUSH2 0xF JUMPI PUSH0 DUP1 REVERT JUMPDEST POP PUSH2 0x1E PUSH2 0x23 PUSH1 0x20 SHL PUSH1 0x20 SHR JUMP JUMPDEST PUSH2 0x12E JUMP JUMPDEST PUSH0 DUP1 PUSH2 0x2F SWAP2 SWAP1 PUSH2 0x78 JUMP JUMPDEST PUSH0 PUSH1 0x1 SWAP1 POP JUMPDEST PUSH1 0xA DUP2 GT PUSH2 0x75 JUMPI PUSH0 DUP2 SWAP1 DUP1 PUSH1 0x1 DUP2 SLOAD ADD DUP1 DUP3 SSTORE DUP1 SWAP2 POP POP PUSH1 0x1 SWAP1 SUB SWAP1 PUSH0 MSTORE PUSH1 0x20 PUSH0 KECCAK256 ADD PUSH0 SWAP1 SWAP2 SWAP1 SWAP2 SWAP1 SWAP2 POP SSTORE DUP1 DUP1 PUSH2 0x6D SWAP1 PUSH2 0xE7 JUMP JUMPDEST SWAP2 POP POP PUSH2 0x35 JUMP JUMPDEST POP JUMP JUMPDEST POP DUP1 SLOAD PUSH0 DUP3 SSTORE SWAP1 PUSH0 MSTORE PUSH1 0x20 PUSH0 KECCAK256 SWAP1 DUP2 ADD SWAP1 PUSH2 0x93 SWAP2 SWAP1 PUSH2 0x96 JUMP JUMPDEST POP JUMP JUMPDEST JUMPDEST DUP1 DUP3 GT ISZERO PUSH2 0xAD JUMPI PUSH0 DUP2 PUSH0 SWAP1 SSTORE POP PUSH1 0x1 ADD PUSH2 0x97 JUMP JUMPDEST POP SWAP1 JUMP JUMPDEST PUSH32 0x4E487B7100000000000000000000000000000000000000000000000000000000 PUSH0 MSTORE PUSH1 0x11 PUSH1 0x4 MSTORE PUSH1 0x24 PUSH0 REVERT JUMPDEST PUSH0 DUP2 SWAP1 POP SWAP2 SWAP1 POP JUMP JUMPDEST PUSH0 PUSH2 0xF1 DUP3 PUSH2 0xDE JUMP JUMPDEST SWAP2 POP PUSH32 0xFFFFFFFFFFFFFFFFFFFFFFFFFFFFFFFFFFFFFFFFFFFFFFFFFFFFFFFFFFFFFFFF DUP3 SUB PUSH2 0x123 JUMPI PUSH2 0x122 PUSH2 0xB1 JUMP JUMPDEST JUMPDEST PUSH1 0x1 DUP3 ADD SWAP1 POP SWAP2 SWAP1 POP JUMP JUMPDEST PUSH2 0xABB DUP1 PUSH2 0x13B PUSH0 CODECOPY PUSH0 RETURN INVALID PUSH1 0x80 PUSH1 0x40 MSTORE CALLVALUE DUP1 ISZERO PUSH2 0xF JUMPI PUSH0 DUP1 REVERT JUMPDEST POP PUSH1 0x4 CALLDATASIZE LT PUSH2 0x9C JUMPI PUSH0 CALLDATALOAD PUSH1 0xE0 SHR DUP1 PUSH4 0x9977C78A GT PUSH2 0x64 JUMPI DUP1 PUSH4 0x9977C78A EQ PUSH2 0x133 JUMPI DUP1 PUSH4 0xA00B7ACD EQ PUSH2 0x163 JUMPI DUP1 PUSH4 0xADE82BFD EQ PUSH2 0x17F JUMPI DUP1 PUSH4 0xB1CEBAC5 EQ PUSH2 0x189 JUMPI DUP1 PUSH4 0xD39FA233 EQ PUSH2 0x193 JUMPI PUSH2 0x9C JUMP JUMPDEST DUP1 PUSH4 0x20AAF79A EQ PUSH2 0xA0 JUMPI DUP1 PUSH4 0x4F9377DB EQ PUSH2 0xBF JUMPI DUP1 PUSH4 0x7F66B1B8 EQ PUSH2 0xDB JUMPI DUP1 PUSH4 0x89F915F6 EQ PUSH2 0xE5 JUMPI DUP1 PUSH4 0x8BC33AF3 EQ PUSH2 0x103 JUMPI JUMPDEST PUSH0 DUP1 REVERT JUMPDEST PUSH2 0xA8 PUSH2 0x1C3 JUMP JUMPDEST PUSH1 0x40 MLOAD PUSH2 0xB6 SWAP3 SWAP2 SWAP1 PUSH2 0x809 JUMP JUMPDEST PUSH1 0x40 MLOAD DUP1 SWAP2 SUB SWAP1 RETURN JUMPDEST PUSH2 0xD9 PUSH1 0x4 DUP1 CALLDATASIZE SUB DUP2 ADD SWAP1 PUSH2 0xD4 SWAP2 SWAP1 PUSH2 0x8A7 JUMP JUMPDEST PUSH2 0x3DD JUMP JUMPDEST STOP JUMPDEST PUSH2 0xE3 PUSH2 0x440 JUMP JUMPDEST STOP JUMPDEST PUSH2 0xED PUSH2 0x44F JUMP JUMPDEST PUSH1 0x40 MLOAD PUSH2 0xFA SWAP2 SWAP1 PUSH2 0x8F2 JUMP JUMPDEST PUSH1 0x40 MLOAD DUP1 SWAP2 SUB SWAP1 RETURN JUMPDEST PUSH2 0x11D PUSH1 0x4 DUP1 CALLDATASIZE SUB DUP2 ADD SWAP1 PUSH2 0x118 SWAP2 SWAP1 PUSH2 0x93C JUMP JUMPDEST PUSH2 0x4A4 JUMP JUMPDEST PUSH1 0x40 MLOAD PUSH2 0x12A SWAP2 SWAP1 PUSH2 0x976 JUMP JUMPDEST PUSH1 0x40 MLOAD DUP1 SWAP2 SUB SWAP1 RETURN JUMPDEST PUSH2 0x14D PUSH1 0x4 DUP1 CALLDATASIZE SUB DUP2 ADD SWAP1 PUSH2 0x148 SWAP2 SWAP1 PUSH2 0x93C JUMP JUMPDEST PUSH2 0x4C4 JUMP JUMPDEST PUSH1 0x40 MLOAD PUSH2 0x15A SWAP2 SWAP1 PUSH2 0x99E JUMP JUMPDEST PUSH1 0x40 MLOAD DUP1 SWAP2 SUB SWAP1 RETURN JUMPDEST PUSH2 0x17D PUSH1 0x4 DUP1 CALLDATASIZE SUB DUP2 ADD SWAP1 PUSH2 0x178 SWAP2 SWAP1 PUSH2 0x93C JUMP JUMPDEST PUSH2 0x4FF JUMP JUMPDEST STOP JUMPDEST PUSH2 0x187 PUSH2 0x588 JUMP JUMPDEST STOP JUMPDEST PUSH2 0x191 PUSH2 0x597 JUMP JUMPDEST STOP JUMPDEST PUSH2 0x1AD PUSH1 0x4 DUP1 CALLDATASIZE SUB DUP2 ADD SWAP1 PUSH2 0x1A8 SWAP2 SWAP1 PUSH2 0x93C JUMP JUMPDEST PUSH2 0x5EC JUMP JUMPDEST PUSH1 0x40 MLOAD PUSH2 0x1BA SWAP2 SWAP1 PUSH2 0x976 JUMP JUMPDEST PUSH1 0x40 MLOAD DUP1 SWAP2 SUB SWAP1 RETURN JUMPDEST PUSH1 0x60 DUP1 PUSH0 DUP1 PUSH1 0x2 DUP1 SLOAD SWAP1 POP SWAP1 POP PUSH0 JUMPDEST DUP2 DUP2 LT ISZERO PUSH2 0x224 JUMPI PUSH4 0x386D89D0 PUSH1 0x2 DUP3 DUP2 SLOAD DUP2 LT PUSH2 0x1F3 JUMPI PUSH2 0x1F2 PUSH2 0x9B7 JUMP JUMPDEST JUMPDEST SWAP1 PUSH0 MSTORE PUSH1 0x20 PUSH0 KECCAK256 ADD SLOAD GT ISZERO PUSH2 0x211 JUMPI DUP3 DUP1 PUSH2 0x20D SWAP1 PUSH2 0xA11 JUMP JUMPDEST SWAP4 POP POP JUMPDEST DUP1 DUP1 PUSH2 0x21C SWAP1 PUSH2 0xA11 JUMP JUMPDEST SWAP2 POP POP PUSH2 0x1D2 JUMP JUMPDEST POP DUP2 PUSH8 0xFFFFFFFFFFFFFFFF DUP2 GT ISZERO PUSH2 0x23F JUMPI PUSH2 0x23E PUSH2 0xA58 JUMP JUMPDEST JUMPDEST PUSH1 0x40 MLOAD SWAP1 DUP1 DUP3 MSTORE DUP1 PUSH1 0x20 MUL PUSH1 0x20 ADD DUP3 ADD PUSH1 0x40 MSTORE DUP1 ISZERO PUSH2 0x26D JUMPI DUP2 PUSH1 0x20 ADD PUSH1 0x20 DUP3 MUL DUP1 CALLDATASIZE DUP4 CALLDATACOPY DUP1 DUP3 ADD SWAP2 POP POP SWAP1 POP JUMPDEST POP SWAP4 POP DUP2 PUSH8 0xFFFFFFFFFFFFFFFF DUP2 GT ISZERO PUSH2 0x28A JUMPI PUSH2 0x289 PUSH2 0xA58 JUMP JUMPDEST JUMPDEST PUSH1 0x40 MLOAD SWAP1 DUP1 DUP3 MSTORE DUP1 PUSH1 0x20 MUL PUSH1 0x20 ADD DUP3 ADD PUSH1 0x40 MSTORE DUP1 ISZERO PUSH2 0x2B8 JUMPI DUP2 PUSH1 0x20 ADD PUSH1 0x20 DUP3 MUL DUP1 CALLDATASIZE DUP4 CALLDATACOPY DUP1 DUP3 ADD SWAP2 POP POP SWAP1 POP JUMPDEST POP SWAP3 POP PUSH0 DUP1 JUMPDEST DUP3 DUP2 LT ISZERO PUSH2 0x3D5 JUMPI PUSH4 0x386D89D0 PUSH1 0x2 DUP3 DUP2 SLOAD DUP2 LT PUSH2 0x2DF JUMPI PUSH2 0x2DE PUSH2 0x9B7 JUMP JUMPDEST JUMPDEST SWAP1 PUSH0 MSTORE PUSH1 0x20 PUSH0 KECCAK256 ADD SLOAD GT ISZERO PUSH2 0x3C2 JUMPI PUSH1 0x2 DUP2 DUP2 SLOAD DUP2 LT PUSH2 0x302 JUMPI PUSH2 0x301 PUSH2 0x9B7 JUMP JUMPDEST JUMPDEST SWAP1 PUSH0 MSTORE PUSH1 0x20 PUSH0 KECCAK256 ADD SLOAD DUP7 DUP4 DUP2 MLOAD DUP2 LT PUSH2 0x31E JUMPI PUSH2 0x31D PUSH2 0x9B7 JUMP JUMPDEST JUMPDEST PUSH1 0x20 MUL PUSH1 0x20 ADD ADD DUP2 DUP2 MSTORE POP POP PUSH1 0x1 DUP2 DUP2 SLOAD DUP2 LT PUSH2 0x33E JUMPI PUSH2 0x33D PUSH2 0x9B7 JUMP JUMPDEST JUMPDEST SWAP1 PUSH0 MSTORE PUSH1 0x20 PUSH0 KECCAK256 ADD PUSH0 SWAP1 SLOAD SWAP1 PUSH2 0x100 EXP SWAP1 DIV PUSH20 0xFFFFFFFFFFFFFFFFFFFFFFFFFFFFFFFFFFFFFFFF AND DUP6 DUP4 DUP2 MLOAD DUP2 LT PUSH2 0x379 JUMPI PUSH2 0x378 PUSH2 0x9B7 JUMP JUMPDEST JUMPDEST PUSH1 0x20 MUL PUSH1 0x20 ADD ADD SWAP1 PUSH20 0xFFFFFFFFFFFFFFFFFFFFFFFFFFFFFFFFFFFFFFFF AND SWAP1 DUP2 PUSH20 0xFFFFFFFFFFFFFFFFFFFFFFFFFFFFFFFFFFFFFFFF AND DUP2 MSTORE POP POP DUP2 DUP1 PUSH2 0x3BE SWAP1 PUSH2 0xA11 JUMP JUMPDEST SWAP3 POP POP JUMPDEST DUP1 DUP1 PUSH2 0x3CD SWAP1 PUSH2 0xA11 JUMP JUMPDEST SWAP2 POP POP PUSH2 0x2BE JUMP JUMPDEST POP POP POP POP SWAP1 SWAP2 JUMP JUMPDEST PUSH0 JUMPDEST DUP3 DUP3 SWAP1 POP DUP2 LT ISZERO PUSH2 0x43B JUMPI PUSH0 DUP4 DUP4 DUP4 DUP2 DUP2 LT PUSH2 0x3FE JUMPI PUSH2 0x3FD PUSH2 0x9B7 JUMP JUMPDEST JUMPDEST SWAP1 POP PUSH1 0x20 MUL ADD CALLDATALOAD SWAP1 DUP1 PUSH1 0x1 DUP2 SLOAD ADD DUP1 DUP3 SSTORE DUP1 SWAP2 POP POP PUSH1 0x1 SWAP1 SUB SWAP1 PUSH0 MSTORE PUSH1 0x20 PUSH0 KECCAK256 ADD PUSH0 SWAP1 SWAP2 SWAP1 SWAP2 SWAP1 SWAP2 POP SSTORE DUP1 DUP1 PUSH2 0x433 SWAP1 PUSH2 0xA11 JUMP JUMPDEST SWAP2 POP POP PUSH2 0x3DF JUMP JUMPDEST POP POP POP JUMP JUMPDEST PUSH1 0x1 PUSH0 PUSH2 0x44D SWAP2 SWAP1 PUSH2 0x60B JUMP JUMPDEST JUMP JUMPDEST PUSH1 0x60 PUSH0 DUP1 SLOAD DUP1 PUSH1 0x20 MUL PUSH1 0x20 ADD PUSH1 0x40 MLOAD SWAP1 DUP2 ADD PUSH1 0x40 MSTORE DUP1 SWAP3 SWAP2 SWAP1 DUP2 DUP2 MSTORE PUSH1 0x20 ADD DUP3 DUP1 SLOAD DUP1 ISZERO PUSH2 0x49A JUMPI PUSH1 0x20 MUL DUP3 ADD SWAP2 SWAP1 PUSH0 MSTORE PUSH1 0x20 PUSH0 KECCAK256 SWAP1 JUMPDEST DUP2 SLOAD DUP2 MSTORE PUSH1 0x20 ADD SWAP1 PUSH1 0x1 ADD SWAP1 DUP1 DUP4 GT PUSH2 0x486 JUMPI JUMPDEST POP POP POP POP POP SWAP1 POP SWAP1 JUMP JUMPDEST PUSH1 0x2 DUP2 DUP2 SLOAD DUP2 LT PUSH2 0x4B3 JUMPI PUSH0 DUP1 REVERT JUMPDEST SWAP1 PUSH0 MSTORE PUSH1 0x20 PUSH0 KECCAK256 ADD PUSH0 SWAP2 POP SWAP1 POP SLOAD DUP2 JUMP JUMPDEST PUSH1 0x1 DUP2 DUP2 SLOAD DUP2 LT PUSH2 0x4D3 JUMPI PUSH0 DUP1 REVERT JUMPDEST SWAP1 PUSH0 MSTORE PUSH1 0x20 PUSH0 KECCAK256 ADD PUSH0 SWAP2 POP SLOAD SWAP1 PUSH2 0x100 EXP SWAP1 DIV PUSH20 0xFFFFFFFFFFFFFFFFFFFFFFFFFFFFFFFFFFFFFFFF AND DUP2 JUMP JUMPDEST PUSH1 0x1 CALLER SWAP1 DUP1 PUSH1 0x1 DUP2 SLOAD ADD DUP1 DUP3 SSTORE DUP1 SWAP2 POP POP PUSH1 0x1 SWAP1 SUB SWAP1 PUSH0 MSTORE PUSH1 0x20 PUSH0 KECCAK256 ADD PUSH0 SWAP1 SWAP2 SWAP1 SWAP2 SWAP1 SWAP2 PUSH2 0x100 EXP DUP2 SLOAD DUP2 PUSH20 0xFFFFFFFFFFFFFFFFFFFFFFFFFFFFFFFFFFFFFFFF MUL NOT AND SWAP1 DUP4 PUSH20 0xFFFFFFFFFFFFFFFFFFFFFFFFFFFFFFFFFFFFFFFF AND MUL OR SWAP1 SSTORE POP PUSH1 0x2 DUP2 SWAP1 DUP1 PUSH1 0x1 DUP2 SLOAD ADD DUP1 DUP3 SSTORE DUP1 SWAP2 POP POP PUSH1 0x1 SWAP1 SUB SWAP1 PUSH0 MSTORE PUSH1 0x20 PUSH0 KECCAK256 ADD PUSH0 SWAP1 SWAP2 SWAP1 SWAP2 SWAP1 SWAP2 POP SSTORE POP JUMP JUMPDEST PUSH1 0x2 PUSH0 PUSH2 0x595 SWAP2 SWAP1 PUSH2 0x629 JUMP JUMPDEST JUMP JUMPDEST PUSH0 DUP1 PUSH2 0x5A3 SWAP2 SWAP1 PUSH2 0x629 JUMP JUMPDEST PUSH0 PUSH1 0x1 SWAP1 POP JUMPDEST PUSH1 0xA DUP2 GT PUSH2 0x5E9 JUMPI PUSH0 DUP2 SWAP1 DUP1 PUSH1 0x1 DUP2 SLOAD ADD DUP1 DUP3 SSTORE DUP1 SWAP2 POP POP PUSH1 0x1 SWAP1 SUB SWAP1 PUSH0 MSTORE PUSH1 0x20 PUSH0 KECCAK256 ADD PUSH0 SWAP1 SWAP2 SWAP1 SWAP2 SWAP1 SWAP2 POP SSTORE DUP1 DUP1 PUSH2 0x5E1 SWAP1 PUSH2 0xA11 JUMP JUMPDEST SWAP2 POP POP PUSH2 0x5A9 JUMP JUMPDEST POP JUMP JUMPDEST PUSH0 DUP2 DUP2 SLOAD DUP2 LT PUSH2 0x5FA JUMPI PUSH0 DUP1 REVERT JUMPDEST SWAP1 PUSH0 MSTORE PUSH1 0x20 PUSH0 KECCAK256 ADD PUSH0 SWAP2 POP SWAP1 POP SLOAD DUP2 JUMP JUMPDEST POP DUP1 SLOAD PUSH0 DUP3 SSTORE SWAP1 PUSH0 MSTORE PUSH1 0x20 PUSH0 KECCAK256 SWAP1 DUP2 ADD SWAP1 PUSH2 0x626 SWAP2 SWAP1 PUSH2 0x647 JUMP JUMPDEST POP JUMP JUMPDEST POP DUP1 SLOAD PUSH0 DUP3 SSTORE SWAP1 PUSH0 MSTORE PUSH1 0x20 PUSH0 KECCAK256 SWAP1 DUP2 ADD SWAP1 PUSH2 0x644 SWAP2 SWAP1 PUSH2 0x647 JUMP JUMPDEST POP JUMP JUMPDEST JUMPDEST DUP1 DUP3 GT ISZERO PUSH2 0x65E JUMPI PUSH0 DUP2 PUSH0 SWAP1 SSTORE POP PUSH1 0x1 ADD PUSH2 0x648 JUMP JUMPDEST POP SWAP1 JUMP JUMPDEST PUSH0 DUP2 MLOAD SWAP1 POP SWAP2 SWAP1 POP JUMP JUMPDEST PUSH0 DUP3 DUP3 MSTORE PUSH1 0x20 DUP3 ADD SWAP1 POP SWAP3 SWAP2 POP POP JUMP JUMPDEST PUSH0 DUP2 SWAP1 POP PUSH1 0x20 DUP3 ADD SWAP1 POP SWAP2 SWAP1 POP JUMP JUMPDEST PUSH0 DUP2 SWAP1 POP SWAP2 SWAP1 POP JUMP JUMPDEST PUSH2 0x69D DUP2 PUSH2 0x68B JUMP JUMPDEST DUP3 MSTORE POP POP JUMP JUMPDEST PUSH0 PUSH2 0x6AE DUP4 DUP4 PUSH2 0x694 JUMP JUMPDEST PUSH1 0x20 DUP4 ADD SWAP1 POP SWAP3 SWAP2 POP POP JUMP JUMPDEST PUSH0 PUSH1 0x20 DUP3 ADD SWAP1 POP SWAP2 SWAP1 POP JUMP JUMPDEST PUSH0 PUSH2 0x6D0 DUP3 PUSH2 0x662 JUMP JUMPDEST PUSH2 0x6DA DUP2 DUP6 PUSH2 0x66C JUMP JUMPDEST SWAP4 POP PUSH2 0x6E5 DUP4 PUSH2 0x67C JUMP JUMPDEST DUP1 PUSH0 JUMPDEST DUP4 DUP2 LT ISZERO PUSH2 0x715 JUMPI DUP2 MLOAD PUSH2 0x6FC DUP9 DUP3 PUSH2 0x6A3 JUMP JUMPDEST SWAP8 POP PUSH2 0x707 DUP4 PUSH2 0x6BA JUMP JUMPDEST SWAP3 POP POP PUSH1 0x1 DUP2 ADD SWAP1 POP PUSH2 0x6E8 JUMP JUMPDEST POP DUP6 SWAP4 POP POP POP POP SWAP3 SWAP2 POP POP JUMP JUMPDEST PUSH0 DUP2 MLOAD SWAP1 POP SWAP2 SWAP1 POP JUMP JUMPDEST PUSH0 DUP3 DUP3 MSTORE PUSH1 0x20 DUP3 ADD SWAP1 POP SWAP3 SWAP2 POP POP JUMP JUMPDEST PUSH0 DUP2 SWAP1 POP PUSH1 0x20 DUP3 ADD SWAP1 POP SWAP2 SWAP1 POP JUMP JUMPDEST PUSH0 PUSH20 0xFFFFFFFFFFFFFFFFFFFFFFFFFFFFFFFFFFFFFFFF DUP3 AND SWAP1 POP SWAP2 SWAP1 POP JUMP JUMPDEST PUSH0 PUSH2 0x774 DUP3 PUSH2 0x74B JUMP JUMPDEST SWAP1 POP SWAP2 SWAP1 POP JUMP JUMPDEST PUSH2 0x784 DUP2 PUSH2 0x76A JUMP JUMPDEST DUP3 MSTORE POP POP JUMP JUMPDEST PUSH0 PUSH2 0x795 DUP4 DUP4 PUSH2 0x77B JUMP JUMPDEST PUSH1 0x20 DUP4 ADD SWAP1 POP SWAP3 SWAP2 POP POP JUMP JUMPDEST PUSH0 PUSH1 0x20 DUP3 ADD SWAP1 POP SWAP2 SWAP1 POP JUMP JUMPDEST PUSH0 PUSH2 0x7B7 DUP3 PUSH2 0x722 JUMP JUMPDEST PUSH2 0x7C1 DUP2 DUP6 PUSH2 0x72C JUMP JUMPDEST SWAP4 POP PUSH2 0x7CC DUP4 PUSH2 0x73C JUMP JUMPDEST DUP1 PUSH0 JUMPDEST DUP4 DUP2 LT ISZERO PUSH2 0x7FC JUMPI DUP2 MLOAD PUSH2 0x7E3 DUP9 DUP3 PUSH2 0x78A JUMP JUMPDEST SWAP8 POP PUSH2 0x7EE DUP4 PUSH2 0x7A1 JUMP JUMPDEST SWAP3 POP POP PUSH1 0x1 DUP2 ADD SWAP1 POP PUSH2 0x7CF JUMP JUMPDEST POP DUP6 SWAP4 POP POP POP POP SWAP3 SWAP2 POP POP JUMP JUMPDEST PUSH0 PUSH1 0x40 DUP3 ADD SWAP1 POP DUP2 DUP2 SUB PUSH0 DUP4 ADD MSTORE PUSH2 0x821 DUP2 DUP6 PUSH2 0x6C6 JUMP JUMPDEST SWAP1 POP DUP2 DUP2 SUB PUSH1 0x20 DUP4 ADD MSTORE PUSH2 0x835 DUP2 DUP5 PUSH2 0x7AD JUMP JUMPDEST SWAP1 POP SWAP4 SWAP3 POP POP POP JUMP JUMPDEST PUSH0 DUP1 REVERT JUMPDEST PUSH0 DUP1 REVERT JUMPDEST PUSH0 DUP1 REVERT JUMPDEST PUSH0 DUP1 REVERT JUMPDEST PUSH0 DUP1 REVERT JUMPDEST PUSH0 DUP1 DUP4 PUSH1 0x1F DUP5 ADD SLT PUSH2 0x867 JUMPI PUSH2 0x866 PUSH2 0x846 JUMP JUMPDEST JUMPDEST DUP3 CALLDATALOAD SWAP1 POP PUSH8 0xFFFFFFFFFFFFFFFF DUP2 GT ISZERO PUSH2 0x884 JUMPI PUSH2 0x883 PUSH2 0x84A JUMP JUMPDEST JUMPDEST PUSH1 0x20 DUP4 ADD SWAP2 POP DUP4 PUSH1 0x20 DUP3 MUL DUP4 ADD GT ISZERO PUSH2 0x8A0 JUMPI PUSH2 0x89F PUSH2 0x84E JUMP JUMPDEST JUMPDEST SWAP3 POP SWAP3 SWAP1 POP JUMP JUMPDEST PUSH0 DUP1 PUSH1 0x20 DUP4 DUP6 SUB SLT ISZERO PUSH2 0x8BD JUMPI PUSH2 0x8BC PUSH2 0x83E JUMP JUMPDEST JUMPDEST PUSH0 DUP4 ADD CALLDATALOAD PUSH8 0xFFFFFFFFFFFFFFFF DUP2 GT ISZERO PUSH2 0x8DA JUMPI PUSH2 0x8D9 PUSH2 0x842 JUMP JUMPDEST JUMPDEST PUSH2 0x8E6 DUP6 DUP3 DUP7 ADD PUSH2 0x852 JUMP JUMPDEST SWAP3 POP SWAP3 POP POP SWAP3 POP SWAP3 SWAP1 POP JUMP JUMPDEST PUSH0 PUSH1 0x20 DUP3 ADD SWAP1 POP DUP2 DUP2 SUB PUSH0 DUP4 ADD MSTORE PUSH2 0x90A DUP2 DUP5 PUSH2 0x6C6 JUMP JUMPDEST SWAP1 POP SWAP3 SWAP2 POP POP JUMP JUMPDEST PUSH2 0x91B DUP2 PUSH2 0x68B JUMP JUMPDEST DUP2 EQ PUSH2 0x925 JUMPI PUSH0 DUP1 REVERT JUMPDEST POP JUMP JUMPDEST PUSH0 DUP2 CALLDATALOAD SWAP1 POP PUSH2 0x936 DUP2 PUSH2 0x912 JUMP JUMPDEST SWAP3 SWAP2 POP POP JUMP JUMPDEST PUSH0 PUSH1 0x20 DUP3 DUP5 SUB SLT ISZERO PUSH2 0x951 JUMPI PUSH2 0x950 PUSH2 0x83E JUMP JUMPDEST JUMPDEST PUSH0 PUSH2 0x95E DUP5 DUP3 DUP6 ADD PUSH2 0x928 JUMP JUMPDEST SWAP2 POP POP SWAP3 SWAP2 POP POP JUMP JUMPDEST PUSH2 0x970 DUP2 PUSH2 0x68B JUMP JUMPDEST DUP3 MSTORE POP POP JUMP JUMPDEST PUSH0 PUSH1 0x20 DUP3 ADD SWAP1 POP PUSH2 0x989 PUSH0 DUP4 ADD DUP5 PUSH2 0x967 JUMP JUMPDEST SWAP3 SWAP2 POP POP JUMP JUMPDEST PUSH2 0x998 DUP2 PUSH2 0x76A JUMP JUMPDEST DUP3 MSTORE POP POP JUMP JUMPDEST PUSH0 PUSH1 0x20 DUP3 ADD SWAP1 POP PUSH2 0x9B1 PUSH0 DUP4 ADD DUP5 PUSH2 0x98F JUMP JUMPDEST SWAP3 SWAP2 POP POP JUMP JUMPDEST PUSH32 0x4E487B7100000000000000000000000000000000000000000000000000000000 PUSH0 MSTORE PUSH1 0x32 PUSH1 0x4 MSTORE PUSH1 0x24 PUSH0 REVERT JUMPDEST PUSH32 0x4E487B7100000000000000000000000000000000000000000000000000000000 PUSH0 MSTORE PUSH1 0x11 PUSH1 0x4 MSTORE PUSH1 0x24 PUSH0 REVERT JUMPDEST PUSH0 PUSH2 0xA1B DUP3 PUSH2 0x68B JUMP JUMPDEST SWAP2 POP PUSH32 0xFFFFFFFFFFFFFFFFFFFFFFFFFFFFFFFFFFFFFFFFFFFFFFFFFFFFFFFFFFFFFFFF DUP3 SUB PUSH2 0xA4D JUMPI PUSH2 0xA4C PUSH2 0x9E4 JUMP JUMPDEST JUMPDEST PUSH1 0x1 DUP3 ADD SWAP1 POP SWAP2 SWAP1 POP JUMP JUMPDEST PUSH32 0x4E487B7100000000000000000000000000000000000000000000000000000000 PUSH0 MSTORE PUSH1 0x41 PUSH1 0x4 MSTORE PUSH1 0x24 PUSH0 REVERT INVALID LOG2 PUSH5 0x6970667358 0x22 SLT KECCAK256 0xB7 PUSH15 0x759327952BB1BAC8B6054206EDFEB4 0xEF RETURN 0xA7 BALANCE DUP15 0xF6 0xAC SWAP12 0x2A 0xDA ADDRESS 0xAA 0xAA 0x4E PUSH17 0x64736F6C63430008140033000000000000 "
				},
				"gasEstimates": {
					"creation": {
						"codeDepositCost": "549400",
						"executionCost": "infinite",
						"totalCost": "infinite"
					},
					"external": {
						"afterY2K()": "infinite",
						"appendToNumbers(uint256[])": "infinite",
						"getNumbers()": "infinite",
						"numbers(uint256)": "infinite",
						"resetNumbers()": "infinite",
						"resetSenders()": "infinite",
						"resetTimestamps()": "infinite",
						"saveTimestamp(uint256)": "95418",
						"senders(uint256)": "4944",
						"timestamps(uint256)": "infinite"
					}
				},
				"methodIdentifiers": {
					"afterY2K()": "20aaf79a",
					"appendToNumbers(uint256[])": "4f9377db",
					"getNumbers()": "89f915f6",
					"numbers(uint256)": "d39fa233",
					"resetNumbers()": "b1cebac5",
					"resetSenders()": "7f66b1b8",
					"resetTimestamps()": "ade82bfd",
					"saveTimestamp(uint256)": "a00b7acd",
					"senders(uint256)": "9977c78a",
					"timestamps(uint256)": "8bc33af3"
				}
			},
			"storageLayout": {
				"storage": [
					{
						"astId": 4,
						"contract": "BASE-LEARN/ArraysExercise.sol:ArraysAndTimestampExercise",
						"label": "numbers",
						"offset": 0,
						"slot": "0",
						"type": "t_array(t_uint256)dyn_storage"
					},
					{
						"astId": 7,
						"contract": "BASE-LEARN/ArraysExercise.sol:ArraysAndTimestampExercise",
						"label": "senders",
						"offset": 0,
						"slot": "1",
						"type": "t_array(t_address)dyn_storage"
					},
					{
						"astId": 10,
						"contract": "BASE-LEARN/ArraysExercise.sol:ArraysAndTimestampExercise",
						"label": "timestamps",
						"offset": 0,
						"slot": "2",
						"type": "t_array(t_uint256)dyn_storage"
					}
				],
				"types": {
					"t_address": {
						"encoding": "inplace",
						"label": "address",
						"numberOfBytes": "20"
					},
					"t_array(t_address)dyn_storage": {
						"base": "t_address",
						"encoding": "dynamic_array",
						"label": "address[]",
						"numberOfBytes": "32"
					},
					"t_array(t_uint256)dyn_storage": {
						"base": "t_uint256",
						"encoding": "dynamic_array",
						"label": "uint256[]",
						"numberOfBytes": "32"
					},
					"t_uint256": {
						"encoding": "inplace",
						"label": "uint256",
						"numberOfBytes": "32"
					}
				}
			},
			"userdoc": {
				"kind": "user",
				"methods": {
					"afterY2K()": {
						"notice": "Mengambil semua data setelah Y2K"
					},
					"resetSenders()": {
						"notice": "Reset array senders"
					},
					"resetTimestamps()": {
						"notice": "Reset array timestamps"
					},
					"saveTimestamp(uint256)": {
						"notice": "Menyimpan alamat pemanggil & timestamp custom"
					}
				},
				"version": 1
			}
		}
	}
}