{
	"BASE-LEARN/ControlStructures.sol": {
		"ControlStructuresExercise": {
			"abi": [
				{
					"inputs": [
						{
							"internalType": "uint256",
							"name": "time",
							"type": "uint256"
						}
					],
					"name": "AfterHours",
					"type": "error"
				},
				{
					"inputs": [],
					"name": "AtLunch",
					"type": "error"
				},
				{
					"inputs": [
						{
							"internalType": "int256",
							"name": "number",
							"type": "int256"
						}
					],
					"name": "categorize",
					"outputs": [
						{
							"internalType": "string",
							"name": "",
							"type": "string"
						}
					],
					"stateMutability": "pure",
					"type": "function"
				},
				{
					"inputs": [
						{
							"internalType": "uint256",
							"name": "_time",
							"type": "uint256"
						}
					],
					"name": "doNotDisturb",
					"outputs": [
						{
							"internalType": "string",
							"name": "",
							"type": "string"
						}
					],
					"stateMutability": "pure",
					"type": "function"
				},
				{
					"inputs": [
						{
							"internalType": "uint256",
							"name": "number",
							"type": "uint256"
						}
					],
					"name": "fizzBuzz",
					"outputs": [
						{
							"internalType": "string",
							"name": "",
							"type": "string"
						}
					],
					"stateMutability": "pure",
					"type": "function"
				}
			],
			"devdoc": {
				"kind": "dev",
				"methods": {},
				"version": 1
			},
			"evm": {
				"assembly": "    /* \"BASE-LEARN/ControlStructures.sol\":61:2193  contract ControlStructuresExercise {... */\n  mstore(0x40, 0x80)\n  callvalue\n  dup1\n  iszero\n  tag_1\n  jumpi\n  0x00\n  dup1\n  revert\ntag_1:\n  pop\n  dataSize(sub_0)\n  dup1\n  dataOffset(sub_0)\n  0x00\n  codecopy\n  0x00\n  return\nstop\n\nsub_0: assembly {\n        /* \"BASE-LEARN/ControlStructures.sol\":61:2193  contract ControlStructuresExercise {... */\n      mstore(0x40, 0x80)\n      callvalue\n      dup1\n      iszero\n      tag_1\n      jumpi\n      0x00\n      dup1\n      revert\n    tag_1:\n      pop\n      jumpi(tag_2, lt(calldatasize, 0x04))\n      shr(0xe0, calldataload(0x00))\n      dup1\n      0x440c93e2\n      eq\n      tag_3\n      jumpi\n      dup1\n      0xcdc59abe\n      eq\n      tag_4\n      jumpi\n      dup1\n      0xe655b7bb\n      eq\n      tag_5\n      jumpi\n    tag_2:\n      0x00\n      dup1\n      revert\n        /* \"BASE-LEARN/ControlStructures.sol\":721:1074  function fizzBuzz(uint256 number) public pure returns (string memory) {... */\n    tag_3:\n      tag_6\n      0x04\n      dup1\n      calldatasize\n      sub\n      dup2\n      add\n      swap1\n      tag_7\n      swap2\n      swap1\n      tag_8\n      jump\t// in\n    tag_7:\n      tag_9\n      jump\t// in\n    tag_6:\n      mload(0x40)\n      tag_10\n      swap2\n      swap1\n      tag_11\n      jump\t// in\n    tag_10:\n      mload(0x40)\n      dup1\n      swap2\n      sub\n      swap1\n      return\n        /* \"BASE-LEARN/ControlStructures.sol\":268:530  function categorize(int256 number) public pure returns (string memory) {... */\n    tag_4:\n      tag_12\n      0x04\n      dup1\n      calldatasize\n      sub\n      dup2\n      add\n      swap1\n      tag_13\n      swap2\n      swap1\n      tag_14\n      jump\t// in\n    tag_13:\n      tag_15\n      jump\t// in\n    tag_12:\n      mload(0x40)\n      tag_16\n      swap2\n      swap1\n      tag_11\n      jump\t// in\n    tag_16:\n      mload(0x40)\n      dup1\n      swap2\n      sub\n      swap1\n      return\n        /* \"BASE-LEARN/ControlStructures.sol\":1082:2190  function doNotDisturb(uint256 _time) public pure returns (string memory) {... */\n    tag_5:\n      tag_17\n      0x04\n      dup1\n      calldatasize\n      sub\n      dup2\n      add\n      swap1\n      tag_18\n      swap2\n      swap1\n      tag_8\n      jump\t// in\n    tag_18:\n      tag_19\n      jump\t// in\n    tag_17:\n      mload(0x40)\n      tag_20\n      swap2\n      swap1\n      tag_11\n      jump\t// in\n    tag_20:\n      mload(0x40)\n      dup1\n      swap2\n      sub\n      swap1\n      return\n        /* \"BASE-LEARN/ControlStructures.sol\":721:1074  function fizzBuzz(uint256 number) public pure returns (string memory) {... */\n    tag_9:\n        /* \"BASE-LEARN/ControlStructures.sol\":776:789  string memory */\n      0x60\n        /* \"BASE-LEARN/ControlStructures.sol\":820:821  0 */\n      0x00\n        /* \"BASE-LEARN/ControlStructures.sol\":815:816  3 */\n      0x03\n        /* \"BASE-LEARN/ControlStructures.sol\":806:812  number */\n      dup4\n        /* \"BASE-LEARN/ControlStructures.sol\":806:816  number % 3 */\n      tag_22\n      swap2\n      swap1\n      tag_23\n      jump\t// in\n    tag_22:\n        /* \"BASE-LEARN/ControlStructures.sol\":806:821  number % 3 == 0 */\n      eq\n        /* \"BASE-LEARN/ControlStructures.sol\":806:840  number % 3 == 0 && number % 5 == 0 */\n      dup1\n      iszero\n      tag_24\n      jumpi\n      pop\n        /* \"BASE-LEARN/ControlStructures.sol\":839:840  0 */\n      0x00\n        /* \"BASE-LEARN/ControlStructures.sol\":834:835  5 */\n      0x05\n        /* \"BASE-LEARN/ControlStructures.sol\":825:831  number */\n      dup4\n        /* \"BASE-LEARN/ControlStructures.sol\":825:835  number % 5 */\n      tag_25\n      swap2\n      swap1\n      tag_23\n      jump\t// in\n    tag_25:\n        /* \"BASE-LEARN/ControlStructures.sol\":825:840  number % 5 == 0 */\n      eq\n        /* \"BASE-LEARN/ControlStructures.sol\":806:840  number % 3 == 0 && number % 5 == 0 */\n    tag_24:\n        /* \"BASE-LEARN/ControlStructures.sol\":802:1067  if (number % 3 == 0 && number % 5 == 0) {... */\n      iszero\n      tag_26\n      jumpi\n        /* \"BASE-LEARN/ControlStructures.sol\":857:874  return \"FizzBuzz\" */\n      mload(0x40)\n      dup1\n      0x40\n      add\n      0x40\n      mstore\n      dup1\n      0x08\n      dup2\n      mstore\n      0x20\n      add\n      0x46697a7a42757a7a000000000000000000000000000000000000000000000000\n      dup2\n      mstore\n      pop\n      swap1\n      pop\n      jump(tag_21)\n        /* \"BASE-LEARN/ControlStructures.sol\":802:1067  if (number % 3 == 0 && number % 5 == 0) {... */\n    tag_26:\n        /* \"BASE-LEARN/ControlStructures.sol\":910:911  0 */\n      0x00\n        /* \"BASE-LEARN/ControlStructures.sol\":905:906  3 */\n      0x03\n        /* \"BASE-LEARN/ControlStructures.sol\":896:902  number */\n      dup4\n        /* \"BASE-LEARN/ControlStructures.sol\":896:906  number % 3 */\n      tag_28\n      swap2\n      swap1\n      tag_23\n      jump\t// in\n    tag_28:\n        /* \"BASE-LEARN/ControlStructures.sol\":896:911  number % 3 == 0 */\n      sub\n        /* \"BASE-LEARN/ControlStructures.sol\":892:1067  if (number % 3 == 0) {... */\n      tag_29\n      jumpi\n        /* \"BASE-LEARN/ControlStructures.sol\":928:941  return \"Fizz\" */\n      mload(0x40)\n      dup1\n      0x40\n      add\n      0x40\n      mstore\n      dup1\n      0x04\n      dup2\n      mstore\n      0x20\n      add\n      0x46697a7a00000000000000000000000000000000000000000000000000000000\n      dup2\n      mstore\n      pop\n      swap1\n      pop\n      jump(tag_21)\n        /* \"BASE-LEARN/ControlStructures.sol\":892:1067  if (number % 3 == 0) {... */\n    tag_29:\n        /* \"BASE-LEARN/ControlStructures.sol\":977:978  0 */\n      0x00\n        /* \"BASE-LEARN/ControlStructures.sol\":972:973  5 */\n      0x05\n        /* \"BASE-LEARN/ControlStructures.sol\":963:969  number */\n      dup4\n        /* \"BASE-LEARN/ControlStructures.sol\":963:973  number % 5 */\n      tag_31\n      swap2\n      swap1\n      tag_23\n      jump\t// in\n    tag_31:\n        /* \"BASE-LEARN/ControlStructures.sol\":963:978  number % 5 == 0 */\n      sub\n        /* \"BASE-LEARN/ControlStructures.sol\":959:1067  if (number % 5 == 0) {... */\n      tag_32\n      jumpi\n        /* \"BASE-LEARN/ControlStructures.sol\":995:1008  return \"Buzz\" */\n      mload(0x40)\n      dup1\n      0x40\n      add\n      0x40\n      mstore\n      dup1\n      0x04\n      dup2\n      mstore\n      0x20\n      add\n      0x42757a7a00000000000000000000000000000000000000000000000000000000\n      dup2\n      mstore\n      pop\n      swap1\n      pop\n      jump(tag_21)\n        /* \"BASE-LEARN/ControlStructures.sol\":959:1067  if (number % 5 == 0) {... */\n    tag_32:\n        /* \"BASE-LEARN/ControlStructures.sol\":1041:1055  return \"Splat\" */\n      mload(0x40)\n      dup1\n      0x40\n      add\n      0x40\n      mstore\n      dup1\n      0x05\n      dup2\n      mstore\n      0x20\n      add\n      0x53706c6174000000000000000000000000000000000000000000000000000000\n      dup2\n      mstore\n      pop\n      swap1\n      pop\n        /* \"BASE-LEARN/ControlStructures.sol\":721:1074  function fizzBuzz(uint256 number) public pure returns (string memory) {... */\n    tag_21:\n      swap2\n      swap1\n      pop\n      jump\t// out\n        /* \"BASE-LEARN/ControlStructures.sol\":268:530  function categorize(int256 number) public pure returns (string memory) {... */\n    tag_15:\n        /* \"BASE-LEARN/ControlStructures.sol\":324:337  string memory */\n      0x60\n        /* \"BASE-LEARN/ControlStructures.sol\":363:364  0 */\n      0x00\n        /* \"BASE-LEARN/ControlStructures.sol\":354:360  number */\n      dup3\n        /* \"BASE-LEARN/ControlStructures.sol\":354:364  number < 0 */\n      slt\n        /* \"BASE-LEARN/ControlStructures.sol\":350:523  if (number < 0) {... */\n      iszero\n      tag_35\n      jumpi\n        /* \"BASE-LEARN/ControlStructures.sol\":381:398  return \"Negative\" */\n      mload(0x40)\n      dup1\n      0x40\n      add\n      0x40\n      mstore\n      dup1\n      0x08\n      dup2\n      mstore\n      0x20\n      add\n      0x4e65676174697665000000000000000000000000000000000000000000000000\n      dup2\n      mstore\n      pop\n      swap1\n      pop\n      jump(tag_34)\n        /* \"BASE-LEARN/ControlStructures.sol\":350:523  if (number < 0) {... */\n    tag_35:\n        /* \"BASE-LEARN/ControlStructures.sol\":430:431  0 */\n      0x00\n        /* \"BASE-LEARN/ControlStructures.sol\":420:426  number */\n      dup3\n        /* \"BASE-LEARN/ControlStructures.sol\":420:431  number == 0 */\n      sub\n        /* \"BASE-LEARN/ControlStructures.sol\":416:523  if (number == 0) {... */\n      tag_37\n      jumpi\n        /* \"BASE-LEARN/ControlStructures.sol\":448:461  return \"Zero\" */\n      mload(0x40)\n      dup1\n      0x40\n      add\n      0x40\n      mstore\n      dup1\n      0x04\n      dup2\n      mstore\n      0x20\n      add\n      0x5a65726f00000000000000000000000000000000000000000000000000000000\n      dup2\n      mstore\n      pop\n      swap1\n      pop\n      jump(tag_34)\n        /* \"BASE-LEARN/ControlStructures.sol\":416:523  if (number == 0) {... */\n    tag_37:\n        /* \"BASE-LEARN/ControlStructures.sol\":494:511  return \"Positive\" */\n      mload(0x40)\n      dup1\n      0x40\n      add\n      0x40\n      mstore\n      dup1\n      0x08\n      dup2\n      mstore\n      0x20\n      add\n      0x506f736974697665000000000000000000000000000000000000000000000000\n      dup2\n      mstore\n      pop\n      swap1\n      pop\n        /* \"BASE-LEARN/ControlStructures.sol\":268:530  function categorize(int256 number) public pure returns (string memory) {... */\n    tag_34:\n      swap2\n      swap1\n      pop\n      jump\t// out\n        /* \"BASE-LEARN/ControlStructures.sol\":1082:2190  function doNotDisturb(uint256 _time) public pure returns (string memory) {... */\n    tag_19:\n        /* \"BASE-LEARN/ControlStructures.sol\":1140:1153  string memory */\n      0x60\n        /* \"BASE-LEARN/ControlStructures.sol\":1247:1251  2400 */\n      0x0960\n        /* \"BASE-LEARN/ControlStructures.sol\":1239:1244  _time */\n      dup3\n        /* \"BASE-LEARN/ControlStructures.sol\":1239:1251  _time < 2400 */\n      lt\n        /* \"BASE-LEARN/ControlStructures.sol\":1232:1252  assert(_time < 2400) */\n      tag_40\n      jumpi\n      tag_41\n      tag_42\n      jump\t// in\n    tag_41:\n    tag_40:\n        /* \"BASE-LEARN/ControlStructures.sol\":1367:1371  2200 */\n      0x0898\n        /* \"BASE-LEARN/ControlStructures.sol\":1359:1364  _time */\n      dup3\n        /* \"BASE-LEARN/ControlStructures.sol\":1359:1371  _time > 2200 */\n      gt\n        /* \"BASE-LEARN/ControlStructures.sol\":1359:1386  _time > 2200 || _time < 800 */\n      dup1\n      tag_43\n      jumpi\n      pop\n        /* \"BASE-LEARN/ControlStructures.sol\":1383:1386  800 */\n      0x0320\n        /* \"BASE-LEARN/ControlStructures.sol\":1375:1380  _time */\n      dup3\n        /* \"BASE-LEARN/ControlStructures.sol\":1375:1386  _time < 800 */\n      lt\n        /* \"BASE-LEARN/ControlStructures.sol\":1359:1386  _time > 2200 || _time < 800 */\n    tag_43:\n        /* \"BASE-LEARN/ControlStructures.sol\":1355:1439  if (_time > 2200 || _time < 800) {... */\n      iszero\n      tag_44\n      jumpi\n        /* \"BASE-LEARN/ControlStructures.sol\":1421:1426  _time */\n      dup2\n        /* \"BASE-LEARN/ControlStructures.sol\":1410:1427  AfterHours(_time) */\n      mload(0x40)\n      0xa4bf701e00000000000000000000000000000000000000000000000000000000\n      dup2\n      mstore\n      0x04\n      add\n      tag_45\n      swap2\n      swap1\n      tag_46\n      jump\t// in\n    tag_45:\n      mload(0x40)\n      dup1\n      swap2\n      sub\n      swap1\n      revert\n        /* \"BASE-LEARN/ControlStructures.sol\":1355:1439  if (_time > 2200 || _time < 800) {... */\n    tag_44:\n        /* \"BASE-LEARN/ControlStructures.sol\":1551:1555  1200 */\n      0x04b0\n        /* \"BASE-LEARN/ControlStructures.sol\":1542:1547  _time */\n      dup3\n        /* \"BASE-LEARN/ControlStructures.sol\":1542:1555  _time >= 1200 */\n      lt\n      iszero\n        /* \"BASE-LEARN/ControlStructures.sol\":1542:1572  _time >= 1200 && _time <= 1259 */\n      dup1\n      iszero\n      tag_47\n      jumpi\n      pop\n        /* \"BASE-LEARN/ControlStructures.sol\":1568:1572  1259 */\n      0x04eb\n        /* \"BASE-LEARN/ControlStructures.sol\":1559:1564  _time */\n      dup3\n        /* \"BASE-LEARN/ControlStructures.sol\":1559:1572  _time <= 1259 */\n      gt\n      iszero\n        /* \"BASE-LEARN/ControlStructures.sol\":1542:1572  _time >= 1200 && _time <= 1259 */\n    tag_47:\n        /* \"BASE-LEARN/ControlStructures.sol\":1538:1620  if (_time >= 1200 && _time <= 1259) {... */\n      iszero\n      tag_48\n      jumpi\n        /* \"BASE-LEARN/ControlStructures.sol\":1589:1608  revert(\"At lunch!\") */\n      mload(0x40)\n      0x08c379a000000000000000000000000000000000000000000000000000000000\n      dup2\n      mstore\n      0x04\n      add\n      tag_49\n      swap1\n      tag_50\n      jump\t// in\n    tag_49:\n      mload(0x40)\n      dup1\n      swap2\n      sub\n      swap1\n      revert\n        /* \"BASE-LEARN/ControlStructures.sol\":1538:1620  if (_time >= 1200 && _time <= 1259) {... */\n    tag_48:\n        /* \"BASE-LEARN/ControlStructures.sol\":1709:1712  800 */\n      0x0320\n        /* \"BASE-LEARN/ControlStructures.sol\":1700:1705  _time */\n      dup3\n        /* \"BASE-LEARN/ControlStructures.sol\":1700:1712  _time >= 800 */\n      lt\n      iszero\n        /* \"BASE-LEARN/ControlStructures.sol\":1700:1729  _time >= 800 && _time <= 1199 */\n      dup1\n      iszero\n      tag_51\n      jumpi\n      pop\n        /* \"BASE-LEARN/ControlStructures.sol\":1725:1729  1199 */\n      0x04af\n        /* \"BASE-LEARN/ControlStructures.sol\":1716:1721  _time */\n      dup3\n        /* \"BASE-LEARN/ControlStructures.sol\":1716:1729  _time <= 1199 */\n      gt\n      iszero\n        /* \"BASE-LEARN/ControlStructures.sol\":1700:1729  _time >= 800 && _time <= 1199 */\n    tag_51:\n        /* \"BASE-LEARN/ControlStructures.sol\":1696:1775  if (_time >= 800 && _time <= 1199) {... */\n      iszero\n      tag_52\n      jumpi\n        /* \"BASE-LEARN/ControlStructures.sol\":1746:1763  return \"Morning!\" */\n      mload(0x40)\n      dup1\n      0x40\n      add\n      0x40\n      mstore\n      dup1\n      0x08\n      dup2\n      mstore\n      0x20\n      add\n      0x4d6f726e696e6721000000000000000000000000000000000000000000000000\n      dup2\n      mstore\n      pop\n      swap1\n      pop\n      jump(tag_39)\n        /* \"BASE-LEARN/ControlStructures.sol\":1696:1775  if (_time >= 800 && _time <= 1199) {... */\n    tag_52:\n        /* \"BASE-LEARN/ControlStructures.sol\":1867:1871  1300 */\n      0x0514\n        /* \"BASE-LEARN/ControlStructures.sol\":1858:1863  _time */\n      dup3\n        /* \"BASE-LEARN/ControlStructures.sol\":1858:1871  _time >= 1300 */\n      lt\n      iszero\n        /* \"BASE-LEARN/ControlStructures.sol\":1858:1888  _time >= 1300 && _time <= 1799 */\n      dup1\n      iszero\n      tag_53\n      jumpi\n      pop\n        /* \"BASE-LEARN/ControlStructures.sol\":1884:1888  1799 */\n      0x0707\n        /* \"BASE-LEARN/ControlStructures.sol\":1875:1880  _time */\n      dup3\n        /* \"BASE-LEARN/ControlStructures.sol\":1875:1888  _time <= 1799 */\n      gt\n      iszero\n        /* \"BASE-LEARN/ControlStructures.sol\":1858:1888  _time >= 1300 && _time <= 1799 */\n    tag_53:\n        /* \"BASE-LEARN/ControlStructures.sol\":1854:1936  if (_time >= 1300 && _time <= 1799) {... */\n      iszero\n      tag_54\n      jumpi\n        /* \"BASE-LEARN/ControlStructures.sol\":1905:1924  return \"Afternoon!\" */\n      mload(0x40)\n      dup1\n      0x40\n      add\n      0x40\n      mstore\n      dup1\n      0x0a\n      dup2\n      mstore\n      0x20\n      add\n      0x41667465726e6f6f6e2100000000000000000000000000000000000000000000\n      dup2\n      mstore\n      pop\n      swap1\n      pop\n      jump(tag_39)\n        /* \"BASE-LEARN/ControlStructures.sol\":1854:1936  if (_time >= 1300 && _time <= 1799) {... */\n    tag_54:\n        /* \"BASE-LEARN/ControlStructures.sol\":2026:2030  1800 */\n      0x0708\n        /* \"BASE-LEARN/ControlStructures.sol\":2017:2022  _time */\n      dup3\n        /* \"BASE-LEARN/ControlStructures.sol\":2017:2030  _time >= 1800 */\n      lt\n      iszero\n        /* \"BASE-LEARN/ControlStructures.sol\":2017:2047  _time >= 1800 && _time <= 2200 */\n      dup1\n      iszero\n      tag_55\n      jumpi\n      pop\n        /* \"BASE-LEARN/ControlStructures.sol\":2043:2047  2200 */\n      0x0898\n        /* \"BASE-LEARN/ControlStructures.sol\":2034:2039  _time */\n      dup3\n        /* \"BASE-LEARN/ControlStructures.sol\":2034:2047  _time <= 2200 */\n      gt\n      iszero\n        /* \"BASE-LEARN/ControlStructures.sol\":2017:2047  _time >= 1800 && _time <= 2200 */\n    tag_55:\n        /* \"BASE-LEARN/ControlStructures.sol\":2013:2093  if (_time >= 1800 && _time <= 2200) {... */\n      iszero\n      tag_56\n      jumpi\n        /* \"BASE-LEARN/ControlStructures.sol\":2064:2081  return \"Evening!\" */\n      mload(0x40)\n      dup1\n      0x40\n      add\n      0x40\n      mstore\n      dup1\n      0x08\n      dup2\n      mstore\n      0x20\n      add\n      0x4576656e696e6721000000000000000000000000000000000000000000000000\n      dup2\n      mstore\n      pop\n      swap1\n      pop\n      jump(tag_39)\n        /* \"BASE-LEARN/ControlStructures.sol\":2013:2093  if (_time >= 1800 && _time <= 2200) {... */\n    tag_56:\n        /* \"BASE-LEARN/ControlStructures.sol\":2160:2182  revert(\"Invalid time\") */\n      mload(0x40)\n      0x08c379a000000000000000000000000000000000000000000000000000000000\n      dup2\n      mstore\n      0x04\n      add\n      tag_57\n      swap1\n      tag_58\n      jump\t// in\n    tag_57:\n      mload(0x40)\n      dup1\n      swap2\n      sub\n      swap1\n      revert\n        /* \"BASE-LEARN/ControlStructures.sol\":1082:2190  function doNotDisturb(uint256 _time) public pure returns (string memory) {... */\n    tag_39:\n      swap2\n      swap1\n      pop\n      jump\t// out\n        /* \"#utility.yul\":88:205   */\n    tag_60:\n        /* \"#utility.yul\":197:198   */\n      0x00\n        /* \"#utility.yul\":194:195   */\n      dup1\n        /* \"#utility.yul\":187:199   */\n      revert\n        /* \"#utility.yul\":334:411   */\n    tag_62:\n        /* \"#utility.yul\":371:378   */\n      0x00\n        /* \"#utility.yul\":400:405   */\n      dup2\n        /* \"#utility.yul\":389:405   */\n      swap1\n      pop\n        /* \"#utility.yul\":334:411   */\n      swap2\n      swap1\n      pop\n      jump\t// out\n        /* \"#utility.yul\":417:539   */\n    tag_63:\n        /* \"#utility.yul\":490:514   */\n      tag_85\n        /* \"#utility.yul\":508:513   */\n      dup2\n        /* \"#utility.yul\":490:514   */\n      tag_62\n      jump\t// in\n    tag_85:\n        /* \"#utility.yul\":483:488   */\n      dup2\n        /* \"#utility.yul\":480:515   */\n      eq\n        /* \"#utility.yul\":470:533   */\n      tag_86\n      jumpi\n        /* \"#utility.yul\":529:530   */\n      0x00\n        /* \"#utility.yul\":526:527   */\n      dup1\n        /* \"#utility.yul\":519:531   */\n      revert\n        /* \"#utility.yul\":470:533   */\n    tag_86:\n        /* \"#utility.yul\":417:539   */\n      pop\n      jump\t// out\n        /* \"#utility.yul\":545:684   */\n    tag_64:\n        /* \"#utility.yul\":591:596   */\n      0x00\n        /* \"#utility.yul\":629:635   */\n      dup2\n        /* \"#utility.yul\":616:636   */\n      calldataload\n        /* \"#utility.yul\":607:636   */\n      swap1\n      pop\n        /* \"#utility.yul\":645:678   */\n      tag_88\n        /* \"#utility.yul\":672:677   */\n      dup2\n        /* \"#utility.yul\":645:678   */\n      tag_63\n      jump\t// in\n    tag_88:\n        /* \"#utility.yul\":545:684   */\n      swap3\n      swap2\n      pop\n      pop\n      jump\t// out\n        /* \"#utility.yul\":690:1019   */\n    tag_8:\n        /* \"#utility.yul\":749:755   */\n      0x00\n        /* \"#utility.yul\":798:800   */\n      0x20\n        /* \"#utility.yul\":786:795   */\n      dup3\n        /* \"#utility.yul\":777:784   */\n      dup5\n        /* \"#utility.yul\":773:796   */\n      sub\n        /* \"#utility.yul\":769:801   */\n      slt\n        /* \"#utility.yul\":766:885   */\n      iszero\n      tag_90\n      jumpi\n        /* \"#utility.yul\":804:883   */\n      tag_91\n      tag_60\n      jump\t// in\n    tag_91:\n        /* \"#utility.yul\":766:885   */\n    tag_90:\n        /* \"#utility.yul\":924:925   */\n      0x00\n        /* \"#utility.yul\":949:1002   */\n      tag_92\n        /* \"#utility.yul\":994:1001   */\n      dup5\n        /* \"#utility.yul\":985:991   */\n      dup3\n        /* \"#utility.yul\":974:983   */\n      dup6\n        /* \"#utility.yul\":970:992   */\n      add\n        /* \"#utility.yul\":949:1002   */\n      tag_64\n      jump\t// in\n    tag_92:\n        /* \"#utility.yul\":939:1002   */\n      swap2\n      pop\n        /* \"#utility.yul\":895:1012   */\n      pop\n        /* \"#utility.yul\":690:1019   */\n      swap3\n      swap2\n      pop\n      pop\n      jump\t// out\n        /* \"#utility.yul\":1025:1124   */\n    tag_65:\n        /* \"#utility.yul\":1077:1083   */\n      0x00\n        /* \"#utility.yul\":1111:1116   */\n      dup2\n        /* \"#utility.yul\":1105:1117   */\n      mload\n        /* \"#utility.yul\":1095:1117   */\n      swap1\n      pop\n        /* \"#utility.yul\":1025:1124   */\n      swap2\n      swap1\n      pop\n      jump\t// out\n        /* \"#utility.yul\":1130:1299   */\n    tag_66:\n        /* \"#utility.yul\":1214:1225   */\n      0x00\n        /* \"#utility.yul\":1248:1254   */\n      dup3\n        /* \"#utility.yul\":1243:1246   */\n      dup3\n        /* \"#utility.yul\":1236:1255   */\n      mstore\n        /* \"#utility.yul\":1288:1292   */\n      0x20\n        /* \"#utility.yul\":1283:1286   */\n      dup3\n        /* \"#utility.yul\":1279:1293   */\n      add\n        /* \"#utility.yul\":1264:1293   */\n      swap1\n      pop\n        /* \"#utility.yul\":1130:1299   */\n      swap3\n      swap2\n      pop\n      pop\n      jump\t// out\n        /* \"#utility.yul\":1305:1551   */\n    tag_67:\n        /* \"#utility.yul\":1386:1387   */\n      0x00\n        /* \"#utility.yul\":1396:1509   */\n    tag_96:\n        /* \"#utility.yul\":1410:1416   */\n      dup4\n        /* \"#utility.yul\":1407:1408   */\n      dup2\n        /* \"#utility.yul\":1404:1417   */\n      lt\n        /* \"#utility.yul\":1396:1509   */\n      iszero\n      tag_98\n      jumpi\n        /* \"#utility.yul\":1495:1496   */\n      dup1\n        /* \"#utility.yul\":1490:1493   */\n      dup3\n        /* \"#utility.yul\":1486:1497   */\n      add\n        /* \"#utility.yul\":1480:1498   */\n      mload\n        /* \"#utility.yul\":1476:1477   */\n      dup2\n        /* \"#utility.yul\":1471:1474   */\n      dup5\n        /* \"#utility.yul\":1467:1478   */\n      add\n        /* \"#utility.yul\":1460:1499   */\n      mstore\n        /* \"#utility.yul\":1432:1434   */\n      0x20\n        /* \"#utility.yul\":1429:1430   */\n      dup2\n        /* \"#utility.yul\":1425:1435   */\n      add\n        /* \"#utility.yul\":1420:1435   */\n      swap1\n      pop\n        /* \"#utility.yul\":1396:1509   */\n      jump(tag_96)\n    tag_98:\n        /* \"#utility.yul\":1543:1544   */\n      0x00\n        /* \"#utility.yul\":1534:1540   */\n      dup5\n        /* \"#utility.yul\":1529:1532   */\n      dup5\n        /* \"#utility.yul\":1525:1541   */\n      add\n        /* \"#utility.yul\":1518:1545   */\n      mstore\n        /* \"#utility.yul\":1367:1551   */\n      pop\n        /* \"#utility.yul\":1305:1551   */\n      pop\n      pop\n      pop\n      jump\t// out\n        /* \"#utility.yul\":1557:1659   */\n    tag_68:\n        /* \"#utility.yul\":1598:1604   */\n      0x00\n        /* \"#utility.yul\":1649:1651   */\n      0x1f\n        /* \"#utility.yul\":1645:1652   */\n      not\n        /* \"#utility.yul\":1640:1642   */\n      0x1f\n        /* \"#utility.yul\":1633:1638   */\n      dup4\n        /* \"#utility.yul\":1629:1643   */\n      add\n        /* \"#utility.yul\":1625:1653   */\n      and\n        /* \"#utility.yul\":1615:1653   */\n      swap1\n      pop\n        /* \"#utility.yul\":1557:1659   */\n      swap2\n      swap1\n      pop\n      jump\t// out\n        /* \"#utility.yul\":1665:2042   */\n    tag_69:\n        /* \"#utility.yul\":1753:1756   */\n      0x00\n        /* \"#utility.yul\":1781:1820   */\n      tag_101\n        /* \"#utility.yul\":1814:1819   */\n      dup3\n        /* \"#utility.yul\":1781:1820   */\n      tag_65\n      jump\t// in\n    tag_101:\n        /* \"#utility.yul\":1836:1907   */\n      tag_102\n        /* \"#utility.yul\":1900:1906   */\n      dup2\n        /* \"#utility.yul\":1895:1898   */\n      dup6\n        /* \"#utility.yul\":1836:1907   */\n      tag_66\n      jump\t// in\n    tag_102:\n        /* \"#utility.yul\":1829:1907   */\n      swap4\n      pop\n        /* \"#utility.yul\":1916:1981   */\n      tag_103\n        /* \"#utility.yul\":1974:1980   */\n      dup2\n        /* \"#utility.yul\":1969:1972   */\n      dup6\n        /* \"#utility.yul\":1962:1966   */\n      0x20\n        /* \"#utility.yul\":1955:1960   */\n      dup7\n        /* \"#utility.yul\":1951:1967   */\n      add\n        /* \"#utility.yul\":1916:1981   */\n      tag_67\n      jump\t// in\n    tag_103:\n        /* \"#utility.yul\":2006:2035   */\n      tag_104\n        /* \"#utility.yul\":2028:2034   */\n      dup2\n        /* \"#utility.yul\":2006:2035   */\n      tag_68\n      jump\t// in\n    tag_104:\n        /* \"#utility.yul\":2001:2004   */\n      dup5\n        /* \"#utility.yul\":1997:2036   */\n      add\n        /* \"#utility.yul\":1990:2036   */\n      swap2\n      pop\n        /* \"#utility.yul\":1757:2042   */\n      pop\n        /* \"#utility.yul\":1665:2042   */\n      swap3\n      swap2\n      pop\n      pop\n      jump\t// out\n        /* \"#utility.yul\":2048:2361   */\n    tag_11:\n        /* \"#utility.yul\":2161:2165   */\n      0x00\n        /* \"#utility.yul\":2199:2201   */\n      0x20\n        /* \"#utility.yul\":2188:2197   */\n      dup3\n        /* \"#utility.yul\":2184:2202   */\n      add\n        /* \"#utility.yul\":2176:2202   */\n      swap1\n      pop\n        /* \"#utility.yul\":2248:2257   */\n      dup2\n        /* \"#utility.yul\":2242:2246   */\n      dup2\n        /* \"#utility.yul\":2238:2258   */\n      sub\n        /* \"#utility.yul\":2234:2235   */\n      0x00\n        /* \"#utility.yul\":2223:2232   */\n      dup4\n        /* \"#utility.yul\":2219:2236   */\n      add\n        /* \"#utility.yul\":2212:2259   */\n      mstore\n        /* \"#utility.yul\":2276:2354   */\n      tag_106\n        /* \"#utility.yul\":2349:2353   */\n      dup2\n        /* \"#utility.yul\":2340:2346   */\n      dup5\n        /* \"#utility.yul\":2276:2354   */\n      tag_69\n      jump\t// in\n    tag_106:\n        /* \"#utility.yul\":2268:2354   */\n      swap1\n      pop\n        /* \"#utility.yul\":2048:2361   */\n      swap3\n      swap2\n      pop\n      pop\n      jump\t// out\n        /* \"#utility.yul\":2367:2443   */\n    tag_70:\n        /* \"#utility.yul\":2403:2410   */\n      0x00\n        /* \"#utility.yul\":2432:2437   */\n      dup2\n        /* \"#utility.yul\":2421:2437   */\n      swap1\n      pop\n        /* \"#utility.yul\":2367:2443   */\n      swap2\n      swap1\n      pop\n      jump\t// out\n        /* \"#utility.yul\":2449:2569   */\n    tag_71:\n        /* \"#utility.yul\":2521:2544   */\n      tag_109\n        /* \"#utility.yul\":2538:2543   */\n      dup2\n        /* \"#utility.yul\":2521:2544   */\n      tag_70\n      jump\t// in\n    tag_109:\n        /* \"#utility.yul\":2514:2519   */\n      dup2\n        /* \"#utility.yul\":2511:2545   */\n      eq\n        /* \"#utility.yul\":2501:2563   */\n      tag_110\n      jumpi\n        /* \"#utility.yul\":2559:2560   */\n      0x00\n        /* \"#utility.yul\":2556:2557   */\n      dup1\n        /* \"#utility.yul\":2549:2561   */\n      revert\n        /* \"#utility.yul\":2501:2563   */\n    tag_110:\n        /* \"#utility.yul\":2449:2569   */\n      pop\n      jump\t// out\n        /* \"#utility.yul\":2575:2712   */\n    tag_72:\n        /* \"#utility.yul\":2620:2625   */\n      0x00\n        /* \"#utility.yul\":2658:2664   */\n      dup2\n        /* \"#utility.yul\":2645:2665   */\n      calldataload\n        /* \"#utility.yul\":2636:2665   */\n      swap1\n      pop\n        /* \"#utility.yul\":2674:2706   */\n      tag_112\n        /* \"#utility.yul\":2700:2705   */\n      dup2\n        /* \"#utility.yul\":2674:2706   */\n      tag_71\n      jump\t// in\n    tag_112:\n        /* \"#utility.yul\":2575:2712   */\n      swap3\n      swap2\n      pop\n      pop\n      jump\t// out\n        /* \"#utility.yul\":2718:3045   */\n    tag_14:\n        /* \"#utility.yul\":2776:2782   */\n      0x00\n        /* \"#utility.yul\":2825:2827   */\n      0x20\n        /* \"#utility.yul\":2813:2822   */\n      dup3\n        /* \"#utility.yul\":2804:2811   */\n      dup5\n        /* \"#utility.yul\":2800:2823   */\n      sub\n        /* \"#utility.yul\":2796:2828   */\n      slt\n        /* \"#utility.yul\":2793:2912   */\n      iszero\n      tag_114\n      jumpi\n        /* \"#utility.yul\":2831:2910   */\n      tag_115\n      tag_60\n      jump\t// in\n    tag_115:\n        /* \"#utility.yul\":2793:2912   */\n    tag_114:\n        /* \"#utility.yul\":2951:2952   */\n      0x00\n        /* \"#utility.yul\":2976:3028   */\n      tag_116\n        /* \"#utility.yul\":3020:3027   */\n      dup5\n        /* \"#utility.yul\":3011:3017   */\n      dup3\n        /* \"#utility.yul\":3000:3009   */\n      dup6\n        /* \"#utility.yul\":2996:3018   */\n      add\n        /* \"#utility.yul\":2976:3028   */\n      tag_72\n      jump\t// in\n    tag_116:\n        /* \"#utility.yul\":2966:3028   */\n      swap2\n      pop\n        /* \"#utility.yul\":2922:3038   */\n      pop\n        /* \"#utility.yul\":2718:3045   */\n      swap3\n      swap2\n      pop\n      pop\n      jump\t// out\n        /* \"#utility.yul\":3051:3231   */\n    tag_73:\n        /* \"#utility.yul\":3099:3176   */\n      0x4e487b7100000000000000000000000000000000000000000000000000000000\n        /* \"#utility.yul\":3096:3097   */\n      0x00\n        /* \"#utility.yul\":3089:3177   */\n      mstore\n        /* \"#utility.yul\":3196:3200   */\n      0x12\n        /* \"#utility.yul\":3193:3194   */\n      0x04\n        /* \"#utility.yul\":3186:3201   */\n      mstore\n        /* \"#utility.yul\":3220:3224   */\n      0x24\n        /* \"#utility.yul\":3217:3218   */\n      0x00\n        /* \"#utility.yul\":3210:3225   */\n      revert\n        /* \"#utility.yul\":3237:3413   */\n    tag_23:\n        /* \"#utility.yul\":3269:3270   */\n      0x00\n        /* \"#utility.yul\":3286:3306   */\n      tag_119\n        /* \"#utility.yul\":3304:3305   */\n      dup3\n        /* \"#utility.yul\":3286:3306   */\n      tag_62\n      jump\t// in\n    tag_119:\n        /* \"#utility.yul\":3281:3306   */\n      swap2\n      pop\n        /* \"#utility.yul\":3320:3340   */\n      tag_120\n        /* \"#utility.yul\":3338:3339   */\n      dup4\n        /* \"#utility.yul\":3320:3340   */\n      tag_62\n      jump\t// in\n    tag_120:\n        /* \"#utility.yul\":3315:3340   */\n      swap3\n      pop\n        /* \"#utility.yul\":3359:3360   */\n      dup3\n        /* \"#utility.yul\":3349:3384   */\n      tag_121\n      jumpi\n        /* \"#utility.yul\":3364:3382   */\n      tag_122\n      tag_73\n      jump\t// in\n    tag_122:\n        /* \"#utility.yul\":3349:3384   */\n    tag_121:\n        /* \"#utility.yul\":3405:3406   */\n      dup3\n        /* \"#utility.yul\":3402:3403   */\n      dup3\n        /* \"#utility.yul\":3398:3407   */\n      mod\n        /* \"#utility.yul\":3393:3407   */\n      swap1\n      pop\n        /* \"#utility.yul\":3237:3413   */\n      swap3\n      swap2\n      pop\n      pop\n      jump\t// out\n        /* \"#utility.yul\":3419:3599   */\n    tag_42:\n        /* \"#utility.yul\":3467:3544   */\n      0x4e487b7100000000000000000000000000000000000000000000000000000000\n        /* \"#utility.yul\":3464:3465   */\n      0x00\n        /* \"#utility.yul\":3457:3545   */\n      mstore\n        /* \"#utility.yul\":3564:3568   */\n      0x01\n        /* \"#utility.yul\":3561:3562   */\n      0x04\n        /* \"#utility.yul\":3554:3569   */\n      mstore\n        /* \"#utility.yul\":3588:3592   */\n      0x24\n        /* \"#utility.yul\":3585:3586   */\n      0x00\n        /* \"#utility.yul\":3578:3593   */\n      revert\n        /* \"#utility.yul\":3605:3723   */\n    tag_74:\n        /* \"#utility.yul\":3692:3716   */\n      tag_125\n        /* \"#utility.yul\":3710:3715   */\n      dup2\n        /* \"#utility.yul\":3692:3716   */\n      tag_62\n      jump\t// in\n    tag_125:\n        /* \"#utility.yul\":3687:3690   */\n      dup3\n        /* \"#utility.yul\":3680:3717   */\n      mstore\n        /* \"#utility.yul\":3605:3723   */\n      pop\n      pop\n      jump\t// out\n        /* \"#utility.yul\":3729:3951   */\n    tag_46:\n        /* \"#utility.yul\":3822:3826   */\n      0x00\n        /* \"#utility.yul\":3860:3862   */\n      0x20\n        /* \"#utility.yul\":3849:3858   */\n      dup3\n        /* \"#utility.yul\":3845:3863   */\n      add\n        /* \"#utility.yul\":3837:3863   */\n      swap1\n      pop\n        /* \"#utility.yul\":3873:3944   */\n      tag_127\n        /* \"#utility.yul\":3941:3942   */\n      0x00\n        /* \"#utility.yul\":3930:3939   */\n      dup4\n        /* \"#utility.yul\":3926:3943   */\n      add\n        /* \"#utility.yul\":3917:3923   */\n      dup5\n        /* \"#utility.yul\":3873:3944   */\n      tag_74\n      jump\t// in\n    tag_127:\n        /* \"#utility.yul\":3729:3951   */\n      swap3\n      swap2\n      pop\n      pop\n      jump\t// out\n        /* \"#utility.yul\":3957:4116   */\n    tag_75:\n        /* \"#utility.yul\":4097:4108   */\n      0x4174206c756e6368210000000000000000000000000000000000000000000000\n        /* \"#utility.yul\":4093:4094   */\n      0x00\n        /* \"#utility.yul\":4085:4091   */\n      dup3\n        /* \"#utility.yul\":4081:4095   */\n      add\n        /* \"#utility.yul\":4074:4109   */\n      mstore\n        /* \"#utility.yul\":3957:4116   */\n      pop\n      jump\t// out\n        /* \"#utility.yul\":4122:4487   */\n    tag_76:\n        /* \"#utility.yul\":4264:4267   */\n      0x00\n        /* \"#utility.yul\":4285:4351   */\n      tag_130\n        /* \"#utility.yul\":4349:4350   */\n      0x09\n        /* \"#utility.yul\":4344:4347   */\n      dup4\n        /* \"#utility.yul\":4285:4351   */\n      tag_66\n      jump\t// in\n    tag_130:\n        /* \"#utility.yul\":4278:4351   */\n      swap2\n      pop\n        /* \"#utility.yul\":4360:4453   */\n      tag_131\n        /* \"#utility.yul\":4449:4452   */\n      dup3\n        /* \"#utility.yul\":4360:4453   */\n      tag_75\n      jump\t// in\n    tag_131:\n        /* \"#utility.yul\":4478:4480   */\n      0x20\n        /* \"#utility.yul\":4473:4476   */\n      dup3\n        /* \"#utility.yul\":4469:4481   */\n      add\n        /* \"#utility.yul\":4462:4481   */\n      swap1\n      pop\n        /* \"#utility.yul\":4122:4487   */\n      swap2\n      swap1\n      pop\n      jump\t// out\n        /* \"#utility.yul\":4493:4912   */\n    tag_50:\n        /* \"#utility.yul\":4659:4663   */\n      0x00\n        /* \"#utility.yul\":4697:4699   */\n      0x20\n        /* \"#utility.yul\":4686:4695   */\n      dup3\n        /* \"#utility.yul\":4682:4700   */\n      add\n        /* \"#utility.yul\":4674:4700   */\n      swap1\n      pop\n        /* \"#utility.yul\":4746:4755   */\n      dup2\n        /* \"#utility.yul\":4740:4744   */\n      dup2\n        /* \"#utility.yul\":4736:4756   */\n      sub\n        /* \"#utility.yul\":4732:4733   */\n      0x00\n        /* \"#utility.yul\":4721:4730   */\n      dup4\n        /* \"#utility.yul\":4717:4734   */\n      add\n        /* \"#utility.yul\":4710:4757   */\n      mstore\n        /* \"#utility.yul\":4774:4905   */\n      tag_133\n        /* \"#utility.yul\":4900:4904   */\n      dup2\n        /* \"#utility.yul\":4774:4905   */\n      tag_76\n      jump\t// in\n    tag_133:\n        /* \"#utility.yul\":4766:4905   */\n      swap1\n      pop\n        /* \"#utility.yul\":4493:4912   */\n      swap2\n      swap1\n      pop\n      jump\t// out\n        /* \"#utility.yul\":4918:5080   */\n    tag_77:\n        /* \"#utility.yul\":5058:5072   */\n      0x496e76616c69642074696d650000000000000000000000000000000000000000\n        /* \"#utility.yul\":5054:5055   */\n      0x00\n        /* \"#utility.yul\":5046:5052   */\n      dup3\n        /* \"#utility.yul\":5042:5056   */\n      add\n        /* \"#utility.yul\":5035:5073   */\n      mstore\n        /* \"#utility.yul\":4918:5080   */\n      pop\n      jump\t// out\n        /* \"#utility.yul\":5086:5452   */\n    tag_78:\n        /* \"#utility.yul\":5228:5231   */\n      0x00\n        /* \"#utility.yul\":5249:5316   */\n      tag_136\n        /* \"#utility.yul\":5313:5315   */\n      0x0c\n        /* \"#utility.yul\":5308:5311   */\n      dup4\n        /* \"#utility.yul\":5249:5316   */\n      tag_66\n      jump\t// in\n    tag_136:\n        /* \"#utility.yul\":5242:5316   */\n      swap2\n      pop\n        /* \"#utility.yul\":5325:5418   */\n      tag_137\n        /* \"#utility.yul\":5414:5417   */\n      dup3\n        /* \"#utility.yul\":5325:5418   */\n      tag_77\n      jump\t// in\n    tag_137:\n        /* \"#utility.yul\":5443:5445   */\n      0x20\n        /* \"#utility.yul\":5438:5441   */\n      dup3\n        /* \"#utility.yul\":5434:5446   */\n      add\n        /* \"#utility.yul\":5427:5446   */\n      swap1\n      pop\n        /* \"#utility.yul\":5086:5452   */\n      swap2\n      swap1\n      pop\n      jump\t// out\n        /* \"#utility.yul\":5458:5877   */\n    tag_58:\n        /* \"#utility.yul\":5624:5628   */\n      0x00\n        /* \"#utility.yul\":5662:5664   */\n      0x20\n        /* \"#utility.yul\":5651:5660   */\n      dup3\n        /* \"#utility.yul\":5647:5665   */\n      add\n        /* \"#utility.yul\":5639:5665   */\n      swap1\n      pop\n        /* \"#utility.yul\":5711:5720   */\n      dup2\n        /* \"#utility.yul\":5705:5709   */\n      dup2\n        /* \"#utility.yul\":5701:5721   */\n      sub\n        /* \"#utility.yul\":5697:5698   */\n      0x00\n        /* \"#utility.yul\":5686:5695   */\n      dup4\n        /* \"#utility.yul\":5682:5699   */\n      add\n        /* \"#utility.yul\":5675:5722   */\n      mstore\n        /* \"#utility.yul\":5739:5870   */\n      tag_139\n        /* \"#utility.yul\":5865:5869   */\n      dup2\n        /* \"#utility.yul\":5739:5870   */\n      tag_78\n      jump\t// in\n    tag_139:\n        /* \"#utility.yul\":5731:5870   */\n      swap1\n      pop\n        /* \"#utility.yul\":5458:5877   */\n      swap2\n      swap1\n      pop\n      jump\t// out\n\n    auxdata: 0xa2646970667358221220f267f476b03fdbe52ae07f15c585dddcc49daa1989b19d87753572eabeacfb2164736f6c63430008140033\n}\n",
				"bytecode": {
					"linkReferences": {},
					"object": "608060405234801561000f575f80fd5b506108038061001d5f395ff3fe608060405234801561000f575f80fd5b506004361061003f575f3560e01c8063440c93e214610043578063cdc59abe14610073578063e655b7bb146100a3575b5f80fd5b61005d60048036038101906100589190610518565b6100d3565b60405161006a91906105cd565b60405180910390f35b61008d60048036038101906100889190610620565b61021b565b60405161009a91906105cd565b60405180910390f35b6100bd60048036038101906100b89190610518565b6102e4565b6040516100ca91906105cd565b60405180910390f35b60605f6003836100e39190610678565b1480156100fb57505f6005836100f99190610678565b145b1561013d576040518060400160405280600881526020017f46697a7a42757a7a0000000000000000000000000000000000000000000000008152509050610216565b5f60038361014b9190610678565b0361018d576040518060400160405280600481526020017f46697a7a000000000000000000000000000000000000000000000000000000008152509050610216565b5f60058361019b9190610678565b036101dd576040518060400160405280600481526020017f42757a7a000000000000000000000000000000000000000000000000000000008152509050610216565b6040518060400160405280600581526020017f53706c617400000000000000000000000000000000000000000000000000000081525090505b919050565b60605f821215610262576040518060400160405280600881526020017f4e6567617469766500000000000000000000000000000000000000000000000081525090506102df565b5f82036102a6576040518060400160405280600481526020017f5a65726f0000000000000000000000000000000000000000000000000000000081525090506102df565b6040518060400160405280600881526020017f506f73697469766500000000000000000000000000000000000000000000000081525090505b919050565b606061096082106102f8576102f76106a8565b5b610898821180610309575061032082105b1561034b57816040517fa4bf701e00000000000000000000000000000000000000000000000000000000815260040161034291906106e4565b60405180910390fd5b6104b0821015801561035f57506104eb8211155b1561039f576040517f08c379a000000000000000000000000000000000000000000000000000000000815260040161039690610747565b60405180910390fd5b61032082101580156103b357506104af8211155b156103f5576040518060400160405280600881526020017f4d6f726e696e672100000000000000000000000000000000000000000000000081525090506104dc565b610514821015801561040957506107078211155b1561044b576040518060400160405280600a81526020017f41667465726e6f6f6e210000000000000000000000000000000000000000000081525090506104dc565b610708821015801561045f57506108988211155b156104a1576040518060400160405280600881526020017f4576656e696e672100000000000000000000000000000000000000000000000081525090506104dc565b6040517f08c379a00000000000000000000000000000000000000000000000000000000081526004016104d3906107af565b60405180910390fd5b919050565b5f80fd5b5f819050919050565b6104f7816104e5565b8114610501575f80fd5b50565b5f81359050610512816104ee565b92915050565b5f6020828403121561052d5761052c6104e1565b5b5f61053a84828501610504565b91505092915050565b5f81519050919050565b5f82825260208201905092915050565b5f5b8381101561057a57808201518184015260208101905061055f565b5f8484015250505050565b5f601f19601f8301169050919050565b5f61059f82610543565b6105a9818561054d565b93506105b981856020860161055d565b6105c281610585565b840191505092915050565b5f6020820190508181035f8301526105e58184610595565b905092915050565b5f819050919050565b6105ff816105ed565b8114610609575f80fd5b50565b5f8135905061061a816105f6565b92915050565b5f60208284031215610635576106346104e1565b5b5f6106428482850161060c565b91505092915050565b7f4e487b71000000000000000000000000000000000000000000000000000000005f52601260045260245ffd5b5f610682826104e5565b915061068d836104e5565b92508261069d5761069c61064b565b5b828206905092915050565b7f4e487b71000000000000000000000000000000000000000000000000000000005f52600160045260245ffd5b6106de816104e5565b82525050565b5f6020820190506106f75f8301846106d5565b92915050565b7f4174206c756e63682100000000000000000000000000000000000000000000005f82015250565b5f61073160098361054d565b915061073c826106fd565b602082019050919050565b5f6020820190508181035f83015261075e81610725565b9050919050565b7f496e76616c69642074696d6500000000000000000000000000000000000000005f82015250565b5f610799600c8361054d565b91506107a482610765565b602082019050919050565b5f6020820190508181035f8301526107c68161078d565b905091905056fea2646970667358221220f267f476b03fdbe52ae07f15c585dddcc49daa1989b19d87753572eabeacfb2164736f6c63430008140033",
					"opcodes": "PUSH1 0x80 PUSH1 0x40 MSTORE CALLVALUE DUP1 ISZERO PUSH2 0xF JUMPI PUSH0 DUP1 REVERT JUMPDEST POP PUSH2 0x803 DUP1 PUSH2 0x1D PUSH0 CODECOPY PUSH0 RETURN INVALID PUSH1 0x80 PUSH1 0x40 MSTORE CALLVALUE DUP1 ISZERO PUSH2 0xF JUMPI PUSH0 DUP1 REVERT JUMPDEST POP PUSH1 0x4 CALLDATASIZE LT PUSH2 0x3F JUMPI PUSH0 CALLDATALOAD PUSH1 0xE0 SHR DUP1 PUSH4 0x440C93E2 EQ PUSH2 0x43 JUMPI DUP1 PUSH4 0xCDC59ABE EQ PUSH2 0x73 JUMPI DUP1 PUSH4 0xE655B7BB EQ PUSH2 0xA3 JUMPI JUMPDEST PUSH0 DUP1 REVERT JUMPDEST PUSH2 0x5D PUSH1 0x4 DUP1 CALLDATASIZE SUB DUP2 ADD SWAP1 PUSH2 0x58 SWAP2 SWAP1 PUSH2 0x518 JUMP JUMPDEST PUSH2 0xD3 JUMP JUMPDEST PUSH1 0x40 MLOAD PUSH2 0x6A SWAP2 SWAP1 PUSH2 0x5CD JUMP JUMPDEST PUSH1 0x40 MLOAD DUP1 SWAP2 SUB SWAP1 RETURN JUMPDEST PUSH2 0x8D PUSH1 0x4 DUP1 CALLDATASIZE SUB DUP2 ADD SWAP1 PUSH2 0x88 SWAP2 SWAP1 PUSH2 0x620 JUMP JUMPDEST PUSH2 0x21B JUMP JUMPDEST PUSH1 0x40 MLOAD PUSH2 0x9A SWAP2 SWAP1 PUSH2 0x5CD JUMP JUMPDEST PUSH1 0x40 MLOAD DUP1 SWAP2 SUB SWAP1 RETURN JUMPDEST PUSH2 0xBD PUSH1 0x4 DUP1 CALLDATASIZE SUB DUP2 ADD SWAP1 PUSH2 0xB8 SWAP2 SWAP1 PUSH2 0x518 JUMP JUMPDEST PUSH2 0x2E4 JUMP JUMPDEST PUSH1 0x40 MLOAD PUSH2 0xCA SWAP2 SWAP1 PUSH2 0x5CD JUMP JUMPDEST PUSH1 0x40 MLOAD DUP1 SWAP2 SUB SWAP1 RETURN JUMPDEST PUSH1 0x60 PUSH0 PUSH1 0x3 DUP4 PUSH2 0xE3 SWAP2 SWAP1 PUSH2 0x678 JUMP JUMPDEST EQ DUP1 ISZERO PUSH2 0xFB JUMPI POP PUSH0 PUSH1 0x5 DUP4 PUSH2 0xF9 SWAP2 SWAP1 PUSH2 0x678 JUMP JUMPDEST EQ JUMPDEST ISZERO PUSH2 0x13D JUMPI PUSH1 0x40 MLOAD DUP1 PUSH1 0x40 ADD PUSH1 0x40 MSTORE DUP1 PUSH1 0x8 DUP2 MSTORE PUSH1 0x20 ADD PUSH32 0x46697A7A42757A7A000000000000000000000000000000000000000000000000 DUP2 MSTORE POP SWAP1 POP PUSH2 0x216 JUMP JUMPDEST PUSH0 PUSH1 0x3 DUP4 PUSH2 0x14B SWAP2 SWAP1 PUSH2 0x678 JUMP JUMPDEST SUB PUSH2 0x18D JUMPI PUSH1 0x40 MLOAD DUP1 PUSH1 0x40 ADD PUSH1 0x40 MSTORE DUP1 PUSH1 0x4 DUP2 MSTORE PUSH1 0x20 ADD PUSH32 0x46697A7A00000000000000000000000000000000000000000000000000000000 DUP2 MSTORE POP SWAP1 POP PUSH2 0x216 JUMP JUMPDEST PUSH0 PUSH1 0x5 DUP4 PUSH2 0x19B SWAP2 SWAP1 PUSH2 0x678 JUMP JUMPDEST SUB PUSH2 0x1DD JUMPI PUSH1 0x40 MLOAD DUP1 PUSH1 0x40 ADD PUSH1 0x40 MSTORE DUP1 PUSH1 0x4 DUP2 MSTORE PUSH1 0x20 ADD PUSH32 0x42757A7A00000000000000000000000000000000000000000000000000000000 DUP2 MSTORE POP SWAP1 POP PUSH2 0x216 JUMP JUMPDEST PUSH1 0x40 MLOAD DUP1 PUSH1 0x40 ADD PUSH1 0x40 MSTORE DUP1 PUSH1 0x5 DUP2 MSTORE PUSH1 0x20 ADD PUSH32 0x53706C6174000000000000000000000000000000000000000000000000000000 DUP2 MSTORE POP SWAP1 POP JUMPDEST SWAP2 SWAP1 POP JUMP JUMPDEST PUSH1 0x60 PUSH0 DUP3 SLT ISZERO PUSH2 0x262 JUMPI PUSH1 0x40 MLOAD DUP1 PUSH1 0x40 ADD PUSH1 0x40 MSTORE DUP1 PUSH1 0x8 DUP2 MSTORE PUSH1 0x20 ADD PUSH32 0x4E65676174697665000000000000000000000000000000000000000000000000 DUP2 MSTORE POP SWAP1 POP PUSH2 0x2DF JUMP JUMPDEST PUSH0 DUP3 SUB PUSH2 0x2A6 JUMPI PUSH1 0x40 MLOAD DUP1 PUSH1 0x40 ADD PUSH1 0x40 MSTORE DUP1 PUSH1 0x4 DUP2 MSTORE PUSH1 0x20 ADD PUSH32 0x5A65726F00000000000000000000000000000000000000000000000000000000 DUP2 MSTORE POP SWAP1 POP PUSH2 0x2DF JUMP JUMPDEST PUSH1 0x40 MLOAD DUP1 PUSH1 0x40 ADD PUSH1 0x40 MSTORE DUP1 PUSH1 0x8 DUP2 MSTORE PUSH1 0x20 ADD PUSH32 0x506F736974697665000000000000000000000000000000000000000000000000 DUP2 MSTORE POP SWAP1 POP JUMPDEST SWAP2 SWAP1 POP JUMP JUMPDEST PUSH1 0x60 PUSH2 0x960 DUP3 LT PUSH2 0x2F8 JUMPI PUSH2 0x2F7 PUSH2 0x6A8 JUMP JUMPDEST JUMPDEST PUSH2 0x898 DUP3 GT DUP1 PUSH2 0x309 JUMPI POP PUSH2 0x320 DUP3 LT JUMPDEST ISZERO PUSH2 0x34B JUMPI DUP2 PUSH1 0x40 MLOAD PUSH32 0xA4BF701E00000000000000000000000000000000000000000000000000000000 DUP2 MSTORE PUSH1 0x4 ADD PUSH2 0x342 SWAP2 SWAP1 PUSH2 0x6E4 JUMP JUMPDEST PUSH1 0x40 MLOAD DUP1 SWAP2 SUB SWAP1 REVERT JUMPDEST PUSH2 0x4B0 DUP3 LT ISZERO DUP1 ISZERO PUSH2 0x35F JUMPI POP PUSH2 0x4EB DUP3 GT ISZERO JUMPDEST ISZERO PUSH2 0x39F JUMPI PUSH1 0x40 MLOAD PUSH32 0x8C379A000000000000000000000000000000000000000000000000000000000 DUP2 MSTORE PUSH1 0x4 ADD PUSH2 0x396 SWAP1 PUSH2 0x747 JUMP JUMPDEST PUSH1 0x40 MLOAD DUP1 SWAP2 SUB SWAP1 REVERT JUMPDEST PUSH2 0x320 DUP3 LT ISZERO DUP1 ISZERO PUSH2 0x3B3 JUMPI POP PUSH2 0x4AF DUP3 GT ISZERO JUMPDEST ISZERO PUSH2 0x3F5 JUMPI PUSH1 0x40 MLOAD DUP1 PUSH1 0x40 ADD PUSH1 0x40 MSTORE DUP1 PUSH1 0x8 DUP2 MSTORE PUSH1 0x20 ADD PUSH32 0x4D6F726E696E6721000000000000000000000000000000000000000000000000 DUP2 MSTORE POP SWAP1 POP PUSH2 0x4DC JUMP JUMPDEST PUSH2 0x514 DUP3 LT ISZERO DUP1 ISZERO PUSH2 0x409 JUMPI POP PUSH2 0x707 DUP3 GT ISZERO JUMPDEST ISZERO PUSH2 0x44B JUMPI PUSH1 0x40 MLOAD DUP1 PUSH1 0x40 ADD PUSH1 0x40 MSTORE DUP1 PUSH1 0xA DUP2 MSTORE PUSH1 0x20 ADD PUSH32 0x41667465726E6F6F6E2100000000000000000000000000000000000000000000 DUP2 MSTORE POP SWAP1 POP PUSH2 0x4DC JUMP JUMPDEST PUSH2 0x708 DUP3 LT ISZERO DUP1 ISZERO PUSH2 0x45F JUMPI POP PUSH2 0x898 DUP3 GT ISZERO JUMPDEST ISZERO PUSH2 0x4A1 JUMPI PUSH1 0x40 MLOAD DUP1 PUSH1 0x40 ADD PUSH1 0x40 MSTORE DUP1 PUSH1 0x8 DUP2 MSTORE PUSH1 0x20 ADD PUSH32 0x4576656E696E6721000000000000000000000000000000000000000000000000 DUP2 MSTORE POP SWAP1 POP PUSH2 0x4DC JUMP JUMPDEST PUSH1 0x40 MLOAD PUSH32 0x8C379A000000000000000000000000000000000000000000000000000000000 DUP2 MSTORE PUSH1 0x4 ADD PUSH2 0x4D3 SWAP1 PUSH2 0x7AF JUMP JUMPDEST PUSH1 0x40 MLOAD DUP1 SWAP2 SUB SWAP1 REVERT JUMPDEST SWAP2 SWAP1 POP JUMP JUMPDEST PUSH0 DUP1 REVERT JUMPDEST PUSH0 DUP2 SWAP1 POP SWAP2 SWAP1 POP JUMP JUMPDEST PUSH2 0x4F7 DUP2 PUSH2 0x4E5 JUMP JUMPDEST DUP2 EQ PUSH2 0x501 JUMPI PUSH0 DUP1 REVERT JUMPDEST POP JUMP JUMPDEST PUSH0 DUP2 CALLDATALOAD SWAP1 POP PUSH2 0x512 DUP2 PUSH2 0x4EE JUMP JUMPDEST SWAP3 SWAP2 POP POP JUMP JUMPDEST PUSH0 PUSH1 0x20 DUP3 DUP5 SUB SLT ISZERO PUSH2 0x52D JUMPI PUSH2 0x52C PUSH2 0x4E1 JUMP JUMPDEST JUMPDEST PUSH0 PUSH2 0x53A DUP5 DUP3 DUP6 ADD PUSH2 0x504 JUMP JUMPDEST SWAP2 POP POP SWAP3 SWAP2 POP POP JUMP JUMPDEST PUSH0 DUP2 MLOAD SWAP1 POP SWAP2 SWAP1 POP JUMP JUMPDEST PUSH0 DUP3 DUP3 MSTORE PUSH1 0x20 DUP3 ADD SWAP1 POP SWAP3 SWAP2 POP POP JUMP JUMPDEST PUSH0 JUMPDEST DUP4 DUP2 LT ISZERO PUSH2 0x57A JUMPI DUP1 DUP3 ADD MLOAD DUP2 DUP5 ADD MSTORE PUSH1 0x20 DUP2 ADD SWAP1 POP PUSH2 0x55F JUMP JUMPDEST PUSH0 DUP5 DUP5 ADD MSTORE POP POP POP POP JUMP JUMPDEST PUSH0 PUSH1 0x1F NOT PUSH1 0x1F DUP4 ADD AND SWAP1 POP SWAP2 SWAP1 POP JUMP JUMPDEST PUSH0 PUSH2 0x59F DUP3 PUSH2 0x543 JUMP JUMPDEST PUSH2 0x5A9 DUP2 DUP6 PUSH2 0x54D JUMP JUMPDEST SWAP4 POP PUSH2 0x5B9 DUP2 DUP6 PUSH1 0x20 DUP7 ADD PUSH2 0x55D JUMP JUMPDEST PUSH2 0x5C2 DUP2 PUSH2 0x585 JUMP JUMPDEST DUP5 ADD SWAP2 POP POP SWAP3 SWAP2 POP POP JUMP JUMPDEST PUSH0 PUSH1 0x20 DUP3 ADD SWAP1 POP DUP2 DUP2 SUB PUSH0 DUP4 ADD MSTORE PUSH2 0x5E5 DUP2 DUP5 PUSH2 0x595 JUMP JUMPDEST SWAP1 POP SWAP3 SWAP2 POP POP JUMP JUMPDEST PUSH0 DUP2 SWAP1 POP SWAP2 SWAP1 POP JUMP JUMPDEST PUSH2 0x5FF DUP2 PUSH2 0x5ED JUMP JUMPDEST DUP2 EQ PUSH2 0x609 JUMPI PUSH0 DUP1 REVERT JUMPDEST POP JUMP JUMPDEST PUSH0 DUP2 CALLDATALOAD SWAP1 POP PUSH2 0x61A DUP2 PUSH2 0x5F6 JUMP JUMPDEST SWAP3 SWAP2 POP POP JUMP JUMPDEST PUSH0 PUSH1 0x20 DUP3 DUP5 SUB SLT ISZERO PUSH2 0x635 JUMPI PUSH2 0x634 PUSH2 0x4E1 JUMP JUMPDEST JUMPDEST PUSH0 PUSH2 0x642 DUP5 DUP3 DUP6 ADD PUSH2 0x60C JUMP JUMPDEST SWAP2 POP POP SWAP3 SWAP2 POP POP JUMP JUMPDEST PUSH32 0x4E487B7100000000000000000000000000000000000000000000000000000000 PUSH0 MSTORE PUSH1 0x12 PUSH1 0x4 MSTORE PUSH1 0x24 PUSH0 REVERT JUMPDEST PUSH0 PUSH2 0x682 DUP3 PUSH2 0x4E5 JUMP JUMPDEST SWAP2 POP PUSH2 0x68D DUP4 PUSH2 0x4E5 JUMP JUMPDEST SWAP3 POP DUP3 PUSH2 0x69D JUMPI PUSH2 0x69C PUSH2 0x64B JUMP JUMPDEST JUMPDEST DUP3 DUP3 MOD SWAP1 POP SWAP3 SWAP2 POP POP JUMP JUMPDEST PUSH32 0x4E487B7100000000000000000000000000000000000000000000000000000000 PUSH0 MSTORE PUSH1 0x1 PUSH1 0x4 MSTORE PUSH1 0x24 PUSH0 REVERT JUMPDEST PUSH2 0x6DE DUP2 PUSH2 0x4E5 JUMP JUMPDEST DUP3 MSTORE POP POP JUMP JUMPDEST PUSH0 PUSH1 0x20 DUP3 ADD SWAP1 POP PUSH2 0x6F7 PUSH0 DUP4 ADD DUP5 PUSH2 0x6D5 JUMP JUMPDEST SWAP3 SWAP2 POP POP JUMP JUMPDEST PUSH32 0x4174206C756E6368210000000000000000000000000000000000000000000000 PUSH0 DUP3 ADD MSTORE POP JUMP JUMPDEST PUSH0 PUSH2 0x731 PUSH1 0x9 DUP4 PUSH2 0x54D JUMP JUMPDEST SWAP2 POP PUSH2 0x73C DUP3 PUSH2 0x6FD JUMP JUMPDEST PUSH1 0x20 DUP3 ADD SWAP1 POP SWAP2 SWAP1 POP JUMP JUMPDEST PUSH0 PUSH1 0x20 DUP3 ADD SWAP1 POP DUP2 DUP2 SUB PUSH0 DUP4 ADD MSTORE PUSH2 0x75E DUP2 PUSH2 0x725 JUMP JUMPDEST SWAP1 POP SWAP2 SWAP1 POP JUMP JUMPDEST PUSH32 0x496E76616C69642074696D650000000000000000000000000000000000000000 PUSH0 DUP3 ADD MSTORE POP JUMP JUMPDEST PUSH0 PUSH2 0x799 PUSH1 0xC DUP4 PUSH2 0x54D JUMP JUMPDEST SWAP2 POP PUSH2 0x7A4 DUP3 PUSH2 0x765 JUMP JUMPDEST PUSH1 0x20 DUP3 ADD SWAP1 POP SWAP2 SWAP1 POP JUMP JUMPDEST PUSH0 PUSH1 0x20 DUP3 ADD SWAP1 POP DUP2 DUP2 SUB PUSH0 DUP4 ADD MSTORE PUSH2 0x7C6 DUP2 PUSH2 0x78D JUMP JUMPDEST SWAP1 POP SWAP2 SWAP1 POP JUMP INVALID LOG2 PUSH5 0x6970667358 0x22 SLT KECCAK256 CALLCODE PUSH8 0xF476B03FDBE52AE0 PUSH32 0x15C585DDDCC49DAA1989B19D87753572EABEACFB2164736F6C63430008140033 "
				},
				"gasEstimates": {
					"creation": {
						"codeDepositCost": "410200",
						"executionCost": "447",
						"totalCost": "410647"
					},
					"external": {
						"categorize(int256)": "infinite",
						"doNotDisturb(uint256)": "infinite",
						"fizzBuzz(uint256)": "infinite"
					}
				},
				"methodIdentifiers": {
					"categorize(int256)": "cdc59abe",
					"doNotDisturb(uint256)": "e655b7bb",
					"fizzBuzz(uint256)": "440c93e2"
				}
			},
			"storageLayout": {
				"storage": [],
				"types": null
			},
			"userdoc": {
				"kind": "user",
				"methods": {
					"categorize(int256)": {
						"notice": "Mengategorikan angka: negatif, nol, atau positif"
					},
					"fizzBuzz(uint256)": {
						"notice": "FizzBuzz versi Base Docs: - kelipatan 3 & 5 -> \"FizzBuzz\" - kelipatan 3 -> \"Fizz\" - kelipatan 5 -> \"Buzz\" - selain itu -> \"Splat\""
					}
				},
				"version": 1
			}
		}
	}
}