{
	"BASE-LEARN/Inheritance.sol": {
		"InheritanceFactory": {
			"abi": [
				{
					"inputs": [],
					"stateMutability": "nonpayable",
					"type": "constructor"
				},
				{
					"inputs": [],
					"name": "engineeringManager",
					"outputs": [
						{
							"internalType": "contract EngineeringManager",
							"name": "",
							"type": "address"
						}
					],
					"stateMutability": "view",
					"type": "function"
				},
				{
					"inputs": [],
					"name": "salesperson",
					"outputs": [
						{
							"internalType": "contract Salesperson",
							"name": "",
							"type": "address"
						}
					],
					"stateMutability": "view",
					"type": "function"
				},
				{
					"inputs": [],
					"name": "submission",
					"outputs": [
						{
							"internalType": "contract InheritanceSubmission",
							"name": "",
							"type": "address"
						}
					],
					"stateMutability": "view",
					"type": "function"
				}
			],
			"devdoc": {
				"kind": "dev",
				"methods": {},
				"version": 1
			},
			"evm": {
				"assembly": "    /* \"BASE-LEARN/Inheritance.sol\":2720:3520  contract InheritanceFactory {... */\n  mstore(0x40, 0x80)\n    /* \"BASE-LEARN/Inheritance.sol\":2891:3517  constructor() {... */\n  callvalue\n  dup1\n  iszero\n  tag_1\n  jumpi\n  0x00\n  dup1\n  revert\ntag_1:\n  pop\n    /* \"BASE-LEARN/Inheritance.sol\":2991:2996  55555 */\n  0xd903\n    /* \"BASE-LEARN/Inheritance.sol\":3025:3030  12345 */\n  0x3039\n    /* \"BASE-LEARN/Inheritance.sol\":3060:3062  20 */\n  0x14\n    /* \"BASE-LEARN/Inheritance.sol\":2961:3093  new Salesperson(... */\n  mload(0x40)\n  tag_4\n  swap1\n  tag_5\n  jump\t// in\ntag_4:\n  tag_6\n  swap4\n  swap3\n  swap2\n  swap1\n  tag_7\n  jump\t// in\ntag_6:\n  mload(0x40)\n  dup1\n  swap2\n  sub\n  swap1\n  0x00\n  create\n  dup1\n  iszero\n  dup1\n  iszero\n  tag_8\n  jumpi\n  returndatasize\n  0x00\n  dup1\n  returndatacopy\n  revert(0x00, returndatasize)\ntag_8:\n  pop\n    /* \"BASE-LEARN/Inheritance.sol\":2947:2958  salesperson */\n  0x00\n  dup1\n    /* \"BASE-LEARN/Inheritance.sol\":2947:3093  salesperson = new Salesperson(... */\n  0x0100\n  exp\n  dup2\n  sload\n  dup2\n  0xffffffffffffffffffffffffffffffffffffffff\n  mul\n  not\n  and\n  swap1\n  dup4\n  0xffffffffffffffffffffffffffffffffffffffff\n  and\n  mul\n  or\n  swap1\n  sstore\n  pop\n    /* \"BASE-LEARN/Inheritance.sol\":3202:3207  54321 */\n  0xd431\n    /* \"BASE-LEARN/Inheritance.sol\":3237:3242  11111 */\n  0x2b67\n    /* \"BASE-LEARN/Inheritance.sol\":3273:3279  200000 */\n  0x030d40\n    /* \"BASE-LEARN/Inheritance.sol\":3165:3309  new EngineeringManager(... */\n  mload(0x40)\n  tag_9\n  swap1\n  tag_10\n  jump\t// in\ntag_9:\n  tag_11\n  swap4\n  swap3\n  swap2\n  swap1\n  tag_12\n  jump\t// in\ntag_11:\n  mload(0x40)\n  dup1\n  swap2\n  sub\n  swap1\n  0x00\n  create\n  dup1\n  iszero\n  dup1\n  iszero\n  tag_13\n  jumpi\n  returndatasize\n  0x00\n  dup1\n  returndatacopy\n  revert(0x00, returndatasize)\ntag_13:\n  pop\n    /* \"BASE-LEARN/Inheritance.sol\":3144:3162  engineeringManager */\n  0x01\n  0x00\n    /* \"BASE-LEARN/Inheritance.sol\":3144:3309  engineeringManager = new EngineeringManager(... */\n  0x0100\n  exp\n  dup2\n  sload\n  dup2\n  0xffffffffffffffffffffffffffffffffffffffff\n  mul\n  not\n  and\n  swap1\n  dup4\n  0xffffffffffffffffffffffffffffffffffffffff\n  and\n  mul\n  or\n  swap1\n  sstore\n  pop\n    /* \"BASE-LEARN/Inheritance.sol\":3444:3455  salesperson */\n  0x00\n  dup1\n  sload\n  swap1\n  0x0100\n  exp\n  swap1\n  div\n  0xffffffffffffffffffffffffffffffffffffffff\n  and\n    /* \"BASE-LEARN/Inheritance.sol\":3479:3497  engineeringManager */\n  0x01\n  0x00\n  swap1\n  sload\n  swap1\n  0x0100\n  exp\n  swap1\n  div\n  0xffffffffffffffffffffffffffffffffffffffff\n  and\n    /* \"BASE-LEARN/Inheritance.sol\":3396:3509  new InheritanceSubmission(... */\n  mload(0x40)\n  tag_14\n  swap1\n  tag_15\n  jump\t// in\ntag_14:\n  tag_16\n  swap3\n  swap2\n  swap1\n  tag_17\n  jump\t// in\ntag_16:\n  mload(0x40)\n  dup1\n  swap2\n  sub\n  swap1\n  0x00\n  create\n  dup1\n  iszero\n  dup1\n  iszero\n  tag_18\n  jumpi\n  returndatasize\n  0x00\n  dup1\n  returndatacopy\n  revert(0x00, returndatasize)\ntag_18:\n  pop\n    /* \"BASE-LEARN/Inheritance.sol\":3383:3393  submission */\n  0x02\n  0x00\n    /* \"BASE-LEARN/Inheritance.sol\":3383:3509  submission = new InheritanceSubmission(... */\n  0x0100\n  exp\n  dup2\n  sload\n  dup2\n  0xffffffffffffffffffffffffffffffffffffffff\n  mul\n  not\n  and\n  swap1\n  dup4\n  0xffffffffffffffffffffffffffffffffffffffff\n  and\n  mul\n  or\n  swap1\n  sstore\n  pop\n    /* \"BASE-LEARN/Inheritance.sol\":2720:3520  contract InheritanceFactory {... */\n  jump(tag_19)\ntag_5:\n  dataSize(sub_1)\n  dup1\n  dataOffset(sub_1)\n  dup4\n  codecopy\n  add\n  swap1\n  jump\t// out\ntag_10:\n  dataSize(sub_2)\n  dup1\n  dataOffset(sub_2)\n  dup4\n  codecopy\n  add\n  swap1\n  jump\t// out\ntag_15:\n  dataSize(sub_3)\n  dup1\n  dataOffset(sub_3)\n  dup4\n  codecopy\n  add\n  swap1\n  jump\t// out\n    /* \"#utility.yul\":7:96   */\ntag_20:\n    /* \"#utility.yul\":56:63   */\n  0x00\n    /* \"#utility.yul\":85:90   */\n  dup2\n    /* \"#utility.yul\":74:90   */\n  swap1\n  pop\n    /* \"#utility.yul\":7:96   */\n  swap2\n  swap1\n  pop\n  jump\t// out\n    /* \"#utility.yul\":102:179   */\ntag_21:\n    /* \"#utility.yul\":139:146   */\n  0x00\n    /* \"#utility.yul\":168:173   */\n  dup2\n    /* \"#utility.yul\":157:173   */\n  swap1\n  pop\n    /* \"#utility.yul\":102:179   */\n  swap2\n  swap1\n  pop\n  jump\t// out\n    /* \"#utility.yul\":185:245   */\ntag_22:\n    /* \"#utility.yul\":213:216   */\n  0x00\n    /* \"#utility.yul\":234:239   */\n  dup2\n    /* \"#utility.yul\":227:239   */\n  swap1\n  pop\n    /* \"#utility.yul\":185:245   */\n  swap2\n  swap1\n  pop\n  jump\t// out\n    /* \"#utility.yul\":251:417   */\ntag_23:\n    /* \"#utility.yul\":313:322   */\n  0x00\n    /* \"#utility.yul\":346:411   */\n  tag_48\n    /* \"#utility.yul\":364:410   */\n  tag_49\n    /* \"#utility.yul\":373:409   */\n  tag_50\n    /* \"#utility.yul\":403:408   */\n  dup5\n    /* \"#utility.yul\":373:409   */\n  tag_20\n  jump\t// in\ntag_50:\n    /* \"#utility.yul\":364:410   */\n  tag_22\n  jump\t// in\ntag_49:\n    /* \"#utility.yul\":346:411   */\n  tag_21\n  jump\t// in\ntag_48:\n    /* \"#utility.yul\":333:411   */\n  swap1\n  pop\n    /* \"#utility.yul\":251:417   */\n  swap2\n  swap1\n  pop\n  jump\t// out\n    /* \"#utility.yul\":423:578   */\ntag_24:\n    /* \"#utility.yul\":522:571   */\n  tag_52\n    /* \"#utility.yul\":565:570   */\n  dup2\n    /* \"#utility.yul\":522:571   */\n  tag_23\n  jump\t// in\ntag_52:\n    /* \"#utility.yul\":517:520   */\n  dup3\n    /* \"#utility.yul\":510:572   */\n  mstore\n    /* \"#utility.yul\":423:578   */\n  pop\n  pop\n  jump\t// out\n    /* \"#utility.yul\":584:673   */\ntag_25:\n    /* \"#utility.yul\":633:640   */\n  0x00\n    /* \"#utility.yul\":662:667   */\n  dup2\n    /* \"#utility.yul\":651:667   */\n  swap1\n  pop\n    /* \"#utility.yul\":584:673   */\n  swap2\n  swap1\n  pop\n  jump\t// out\n    /* \"#utility.yul\":679:845   */\ntag_26:\n    /* \"#utility.yul\":741:750   */\n  0x00\n    /* \"#utility.yul\":774:839   */\n  tag_55\n    /* \"#utility.yul\":792:838   */\n  tag_56\n    /* \"#utility.yul\":801:837   */\n  tag_57\n    /* \"#utility.yul\":831:836   */\n  dup5\n    /* \"#utility.yul\":801:837   */\n  tag_25\n  jump\t// in\ntag_57:\n    /* \"#utility.yul\":792:838   */\n  tag_22\n  jump\t// in\ntag_56:\n    /* \"#utility.yul\":774:839   */\n  tag_21\n  jump\t// in\ntag_55:\n    /* \"#utility.yul\":761:839   */\n  swap1\n  pop\n    /* \"#utility.yul\":679:845   */\n  swap2\n  swap1\n  pop\n  jump\t// out\n    /* \"#utility.yul\":851:1006   */\ntag_27:\n    /* \"#utility.yul\":950:999   */\n  tag_59\n    /* \"#utility.yul\":993:998   */\n  dup2\n    /* \"#utility.yul\":950:999   */\n  tag_26\n  jump\t// in\ntag_59:\n    /* \"#utility.yul\":945:948   */\n  dup3\n    /* \"#utility.yul\":938:1000   */\n  mstore\n    /* \"#utility.yul\":851:1006   */\n  pop\n  pop\n  jump\t// out\n    /* \"#utility.yul\":1012:1098   */\ntag_28:\n    /* \"#utility.yul\":1058:1065   */\n  0x00\n    /* \"#utility.yul\":1087:1092   */\n  dup2\n    /* \"#utility.yul\":1076:1092   */\n  swap1\n  pop\n    /* \"#utility.yul\":1012:1098   */\n  swap2\n  swap1\n  pop\n  jump\t// out\n    /* \"#utility.yul\":1104:1264   */\ntag_29:\n    /* \"#utility.yul\":1163:1172   */\n  0x00\n    /* \"#utility.yul\":1196:1258   */\n  tag_62\n    /* \"#utility.yul\":1214:1257   */\n  tag_63\n    /* \"#utility.yul\":1223:1256   */\n  tag_64\n    /* \"#utility.yul\":1250:1255   */\n  dup5\n    /* \"#utility.yul\":1223:1256   */\n  tag_28\n  jump\t// in\ntag_64:\n    /* \"#utility.yul\":1214:1257   */\n  tag_22\n  jump\t// in\ntag_63:\n    /* \"#utility.yul\":1196:1258   */\n  tag_21\n  jump\t// in\ntag_62:\n    /* \"#utility.yul\":1183:1258   */\n  swap1\n  pop\n    /* \"#utility.yul\":1104:1264   */\n  swap2\n  swap1\n  pop\n  jump\t// out\n    /* \"#utility.yul\":1270:1419   */\ntag_30:\n    /* \"#utility.yul\":1366:1412   */\n  tag_66\n    /* \"#utility.yul\":1406:1411   */\n  dup2\n    /* \"#utility.yul\":1366:1412   */\n  tag_29\n  jump\t// in\ntag_66:\n    /* \"#utility.yul\":1361:1364   */\n  dup3\n    /* \"#utility.yul\":1354:1413   */\n  mstore\n    /* \"#utility.yul\":1270:1419   */\n  pop\n  pop\n  jump\t// out\n    /* \"#utility.yul\":1425:1933   */\ntag_7:\n    /* \"#utility.yul\":1607:1611   */\n  0x00\n    /* \"#utility.yul\":1645:1647   */\n  0x60\n    /* \"#utility.yul\":1634:1643   */\n  dup3\n    /* \"#utility.yul\":1630:1648   */\n  add\n    /* \"#utility.yul\":1622:1648   */\n  swap1\n  pop\n    /* \"#utility.yul\":1658:1741   */\n  tag_68\n    /* \"#utility.yul\":1738:1739   */\n  0x00\n    /* \"#utility.yul\":1727:1736   */\n  dup4\n    /* \"#utility.yul\":1723:1740   */\n  add\n    /* \"#utility.yul\":1714:1720   */\n  dup7\n    /* \"#utility.yul\":1658:1741   */\n  tag_24\n  jump\t// in\ntag_68:\n    /* \"#utility.yul\":1751:1835   */\n  tag_69\n    /* \"#utility.yul\":1831:1833   */\n  0x20\n    /* \"#utility.yul\":1820:1829   */\n  dup4\n    /* \"#utility.yul\":1816:1834   */\n  add\n    /* \"#utility.yul\":1807:1813   */\n  dup6\n    /* \"#utility.yul\":1751:1835   */\n  tag_27\n  jump\t// in\ntag_69:\n    /* \"#utility.yul\":1845:1926   */\n  tag_70\n    /* \"#utility.yul\":1922:1924   */\n  0x40\n    /* \"#utility.yul\":1911:1920   */\n  dup4\n    /* \"#utility.yul\":1907:1925   */\n  add\n    /* \"#utility.yul\":1898:1904   */\n  dup5\n    /* \"#utility.yul\":1845:1926   */\n  tag_30\n  jump\t// in\ntag_70:\n    /* \"#utility.yul\":1425:1933   */\n  swap5\n  swap4\n  pop\n  pop\n  pop\n  pop\n  jump\t// out\n    /* \"#utility.yul\":1939:2028   */\ntag_31:\n    /* \"#utility.yul\":1988:1995   */\n  0x00\n    /* \"#utility.yul\":2017:2022   */\n  dup2\n    /* \"#utility.yul\":2006:2022   */\n  swap1\n  pop\n    /* \"#utility.yul\":1939:2028   */\n  swap2\n  swap1\n  pop\n  jump\t// out\n    /* \"#utility.yul\":2034:2200   */\ntag_32:\n    /* \"#utility.yul\":2096:2105   */\n  0x00\n    /* \"#utility.yul\":2129:2194   */\n  tag_73\n    /* \"#utility.yul\":2147:2193   */\n  tag_74\n    /* \"#utility.yul\":2156:2192   */\n  tag_75\n    /* \"#utility.yul\":2186:2191   */\n  dup5\n    /* \"#utility.yul\":2156:2192   */\n  tag_31\n  jump\t// in\ntag_75:\n    /* \"#utility.yul\":2147:2193   */\n  tag_22\n  jump\t// in\ntag_74:\n    /* \"#utility.yul\":2129:2194   */\n  tag_21\n  jump\t// in\ntag_73:\n    /* \"#utility.yul\":2116:2194   */\n  swap1\n  pop\n    /* \"#utility.yul\":2034:2200   */\n  swap2\n  swap1\n  pop\n  jump\t// out\n    /* \"#utility.yul\":2206:2361   */\ntag_33:\n    /* \"#utility.yul\":2305:2354   */\n  tag_77\n    /* \"#utility.yul\":2348:2353   */\n  dup2\n    /* \"#utility.yul\":2305:2354   */\n  tag_32\n  jump\t// in\ntag_77:\n    /* \"#utility.yul\":2300:2303   */\n  dup3\n    /* \"#utility.yul\":2293:2355   */\n  mstore\n    /* \"#utility.yul\":2206:2361   */\n  pop\n  pop\n  jump\t// out\n    /* \"#utility.yul\":2367:2456   */\ntag_34:\n    /* \"#utility.yul\":2416:2423   */\n  0x00\n    /* \"#utility.yul\":2445:2450   */\n  dup2\n    /* \"#utility.yul\":2434:2450   */\n  swap1\n  pop\n    /* \"#utility.yul\":2367:2456   */\n  swap2\n  swap1\n  pop\n  jump\t// out\n    /* \"#utility.yul\":2462:2628   */\ntag_35:\n    /* \"#utility.yul\":2524:2533   */\n  0x00\n    /* \"#utility.yul\":2557:2622   */\n  tag_80\n    /* \"#utility.yul\":2575:2621   */\n  tag_81\n    /* \"#utility.yul\":2584:2620   */\n  tag_82\n    /* \"#utility.yul\":2614:2619   */\n  dup5\n    /* \"#utility.yul\":2584:2620   */\n  tag_34\n  jump\t// in\ntag_82:\n    /* \"#utility.yul\":2575:2621   */\n  tag_22\n  jump\t// in\ntag_81:\n    /* \"#utility.yul\":2557:2622   */\n  tag_21\n  jump\t// in\ntag_80:\n    /* \"#utility.yul\":2544:2622   */\n  swap1\n  pop\n    /* \"#utility.yul\":2462:2628   */\n  swap2\n  swap1\n  pop\n  jump\t// out\n    /* \"#utility.yul\":2634:2789   */\ntag_36:\n    /* \"#utility.yul\":2733:2782   */\n  tag_84\n    /* \"#utility.yul\":2776:2781   */\n  dup2\n    /* \"#utility.yul\":2733:2782   */\n  tag_35\n  jump\t// in\ntag_84:\n    /* \"#utility.yul\":2728:2731   */\n  dup3\n    /* \"#utility.yul\":2721:2783   */\n  mstore\n    /* \"#utility.yul\":2634:2789   */\n  pop\n  pop\n  jump\t// out\n    /* \"#utility.yul\":2795:2885   */\ntag_37:\n    /* \"#utility.yul\":2845:2852   */\n  0x00\n    /* \"#utility.yul\":2874:2879   */\n  dup2\n    /* \"#utility.yul\":2863:2879   */\n  swap1\n  pop\n    /* \"#utility.yul\":2795:2885   */\n  swap2\n  swap1\n  pop\n  jump\t// out\n    /* \"#utility.yul\":2891:3059   */\ntag_38:\n    /* \"#utility.yul\":2954:2963   */\n  0x00\n    /* \"#utility.yul\":2987:3053   */\n  tag_87\n    /* \"#utility.yul\":3005:3052   */\n  tag_88\n    /* \"#utility.yul\":3014:3051   */\n  tag_89\n    /* \"#utility.yul\":3045:3050   */\n  dup5\n    /* \"#utility.yul\":3014:3051   */\n  tag_37\n  jump\t// in\ntag_89:\n    /* \"#utility.yul\":3005:3052   */\n  tag_22\n  jump\t// in\ntag_88:\n    /* \"#utility.yul\":2987:3053   */\n  tag_21\n  jump\t// in\ntag_87:\n    /* \"#utility.yul\":2974:3053   */\n  swap1\n  pop\n    /* \"#utility.yul\":2891:3059   */\n  swap2\n  swap1\n  pop\n  jump\t// out\n    /* \"#utility.yul\":3065:3222   */\ntag_39:\n    /* \"#utility.yul\":3165:3215   */\n  tag_91\n    /* \"#utility.yul\":3209:3214   */\n  dup2\n    /* \"#utility.yul\":3165:3215   */\n  tag_38\n  jump\t// in\ntag_91:\n    /* \"#utility.yul\":3160:3163   */\n  dup3\n    /* \"#utility.yul\":3153:3216   */\n  mstore\n    /* \"#utility.yul\":3065:3222   */\n  pop\n  pop\n  jump\t// out\n    /* \"#utility.yul\":3228:3744   */\ntag_12:\n    /* \"#utility.yul\":3414:3418   */\n  0x00\n    /* \"#utility.yul\":3452:3454   */\n  0x60\n    /* \"#utility.yul\":3441:3450   */\n  dup3\n    /* \"#utility.yul\":3437:3455   */\n  add\n    /* \"#utility.yul\":3429:3455   */\n  swap1\n  pop\n    /* \"#utility.yul\":3465:3548   */\n  tag_93\n    /* \"#utility.yul\":3545:3546   */\n  0x00\n    /* \"#utility.yul\":3534:3543   */\n  dup4\n    /* \"#utility.yul\":3530:3547   */\n  add\n    /* \"#utility.yul\":3521:3527   */\n  dup7\n    /* \"#utility.yul\":3465:3548   */\n  tag_33\n  jump\t// in\ntag_93:\n    /* \"#utility.yul\":3558:3642   */\n  tag_94\n    /* \"#utility.yul\":3638:3640   */\n  0x20\n    /* \"#utility.yul\":3627:3636   */\n  dup4\n    /* \"#utility.yul\":3623:3641   */\n  add\n    /* \"#utility.yul\":3614:3620   */\n  dup6\n    /* \"#utility.yul\":3558:3642   */\n  tag_36\n  jump\t// in\ntag_94:\n    /* \"#utility.yul\":3652:3737   */\n  tag_95\n    /* \"#utility.yul\":3733:3735   */\n  0x40\n    /* \"#utility.yul\":3722:3731   */\n  dup4\n    /* \"#utility.yul\":3718:3736   */\n  add\n    /* \"#utility.yul\":3709:3715   */\n  dup5\n    /* \"#utility.yul\":3652:3737   */\n  tag_39\n  jump\t// in\ntag_95:\n    /* \"#utility.yul\":3228:3744   */\n  swap5\n  swap4\n  pop\n  pop\n  pop\n  pop\n  jump\t// out\n    /* \"#utility.yul\":3750:3876   */\ntag_40:\n    /* \"#utility.yul\":3787:3794   */\n  0x00\n    /* \"#utility.yul\":3827:3869   */\n  0xffffffffffffffffffffffffffffffffffffffff\n    /* \"#utility.yul\":3820:3825   */\n  dup3\n    /* \"#utility.yul\":3816:3870   */\n  and\n    /* \"#utility.yul\":3805:3870   */\n  swap1\n  pop\n    /* \"#utility.yul\":3750:3876   */\n  swap2\n  swap1\n  pop\n  jump\t// out\n    /* \"#utility.yul\":3882:3978   */\ntag_41:\n    /* \"#utility.yul\":3919:3926   */\n  0x00\n    /* \"#utility.yul\":3948:3972   */\n  tag_98\n    /* \"#utility.yul\":3966:3971   */\n  dup3\n    /* \"#utility.yul\":3948:3972   */\n  tag_40\n  jump\t// in\ntag_98:\n    /* \"#utility.yul\":3937:3972   */\n  swap1\n  pop\n    /* \"#utility.yul\":3882:3978   */\n  swap2\n  swap1\n  pop\n  jump\t// out\n    /* \"#utility.yul\":3984:4102   */\ntag_42:\n    /* \"#utility.yul\":4071:4095   */\n  tag_100\n    /* \"#utility.yul\":4089:4094   */\n  dup2\n    /* \"#utility.yul\":4071:4095   */\n  tag_41\n  jump\t// in\ntag_100:\n    /* \"#utility.yul\":4066:4069   */\n  dup3\n    /* \"#utility.yul\":4059:4096   */\n  mstore\n    /* \"#utility.yul\":3984:4102   */\n  pop\n  pop\n  jump\t// out\n    /* \"#utility.yul\":4108:4440   */\ntag_17:\n    /* \"#utility.yul\":4229:4233   */\n  0x00\n    /* \"#utility.yul\":4267:4269   */\n  0x40\n    /* \"#utility.yul\":4256:4265   */\n  dup3\n    /* \"#utility.yul\":4252:4270   */\n  add\n    /* \"#utility.yul\":4244:4270   */\n  swap1\n  pop\n    /* \"#utility.yul\":4280:4351   */\n  tag_102\n    /* \"#utility.yul\":4348:4349   */\n  0x00\n    /* \"#utility.yul\":4337:4346   */\n  dup4\n    /* \"#utility.yul\":4333:4350   */\n  add\n    /* \"#utility.yul\":4324:4330   */\n  dup6\n    /* \"#utility.yul\":4280:4351   */\n  tag_42\n  jump\t// in\ntag_102:\n    /* \"#utility.yul\":4361:4433   */\n  tag_103\n    /* \"#utility.yul\":4429:4431   */\n  0x20\n    /* \"#utility.yul\":4418:4427   */\n  dup4\n    /* \"#utility.yul\":4414:4432   */\n  add\n    /* \"#utility.yul\":4405:4411   */\n  dup5\n    /* \"#utility.yul\":4361:4433   */\n  tag_42\n  jump\t// in\ntag_103:\n    /* \"#utility.yul\":4108:4440   */\n  swap4\n  swap3\n  pop\n  pop\n  pop\n  jump\t// out\n    /* \"BASE-LEARN/Inheritance.sol\":2720:3520  contract InheritanceFactory {... */\ntag_19:\n  dataSize(sub_0)\n  dup1\n  dataOffset(sub_0)\n  0x00\n  codecopy\n  0x00\n  return\nstop\n\nsub_0: assembly {\n        /* \"BASE-LEARN/Inheritance.sol\":2720:3520  contract InheritanceFactory {... */\n      mstore(0x40, 0x80)\n      callvalue\n      dup1\n      iszero\n      tag_1\n      jumpi\n      0x00\n      dup1\n      revert\n    tag_1:\n      pop\n      jumpi(tag_2, lt(calldatasize, 0x04))\n      shr(0xe0, calldataload(0x00))\n      dup1\n      0x687981dd\n      eq\n      tag_3\n      jumpi\n      dup1\n      0x9a759097\n      eq\n      tag_4\n      jumpi\n      dup1\n      0xfe828c33\n      eq\n      tag_5\n      jumpi\n    tag_2:\n      0x00\n      dup1\n      revert\n        /* \"BASE-LEARN/Inheritance.sol\":2792:2836  EngineeringManager public engineeringManager */\n    tag_3:\n      tag_6\n      tag_7\n      jump\t// in\n    tag_6:\n      mload(0x40)\n      tag_8\n      swap2\n      swap1\n      tag_9\n      jump\t// in\n    tag_8:\n      mload(0x40)\n      dup1\n      swap2\n      sub\n      swap1\n      return\n        /* \"BASE-LEARN/Inheritance.sol\":2843:2882  InheritanceSubmission public submission */\n    tag_4:\n      tag_10\n      tag_11\n      jump\t// in\n    tag_10:\n      mload(0x40)\n      tag_12\n      swap2\n      swap1\n      tag_13\n      jump\t// in\n    tag_12:\n      mload(0x40)\n      dup1\n      swap2\n      sub\n      swap1\n      return\n        /* \"BASE-LEARN/Inheritance.sol\":2755:2785  Salesperson public salesperson */\n    tag_5:\n      tag_14\n      tag_15\n      jump\t// in\n    tag_14:\n      mload(0x40)\n      tag_16\n      swap2\n      swap1\n      tag_17\n      jump\t// in\n    tag_16:\n      mload(0x40)\n      dup1\n      swap2\n      sub\n      swap1\n      return\n        /* \"BASE-LEARN/Inheritance.sol\":2792:2836  EngineeringManager public engineeringManager */\n    tag_7:\n      0x01\n      0x00\n      swap1\n      sload\n      swap1\n      0x0100\n      exp\n      swap1\n      div\n      0xffffffffffffffffffffffffffffffffffffffff\n      and\n      dup2\n      jump\t// out\n        /* \"BASE-LEARN/Inheritance.sol\":2843:2882  InheritanceSubmission public submission */\n    tag_11:\n      0x02\n      0x00\n      swap1\n      sload\n      swap1\n      0x0100\n      exp\n      swap1\n      div\n      0xffffffffffffffffffffffffffffffffffffffff\n      and\n      dup2\n      jump\t// out\n        /* \"BASE-LEARN/Inheritance.sol\":2755:2785  Salesperson public salesperson */\n    tag_15:\n      0x00\n      dup1\n      sload\n      swap1\n      0x0100\n      exp\n      swap1\n      div\n      0xffffffffffffffffffffffffffffffffffffffff\n      and\n      dup2\n      jump\t// out\n        /* \"#utility.yul\":7:133   */\n    tag_18:\n        /* \"#utility.yul\":44:51   */\n      0x00\n        /* \"#utility.yul\":84:126   */\n      0xffffffffffffffffffffffffffffffffffffffff\n        /* \"#utility.yul\":77:82   */\n      dup3\n        /* \"#utility.yul\":73:127   */\n      and\n        /* \"#utility.yul\":62:127   */\n      swap1\n      pop\n        /* \"#utility.yul\":7:133   */\n      swap2\n      swap1\n      pop\n      jump\t// out\n        /* \"#utility.yul\":139:199   */\n    tag_19:\n        /* \"#utility.yul\":167:170   */\n      0x00\n        /* \"#utility.yul\":188:193   */\n      dup2\n        /* \"#utility.yul\":181:193   */\n      swap1\n      pop\n        /* \"#utility.yul\":139:199   */\n      swap2\n      swap1\n      pop\n      jump\t// out\n        /* \"#utility.yul\":205:347   */\n    tag_20:\n        /* \"#utility.yul\":255:264   */\n      0x00\n        /* \"#utility.yul\":288:341   */\n      tag_32\n        /* \"#utility.yul\":306:340   */\n      tag_33\n        /* \"#utility.yul\":315:339   */\n      tag_34\n        /* \"#utility.yul\":333:338   */\n      dup5\n        /* \"#utility.yul\":315:339   */\n      tag_18\n      jump\t// in\n    tag_34:\n        /* \"#utility.yul\":306:340   */\n      tag_19\n      jump\t// in\n    tag_33:\n        /* \"#utility.yul\":288:341   */\n      tag_18\n      jump\t// in\n    tag_32:\n        /* \"#utility.yul\":275:341   */\n      swap1\n      pop\n        /* \"#utility.yul\":205:347   */\n      swap2\n      swap1\n      pop\n      jump\t// out\n        /* \"#utility.yul\":353:479   */\n    tag_21:\n        /* \"#utility.yul\":403:412   */\n      0x00\n        /* \"#utility.yul\":436:473   */\n      tag_36\n        /* \"#utility.yul\":467:472   */\n      dup3\n        /* \"#utility.yul\":436:473   */\n      tag_20\n      jump\t// in\n    tag_36:\n        /* \"#utility.yul\":423:473   */\n      swap1\n      pop\n        /* \"#utility.yul\":353:479   */\n      swap2\n      swap1\n      pop\n      jump\t// out\n        /* \"#utility.yul\":485:637   */\n    tag_22:\n        /* \"#utility.yul\":561:570   */\n      0x00\n        /* \"#utility.yul\":594:631   */\n      tag_38\n        /* \"#utility.yul\":625:630   */\n      dup3\n        /* \"#utility.yul\":594:631   */\n      tag_21\n      jump\t// in\n    tag_38:\n        /* \"#utility.yul\":581:631   */\n      swap1\n      pop\n        /* \"#utility.yul\":485:637   */\n      swap2\n      swap1\n      pop\n      jump\t// out\n        /* \"#utility.yul\":643:826   */\n    tag_23:\n        /* \"#utility.yul\":756:819   */\n      tag_40\n        /* \"#utility.yul\":813:818   */\n      dup2\n        /* \"#utility.yul\":756:819   */\n      tag_22\n      jump\t// in\n    tag_40:\n        /* \"#utility.yul\":751:754   */\n      dup3\n        /* \"#utility.yul\":744:820   */\n      mstore\n        /* \"#utility.yul\":643:826   */\n      pop\n      pop\n      jump\t// out\n        /* \"#utility.yul\":832:1106   */\n    tag_9:\n        /* \"#utility.yul\":951:955   */\n      0x00\n        /* \"#utility.yul\":989:991   */\n      0x20\n        /* \"#utility.yul\":978:987   */\n      dup3\n        /* \"#utility.yul\":974:992   */\n      add\n        /* \"#utility.yul\":966:992   */\n      swap1\n      pop\n        /* \"#utility.yul\":1002:1099   */\n      tag_42\n        /* \"#utility.yul\":1096:1097   */\n      0x00\n        /* \"#utility.yul\":1085:1094   */\n      dup4\n        /* \"#utility.yul\":1081:1098   */\n      add\n        /* \"#utility.yul\":1072:1078   */\n      dup5\n        /* \"#utility.yul\":1002:1099   */\n      tag_23\n      jump\t// in\n    tag_42:\n        /* \"#utility.yul\":832:1106   */\n      swap3\n      swap2\n      pop\n      pop\n      jump\t// out\n        /* \"#utility.yul\":1112:1267   */\n    tag_24:\n        /* \"#utility.yul\":1191:1200   */\n      0x00\n        /* \"#utility.yul\":1224:1261   */\n      tag_44\n        /* \"#utility.yul\":1255:1260   */\n      dup3\n        /* \"#utility.yul\":1224:1261   */\n      tag_21\n      jump\t// in\n    tag_44:\n        /* \"#utility.yul\":1211:1261   */\n      swap1\n      pop\n        /* \"#utility.yul\":1112:1267   */\n      swap2\n      swap1\n      pop\n      jump\t// out\n        /* \"#utility.yul\":1273:1462   */\n    tag_25:\n        /* \"#utility.yul\":1389:1455   */\n      tag_46\n        /* \"#utility.yul\":1449:1454   */\n      dup2\n        /* \"#utility.yul\":1389:1455   */\n      tag_24\n      jump\t// in\n    tag_46:\n        /* \"#utility.yul\":1384:1387   */\n      dup3\n        /* \"#utility.yul\":1377:1456   */\n      mstore\n        /* \"#utility.yul\":1273:1462   */\n      pop\n      pop\n      jump\t// out\n        /* \"#utility.yul\":1468:1748   */\n    tag_13:\n        /* \"#utility.yul\":1590:1594   */\n      0x00\n        /* \"#utility.yul\":1628:1630   */\n      0x20\n        /* \"#utility.yul\":1617:1626   */\n      dup3\n        /* \"#utility.yul\":1613:1631   */\n      add\n        /* \"#utility.yul\":1605:1631   */\n      swap1\n      pop\n        /* \"#utility.yul\":1641:1741   */\n      tag_48\n        /* \"#utility.yul\":1738:1739   */\n      0x00\n        /* \"#utility.yul\":1727:1736   */\n      dup4\n        /* \"#utility.yul\":1723:1740   */\n      add\n        /* \"#utility.yul\":1714:1720   */\n      dup5\n        /* \"#utility.yul\":1641:1741   */\n      tag_25\n      jump\t// in\n    tag_48:\n        /* \"#utility.yul\":1468:1748   */\n      swap3\n      swap2\n      pop\n      pop\n      jump\t// out\n        /* \"#utility.yul\":1754:1899   */\n    tag_26:\n        /* \"#utility.yul\":1823:1832   */\n      0x00\n        /* \"#utility.yul\":1856:1893   */\n      tag_50\n        /* \"#utility.yul\":1887:1892   */\n      dup3\n        /* \"#utility.yul\":1856:1893   */\n      tag_21\n      jump\t// in\n    tag_50:\n        /* \"#utility.yul\":1843:1893   */\n      swap1\n      pop\n        /* \"#utility.yul\":1754:1899   */\n      swap2\n      swap1\n      pop\n      jump\t// out\n        /* \"#utility.yul\":1905:2074   */\n    tag_27:\n        /* \"#utility.yul\":2011:2067   */\n      tag_52\n        /* \"#utility.yul\":2061:2066   */\n      dup2\n        /* \"#utility.yul\":2011:2067   */\n      tag_26\n      jump\t// in\n    tag_52:\n        /* \"#utility.yul\":2006:2009   */\n      dup3\n        /* \"#utility.yul\":1999:2068   */\n      mstore\n        /* \"#utility.yul\":1905:2074   */\n      pop\n      pop\n      jump\t// out\n        /* \"#utility.yul\":2080:2340   */\n    tag_17:\n        /* \"#utility.yul\":2192:2196   */\n      0x00\n        /* \"#utility.yul\":2230:2232   */\n      0x20\n        /* \"#utility.yul\":2219:2228   */\n      dup3\n        /* \"#utility.yul\":2215:2233   */\n      add\n        /* \"#utility.yul\":2207:2233   */\n      swap1\n      pop\n        /* \"#utility.yul\":2243:2333   */\n      tag_54\n        /* \"#utility.yul\":2330:2331   */\n      0x00\n        /* \"#utility.yul\":2319:2328   */\n      dup4\n        /* \"#utility.yul\":2315:2332   */\n      add\n        /* \"#utility.yul\":2306:2312   */\n      dup5\n        /* \"#utility.yul\":2243:2333   */\n      tag_27\n      jump\t// in\n    tag_54:\n        /* \"#utility.yul\":2080:2340   */\n      swap3\n      swap2\n      pop\n      pop\n      jump\t// out\n\n    auxdata: 0xa2646970667358221220266664dc3dfb1f74ed41cc34e02e974359877bc3e5331cc789b105c421717e3964736f6c63430008140033\n}\n\nsub_1: assembly {\n        /* \"BASE-LEARN/Inheritance.sol\":1683:1875  contract Salesperson is Hourly {... */\n      mstore(0x40, 0x80)\n        /* \"BASE-LEARN/Inheritance.sol\":1721:1872  constructor(... */\n      callvalue\n      dup1\n      iszero\n      tag_1\n      jumpi\n      0x00\n      dup1\n      revert\n    tag_1:\n      pop\n      mload(0x40)\n      sub(codesize, bytecodeSize)\n      dup1\n      bytecodeSize\n      dup4\n      codecopy\n      dup2\n      dup2\n      add\n      0x40\n      mstore\n      dup2\n      add\n      swap1\n      tag_2\n      swap2\n      swap1\n      tag_3\n      jump\t// in\n    tag_2:\n        /* \"BASE-LEARN/Inheritance.sol\":1834:1843  _idNumber */\n      dup3\n        /* \"BASE-LEARN/Inheritance.sol\":1845:1855  _managerId */\n      dup3\n        /* \"BASE-LEARN/Inheritance.sol\":1857:1868  _hourlyRate */\n      dup3\n        /* \"BASE-LEARN/Inheritance.sol\":1128:1137  _idNumber */\n      dup3\n        /* \"BASE-LEARN/Inheritance.sol\":1139:1149  _managerId */\n      dup3\n        /* \"BASE-LEARN/Inheritance.sol\":307:316  _idNumber */\n      dup2\n        /* \"BASE-LEARN/Inheritance.sol\":296:304  idNumber */\n      0x00\n        /* \"BASE-LEARN/Inheritance.sol\":296:316  idNumber = _idNumber */\n      dup2\n      swap1\n      sstore\n      pop\n        /* \"BASE-LEARN/Inheritance.sol\":339:349  _managerId */\n      dup1\n        /* \"BASE-LEARN/Inheritance.sol\":327:336  managerId */\n      0x01\n        /* \"BASE-LEARN/Inheritance.sol\":327:349  managerId = _managerId */\n      dup2\n      swap1\n      sstore\n      pop\n        /* \"BASE-LEARN/Inheritance.sol\":234:357  constructor(uint256 _idNumber, uint256 _managerId) {... */\n      pop\n      pop\n        /* \"BASE-LEARN/Inheritance.sol\":1175:1186  _hourlyRate */\n      dup1\n        /* \"BASE-LEARN/Inheritance.sol\":1162:1172  hourlyRate */\n      0x02\n        /* \"BASE-LEARN/Inheritance.sol\":1162:1186  hourlyRate = _hourlyRate */\n      dup2\n      swap1\n      sstore\n      pop\n        /* \"BASE-LEARN/Inheritance.sol\":1013:1194  constructor(... */\n      pop\n      pop\n      pop\n        /* \"BASE-LEARN/Inheritance.sol\":1721:1872  constructor(... */\n      pop\n      pop\n      pop\n        /* \"BASE-LEARN/Inheritance.sol\":1683:1875  contract Salesperson is Hourly {... */\n      jump(tag_10)\n        /* \"#utility.yul\":88:205   */\n    tag_12:\n        /* \"#utility.yul\":197:198   */\n      0x00\n        /* \"#utility.yul\":194:195   */\n      dup1\n        /* \"#utility.yul\":187:199   */\n      revert\n        /* \"#utility.yul\":334:411   */\n    tag_14:\n        /* \"#utility.yul\":371:378   */\n      0x00\n        /* \"#utility.yul\":400:405   */\n      dup2\n        /* \"#utility.yul\":389:405   */\n      swap1\n      pop\n        /* \"#utility.yul\":334:411   */\n      swap2\n      swap1\n      pop\n      jump\t// out\n        /* \"#utility.yul\":417:539   */\n    tag_15:\n        /* \"#utility.yul\":490:514   */\n      tag_23\n        /* \"#utility.yul\":508:513   */\n      dup2\n        /* \"#utility.yul\":490:514   */\n      tag_14\n      jump\t// in\n    tag_23:\n        /* \"#utility.yul\":483:488   */\n      dup2\n        /* \"#utility.yul\":480:515   */\n      eq\n        /* \"#utility.yul\":470:533   */\n      tag_24\n      jumpi\n        /* \"#utility.yul\":529:530   */\n      0x00\n        /* \"#utility.yul\":526:527   */\n      dup1\n        /* \"#utility.yul\":519:531   */\n      revert\n        /* \"#utility.yul\":470:533   */\n    tag_24:\n        /* \"#utility.yul\":417:539   */\n      pop\n      jump\t// out\n        /* \"#utility.yul\":545:688   */\n    tag_16:\n        /* \"#utility.yul\":602:607   */\n      0x00\n        /* \"#utility.yul\":633:639   */\n      dup2\n        /* \"#utility.yul\":627:640   */\n      mload\n        /* \"#utility.yul\":618:640   */\n      swap1\n      pop\n        /* \"#utility.yul\":649:682   */\n      tag_26\n        /* \"#utility.yul\":676:681   */\n      dup2\n        /* \"#utility.yul\":649:682   */\n      tag_15\n      jump\t// in\n    tag_26:\n        /* \"#utility.yul\":545:688   */\n      swap3\n      swap2\n      pop\n      pop\n      jump\t// out\n        /* \"#utility.yul\":694:1357   */\n    tag_3:\n        /* \"#utility.yul\":782:788   */\n      0x00\n        /* \"#utility.yul\":790:796   */\n      dup1\n        /* \"#utility.yul\":798:804   */\n      0x00\n        /* \"#utility.yul\":847:849   */\n      0x60\n        /* \"#utility.yul\":835:844   */\n      dup5\n        /* \"#utility.yul\":826:833   */\n      dup7\n        /* \"#utility.yul\":822:845   */\n      sub\n        /* \"#utility.yul\":818:850   */\n      slt\n        /* \"#utility.yul\":815:934   */\n      iszero\n      tag_28\n      jumpi\n        /* \"#utility.yul\":853:932   */\n      tag_29\n      tag_12\n      jump\t// in\n    tag_29:\n        /* \"#utility.yul\":815:934   */\n    tag_28:\n        /* \"#utility.yul\":973:974   */\n      0x00\n        /* \"#utility.yul\":998:1062   */\n      tag_30\n        /* \"#utility.yul\":1054:1061   */\n      dup7\n        /* \"#utility.yul\":1045:1051   */\n      dup3\n        /* \"#utility.yul\":1034:1043   */\n      dup8\n        /* \"#utility.yul\":1030:1052   */\n      add\n        /* \"#utility.yul\":998:1062   */\n      tag_16\n      jump\t// in\n    tag_30:\n        /* \"#utility.yul\":988:1062   */\n      swap4\n      pop\n        /* \"#utility.yul\":944:1072   */\n      pop\n        /* \"#utility.yul\":1111:1113   */\n      0x20\n        /* \"#utility.yul\":1137:1201   */\n      tag_31\n        /* \"#utility.yul\":1193:1200   */\n      dup7\n        /* \"#utility.yul\":1184:1190   */\n      dup3\n        /* \"#utility.yul\":1173:1182   */\n      dup8\n        /* \"#utility.yul\":1169:1191   */\n      add\n        /* \"#utility.yul\":1137:1201   */\n      tag_16\n      jump\t// in\n    tag_31:\n        /* \"#utility.yul\":1127:1201   */\n      swap3\n      pop\n        /* \"#utility.yul\":1082:1211   */\n      pop\n        /* \"#utility.yul\":1250:1252   */\n      0x40\n        /* \"#utility.yul\":1276:1340   */\n      tag_32\n        /* \"#utility.yul\":1332:1339   */\n      dup7\n        /* \"#utility.yul\":1323:1329   */\n      dup3\n        /* \"#utility.yul\":1312:1321   */\n      dup8\n        /* \"#utility.yul\":1308:1330   */\n      add\n        /* \"#utility.yul\":1276:1340   */\n      tag_16\n      jump\t// in\n    tag_32:\n        /* \"#utility.yul\":1266:1340   */\n      swap2\n      pop\n        /* \"#utility.yul\":1221:1350   */\n      pop\n        /* \"#utility.yul\":694:1357   */\n      swap3\n      pop\n      swap3\n      pop\n      swap3\n      jump\t// out\n        /* \"BASE-LEARN/Inheritance.sol\":1683:1875  contract Salesperson is Hourly {... */\n    tag_10:\n      dataSize(sub_0)\n      dup1\n      dataOffset(sub_0)\n      0x00\n      codecopy\n      0x00\n      return\n    stop\n\n    sub_0: assembly {\n            /* \"BASE-LEARN/Inheritance.sol\":1683:1875  contract Salesperson is Hourly {... */\n          mstore(0x40, 0x80)\n          callvalue\n          dup1\n          iszero\n          tag_1\n          jumpi\n          0x00\n          dup1\n          revert\n        tag_1:\n          pop\n          jumpi(tag_2, lt(calldatasize, 0x04))\n          shr(0xe0, calldataload(0x00))\n          dup1\n          0x3f83ea3b\n          eq\n          tag_3\n          jumpi\n          dup1\n          0x59a7b3fe\n          eq\n          tag_4\n          jumpi\n          dup1\n          0x5cdee0c0\n          eq\n          tag_5\n          jumpi\n          dup1\n          0xf5895a0a\n          eq\n          tag_6\n          jumpi\n        tag_2:\n          0x00\n          dup1\n          revert\n            /* \"BASE-LEARN/Inheritance.sol\":171:194  uint256 public idNumber */\n        tag_3:\n          tag_7\n          tag_8\n          jump\t// in\n        tag_7:\n          mload(0x40)\n          tag_9\n          swap2\n          swap1\n          tag_10\n          jump\t// in\n        tag_9:\n          mload(0x40)\n          dup1\n          swap2\n          sub\n          swap1\n          return\n            /* \"BASE-LEARN/Inheritance.sol\":979:1004  uint256 public hourlyRate */\n        tag_4:\n          tag_11\n          tag_12\n          jump\t// in\n        tag_11:\n          mload(0x40)\n          tag_13\n          swap2\n          swap1\n          tag_10\n          jump\t// in\n        tag_13:\n          mload(0x40)\n          dup1\n          swap2\n          sub\n          swap1\n          return\n            /* \"BASE-LEARN/Inheritance.sol\":1202:1309  function getAnnualCost() public view override returns (uint256) {... */\n        tag_5:\n          tag_14\n          tag_15\n          jump\t// in\n        tag_14:\n          mload(0x40)\n          tag_16\n          swap2\n          swap1\n          tag_10\n          jump\t// in\n        tag_16:\n          mload(0x40)\n          dup1\n          swap2\n          sub\n          swap1\n          return\n            /* \"BASE-LEARN/Inheritance.sol\":201:225  uint256 public managerId */\n        tag_6:\n          tag_17\n          tag_18\n          jump\t// in\n        tag_17:\n          mload(0x40)\n          tag_19\n          swap2\n          swap1\n          tag_10\n          jump\t// in\n        tag_19:\n          mload(0x40)\n          dup1\n          swap2\n          sub\n          swap1\n          return\n            /* \"BASE-LEARN/Inheritance.sol\":171:194  uint256 public idNumber */\n        tag_8:\n          sload(0x00)\n          dup2\n          jump\t// out\n            /* \"BASE-LEARN/Inheritance.sol\":979:1004  uint256 public hourlyRate */\n        tag_12:\n          sload(0x02)\n          dup2\n          jump\t// out\n            /* \"BASE-LEARN/Inheritance.sol\":1202:1309  function getAnnualCost() public view override returns (uint256) {... */\n        tag_15:\n            /* \"BASE-LEARN/Inheritance.sol\":1257:1264  uint256 */\n          0x00\n            /* \"BASE-LEARN/Inheritance.sol\":1297:1301  2080 */\n          0x0820\n            /* \"BASE-LEARN/Inheritance.sol\":1284:1294  hourlyRate */\n          sload(0x02)\n            /* \"BASE-LEARN/Inheritance.sol\":1284:1301  hourlyRate * 2080 */\n          tag_21\n          swap2\n          swap1\n          tag_22\n          jump\t// in\n        tag_21:\n            /* \"BASE-LEARN/Inheritance.sol\":1277:1301  return hourlyRate * 2080 */\n          swap1\n          pop\n            /* \"BASE-LEARN/Inheritance.sol\":1202:1309  function getAnnualCost() public view override returns (uint256) {... */\n          swap1\n          jump\t// out\n            /* \"BASE-LEARN/Inheritance.sol\":201:225  uint256 public managerId */\n        tag_18:\n          sload(0x01)\n          dup2\n          jump\t// out\n            /* \"#utility.yul\":7:84   */\n        tag_23:\n            /* \"#utility.yul\":44:51   */\n          0x00\n            /* \"#utility.yul\":73:78   */\n          dup2\n            /* \"#utility.yul\":62:78   */\n          swap1\n          pop\n            /* \"#utility.yul\":7:84   */\n          swap2\n          swap1\n          pop\n          jump\t// out\n            /* \"#utility.yul\":90:208   */\n        tag_24:\n            /* \"#utility.yul\":177:201   */\n          tag_29\n            /* \"#utility.yul\":195:200   */\n          dup2\n            /* \"#utility.yul\":177:201   */\n          tag_23\n          jump\t// in\n        tag_29:\n            /* \"#utility.yul\":172:175   */\n          dup3\n            /* \"#utility.yul\":165:202   */\n          mstore\n            /* \"#utility.yul\":90:208   */\n          pop\n          pop\n          jump\t// out\n            /* \"#utility.yul\":214:436   */\n        tag_10:\n            /* \"#utility.yul\":307:311   */\n          0x00\n            /* \"#utility.yul\":345:347   */\n          0x20\n            /* \"#utility.yul\":334:343   */\n          dup3\n            /* \"#utility.yul\":330:348   */\n          add\n            /* \"#utility.yul\":322:348   */\n          swap1\n          pop\n            /* \"#utility.yul\":358:429   */\n          tag_31\n            /* \"#utility.yul\":426:427   */\n          0x00\n            /* \"#utility.yul\":415:424   */\n          dup4\n            /* \"#utility.yul\":411:428   */\n          add\n            /* \"#utility.yul\":402:408   */\n          dup5\n            /* \"#utility.yul\":358:429   */\n          tag_24\n          jump\t// in\n        tag_31:\n            /* \"#utility.yul\":214:436   */\n          swap3\n          swap2\n          pop\n          pop\n          jump\t// out\n            /* \"#utility.yul\":442:622   */\n        tag_25:\n            /* \"#utility.yul\":490:567   */\n          0x4e487b7100000000000000000000000000000000000000000000000000000000\n            /* \"#utility.yul\":487:488   */\n          0x00\n            /* \"#utility.yul\":480:568   */\n          mstore\n            /* \"#utility.yul\":587:591   */\n          0x11\n            /* \"#utility.yul\":584:585   */\n          0x04\n            /* \"#utility.yul\":577:592   */\n          mstore\n            /* \"#utility.yul\":611:615   */\n          0x24\n            /* \"#utility.yul\":608:609   */\n          0x00\n            /* \"#utility.yul\":601:616   */\n          revert\n            /* \"#utility.yul\":628:1038   */\n        tag_22:\n            /* \"#utility.yul\":668:675   */\n          0x00\n            /* \"#utility.yul\":691:711   */\n          tag_34\n            /* \"#utility.yul\":709:710   */\n          dup3\n            /* \"#utility.yul\":691:711   */\n          tag_23\n          jump\t// in\n        tag_34:\n            /* \"#utility.yul\":686:711   */\n          swap2\n          pop\n            /* \"#utility.yul\":725:745   */\n          tag_35\n            /* \"#utility.yul\":743:744   */\n          dup4\n            /* \"#utility.yul\":725:745   */\n          tag_23\n          jump\t// in\n        tag_35:\n            /* \"#utility.yul\":720:745   */\n          swap3\n          pop\n            /* \"#utility.yul\":780:781   */\n          dup3\n            /* \"#utility.yul\":777:778   */\n          dup3\n            /* \"#utility.yul\":773:782   */\n          mul\n            /* \"#utility.yul\":802:832   */\n          tag_36\n            /* \"#utility.yul\":820:831   */\n          dup2\n            /* \"#utility.yul\":802:832   */\n          tag_23\n          jump\t// in\n        tag_36:\n            /* \"#utility.yul\":791:832   */\n          swap2\n          pop\n            /* \"#utility.yul\":981:982   */\n          dup3\n            /* \"#utility.yul\":972:979   */\n          dup3\n            /* \"#utility.yul\":968:983   */\n          div\n            /* \"#utility.yul\":965:966   */\n          dup5\n            /* \"#utility.yul\":962:984   */\n          eq\n            /* \"#utility.yul\":942:943   */\n          dup4\n            /* \"#utility.yul\":935:944   */\n          iszero\n            /* \"#utility.yul\":915:998   */\n          or\n            /* \"#utility.yul\":892:1031   */\n          tag_37\n          jumpi\n            /* \"#utility.yul\":1011:1029   */\n          tag_38\n          tag_25\n          jump\t// in\n        tag_38:\n            /* \"#utility.yul\":892:1031   */\n        tag_37:\n            /* \"#utility.yul\":676:1038   */\n          pop\n            /* \"#utility.yul\":628:1038   */\n          swap3\n          swap2\n          pop\n          pop\n          jump\t// out\n\n        auxdata: 0xa26469706673582212201c138233f8c9e06f23c803cbcf2c688ba8af4a8d97de286404ea1e04079787ec64736f6c63430008140033\n    }\n}\n\nsub_2: assembly {\n        /* \"BASE-LEARN/Inheritance.sol\":1957:2173  contract EngineeringManager is Salaried, Manager {... */\n      mstore(0x40, 0x80)\n        /* \"BASE-LEARN/Inheritance.sol\":2013:2170  constructor(... */\n      callvalue\n      dup1\n      iszero\n      tag_1\n      jumpi\n      0x00\n      dup1\n      revert\n    tag_1:\n      pop\n      mload(0x40)\n      sub(codesize, bytecodeSize)\n      dup1\n      bytecodeSize\n      dup4\n      codecopy\n      dup2\n      dup2\n      add\n      0x40\n      mstore\n      dup2\n      add\n      swap1\n      tag_2\n      swap2\n      swap1\n      tag_3\n      jump\t// in\n    tag_2:\n        /* \"BASE-LEARN/Inheritance.sol\":2130:2139  _idNumber */\n      dup3\n        /* \"BASE-LEARN/Inheritance.sol\":2141:2151  _managerId */\n      dup3\n        /* \"BASE-LEARN/Inheritance.sol\":2153:2166  _annualSalary */\n      dup3\n        /* \"BASE-LEARN/Inheritance.sol\":692:701  _idNumber */\n      dup3\n        /* \"BASE-LEARN/Inheritance.sol\":703:713  _managerId */\n      dup3\n        /* \"BASE-LEARN/Inheritance.sol\":307:316  _idNumber */\n      dup2\n        /* \"BASE-LEARN/Inheritance.sol\":296:304  idNumber */\n      0x00\n        /* \"BASE-LEARN/Inheritance.sol\":296:316  idNumber = _idNumber */\n      dup2\n      swap1\n      sstore\n      pop\n        /* \"BASE-LEARN/Inheritance.sol\":339:349  _managerId */\n      dup1\n        /* \"BASE-LEARN/Inheritance.sol\":327:336  managerId */\n      0x01\n        /* \"BASE-LEARN/Inheritance.sol\":327:349  managerId = _managerId */\n      dup2\n      swap1\n      sstore\n      pop\n        /* \"BASE-LEARN/Inheritance.sol\":234:357  constructor(uint256 _idNumber, uint256 _managerId) {... */\n      pop\n      pop\n        /* \"BASE-LEARN/Inheritance.sol\":741:754  _annualSalary */\n      dup1\n        /* \"BASE-LEARN/Inheritance.sol\":726:738  annualSalary */\n      0x02\n        /* \"BASE-LEARN/Inheritance.sol\":726:754  annualSalary = _annualSalary */\n      dup2\n      swap1\n      sstore\n      pop\n        /* \"BASE-LEARN/Inheritance.sol\":575:762  constructor(... */\n      pop\n      pop\n      pop\n        /* \"BASE-LEARN/Inheritance.sol\":2013:2170  constructor(... */\n      pop\n      pop\n      pop\n        /* \"BASE-LEARN/Inheritance.sol\":1957:2173  contract EngineeringManager is Salaried, Manager {... */\n      jump(tag_10)\n        /* \"#utility.yul\":88:205   */\n    tag_12:\n        /* \"#utility.yul\":197:198   */\n      0x00\n        /* \"#utility.yul\":194:195   */\n      dup1\n        /* \"#utility.yul\":187:199   */\n      revert\n        /* \"#utility.yul\":334:411   */\n    tag_14:\n        /* \"#utility.yul\":371:378   */\n      0x00\n        /* \"#utility.yul\":400:405   */\n      dup2\n        /* \"#utility.yul\":389:405   */\n      swap1\n      pop\n        /* \"#utility.yul\":334:411   */\n      swap2\n      swap1\n      pop\n      jump\t// out\n        /* \"#utility.yul\":417:539   */\n    tag_15:\n        /* \"#utility.yul\":490:514   */\n      tag_23\n        /* \"#utility.yul\":508:513   */\n      dup2\n        /* \"#utility.yul\":490:514   */\n      tag_14\n      jump\t// in\n    tag_23:\n        /* \"#utility.yul\":483:488   */\n      dup2\n        /* \"#utility.yul\":480:515   */\n      eq\n        /* \"#utility.yul\":470:533   */\n      tag_24\n      jumpi\n        /* \"#utility.yul\":529:530   */\n      0x00\n        /* \"#utility.yul\":526:527   */\n      dup1\n        /* \"#utility.yul\":519:531   */\n      revert\n        /* \"#utility.yul\":470:533   */\n    tag_24:\n        /* \"#utility.yul\":417:539   */\n      pop\n      jump\t// out\n        /* \"#utility.yul\":545:688   */\n    tag_16:\n        /* \"#utility.yul\":602:607   */\n      0x00\n        /* \"#utility.yul\":633:639   */\n      dup2\n        /* \"#utility.yul\":627:640   */\n      mload\n        /* \"#utility.yul\":618:640   */\n      swap1\n      pop\n        /* \"#utility.yul\":649:682   */\n      tag_26\n        /* \"#utility.yul\":676:681   */\n      dup2\n        /* \"#utility.yul\":649:682   */\n      tag_15\n      jump\t// in\n    tag_26:\n        /* \"#utility.yul\":545:688   */\n      swap3\n      swap2\n      pop\n      pop\n      jump\t// out\n        /* \"#utility.yul\":694:1357   */\n    tag_3:\n        /* \"#utility.yul\":782:788   */\n      0x00\n        /* \"#utility.yul\":790:796   */\n      dup1\n        /* \"#utility.yul\":798:804   */\n      0x00\n        /* \"#utility.yul\":847:849   */\n      0x60\n        /* \"#utility.yul\":835:844   */\n      dup5\n        /* \"#utility.yul\":826:833   */\n      dup7\n        /* \"#utility.yul\":822:845   */\n      sub\n        /* \"#utility.yul\":818:850   */\n      slt\n        /* \"#utility.yul\":815:934   */\n      iszero\n      tag_28\n      jumpi\n        /* \"#utility.yul\":853:932   */\n      tag_29\n      tag_12\n      jump\t// in\n    tag_29:\n        /* \"#utility.yul\":815:934   */\n    tag_28:\n        /* \"#utility.yul\":973:974   */\n      0x00\n        /* \"#utility.yul\":998:1062   */\n      tag_30\n        /* \"#utility.yul\":1054:1061   */\n      dup7\n        /* \"#utility.yul\":1045:1051   */\n      dup3\n        /* \"#utility.yul\":1034:1043   */\n      dup8\n        /* \"#utility.yul\":1030:1052   */\n      add\n        /* \"#utility.yul\":998:1062   */\n      tag_16\n      jump\t// in\n    tag_30:\n        /* \"#utility.yul\":988:1062   */\n      swap4\n      pop\n        /* \"#utility.yul\":944:1072   */\n      pop\n        /* \"#utility.yul\":1111:1113   */\n      0x20\n        /* \"#utility.yul\":1137:1201   */\n      tag_31\n        /* \"#utility.yul\":1193:1200   */\n      dup7\n        /* \"#utility.yul\":1184:1190   */\n      dup3\n        /* \"#utility.yul\":1173:1182   */\n      dup8\n        /* \"#utility.yul\":1169:1191   */\n      add\n        /* \"#utility.yul\":1137:1201   */\n      tag_16\n      jump\t// in\n    tag_31:\n        /* \"#utility.yul\":1127:1201   */\n      swap3\n      pop\n        /* \"#utility.yul\":1082:1211   */\n      pop\n        /* \"#utility.yul\":1250:1252   */\n      0x40\n        /* \"#utility.yul\":1276:1340   */\n      tag_32\n        /* \"#utility.yul\":1332:1339   */\n      dup7\n        /* \"#utility.yul\":1323:1329   */\n      dup3\n        /* \"#utility.yul\":1312:1321   */\n      dup8\n        /* \"#utility.yul\":1308:1330   */\n      add\n        /* \"#utility.yul\":1276:1340   */\n      tag_16\n      jump\t// in\n    tag_32:\n        /* \"#utility.yul\":1266:1340   */\n      swap2\n      pop\n        /* \"#utility.yul\":1221:1350   */\n      pop\n        /* \"#utility.yul\":694:1357   */\n      swap3\n      pop\n      swap3\n      pop\n      swap3\n      jump\t// out\n        /* \"BASE-LEARN/Inheritance.sol\":1957:2173  contract EngineeringManager is Salaried, Manager {... */\n    tag_10:\n      dataSize(sub_0)\n      dup1\n      dataOffset(sub_0)\n      0x00\n      codecopy\n      0x00\n      return\n    stop\n\n    sub_0: assembly {\n            /* \"BASE-LEARN/Inheritance.sol\":1957:2173  contract EngineeringManager is Salaried, Manager {... */\n          mstore(0x40, 0x80)\n          callvalue\n          dup1\n          iszero\n          tag_1\n          jumpi\n          0x00\n          dup1\n          revert\n        tag_1:\n          pop\n          jumpi(tag_2, lt(calldatasize, 0x04))\n          shr(0xe0, calldataload(0x00))\n          dup1\n          0x86e73dc3\n          gt\n          tag_10\n          jumpi\n          dup1\n          0x86e73dc3\n          eq\n          tag_6\n          jumpi\n          dup1\n          0x87cc66de\n          eq\n          tag_7\n          jumpi\n          dup1\n          0xa596d3c8\n          eq\n          tag_8\n          jumpi\n          dup1\n          0xf5895a0a\n          eq\n          tag_9\n          jumpi\n          jump(tag_2)\n        tag_10:\n          dup1\n          0x3f83ea3b\n          eq\n          tag_3\n          jumpi\n          dup1\n          0x50dca6ab\n          eq\n          tag_4\n          jumpi\n          dup1\n          0x5cdee0c0\n          eq\n          tag_5\n          jumpi\n        tag_2:\n          0x00\n          dup1\n          revert\n            /* \"BASE-LEARN/Inheritance.sol\":171:194  uint256 public idNumber */\n        tag_3:\n          tag_11\n          tag_12\n          jump\t// in\n        tag_11:\n          mload(0x40)\n          tag_13\n          swap2\n          swap1\n          tag_14\n          jump\t// in\n        tag_13:\n          mload(0x40)\n          dup1\n          swap2\n          sub\n          swap1\n          return\n            /* \"BASE-LEARN/Inheritance.sol\":539:566  uint256 public annualSalary */\n        tag_4:\n          tag_15\n          tag_16\n          jump\t// in\n        tag_15:\n          mload(0x40)\n          tag_17\n          swap2\n          swap1\n          tag_14\n          jump\t// in\n        tag_17:\n          mload(0x40)\n          dup1\n          swap2\n          sub\n          swap1\n          return\n            /* \"BASE-LEARN/Inheritance.sol\":770:872  function getAnnualCost() public view override returns (uint256) {... */\n        tag_5:\n          tag_18\n          tag_19\n          jump\t// in\n        tag_18:\n          mload(0x40)\n          tag_20\n          swap2\n          swap1\n          tag_14\n          jump\t// in\n        tag_20:\n          mload(0x40)\n          dup1\n          swap2\n          sub\n          swap1\n          return\n            /* \"BASE-LEARN/Inheritance.sol\":1441:1532  function addReport(uint256 employeeId) public {... */\n        tag_6:\n          tag_21\n          0x04\n          dup1\n          calldatasize\n          sub\n          dup2\n          add\n          swap1\n          tag_22\n          swap2\n          swap1\n          tag_23\n          jump\t// in\n        tag_22:\n          tag_24\n          jump\t// in\n        tag_21:\n          stop\n            /* \"BASE-LEARN/Inheritance.sol\":1406:1432  uint256[] public reportIds */\n        tag_7:\n          tag_25\n          0x04\n          dup1\n          calldatasize\n          sub\n          dup2\n          add\n          swap1\n          tag_26\n          swap2\n          swap1\n          tag_23\n          jump\t// in\n        tag_26:\n          tag_27\n          jump\t// in\n        tag_25:\n          mload(0x40)\n          tag_28\n          swap2\n          swap1\n          tag_14\n          jump\t// in\n        tag_28:\n          mload(0x40)\n          dup1\n          swap2\n          sub\n          swap1\n          return\n            /* \"BASE-LEARN/Inheritance.sol\":1540:1606  function resetReports() public {... */\n        tag_8:\n          tag_29\n          tag_30\n          jump\t// in\n        tag_29:\n          stop\n            /* \"BASE-LEARN/Inheritance.sol\":201:225  uint256 public managerId */\n        tag_9:\n          tag_31\n          tag_32\n          jump\t// in\n        tag_31:\n          mload(0x40)\n          tag_33\n          swap2\n          swap1\n          tag_14\n          jump\t// in\n        tag_33:\n          mload(0x40)\n          dup1\n          swap2\n          sub\n          swap1\n          return\n            /* \"BASE-LEARN/Inheritance.sol\":171:194  uint256 public idNumber */\n        tag_12:\n          sload(0x00)\n          dup2\n          jump\t// out\n            /* \"BASE-LEARN/Inheritance.sol\":539:566  uint256 public annualSalary */\n        tag_16:\n          sload(0x02)\n          dup2\n          jump\t// out\n            /* \"BASE-LEARN/Inheritance.sol\":770:872  function getAnnualCost() public view override returns (uint256) {... */\n        tag_19:\n            /* \"BASE-LEARN/Inheritance.sol\":825:832  uint256 */\n          0x00\n            /* \"BASE-LEARN/Inheritance.sol\":852:864  annualSalary */\n          sload(0x02)\n            /* \"BASE-LEARN/Inheritance.sol\":845:864  return annualSalary */\n          swap1\n          pop\n            /* \"BASE-LEARN/Inheritance.sol\":770:872  function getAnnualCost() public view override returns (uint256) {... */\n          swap1\n          jump\t// out\n            /* \"BASE-LEARN/Inheritance.sol\":1441:1532  function addReport(uint256 employeeId) public {... */\n        tag_24:\n            /* \"BASE-LEARN/Inheritance.sol\":1498:1507  reportIds */\n          0x03\n            /* \"BASE-LEARN/Inheritance.sol\":1513:1523  employeeId */\n          dup2\n            /* \"BASE-LEARN/Inheritance.sol\":1498:1524  reportIds.push(employeeId) */\n          swap1\n          dup1\n          0x01\n          dup2\n          sload\n          add\n          dup1\n          dup3\n          sstore\n          dup1\n          swap2\n          pop\n          pop\n          0x01\n          swap1\n          sub\n          swap1\n          0x00\n          mstore\n          keccak256(0x00, 0x20)\n          add\n          0x00\n          swap1\n          swap2\n          swap1\n          swap2\n          swap1\n          swap2\n          pop\n          sstore\n            /* \"BASE-LEARN/Inheritance.sol\":1441:1532  function addReport(uint256 employeeId) public {... */\n          pop\n          jump\t// out\n            /* \"BASE-LEARN/Inheritance.sol\":1406:1432  uint256[] public reportIds */\n        tag_27:\n          0x03\n          dup2\n          dup2\n          sload\n          dup2\n          lt\n          tag_37\n          jumpi\n          0x00\n          dup1\n          revert\n        tag_37:\n          swap1\n          0x00\n          mstore\n          keccak256(0x00, 0x20)\n          add\n          0x00\n          swap2\n          pop\n          swap1\n          pop\n          sload\n          dup2\n          jump\t// out\n            /* \"BASE-LEARN/Inheritance.sol\":1540:1606  function resetReports() public {... */\n        tag_30:\n            /* \"BASE-LEARN/Inheritance.sol\":1589:1598  reportIds */\n          0x03\n          0x00\n            /* \"BASE-LEARN/Inheritance.sol\":1582:1598  delete reportIds */\n          tag_40\n          swap2\n          swap1\n          tag_41\n          jump\t// in\n        tag_40:\n            /* \"BASE-LEARN/Inheritance.sol\":1540:1606  function resetReports() public {... */\n          jump\t// out\n            /* \"BASE-LEARN/Inheritance.sol\":201:225  uint256 public managerId */\n        tag_32:\n          sload(0x01)\n          dup2\n          jump\t// out\n        tag_41:\n          pop\n          dup1\n          sload\n          0x00\n          dup3\n          sstore\n          swap1\n          0x00\n          mstore\n          keccak256(0x00, 0x20)\n          swap1\n          dup2\n          add\n          swap1\n          tag_43\n          swap2\n          swap1\n          tag_44\n          jump\t// in\n        tag_43:\n          pop\n          jump\t// out\n        tag_44:\n        tag_45:\n          dup1\n          dup3\n          gt\n          iszero\n          tag_46\n          jumpi\n          0x00\n          dup2\n          0x00\n          swap1\n          sstore\n          pop\n          0x01\n          add\n          jump(tag_45)\n        tag_46:\n          pop\n          swap1\n          jump\t// out\n            /* \"#utility.yul\":7:84   */\n        tag_47:\n            /* \"#utility.yul\":44:51   */\n          0x00\n            /* \"#utility.yul\":73:78   */\n          dup2\n            /* \"#utility.yul\":62:78   */\n          swap1\n          pop\n            /* \"#utility.yul\":7:84   */\n          swap2\n          swap1\n          pop\n          jump\t// out\n            /* \"#utility.yul\":90:208   */\n        tag_48:\n            /* \"#utility.yul\":177:201   */\n          tag_57\n            /* \"#utility.yul\":195:200   */\n          dup2\n            /* \"#utility.yul\":177:201   */\n          tag_47\n          jump\t// in\n        tag_57:\n            /* \"#utility.yul\":172:175   */\n          dup3\n            /* \"#utility.yul\":165:202   */\n          mstore\n            /* \"#utility.yul\":90:208   */\n          pop\n          pop\n          jump\t// out\n            /* \"#utility.yul\":214:436   */\n        tag_14:\n            /* \"#utility.yul\":307:311   */\n          0x00\n            /* \"#utility.yul\":345:347   */\n          0x20\n            /* \"#utility.yul\":334:343   */\n          dup3\n            /* \"#utility.yul\":330:348   */\n          add\n            /* \"#utility.yul\":322:348   */\n          swap1\n          pop\n            /* \"#utility.yul\":358:429   */\n          tag_59\n            /* \"#utility.yul\":426:427   */\n          0x00\n            /* \"#utility.yul\":415:424   */\n          dup4\n            /* \"#utility.yul\":411:428   */\n          add\n            /* \"#utility.yul\":402:408   */\n          dup5\n            /* \"#utility.yul\":358:429   */\n          tag_48\n          jump\t// in\n        tag_59:\n            /* \"#utility.yul\":214:436   */\n          swap3\n          swap2\n          pop\n          pop\n          jump\t// out\n            /* \"#utility.yul\":523:640   */\n        tag_50:\n            /* \"#utility.yul\":632:633   */\n          0x00\n            /* \"#utility.yul\":629:630   */\n          dup1\n            /* \"#utility.yul\":622:634   */\n          revert\n            /* \"#utility.yul\":769:891   */\n        tag_52:\n            /* \"#utility.yul\":842:866   */\n          tag_64\n            /* \"#utility.yul\":860:865   */\n          dup2\n            /* \"#utility.yul\":842:866   */\n          tag_47\n          jump\t// in\n        tag_64:\n            /* \"#utility.yul\":835:840   */\n          dup2\n            /* \"#utility.yul\":832:867   */\n          eq\n            /* \"#utility.yul\":822:885   */\n          tag_65\n          jumpi\n            /* \"#utility.yul\":881:882   */\n          0x00\n            /* \"#utility.yul\":878:879   */\n          dup1\n            /* \"#utility.yul\":871:883   */\n          revert\n            /* \"#utility.yul\":822:885   */\n        tag_65:\n            /* \"#utility.yul\":769:891   */\n          pop\n          jump\t// out\n            /* \"#utility.yul\":897:1036   */\n        tag_53:\n            /* \"#utility.yul\":943:948   */\n          0x00\n            /* \"#utility.yul\":981:987   */\n          dup2\n            /* \"#utility.yul\":968:988   */\n          calldataload\n            /* \"#utility.yul\":959:988   */\n          swap1\n          pop\n            /* \"#utility.yul\":997:1030   */\n          tag_67\n            /* \"#utility.yul\":1024:1029   */\n          dup2\n            /* \"#utility.yul\":997:1030   */\n          tag_52\n          jump\t// in\n        tag_67:\n            /* \"#utility.yul\":897:1036   */\n          swap3\n          swap2\n          pop\n          pop\n          jump\t// out\n            /* \"#utility.yul\":1042:1371   */\n        tag_23:\n            /* \"#utility.yul\":1101:1107   */\n          0x00\n            /* \"#utility.yul\":1150:1152   */\n          0x20\n            /* \"#utility.yul\":1138:1147   */\n          dup3\n            /* \"#utility.yul\":1129:1136   */\n          dup5\n            /* \"#utility.yul\":1125:1148   */\n          sub\n            /* \"#utility.yul\":1121:1153   */\n          slt\n            /* \"#utility.yul\":1118:1237   */\n          iszero\n          tag_69\n          jumpi\n            /* \"#utility.yul\":1156:1235   */\n          tag_70\n          tag_50\n          jump\t// in\n        tag_70:\n            /* \"#utility.yul\":1118:1237   */\n        tag_69:\n            /* \"#utility.yul\":1276:1277   */\n          0x00\n            /* \"#utility.yul\":1301:1354   */\n          tag_71\n            /* \"#utility.yul\":1346:1353   */\n          dup5\n            /* \"#utility.yul\":1337:1343   */\n          dup3\n            /* \"#utility.yul\":1326:1335   */\n          dup6\n            /* \"#utility.yul\":1322:1344   */\n          add\n            /* \"#utility.yul\":1301:1354   */\n          tag_53\n          jump\t// in\n        tag_71:\n            /* \"#utility.yul\":1291:1354   */\n          swap2\n          pop\n            /* \"#utility.yul\":1247:1364   */\n          pop\n            /* \"#utility.yul\":1042:1371   */\n          swap3\n          swap2\n          pop\n          pop\n          jump\t// out\n\n        auxdata: 0xa26469706673582212207591613ed690e4e047156b3339d7fe4ab8b5f28389d72fe8675d68e90ac8248364736f6c63430008140033\n    }\n}\n\nsub_3: assembly {\n        /* \"BASE-LEARN/Inheritance.sol\":2257:2532  contract InheritanceSubmission {... */\n      mstore(0x40, 0x80)\n        /* \"BASE-LEARN/Inheritance.sol\":2370:2529  constructor(address _salesPerson, address _engineeringManager) {... */\n      callvalue\n      dup1\n      iszero\n      tag_1\n      jumpi\n      0x00\n      dup1\n      revert\n    tag_1:\n      pop\n      mload(0x40)\n      sub(codesize, bytecodeSize)\n      dup1\n      bytecodeSize\n      dup4\n      codecopy\n      dup2\n      dup2\n      add\n      0x40\n      mstore\n      dup2\n      add\n      swap1\n      tag_2\n      swap2\n      swap1\n      tag_3\n      jump\t// in\n    tag_2:\n        /* \"BASE-LEARN/Inheritance.sol\":2458:2470  _salesPerson */\n      dup2\n        /* \"BASE-LEARN/Inheritance.sol\":2444:2455  salesPerson */\n      0x00\n      dup1\n        /* \"BASE-LEARN/Inheritance.sol\":2444:2470  salesPerson = _salesPerson */\n      0x0100\n      exp\n      dup2\n      sload\n      dup2\n      0xffffffffffffffffffffffffffffffffffffffff\n      mul\n      not\n      and\n      swap1\n      dup4\n      0xffffffffffffffffffffffffffffffffffffffff\n      and\n      mul\n      or\n      swap1\n      sstore\n      pop\n        /* \"BASE-LEARN/Inheritance.sol\":2502:2521  _engineeringManager */\n      dup1\n        /* \"BASE-LEARN/Inheritance.sol\":2481:2499  engineeringManager */\n      0x01\n      0x00\n        /* \"BASE-LEARN/Inheritance.sol\":2481:2521  engineeringManager = _engineeringManager */\n      0x0100\n      exp\n      dup2\n      sload\n      dup2\n      0xffffffffffffffffffffffffffffffffffffffff\n      mul\n      not\n      and\n      swap1\n      dup4\n      0xffffffffffffffffffffffffffffffffffffffff\n      and\n      mul\n      or\n      swap1\n      sstore\n      pop\n        /* \"BASE-LEARN/Inheritance.sol\":2370:2529  constructor(address _salesPerson, address _engineeringManager) {... */\n      pop\n      pop\n        /* \"BASE-LEARN/Inheritance.sol\":2257:2532  contract InheritanceSubmission {... */\n      jump(tag_6)\n        /* \"#utility.yul\":88:205   */\n    tag_8:\n        /* \"#utility.yul\":197:198   */\n      0x00\n        /* \"#utility.yul\":194:195   */\n      dup1\n        /* \"#utility.yul\":187:199   */\n      revert\n        /* \"#utility.yul\":334:460   */\n    tag_10:\n        /* \"#utility.yul\":371:378   */\n      0x00\n        /* \"#utility.yul\":411:453   */\n      0xffffffffffffffffffffffffffffffffffffffff\n        /* \"#utility.yul\":404:409   */\n      dup3\n        /* \"#utility.yul\":400:454   */\n      and\n        /* \"#utility.yul\":389:454   */\n      swap1\n      pop\n        /* \"#utility.yul\":334:460   */\n      swap2\n      swap1\n      pop\n      jump\t// out\n        /* \"#utility.yul\":466:562   */\n    tag_11:\n        /* \"#utility.yul\":503:510   */\n      0x00\n        /* \"#utility.yul\":532:556   */\n      tag_20\n        /* \"#utility.yul\":550:555   */\n      dup3\n        /* \"#utility.yul\":532:556   */\n      tag_10\n      jump\t// in\n    tag_20:\n        /* \"#utility.yul\":521:556   */\n      swap1\n      pop\n        /* \"#utility.yul\":466:562   */\n      swap2\n      swap1\n      pop\n      jump\t// out\n        /* \"#utility.yul\":568:690   */\n    tag_12:\n        /* \"#utility.yul\":641:665   */\n      tag_22\n        /* \"#utility.yul\":659:664   */\n      dup2\n        /* \"#utility.yul\":641:665   */\n      tag_11\n      jump\t// in\n    tag_22:\n        /* \"#utility.yul\":634:639   */\n      dup2\n        /* \"#utility.yul\":631:666   */\n      eq\n        /* \"#utility.yul\":621:684   */\n      tag_23\n      jumpi\n        /* \"#utility.yul\":680:681   */\n      0x00\n        /* \"#utility.yul\":677:678   */\n      dup1\n        /* \"#utility.yul\":670:682   */\n      revert\n        /* \"#utility.yul\":621:684   */\n    tag_23:\n        /* \"#utility.yul\":568:690   */\n      pop\n      jump\t// out\n        /* \"#utility.yul\":696:839   */\n    tag_13:\n        /* \"#utility.yul\":753:758   */\n      0x00\n        /* \"#utility.yul\":784:790   */\n      dup2\n        /* \"#utility.yul\":778:791   */\n      mload\n        /* \"#utility.yul\":769:791   */\n      swap1\n      pop\n        /* \"#utility.yul\":800:833   */\n      tag_25\n        /* \"#utility.yul\":827:832   */\n      dup2\n        /* \"#utility.yul\":800:833   */\n      tag_12\n      jump\t// in\n    tag_25:\n        /* \"#utility.yul\":696:839   */\n      swap3\n      swap2\n      pop\n      pop\n      jump\t// out\n        /* \"#utility.yul\":845:1352   */\n    tag_3:\n        /* \"#utility.yul\":924:930   */\n      0x00\n        /* \"#utility.yul\":932:938   */\n      dup1\n        /* \"#utility.yul\":981:983   */\n      0x40\n        /* \"#utility.yul\":969:978   */\n      dup4\n        /* \"#utility.yul\":960:967   */\n      dup6\n        /* \"#utility.yul\":956:979   */\n      sub\n        /* \"#utility.yul\":952:984   */\n      slt\n        /* \"#utility.yul\":949:1068   */\n      iszero\n      tag_27\n      jumpi\n        /* \"#utility.yul\":987:1066   */\n      tag_28\n      tag_8\n      jump\t// in\n    tag_28:\n        /* \"#utility.yul\":949:1068   */\n    tag_27:\n        /* \"#utility.yul\":1107:1108   */\n      0x00\n        /* \"#utility.yul\":1132:1196   */\n      tag_29\n        /* \"#utility.yul\":1188:1195   */\n      dup6\n        /* \"#utility.yul\":1179:1185   */\n      dup3\n        /* \"#utility.yul\":1168:1177   */\n      dup7\n        /* \"#utility.yul\":1164:1186   */\n      add\n        /* \"#utility.yul\":1132:1196   */\n      tag_13\n      jump\t// in\n    tag_29:\n        /* \"#utility.yul\":1122:1196   */\n      swap3\n      pop\n        /* \"#utility.yul\":1078:1206   */\n      pop\n        /* \"#utility.yul\":1245:1247   */\n      0x20\n        /* \"#utility.yul\":1271:1335   */\n      tag_30\n        /* \"#utility.yul\":1327:1334   */\n      dup6\n        /* \"#utility.yul\":1318:1324   */\n      dup3\n        /* \"#utility.yul\":1307:1316   */\n      dup7\n        /* \"#utility.yul\":1303:1325   */\n      add\n        /* \"#utility.yul\":1271:1335   */\n      tag_13\n      jump\t// in\n    tag_30:\n        /* \"#utility.yul\":1261:1335   */\n      swap2\n      pop\n        /* \"#utility.yul\":1216:1345   */\n      pop\n        /* \"#utility.yul\":845:1352   */\n      swap3\n      pop\n      swap3\n      swap1\n      pop\n      jump\t// out\n        /* \"BASE-LEARN/Inheritance.sol\":2257:2532  contract InheritanceSubmission {... */\n    tag_6:\n      dataSize(sub_0)\n      dup1\n      dataOffset(sub_0)\n      0x00\n      codecopy\n      0x00\n      return\n    stop\n\n    sub_0: assembly {\n            /* \"BASE-LEARN/Inheritance.sol\":2257:2532  contract InheritanceSubmission {... */\n          mstore(0x40, 0x80)\n          callvalue\n          dup1\n          iszero\n          tag_1\n          jumpi\n          0x00\n          dup1\n          revert\n        tag_1:\n          pop\n          jumpi(tag_2, lt(calldatasize, 0x04))\n          shr(0xe0, calldataload(0x00))\n          dup1\n          0x0f628194\n          eq\n          tag_3\n          jumpi\n          dup1\n          0x687981dd\n          eq\n          tag_4\n          jumpi\n        tag_2:\n          0x00\n          dup1\n          revert\n            /* \"BASE-LEARN/Inheritance.sol\":2295:2321  address public salesPerson */\n        tag_3:\n          tag_5\n          tag_6\n          jump\t// in\n        tag_5:\n          mload(0x40)\n          tag_7\n          swap2\n          swap1\n          tag_8\n          jump\t// in\n        tag_7:\n          mload(0x40)\n          dup1\n          swap2\n          sub\n          swap1\n          return\n            /* \"BASE-LEARN/Inheritance.sol\":2328:2361  address public engineeringManager */\n        tag_4:\n          tag_9\n          tag_10\n          jump\t// in\n        tag_9:\n          mload(0x40)\n          tag_11\n          swap2\n          swap1\n          tag_8\n          jump\t// in\n        tag_11:\n          mload(0x40)\n          dup1\n          swap2\n          sub\n          swap1\n          return\n            /* \"BASE-LEARN/Inheritance.sol\":2295:2321  address public salesPerson */\n        tag_6:\n          0x00\n          dup1\n          sload\n          swap1\n          0x0100\n          exp\n          swap1\n          div\n          0xffffffffffffffffffffffffffffffffffffffff\n          and\n          dup2\n          jump\t// out\n            /* \"BASE-LEARN/Inheritance.sol\":2328:2361  address public engineeringManager */\n        tag_10:\n          0x01\n          0x00\n          swap1\n          sload\n          swap1\n          0x0100\n          exp\n          swap1\n          div\n          0xffffffffffffffffffffffffffffffffffffffff\n          and\n          dup2\n          jump\t// out\n            /* \"#utility.yul\":7:133   */\n        tag_12:\n            /* \"#utility.yul\":44:51   */\n          0x00\n            /* \"#utility.yul\":84:126   */\n          0xffffffffffffffffffffffffffffffffffffffff\n            /* \"#utility.yul\":77:82   */\n          dup3\n            /* \"#utility.yul\":73:127   */\n          and\n            /* \"#utility.yul\":62:127   */\n          swap1\n          pop\n            /* \"#utility.yul\":7:133   */\n          swap2\n          swap1\n          pop\n          jump\t// out\n            /* \"#utility.yul\":139:235   */\n        tag_13:\n            /* \"#utility.yul\":176:183   */\n          0x00\n            /* \"#utility.yul\":205:229   */\n          tag_18\n            /* \"#utility.yul\":223:228   */\n          dup3\n            /* \"#utility.yul\":205:229   */\n          tag_12\n          jump\t// in\n        tag_18:\n            /* \"#utility.yul\":194:229   */\n          swap1\n          pop\n            /* \"#utility.yul\":139:235   */\n          swap2\n          swap1\n          pop\n          jump\t// out\n            /* \"#utility.yul\":241:359   */\n        tag_14:\n            /* \"#utility.yul\":328:352   */\n          tag_20\n            /* \"#utility.yul\":346:351   */\n          dup2\n            /* \"#utility.yul\":328:352   */\n          tag_13\n          jump\t// in\n        tag_20:\n            /* \"#utility.yul\":323:326   */\n          dup3\n            /* \"#utility.yul\":316:353   */\n          mstore\n            /* \"#utility.yul\":241:359   */\n          pop\n          pop\n          jump\t// out\n            /* \"#utility.yul\":365:587   */\n        tag_8:\n            /* \"#utility.yul\":458:462   */\n          0x00\n            /* \"#utility.yul\":496:498   */\n          0x20\n            /* \"#utility.yul\":485:494   */\n          dup3\n            /* \"#utility.yul\":481:499   */\n          add\n            /* \"#utility.yul\":473:499   */\n          swap1\n          pop\n            /* \"#utility.yul\":509:580   */\n          tag_22\n            /* \"#utility.yul\":577:578   */\n          0x00\n            /* \"#utility.yul\":566:575   */\n          dup4\n            /* \"#utility.yul\":562:579   */\n          add\n            /* \"#utility.yul\":553:559   */\n          dup5\n            /* \"#utility.yul\":509:580   */\n          tag_14\n          jump\t// in\n        tag_22:\n            /* \"#utility.yul\":365:587   */\n          swap3\n          swap2\n          pop\n          pop\n          jump\t// out\n\n        auxdata: 0xa264697066735822122054ee3853511069b054dbc9d11f317f1abaa385ee2a1e45e433273f2d9db07d6664736f6c63430008140033\n    }\n}\n",
				"bytecode": {
					"linkReferences": {},
					"object": "608060405234801561000f575f80fd5b5061d9036130396014604051610024906101ba565b6100309392919061029e565b604051809103905ff080158015610049573d5f803e3d5ffd5b505f806101000a81548173ffffffffffffffffffffffffffffffffffffffff021916908373ffffffffffffffffffffffffffffffffffffffff16021790555061d431612b6762030d4060405161009e906101c7565b6100aa9392919061037e565b604051809103905ff0801580156100c3573d5f803e3d5ffd5b5060015f6101000a81548173ffffffffffffffffffffffffffffffffffffffff021916908373ffffffffffffffffffffffffffffffffffffffff1602179055505f8054906101000a900473ffffffffffffffffffffffffffffffffffffffff1660015f9054906101000a900473ffffffffffffffffffffffffffffffffffffffff16604051610151906101d4565b61015c9291906103f2565b604051809103905ff080158015610175573d5f803e3d5ffd5b5060025f6101000a81548173ffffffffffffffffffffffffffffffffffffffff021916908373ffffffffffffffffffffffffffffffffffffffff160217905550610419565b6102ad8061066b83390190565b6103a38061091883390190565b6102aa80610cbb83390190565b5f819050919050565b5f819050919050565b5f819050919050565b5f61021661021161020c846101e1565b6101f3565b6101ea565b9050919050565b610226816101fc565b82525050565b5f819050919050565b5f61024f61024a6102458461022c565b6101f3565b6101ea565b9050919050565b61025f81610235565b82525050565b5f819050919050565b5f61028861028361027e84610265565b6101f3565b6101ea565b9050919050565b6102988161026e565b82525050565b5f6060820190506102b15f83018661021d565b6102be6020830185610256565b6102cb604083018461028f565b949350505050565b5f819050919050565b5f6102f66102f16102ec846102d3565b6101f3565b6101ea565b9050919050565b610306816102dc565b82525050565b5f819050919050565b5f61032f61032a6103258461030c565b6101f3565b6101ea565b9050919050565b61033f81610315565b82525050565b5f819050919050565b5f61036861036361035e84610345565b6101f3565b6101ea565b9050919050565b6103788161034e565b82525050565b5f6060820190506103915f8301866102fd565b61039e6020830185610336565b6103ab604083018461036f565b949350505050565b5f73ffffffffffffffffffffffffffffffffffffffff82169050919050565b5f6103dc826103b3565b9050919050565b6103ec816103d2565b82525050565b5f6040820190506104055f8301856103e3565b61041260208301846103e3565b9392505050565b610245806104265f395ff3fe608060405234801561000f575f80fd5b506004361061003f575f3560e01c8063687981dd146100435780639a75909714610061578063fe828c331461007f575b5f80fd5b61004b61009d565b6040516100589190610184565b60405180910390f35b6100696100c2565b60405161007691906101bd565b60405180910390f35b6100876100e7565b60405161009491906101f6565b60405180910390f35b60015f9054906101000a900473ffffffffffffffffffffffffffffffffffffffff1681565b60025f9054906101000a900473ffffffffffffffffffffffffffffffffffffffff1681565b5f8054906101000a900473ffffffffffffffffffffffffffffffffffffffff1681565b5f73ffffffffffffffffffffffffffffffffffffffff82169050919050565b5f819050919050565b5f61014c6101476101428461010a565b610129565b61010a565b9050919050565b5f61015d82610132565b9050919050565b5f61016e82610153565b9050919050565b61017e81610164565b82525050565b5f6020820190506101975f830184610175565b92915050565b5f6101a782610153565b9050919050565b6101b78161019d565b82525050565b5f6020820190506101d05f8301846101ae565b92915050565b5f6101e082610153565b9050919050565b6101f0816101d6565b82525050565b5f6020820190506102095f8301846101e7565b9291505056fea2646970667358221220266664dc3dfb1f74ed41cc34e02e974359877bc3e5331cc789b105c421717e3964736f6c63430008140033608060405234801561000f575f80fd5b506040516102ad3803806102ad8339818101604052810190610031919061008e565b8282828282815f81905550806001819055505050806002819055505050505050506100de565b5f80fd5b5f819050919050565b61006d8161005b565b8114610077575f80fd5b50565b5f8151905061008881610064565b92915050565b5f805f606084860312156100a5576100a4610057565b5b5f6100b28682870161007a565b93505060206100c38682870161007a565b92505060406100d48682870161007a565b9150509250925092565b6101c2806100eb5f395ff3fe608060405234801561000f575f80fd5b506004361061004a575f3560e01c80633f83ea3b1461004e57806359a7b3fe1461006c5780635cdee0c01461008a578063f5895a0a146100a8575b5f80fd5b6100566100c6565b6040516100639190610105565b60405180910390f35b6100746100cb565b6040516100819190610105565b60405180910390f35b6100926100d1565b60405161009f9190610105565b60405180910390f35b6100b06100e7565b6040516100bd9190610105565b60405180910390f35b5f5481565b60025481565b5f6108206002546100e2919061014b565b905090565b60015481565b5f819050919050565b6100ff816100ed565b82525050565b5f6020820190506101185f8301846100f6565b92915050565b7f4e487b71000000000000000000000000000000000000000000000000000000005f52601160045260245ffd5b5f610155826100ed565b9150610160836100ed565b925082820261016e816100ed565b915082820484148315176101855761018461011e565b5b509291505056fea26469706673582212201c138233f8c9e06f23c803cbcf2c688ba8af4a8d97de286404ea1e04079787ec64736f6c63430008140033608060405234801561000f575f80fd5b506040516103a33803806103a38339818101604052810190610031919061008e565b8282828282815f81905550806001819055505050806002819055505050505050506100de565b5f80fd5b5f819050919050565b61006d8161005b565b8114610077575f80fd5b50565b5f8151905061008881610064565b92915050565b5f805f606084860312156100a5576100a4610057565b5b5f6100b28682870161007a565b93505060206100c38682870161007a565b92505060406100d48682870161007a565b9150509250925092565b6102b8806100eb5f395ff3fe608060405234801561000f575f80fd5b506004361061007b575f3560e01c806386e73dc31161005957806386e73dc3146100d957806387cc66de146100f5578063a596d3c814610125578063f5895a0a1461012f5761007b565b80633f83ea3b1461007f57806350dca6ab1461009d5780635cdee0c0146100bb575b5f80fd5b61008761014d565b6040516100949190610210565b60405180910390f35b6100a5610152565b6040516100b29190610210565b60405180910390f35b6100c3610158565b6040516100d09190610210565b60405180910390f35b6100f360048036038101906100ee9190610257565b610161565b005b61010f600480360381019061010a9190610257565b61018a565b60405161011c9190610210565b60405180910390f35b61012d6101aa565b005b6101376101b9565b6040516101449190610210565b60405180910390f35b5f5481565b60025481565b5f600254905090565b600381908060018154018082558091505060019003905f5260205f20015f909190919091505550565b60038181548110610199575f80fd5b905f5260205f20015f915090505481565b60035f6101b791906101bf565b565b60015481565b5080545f8255905f5260205f20908101906101da91906101dd565b50565b5b808211156101f4575f815f9055506001016101de565b5090565b5f819050919050565b61020a816101f8565b82525050565b5f6020820190506102235f830184610201565b92915050565b5f80fd5b610236816101f8565b8114610240575f80fd5b50565b5f813590506102518161022d565b92915050565b5f6020828403121561026c5761026b610229565b5b5f61027984828501610243565b9150509291505056fea26469706673582212207591613ed690e4e047156b3339d7fe4ab8b5f28389d72fe8675d68e90ac8248364736f6c63430008140033608060405234801561000f575f80fd5b506040516102aa3803806102aa83398181016040528101906100319190610115565b815f806101000a81548173ffffffffffffffffffffffffffffffffffffffff021916908373ffffffffffffffffffffffffffffffffffffffff1602179055508060015f6101000a81548173ffffffffffffffffffffffffffffffffffffffff021916908373ffffffffffffffffffffffffffffffffffffffff1602179055505050610153565b5f80fd5b5f73ffffffffffffffffffffffffffffffffffffffff82169050919050565b5f6100e4826100bb565b9050919050565b6100f4816100da565b81146100fe575f80fd5b50565b5f8151905061010f816100eb565b92915050565b5f806040838503121561012b5761012a6100b7565b5b5f61013885828601610101565b925050602061014985828601610101565b9150509250929050565b61014a806101605f395ff3fe608060405234801561000f575f80fd5b5060043610610034575f3560e01c80630f62819414610038578063687981dd14610056575b5f80fd5b610040610074565b60405161004d91906100fb565b60405180910390f35b61005e610097565b60405161006b91906100fb565b60405180910390f35b5f8054906101000a900473ffffffffffffffffffffffffffffffffffffffff1681565b60015f9054906101000a900473ffffffffffffffffffffffffffffffffffffffff1681565b5f73ffffffffffffffffffffffffffffffffffffffff82169050919050565b5f6100e5826100bc565b9050919050565b6100f5816100db565b82525050565b5f60208201905061010e5f8301846100ec565b9291505056fea264697066735822122054ee3853511069b054dbc9d11f317f1abaa385ee2a1e45e433273f2d9db07d6664736f6c63430008140033",
					"opcodes": "PUSH1 0x80 PUSH1 0x40 MSTORE CALLVALUE DUP1 ISZERO PUSH2 0xF JUMPI PUSH0 DUP1 REVERT JUMPDEST POP PUSH2 0xD903 PUSH2 0x3039 PUSH1 0x14 PUSH1 0x40 MLOAD PUSH2 0x24 SWAP1 PUSH2 0x1BA JUMP JUMPDEST PUSH2 0x30 SWAP4 SWAP3 SWAP2 SWAP1 PUSH2 0x29E JUMP JUMPDEST PUSH1 0x40 MLOAD DUP1 SWAP2 SUB SWAP1 PUSH0 CREATE DUP1 ISZERO DUP1 ISZERO PUSH2 0x49 JUMPI RETURNDATASIZE PUSH0 DUP1 RETURNDATACOPY RETURNDATASIZE PUSH0 REVERT JUMPDEST POP PUSH0 DUP1 PUSH2 0x100 EXP DUP2 SLOAD DUP2 PUSH20 0xFFFFFFFFFFFFFFFFFFFFFFFFFFFFFFFFFFFFFFFF MUL NOT AND SWAP1 DUP4 PUSH20 0xFFFFFFFFFFFFFFFFFFFFFFFFFFFFFFFFFFFFFFFF AND MUL OR SWAP1 SSTORE POP PUSH2 0xD431 PUSH2 0x2B67 PUSH3 0x30D40 PUSH1 0x40 MLOAD PUSH2 0x9E SWAP1 PUSH2 0x1C7 JUMP JUMPDEST PUSH2 0xAA SWAP4 SWAP3 SWAP2 SWAP1 PUSH2 0x37E JUMP JUMPDEST PUSH1 0x40 MLOAD DUP1 SWAP2 SUB SWAP1 PUSH0 CREATE DUP1 ISZERO DUP1 ISZERO PUSH2 0xC3 JUMPI RETURNDATASIZE PUSH0 DUP1 RETURNDATACOPY RETURNDATASIZE PUSH0 REVERT JUMPDEST POP PUSH1 0x1 PUSH0 PUSH2 0x100 EXP DUP2 SLOAD DUP2 PUSH20 0xFFFFFFFFFFFFFFFFFFFFFFFFFFFFFFFFFFFFFFFF MUL NOT AND SWAP1 DUP4 PUSH20 0xFFFFFFFFFFFFFFFFFFFFFFFFFFFFFFFFFFFFFFFF AND MUL OR SWAP1 SSTORE POP PUSH0 DUP1 SLOAD SWAP1 PUSH2 0x100 EXP SWAP1 DIV PUSH20 0xFFFFFFFFFFFFFFFFFFFFFFFFFFFFFFFFFFFFFFFF AND PUSH1 0x1 PUSH0 SWAP1 SLOAD SWAP1 PUSH2 0x100 EXP SWAP1 DIV PUSH20 0xFFFFFFFFFFFFFFFFFFFFFFFFFFFFFFFFFFFFFFFF AND PUSH1 0x40 MLOAD PUSH2 0x151 SWAP1 PUSH2 0x1D4 JUMP JUMPDEST PUSH2 0x15C SWAP3 SWAP2 SWAP1 PUSH2 0x3F2 JUMP JUMPDEST PUSH1 0x40 MLOAD DUP1 SWAP2 SUB SWAP1 PUSH0 CREATE DUP1 ISZERO DUP1 ISZERO PUSH2 0x175 JUMPI RETURNDATASIZE PUSH0 DUP1 RETURNDATACOPY RETURNDATASIZE PUSH0 REVERT JUMPDEST POP PUSH1 0x2 PUSH0 PUSH2 0x100 EXP DUP2 SLOAD DUP2 PUSH20 0xFFFFFFFFFFFFFFFFFFFFFFFFFFFFFFFFFFFFFFFF MUL NOT AND SWAP1 DUP4 PUSH20 0xFFFFFFFFFFFFFFFFFFFFFFFFFFFFFFFFFFFFFFFF AND MUL OR SWAP1 SSTORE POP PUSH2 0x419 JUMP JUMPDEST PUSH2 0x2AD DUP1 PUSH2 0x66B DUP4 CODECOPY ADD SWAP1 JUMP JUMPDEST PUSH2 0x3A3 DUP1 PUSH2 0x918 DUP4 CODECOPY ADD SWAP1 JUMP JUMPDEST PUSH2 0x2AA DUP1 PUSH2 0xCBB DUP4 CODECOPY ADD SWAP1 JUMP JUMPDEST PUSH0 DUP2 SWAP1 POP SWAP2 SWAP1 POP JUMP JUMPDEST PUSH0 DUP2 SWAP1 POP SWAP2 SWAP1 POP JUMP JUMPDEST PUSH0 DUP2 SWAP1 POP SWAP2 SWAP1 POP JUMP JUMPDEST PUSH0 PUSH2 0x216 PUSH2 0x211 PUSH2 0x20C DUP5 PUSH2 0x1E1 JUMP JUMPDEST PUSH2 0x1F3 JUMP JUMPDEST PUSH2 0x1EA JUMP JUMPDEST SWAP1 POP SWAP2 SWAP1 POP JUMP JUMPDEST PUSH2 0x226 DUP2 PUSH2 0x1FC JUMP JUMPDEST DUP3 MSTORE POP POP JUMP JUMPDEST PUSH0 DUP2 SWAP1 POP SWAP2 SWAP1 POP JUMP JUMPDEST PUSH0 PUSH2 0x24F PUSH2 0x24A PUSH2 0x245 DUP5 PUSH2 0x22C JUMP JUMPDEST PUSH2 0x1F3 JUMP JUMPDEST PUSH2 0x1EA JUMP JUMPDEST SWAP1 POP SWAP2 SWAP1 POP JUMP JUMPDEST PUSH2 0x25F DUP2 PUSH2 0x235 JUMP JUMPDEST DUP3 MSTORE POP POP JUMP JUMPDEST PUSH0 DUP2 SWAP1 POP SWAP2 SWAP1 POP JUMP JUMPDEST PUSH0 PUSH2 0x288 PUSH2 0x283 PUSH2 0x27E DUP5 PUSH2 0x265 JUMP JUMPDEST PUSH2 0x1F3 JUMP JUMPDEST PUSH2 0x1EA JUMP JUMPDEST SWAP1 POP SWAP2 SWAP1 POP JUMP JUMPDEST PUSH2 0x298 DUP2 PUSH2 0x26E JUMP JUMPDEST DUP3 MSTORE POP POP JUMP JUMPDEST PUSH0 PUSH1 0x60 DUP3 ADD SWAP1 POP PUSH2 0x2B1 PUSH0 DUP4 ADD DUP7 PUSH2 0x21D JUMP JUMPDEST PUSH2 0x2BE PUSH1 0x20 DUP4 ADD DUP6 PUSH2 0x256 JUMP JUMPDEST PUSH2 0x2CB PUSH1 0x40 DUP4 ADD DUP5 PUSH2 0x28F JUMP JUMPDEST SWAP5 SWAP4 POP POP POP POP JUMP JUMPDEST PUSH0 DUP2 SWAP1 POP SWAP2 SWAP1 POP JUMP JUMPDEST PUSH0 PUSH2 0x2F6 PUSH2 0x2F1 PUSH2 0x2EC DUP5 PUSH2 0x2D3 JUMP JUMPDEST PUSH2 0x1F3 JUMP JUMPDEST PUSH2 0x1EA JUMP JUMPDEST SWAP1 POP SWAP2 SWAP1 POP JUMP JUMPDEST PUSH2 0x306 DUP2 PUSH2 0x2DC JUMP JUMPDEST DUP3 MSTORE POP POP JUMP JUMPDEST PUSH0 DUP2 SWAP1 POP SWAP2 SWAP1 POP JUMP JUMPDEST PUSH0 PUSH2 0x32F PUSH2 0x32A PUSH2 0x325 DUP5 PUSH2 0x30C JUMP JUMPDEST PUSH2 0x1F3 JUMP JUMPDEST PUSH2 0x1EA JUMP JUMPDEST SWAP1 POP SWAP2 SWAP1 POP JUMP JUMPDEST PUSH2 0x33F DUP2 PUSH2 0x315 JUMP JUMPDEST DUP3 MSTORE POP POP JUMP JUMPDEST PUSH0 DUP2 SWAP1 POP SWAP2 SWAP1 POP JUMP JUMPDEST PUSH0 PUSH2 0x368 PUSH2 0x363 PUSH2 0x35E DUP5 PUSH2 0x345 JUMP JUMPDEST PUSH2 0x1F3 JUMP JUMPDEST PUSH2 0x1EA JUMP JUMPDEST SWAP1 POP SWAP2 SWAP1 POP JUMP JUMPDEST PUSH2 0x378 DUP2 PUSH2 0x34E JUMP JUMPDEST DUP3 MSTORE POP POP JUMP JUMPDEST PUSH0 PUSH1 0x60 DUP3 ADD SWAP1 POP PUSH2 0x391 PUSH0 DUP4 ADD DUP7 PUSH2 0x2FD JUMP JUMPDEST PUSH2 0x39E PUSH1 0x20 DUP4 ADD DUP6 PUSH2 0x336 JUMP JUMPDEST PUSH2 0x3AB PUSH1 0x40 DUP4 ADD DUP5 PUSH2 0x36F JUMP JUMPDEST SWAP5 SWAP4 POP POP POP POP JUMP JUMPDEST PUSH0 PUSH20 0xFFFFFFFFFFFFFFFFFFFFFFFFFFFFFFFFFFFFFFFF DUP3 AND SWAP1 POP SWAP2 SWAP1 POP JUMP JUMPDEST PUSH0 PUSH2 0x3DC DUP3 PUSH2 0x3B3 JUMP JUMPDEST SWAP1 POP SWAP2 SWAP1 POP JUMP JUMPDEST PUSH2 0x3EC DUP2 PUSH2 0x3D2 JUMP JUMPDEST DUP3 MSTORE POP POP JUMP JUMPDEST PUSH0 PUSH1 0x40 DUP3 ADD SWAP1 POP PUSH2 0x405 PUSH0 DUP4 ADD DUP6 PUSH2 0x3E3 JUMP JUMPDEST PUSH2 0x412 PUSH1 0x20 DUP4 ADD DUP5 PUSH2 0x3E3 JUMP JUMPDEST SWAP4 SWAP3 POP POP POP JUMP JUMPDEST PUSH2 0x245 DUP1 PUSH2 0x426 PUSH0 CODECOPY PUSH0 RETURN INVALID PUSH1 0x80 PUSH1 0x40 MSTORE CALLVALUE DUP1 ISZERO PUSH2 0xF JUMPI PUSH0 DUP1 REVERT JUMPDEST POP PUSH1 0x4 CALLDATASIZE LT PUSH2 0x3F JUMPI PUSH0 CALLDATALOAD PUSH1 0xE0 SHR DUP1 PUSH4 0x687981DD EQ PUSH2 0x43 JUMPI DUP1 PUSH4 0x9A759097 EQ PUSH2 0x61 JUMPI DUP1 PUSH4 0xFE828C33 EQ PUSH2 0x7F JUMPI JUMPDEST PUSH0 DUP1 REVERT JUMPDEST PUSH2 0x4B PUSH2 0x9D JUMP JUMPDEST PUSH1 0x40 MLOAD PUSH2 0x58 SWAP2 SWAP1 PUSH2 0x184 JUMP JUMPDEST PUSH1 0x40 MLOAD DUP1 SWAP2 SUB SWAP1 RETURN JUMPDEST PUSH2 0x69 PUSH2 0xC2 JUMP JUMPDEST PUSH1 0x40 MLOAD PUSH2 0x76 SWAP2 SWAP1 PUSH2 0x1BD JUMP JUMPDEST PUSH1 0x40 MLOAD DUP1 SWAP2 SUB SWAP1 RETURN JUMPDEST PUSH2 0x87 PUSH2 0xE7 JUMP JUMPDEST PUSH1 0x40 MLOAD PUSH2 0x94 SWAP2 SWAP1 PUSH2 0x1F6 JUMP JUMPDEST PUSH1 0x40 MLOAD DUP1 SWAP2 SUB SWAP1 RETURN JUMPDEST PUSH1 0x1 PUSH0 SWAP1 SLOAD SWAP1 PUSH2 0x100 EXP SWAP1 DIV PUSH20 0xFFFFFFFFFFFFFFFFFFFFFFFFFFFFFFFFFFFFFFFF AND DUP2 JUMP JUMPDEST PUSH1 0x2 PUSH0 SWAP1 SLOAD SWAP1 PUSH2 0x100 EXP SWAP1 DIV PUSH20 0xFFFFFFFFFFFFFFFFFFFFFFFFFFFFFFFFFFFFFFFF AND DUP2 JUMP JUMPDEST PUSH0 DUP1 SLOAD SWAP1 PUSH2 0x100 EXP SWAP1 DIV PUSH20 0xFFFFFFFFFFFFFFFFFFFFFFFFFFFFFFFFFFFFFFFF AND DUP2 JUMP JUMPDEST PUSH0 PUSH20 0xFFFFFFFFFFFFFFFFFFFFFFFFFFFFFFFFFFFFFFFF DUP3 AND SWAP1 POP SWAP2 SWAP1 POP JUMP JUMPDEST PUSH0 DUP2 SWAP1 POP SWAP2 SWAP1 POP JUMP JUMPDEST PUSH0 PUSH2 0x14C PUSH2 0x147 PUSH2 0x142 DUP5 PUSH2 0x10A JUMP JUMPDEST PUSH2 0x129 JUMP JUMPDEST PUSH2 0x10A JUMP JUMPDEST SWAP1 POP SWAP2 SWAP1 POP JUMP JUMPDEST PUSH0 PUSH2 0x15D DUP3 PUSH2 0x132 JUMP JUMPDEST SWAP1 POP SWAP2 SWAP1 POP JUMP JUMPDEST PUSH0 PUSH2 0x16E DUP3 PUSH2 0x153 JUMP JUMPDEST SWAP1 POP SWAP2 SWAP1 POP JUMP JUMPDEST PUSH2 0x17E DUP2 PUSH2 0x164 JUMP JUMPDEST DUP3 MSTORE POP POP JUMP JUMPDEST PUSH0 PUSH1 0x20 DUP3 ADD SWAP1 POP PUSH2 0x197 PUSH0 DUP4 ADD DUP5 PUSH2 0x175 JUMP JUMPDEST SWAP3 SWAP2 POP POP JUMP JUMPDEST PUSH0 PUSH2 0x1A7 DUP3 PUSH2 0x153 JUMP JUMPDEST SWAP1 POP SWAP2 SWAP1 POP JUMP JUMPDEST PUSH2 0x1B7 DUP2 PUSH2 0x19D JUMP JUMPDEST DUP3 MSTORE POP POP JUMP JUMPDEST PUSH0 PUSH1 0x20 DUP3 ADD SWAP1 POP PUSH2 0x1D0 PUSH0 DUP4 ADD DUP5 PUSH2 0x1AE JUMP JUMPDEST SWAP3 SWAP2 POP POP JUMP JUMPDEST PUSH0 PUSH2 0x1E0 DUP3 PUSH2 0x153 JUMP JUMPDEST SWAP1 POP SWAP2 SWAP1 POP JUMP JUMPDEST PUSH2 0x1F0 DUP2 PUSH2 0x1D6 JUMP JUMPDEST DUP3 MSTORE POP POP JUMP JUMPDEST PUSH0 PUSH1 0x20 DUP3 ADD SWAP1 POP PUSH2 0x209 PUSH0 DUP4 ADD DUP5 PUSH2 0x1E7 JUMP JUMPDEST SWAP3 SWAP2 POP POP JUMP INVALID LOG2 PUSH5 0x6970667358 0x22 SLT KECCAK256 0x26 PUSH7 0x64DC3DFB1F74ED COINBASE 0xCC CALLVALUE 0xE0 0x2E SWAP8 NUMBER MSIZE DUP8 PUSH28 0xC3E5331CC789B105C421717E3964736F6C6343000814003360806040 MSTORE CALLVALUE DUP1 ISZERO PUSH2 0xF JUMPI PUSH0 DUP1 REVERT JUMPDEST POP PUSH1 0x40 MLOAD PUSH2 0x2AD CODESIZE SUB DUP1 PUSH2 0x2AD DUP4 CODECOPY DUP2 DUP2 ADD PUSH1 0x40 MSTORE DUP2 ADD SWAP1 PUSH2 0x31 SWAP2 SWAP1 PUSH2 0x8E JUMP JUMPDEST DUP3 DUP3 DUP3 DUP3 DUP3 DUP2 PUSH0 DUP2 SWAP1 SSTORE POP DUP1 PUSH1 0x1 DUP2 SWAP1 SSTORE POP POP POP DUP1 PUSH1 0x2 DUP2 SWAP1 SSTORE POP POP POP POP POP POP POP PUSH2 0xDE JUMP JUMPDEST PUSH0 DUP1 REVERT JUMPDEST PUSH0 DUP2 SWAP1 POP SWAP2 SWAP1 POP JUMP JUMPDEST PUSH2 0x6D DUP2 PUSH2 0x5B JUMP JUMPDEST DUP2 EQ PUSH2 0x77 JUMPI PUSH0 DUP1 REVERT JUMPDEST POP JUMP JUMPDEST PUSH0 DUP2 MLOAD SWAP1 POP PUSH2 0x88 DUP2 PUSH2 0x64 JUMP JUMPDEST SWAP3 SWAP2 POP POP JUMP JUMPDEST PUSH0 DUP1 PUSH0 PUSH1 0x60 DUP5 DUP7 SUB SLT ISZERO PUSH2 0xA5 JUMPI PUSH2 0xA4 PUSH2 0x57 JUMP JUMPDEST JUMPDEST PUSH0 PUSH2 0xB2 DUP7 DUP3 DUP8 ADD PUSH2 0x7A JUMP JUMPDEST SWAP4 POP POP PUSH1 0x20 PUSH2 0xC3 DUP7 DUP3 DUP8 ADD PUSH2 0x7A JUMP JUMPDEST SWAP3 POP POP PUSH1 0x40 PUSH2 0xD4 DUP7 DUP3 DUP8 ADD PUSH2 0x7A JUMP JUMPDEST SWAP2 POP POP SWAP3 POP SWAP3 POP SWAP3 JUMP JUMPDEST PUSH2 0x1C2 DUP1 PUSH2 0xEB PUSH0 CODECOPY PUSH0 RETURN INVALID PUSH1 0x80 PUSH1 0x40 MSTORE CALLVALUE DUP1 ISZERO PUSH2 0xF JUMPI PUSH0 DUP1 REVERT JUMPDEST POP PUSH1 0x4 CALLDATASIZE LT PUSH2 0x4A JUMPI PUSH0 CALLDATALOAD PUSH1 0xE0 SHR DUP1 PUSH4 0x3F83EA3B EQ PUSH2 0x4E JUMPI DUP1 PUSH4 0x59A7B3FE EQ PUSH2 0x6C JUMPI DUP1 PUSH4 0x5CDEE0C0 EQ PUSH2 0x8A JUMPI DUP1 PUSH4 0xF5895A0A EQ PUSH2 0xA8 JUMPI JUMPDEST PUSH0 DUP1 REVERT JUMPDEST PUSH2 0x56 PUSH2 0xC6 JUMP JUMPDEST PUSH1 0x40 MLOAD PUSH2 0x63 SWAP2 SWAP1 PUSH2 0x105 JUMP JUMPDEST PUSH1 0x40 MLOAD DUP1 SWAP2 SUB SWAP1 RETURN JUMPDEST PUSH2 0x74 PUSH2 0xCB JUMP JUMPDEST PUSH1 0x40 MLOAD PUSH2 0x81 SWAP2 SWAP1 PUSH2 0x105 JUMP JUMPDEST PUSH1 0x40 MLOAD DUP1 SWAP2 SUB SWAP1 RETURN JUMPDEST PUSH2 0x92 PUSH2 0xD1 JUMP JUMPDEST PUSH1 0x40 MLOAD PUSH2 0x9F SWAP2 SWAP1 PUSH2 0x105 JUMP JUMPDEST PUSH1 0x40 MLOAD DUP1 SWAP2 SUB SWAP1 RETURN JUMPDEST PUSH2 0xB0 PUSH2 0xE7 JUMP JUMPDEST PUSH1 0x40 MLOAD PUSH2 0xBD SWAP2 SWAP1 PUSH2 0x105 JUMP JUMPDEST PUSH1 0x40 MLOAD DUP1 SWAP2 SUB SWAP1 RETURN JUMPDEST PUSH0 SLOAD DUP2 JUMP JUMPDEST PUSH1 0x2 SLOAD DUP2 JUMP JUMPDEST PUSH0 PUSH2 0x820 PUSH1 0x2 SLOAD PUSH2 0xE2 SWAP2 SWAP1 PUSH2 0x14B JUMP JUMPDEST SWAP1 POP SWAP1 JUMP JUMPDEST PUSH1 0x1 SLOAD DUP2 JUMP JUMPDEST PUSH0 DUP2 SWAP1 POP SWAP2 SWAP1 POP JUMP JUMPDEST PUSH2 0xFF DUP2 PUSH2 0xED JUMP JUMPDEST DUP3 MSTORE POP POP JUMP JUMPDEST PUSH0 PUSH1 0x20 DUP3 ADD SWAP1 POP PUSH2 0x118 PUSH0 DUP4 ADD DUP5 PUSH2 0xF6 JUMP JUMPDEST SWAP3 SWAP2 POP POP JUMP JUMPDEST PUSH32 0x4E487B7100000000000000000000000000000000000000000000000000000000 PUSH0 MSTORE PUSH1 0x11 PUSH1 0x4 MSTORE PUSH1 0x24 PUSH0 REVERT JUMPDEST PUSH0 PUSH2 0x155 DUP3 PUSH2 0xED JUMP JUMPDEST SWAP2 POP PUSH2 0x160 DUP4 PUSH2 0xED JUMP JUMPDEST SWAP3 POP DUP3 DUP3 MUL PUSH2 0x16E DUP2 PUSH2 0xED JUMP JUMPDEST SWAP2 POP DUP3 DUP3 DIV DUP5 EQ DUP4 ISZERO OR PUSH2 0x185 JUMPI PUSH2 0x184 PUSH2 0x11E JUMP JUMPDEST JUMPDEST POP SWAP3 SWAP2 POP POP JUMP INVALID LOG2 PUSH5 0x6970667358 0x22 SLT KECCAK256 SHR SGT DUP3 CALLER 0xF8 0xC9 0xE0 PUSH16 0x23C803CBCF2C688BA8AF4A8D97DE2864 DIV 0xEA 0x1E DIV SMOD SWAP8 DUP8 0xEC PUSH5 0x736F6C6343 STOP ADDMOD EQ STOP CALLER PUSH1 0x80 PUSH1 0x40 MSTORE CALLVALUE DUP1 ISZERO PUSH2 0xF JUMPI PUSH0 DUP1 REVERT JUMPDEST POP PUSH1 0x40 MLOAD PUSH2 0x3A3 CODESIZE SUB DUP1 PUSH2 0x3A3 DUP4 CODECOPY DUP2 DUP2 ADD PUSH1 0x40 MSTORE DUP2 ADD SWAP1 PUSH2 0x31 SWAP2 SWAP1 PUSH2 0x8E JUMP JUMPDEST DUP3 DUP3 DUP3 DUP3 DUP3 DUP2 PUSH0 DUP2 SWAP1 SSTORE POP DUP1 PUSH1 0x1 DUP2 SWAP1 SSTORE POP POP POP DUP1 PUSH1 0x2 DUP2 SWAP1 SSTORE POP POP POP POP POP POP POP PUSH2 0xDE JUMP JUMPDEST PUSH0 DUP1 REVERT JUMPDEST PUSH0 DUP2 SWAP1 POP SWAP2 SWAP1 POP JUMP JUMPDEST PUSH2 0x6D DUP2 PUSH2 0x5B JUMP JUMPDEST DUP2 EQ PUSH2 0x77 JUMPI PUSH0 DUP1 REVERT JUMPDEST POP JUMP JUMPDEST PUSH0 DUP2 MLOAD SWAP1 POP PUSH2 0x88 DUP2 PUSH2 0x64 JUMP JUMPDEST SWAP3 SWAP2 POP POP JUMP JUMPDEST PUSH0 DUP1 PUSH0 PUSH1 0x60 DUP5 DUP7 SUB SLT ISZERO PUSH2 0xA5 JUMPI PUSH2 0xA4 PUSH2 0x57 JUMP JUMPDEST JUMPDEST PUSH0 PUSH2 0xB2 DUP7 DUP3 DUP8 ADD PUSH2 0x7A JUMP JUMPDEST SWAP4 POP POP PUSH1 0x20 PUSH2 0xC3 DUP7 DUP3 DUP8 ADD PUSH2 0x7A JUMP JUMPDEST SWAP3 POP POP PUSH1 0x40 PUSH2 0xD4 DUP7 DUP3 DUP8 ADD PUSH2 0x7A JUMP JUMPDEST SWAP2 POP POP SWAP3 POP SWAP3 POP SWAP3 JUMP JUMPDEST PUSH2 0x2B8 DUP1 PUSH2 0xEB PUSH0 CODECOPY PUSH0 RETURN INVALID PUSH1 0x80 PUSH1 0x40 MSTORE CALLVALUE DUP1 ISZERO PUSH2 0xF JUMPI PUSH0 DUP1 REVERT JUMPDEST POP PUSH1 0x4 CALLDATASIZE LT PUSH2 0x7B JUMPI PUSH0 CALLDATALOAD PUSH1 0xE0 SHR DUP1 PUSH4 0x86E73DC3 GT PUSH2 0x59 JUMPI DUP1 PUSH4 0x86E73DC3 EQ PUSH2 0xD9 JUMPI DUP1 PUSH4 0x87CC66DE EQ PUSH2 0xF5 JUMPI DUP1 PUSH4 0xA596D3C8 EQ PUSH2 0x125 JUMPI DUP1 PUSH4 0xF5895A0A EQ PUSH2 0x12F JUMPI PUSH2 0x7B JUMP JUMPDEST DUP1 PUSH4 0x3F83EA3B EQ PUSH2 0x7F JUMPI DUP1 PUSH4 0x50DCA6AB EQ PUSH2 0x9D JUMPI DUP1 PUSH4 0x5CDEE0C0 EQ PUSH2 0xBB JUMPI JUMPDEST PUSH0 DUP1 REVERT JUMPDEST PUSH2 0x87 PUSH2 0x14D JUMP JUMPDEST PUSH1 0x40 MLOAD PUSH2 0x94 SWAP2 SWAP1 PUSH2 0x210 JUMP JUMPDEST PUSH1 0x40 MLOAD DUP1 SWAP2 SUB SWAP1 RETURN JUMPDEST PUSH2 0xA5 PUSH2 0x152 JUMP JUMPDEST PUSH1 0x40 MLOAD PUSH2 0xB2 SWAP2 SWAP1 PUSH2 0x210 JUMP JUMPDEST PUSH1 0x40 MLOAD DUP1 SWAP2 SUB SWAP1 RETURN JUMPDEST PUSH2 0xC3 PUSH2 0x158 JUMP JUMPDEST PUSH1 0x40 MLOAD PUSH2 0xD0 SWAP2 SWAP1 PUSH2 0x210 JUMP JUMPDEST PUSH1 0x40 MLOAD DUP1 SWAP2 SUB SWAP1 RETURN JUMPDEST PUSH2 0xF3 PUSH1 0x4 DUP1 CALLDATASIZE SUB DUP2 ADD SWAP1 PUSH2 0xEE SWAP2 SWAP1 PUSH2 0x257 JUMP JUMPDEST PUSH2 0x161 JUMP JUMPDEST STOP JUMPDEST PUSH2 0x10F PUSH1 0x4 DUP1 CALLDATASIZE SUB DUP2 ADD SWAP1 PUSH2 0x10A SWAP2 SWAP1 PUSH2 0x257 JUMP JUMPDEST PUSH2 0x18A JUMP JUMPDEST PUSH1 0x40 MLOAD PUSH2 0x11C SWAP2 SWAP1 PUSH2 0x210 JUMP JUMPDEST PUSH1 0x40 MLOAD DUP1 SWAP2 SUB SWAP1 RETURN JUMPDEST PUSH2 0x12D PUSH2 0x1AA JUMP JUMPDEST STOP JUMPDEST PUSH2 0x137 PUSH2 0x1B9 JUMP JUMPDEST PUSH1 0x40 MLOAD PUSH2 0x144 SWAP2 SWAP1 PUSH2 0x210 JUMP JUMPDEST PUSH1 0x40 MLOAD DUP1 SWAP2 SUB SWAP1 RETURN JUMPDEST PUSH0 SLOAD DUP2 JUMP JUMPDEST PUSH1 0x2 SLOAD DUP2 JUMP JUMPDEST PUSH0 PUSH1 0x2 SLOAD SWAP1 POP SWAP1 JUMP JUMPDEST PUSH1 0x3 DUP2 SWAP1 DUP1 PUSH1 0x1 DUP2 SLOAD ADD DUP1 DUP3 SSTORE DUP1 SWAP2 POP POP PUSH1 0x1 SWAP1 SUB SWAP1 PUSH0 MSTORE PUSH1 0x20 PUSH0 KECCAK256 ADD PUSH0 SWAP1 SWAP2 SWAP1 SWAP2 SWAP1 SWAP2 POP SSTORE POP JUMP JUMPDEST PUSH1 0x3 DUP2 DUP2 SLOAD DUP2 LT PUSH2 0x199 JUMPI PUSH0 DUP1 REVERT JUMPDEST SWAP1 PUSH0 MSTORE PUSH1 0x20 PUSH0 KECCAK256 ADD PUSH0 SWAP2 POP SWAP1 POP SLOAD DUP2 JUMP JUMPDEST PUSH1 0x3 PUSH0 PUSH2 0x1B7 SWAP2 SWAP1 PUSH2 0x1BF JUMP JUMPDEST JUMP JUMPDEST PUSH1 0x1 SLOAD DUP2 JUMP JUMPDEST POP DUP1 SLOAD PUSH0 DUP3 SSTORE SWAP1 PUSH0 MSTORE PUSH1 0x20 PUSH0 KECCAK256 SWAP1 DUP2 ADD SWAP1 PUSH2 0x1DA SWAP2 SWAP1 PUSH2 0x1DD JUMP JUMPDEST POP JUMP JUMPDEST JUMPDEST DUP1 DUP3 GT ISZERO PUSH2 0x1F4 JUMPI PUSH0 DUP2 PUSH0 SWAP1 SSTORE POP PUSH1 0x1 ADD PUSH2 0x1DE JUMP JUMPDEST POP SWAP1 JUMP JUMPDEST PUSH0 DUP2 SWAP1 POP SWAP2 SWAP1 POP JUMP JUMPDEST PUSH2 0x20A DUP2 PUSH2 0x1F8 JUMP JUMPDEST DUP3 MSTORE POP POP JUMP JUMPDEST PUSH0 PUSH1 0x20 DUP3 ADD SWAP1 POP PUSH2 0x223 PUSH0 DUP4 ADD DUP5 PUSH2 0x201 JUMP JUMPDEST SWAP3 SWAP2 POP POP JUMP JUMPDEST PUSH0 DUP1 REVERT JUMPDEST PUSH2 0x236 DUP2 PUSH2 0x1F8 JUMP JUMPDEST DUP2 EQ PUSH2 0x240 JUMPI PUSH0 DUP1 REVERT JUMPDEST POP JUMP JUMPDEST PUSH0 DUP2 CALLDATALOAD SWAP1 POP PUSH2 0x251 DUP2 PUSH2 0x22D JUMP JUMPDEST SWAP3 SWAP2 POP POP JUMP JUMPDEST PUSH0 PUSH1 0x20 DUP3 DUP5 SUB SLT ISZERO PUSH2 0x26C JUMPI PUSH2 0x26B PUSH2 0x229 JUMP JUMPDEST JUMPDEST PUSH0 PUSH2 0x279 DUP5 DUP3 DUP6 ADD PUSH2 0x243 JUMP JUMPDEST SWAP2 POP POP SWAP3 SWAP2 POP POP JUMP INVALID LOG2 PUSH5 0x6970667358 0x22 SLT KECCAK256 PUSH22 0x91613ED690E4E047156B3339D7FE4AB8B5F28389D72F 0xE8 PUSH8 0x5D68E90AC8248364 PUSH20 0x6F6C63430008140033608060405234801561000F JUMPI PUSH0 DUP1 REVERT JUMPDEST POP PUSH1 0x40 MLOAD PUSH2 0x2AA CODESIZE SUB DUP1 PUSH2 0x2AA DUP4 CODECOPY DUP2 DUP2 ADD PUSH1 0x40 MSTORE DUP2 ADD SWAP1 PUSH2 0x31 SWAP2 SWAP1 PUSH2 0x115 JUMP JUMPDEST DUP2 PUSH0 DUP1 PUSH2 0x100 EXP DUP2 SLOAD DUP2 PUSH20 0xFFFFFFFFFFFFFFFFFFFFFFFFFFFFFFFFFFFFFFFF MUL NOT AND SWAP1 DUP4 PUSH20 0xFFFFFFFFFFFFFFFFFFFFFFFFFFFFFFFFFFFFFFFF AND MUL OR SWAP1 SSTORE POP DUP1 PUSH1 0x1 PUSH0 PUSH2 0x100 EXP DUP2 SLOAD DUP2 PUSH20 0xFFFFFFFFFFFFFFFFFFFFFFFFFFFFFFFFFFFFFFFF MUL NOT AND SWAP1 DUP4 PUSH20 0xFFFFFFFFFFFFFFFFFFFFFFFFFFFFFFFFFFFFFFFF AND MUL OR SWAP1 SSTORE POP POP POP PUSH2 0x153 JUMP JUMPDEST PUSH0 DUP1 REVERT JUMPDEST PUSH0 PUSH20 0xFFFFFFFFFFFFFFFFFFFFFFFFFFFFFFFFFFFFFFFF DUP3 AND SWAP1 POP SWAP2 SWAP1 POP JUMP JUMPDEST PUSH0 PUSH2 0xE4 DUP3 PUSH2 0xBB JUMP JUMPDEST SWAP1 POP SWAP2 SWAP1 POP JUMP JUMPDEST PUSH2 0xF4 DUP2 PUSH2 0xDA JUMP JUMPDEST DUP2 EQ PUSH2 0xFE JUMPI PUSH0 DUP1 REVERT JUMPDEST POP JUMP JUMPDEST PUSH0 DUP2 MLOAD SWAP1 POP PUSH2 0x10F DUP2 PUSH2 0xEB JUMP JUMPDEST SWAP3 SWAP2 POP POP JUMP JUMPDEST PUSH0 DUP1 PUSH1 0x40 DUP4 DUP6 SUB SLT ISZERO PUSH2 0x12B JUMPI PUSH2 0x12A PUSH2 0xB7 JUMP JUMPDEST JUMPDEST PUSH0 PUSH2 0x138 DUP6 DUP3 DUP7 ADD PUSH2 0x101 JUMP JUMPDEST SWAP3 POP POP PUSH1 0x20 PUSH2 0x149 DUP6 DUP3 DUP7 ADD PUSH2 0x101 JUMP JUMPDEST SWAP2 POP POP SWAP3 POP SWAP3 SWAP1 POP JUMP JUMPDEST PUSH2 0x14A DUP1 PUSH2 0x160 PUSH0 CODECOPY PUSH0 RETURN INVALID PUSH1 0x80 PUSH1 0x40 MSTORE CALLVALUE DUP1 ISZERO PUSH2 0xF JUMPI PUSH0 DUP1 REVERT JUMPDEST POP PUSH1 0x4 CALLDATASIZE LT PUSH2 0x34 JUMPI PUSH0 CALLDATALOAD PUSH1 0xE0 SHR DUP1 PUSH4 0xF628194 EQ PUSH2 0x38 JUMPI DUP1 PUSH4 0x687981DD EQ PUSH2 0x56 JUMPI JUMPDEST PUSH0 DUP1 REVERT JUMPDEST PUSH2 0x40 PUSH2 0x74 JUMP JUMPDEST PUSH1 0x40 MLOAD PUSH2 0x4D SWAP2 SWAP1 PUSH2 0xFB JUMP JUMPDEST PUSH1 0x40 MLOAD DUP1 SWAP2 SUB SWAP1 RETURN JUMPDEST PUSH2 0x5E PUSH2 0x97 JUMP JUMPDEST PUSH1 0x40 MLOAD PUSH2 0x6B SWAP2 SWAP1 PUSH2 0xFB JUMP JUMPDEST PUSH1 0x40 MLOAD DUP1 SWAP2 SUB SWAP1 RETURN JUMPDEST PUSH0 DUP1 SLOAD SWAP1 PUSH2 0x100 EXP SWAP1 DIV PUSH20 0xFFFFFFFFFFFFFFFFFFFFFFFFFFFFFFFFFFFFFFFF AND DUP2 JUMP JUMPDEST PUSH1 0x1 PUSH0 SWAP1 SLOAD SWAP1 PUSH2 0x100 EXP SWAP1 DIV PUSH20 0xFFFFFFFFFFFFFFFFFFFFFFFFFFFFFFFFFFFFFFFF AND DUP2 JUMP JUMPDEST PUSH0 PUSH20 0xFFFFFFFFFFFFFFFFFFFFFFFFFFFFFFFFFFFFFFFF DUP3 AND SWAP1 POP SWAP2 SWAP1 POP JUMP JUMPDEST PUSH0 PUSH2 0xE5 DUP3 PUSH2 0xBC JUMP JUMPDEST SWAP1 POP SWAP2 SWAP1 POP JUMP JUMPDEST PUSH2 0xF5 DUP2 PUSH2 0xDB JUMP JUMPDEST DUP3 MSTORE POP POP JUMP JUMPDEST PUSH0 PUSH1 0x20 DUP3 ADD SWAP1 POP PUSH2 0x10E PUSH0 DUP4 ADD DUP5 PUSH2 0xEC JUMP JUMPDEST SWAP3 SWAP2 POP POP JUMP INVALID LOG2 PUSH5 0x6970667358 0x22 SLT KECCAK256 SLOAD 0xEE CODESIZE MSTORE8 MLOAD LT PUSH10 0xB054DBC9D11F317F1ABA LOG3 DUP6 0xEE 0x2A 0x1E GASLIMIT 0xE4 CALLER 0x27 EXTCODEHASH 0x2D SWAP14 0xB0 PUSH30 0x6664736F6C63430008140033000000000000000000000000000000000000 "
				},
				"gasEstimates": {
					"creation": {
						"codeDepositCost": "116200",
						"executionCost": "infinite",
						"totalCost": "infinite"
					},
					"external": {
						"engineeringManager()": "infinite",
						"salesperson()": "infinite",
						"submission()": "infinite"
					}
				},
				"methodIdentifiers": {
					"engineeringManager()": "687981dd",
					"salesperson()": "fe828c33",
					"submission()": "9a759097"
				}
			},
			"storageLayout": {
				"storage": [
					{
						"astId": 178,
						"contract": "BASE-LEARN/Inheritance.sol:InheritanceFactory",
						"label": "salesperson",
						"offset": 0,
						"slot": "0",
						"type": "t_contract(Salesperson)134"
					},
					{
						"astId": 181,
						"contract": "BASE-LEARN/Inheritance.sol:InheritanceFactory",
						"label": "engineeringManager",
						"offset": 0,
						"slot": "1",
						"type": "t_contract(EngineeringManager)154"
					},
					{
						"astId": 184,
						"contract": "BASE-LEARN/Inheritance.sol:InheritanceFactory",
						"label": "submission",
						"offset": 0,
						"slot": "2",
						"type": "t_contract(InheritanceSubmission)175"
					}
				],
				"types": {
					"t_contract(EngineeringManager)154": {
						"encoding": "inplace",
						"label": "contract EngineeringManager",
						"numberOfBytes": "20"
					},
					"t_contract(InheritanceSubmission)175": {
						"encoding": "inplace",
						"label": "contract InheritanceSubmission",
						"numberOfBytes": "20"
					},
					"t_contract(Salesperson)134": {
						"encoding": "inplace",
						"label": "contract Salesperson",
						"numberOfBytes": "20"
					}
				}
			},
			"userdoc": {
				"kind": "user",
				"methods": {},
				"version": 1
			}
		}
	}
}