{
	"data": {
		"bytecode": {
			"linkReferences": {},
			"object": "608060405234801561000f575f80fd5b5061001e61002360201b60201c565b61012e565b5f8061002f9190610078565b5f600190505b600a8111610075575f81908060018154018082558091505060019003905f5260205f20015f9091909190915055808061006d906100e7565b915050610035565b50565b5080545f8255905f5260205f20908101906100939190610096565b50565b5b808211156100ad575f815f905550600101610097565b5090565b7f4e487b71000000000000000000000000000000000000000000000000000000005f52601160045260245ffd5b5f819050919050565b5f6100f1826100de565b91507fffffffffffffffffffffffffffffffffffffffffffffffffffffffffffffffff8203610123576101226100b1565b5b600182019050919050565b610abb8061013b5f395ff3fe608060405234801561000f575f80fd5b506004361061009c575f3560e01c80639977c78a116100645780639977c78a14610133578063a00b7acd14610163578063ade82bfd1461017f578063b1cebac514610189578063d39fa233146101935761009c565b806320aaf79a146100a05780634f9377db146100bf5780637f66b1b8146100db57806389f915f6146100e55780638bc33af314610103575b5f80fd5b6100a86101c3565b6040516100b6929190610809565b60405180910390f35b6100d960048036038101906100d491906108a7565b6103dd565b005b6100e3610440565b005b6100ed61044f565b6040516100fa91906108f2565b60405180910390f35b61011d6004803603810190610118919061093c565b6104a4565b60405161012a9190610976565b60405180910390f35b61014d6004803603810190610148919061093c565b6104c4565b60405161015a919061099e565b60405180910390f35b61017d6004803603810190610178919061093c565b6104ff565b005b610187610588565b005b610191610597565b005b6101ad60048036038101906101a8919061093c565b6105ec565b6040516101ba9190610976565b60405180910390f35b6060805f8060028054905090505f5b818110156102245763386d89d0600282815481106101f3576101f26109b7565b5b905f5260205f200154111561021157828061020d90610a11565b9350505b808061021c90610a11565b9150506101d2565b508167ffffffffffffffff81111561023f5761023e610a58565b5b60405190808252806020026020018201604052801561026d5781602001602082028036833780820191505090505b5093508167ffffffffffffffff81111561028a57610289610a58565b5b6040519080825280602002602001820160405280156102b85781602001602082028036833780820191505090505b5092505f805b828110156103d55763386d89d0600282815481106102df576102de6109b7565b5b905f5260205f20015411156103c25760028181548110610302576103016109b7565b5b905f5260205f20015486838151811061031e5761031d6109b7565b5b6020026020010181815250506001818154811061033e5761033d6109b7565b5b905f5260205f20015f9054906101000a900473ffffffffffffffffffffffffffffffffffffffff16858381518110610379576103786109b7565b5b602002602001019073ffffffffffffffffffffffffffffffffffffffff16908173ffffffffffffffffffffffffffffffffffffffff168152505081806103be90610a11565b9250505b80806103cd90610a11565b9150506102be565b505050509091565b5f5b8282905081101561043b575f8383838181106103fe576103fd6109b7565b5b90506020020135908060018154018082558091505060019003905f5260205f20015f9091909190915055808061043390610a11565b9150506103df565b505050565b60015f61044d919061060b565b565b60605f80548060200260200160405190810160405280929190818152602001828054801561049a57602002820191905f5260205f20905b815481526020019060010190808311610486575b5050505050905090565b600281815481106104b3575f80fd5b905f5260205f20015f915090505481565b600181815481106104d3575f80fd5b905f5260205f20015f915054906101000a900473ffffffffffffffffffffffffffffffffffffffff1681565b600133908060018154018082558091505060019003905f5260205f20015f9091909190916101000a81548173ffffffffffffffffffffffffffffffffffffffff021916908373ffffffffffffffffffffffffffffffffffffffff160217905550600281908060018154018082558091505060019003905f5260205f20015f909190919091505550565b60025f6105959190610629565b565b5f806105a39190610629565b5f600190505b600a81116105e9575f81908060018154018082558091505060019003905f5260205f20015f909190919091505580806105e190610a11565b9150506105a9565b50565b5f81815481106105fa575f80fd5b905f5260205f20015f915090505481565b5080545f8255905f5260205f20908101906106269190610647565b50565b5080545f8255905f5260205f20908101906106449190610647565b50565b5b8082111561065e575f815f905550600101610648565b5090565b5f81519050919050565b5f82825260208201905092915050565b5f819050602082019050919050565b5f819050919050565b61069d8161068b565b82525050565b5f6106ae8383610694565b60208301905092915050565b5f602082019050919050565b5f6106d082610662565b6106da818561066c565b93506106e58361067c565b805f5b838110156107155781516106fc88826106a3565b9750610707836106ba565b9250506001810190506106e8565b5085935050505092915050565b5f81519050919050565b5f82825260208201905092915050565b5f819050602082019050919050565b5f73ffffffffffffffffffffffffffffffffffffffff82169050919050565b5f6107748261074b565b9050919050565b6107848161076a565b82525050565b5f610795838361077b565b60208301905092915050565b5f602082019050919050565b5f6107b782610722565b6107c1818561072c565b93506107cc8361073c565b805f5b838110156107fc5781516107e3888261078a565b97506107ee836107a1565b9250506001810190506107cf565b5085935050505092915050565b5f6040820190508181035f83015261082181856106c6565b9050818103602083015261083581846107ad565b90509392505050565b5f80fd5b5f80fd5b5f80fd5b5f80fd5b5f80fd5b5f8083601f84011261086757610866610846565b5b8235905067ffffffffffffffff8111156108845761088361084a565b5b6020830191508360208202830111156108a05761089f61084e565b5b9250929050565b5f80602083850312156108bd576108bc61083e565b5b5f83013567ffffffffffffffff8111156108da576108d9610842565b5b6108e685828601610852565b92509250509250929050565b5f6020820190508181035f83015261090a81846106c6565b905092915050565b61091b8161068b565b8114610925575f80fd5b50565b5f8135905061093681610912565b92915050565b5f602082840312156109515761095061083e565b5b5f61095e84828501610928565b91505092915050565b6109708161068b565b82525050565b5f6020820190506109895f830184610967565b92915050565b6109988161076a565b82525050565b5f6020820190506109b15f83018461098f565b92915050565b7f4e487b71000000000000000000000000000000000000000000000000000000005f52603260045260245ffd5b7f4e487b71000000000000000000000000000000000000000000000000000000005f52601160045260245ffd5b5f610a1b8261068b565b91507fffffffffffffffffffffffffffffffffffffffffffffffffffffffffffffffff8203610a4d57610a4c6109e4565b5b600182019050919050565b7f4e487b71000000000000000000000000000000000000000000000000000000005f52604160045260245ffdfea2646970667358221220b76e759327952bb1bac8b6054206edfeb4eff3a7318ef6ac9b2ada30aaaa4e7064736f6c63430008140033",
			"opcodes": "PUSH1 0x80 PUSH1 0x40 MSTORE CALLVALUE DUP1 ISZERO PUSH2 0xF JUMPI PUSH0 DUP1 REVERT JUMPDEST POP PUSH2 0x1E PUSH2 0x23 PUSH1 0x20 SHL PUSH1 0x20 SHR JUMP JUMPDEST PUSH2 0x12E JUMP JUMPDEST PUSH0 DUP1 PUSH2 0x2F SWAP2 SWAP1 PUSH2 0x78 JUMP JUMPDEST PUSH0 PUSH1 0x1 SWAP1 POP JUMPDEST PUSH1 0xA DUP2 GT PUSH2 0x75 JUMPI PUSH0 DUP2 SWAP1 DUP1 PUSH1 0x1 DUP2 SLOAD ADD DUP1 DUP3 SSTORE DUP1 SWAP2 POP POP PUSH1 0x1 SWAP1 SUB SWAP1 PUSH0 MSTORE PUSH1 0x20 PUSH0 KECCAK256 ADD PUSH0 SWAP1 SWAP2 SWAP1 SWAP2 SWAP1 SWAP2 POP SSTORE DUP1 DUP1 PUSH2 0x6D SWAP1 PUSH2 0xE7 JUMP JUMPDEST SWAP2 POP POP PUSH2 0x35 JUMP JUMPDEST POP JUMP JUMPDEST POP DUP1 SLOAD PUSH0 DUP3 SSTORE SWAP1 PUSH0 MSTORE PUSH1 0x20 PUSH0 KECCAK256 SWAP1 DUP2 ADD SWAP1 PUSH2 0x93 SWAP2 SWAP1 PUSH2 0x96 JUMP JUMPDEST POP JUMP JUMPDEST JUMPDEST DUP1 DUP3 GT ISZERO PUSH2 0xAD JUMPI PUSH0 DUP2 PUSH0 SWAP1 SSTORE POP PUSH1 0x1 ADD PUSH2 0x97 JUMP JUMPDEST POP SWAP1 JUMP JUMPDEST PUSH32 0x4E487B7100000000000000000000000000000000000000000000000000000000 PUSH0 MSTORE PUSH1 0x11 PUSH1 0x4 MSTORE PUSH1 0x24 PUSH0 REVERT JUMPDEST PUSH0 DUP2 SWAP1 POP SWAP2 SWAP1 POP JUMP JUMPDEST PUSH0 PUSH2 0xF1 DUP3 PUSH2 0xDE JUMP JUMPDEST SWAP2 POP PUSH32 0xFFFFFFFFFFFFFFFFFFFFFFFFFFFFFFFFFFFFFFFFFFFFFFFFFFFFFFFFFFFFFFFF DUP3 SUB PUSH2 0x123 JUMPI PUSH2 0x122 PUSH2 0xB1 JUMP JUMPDEST JUMPDEST PUSH1 0x1 DUP3 ADD SWAP1 POP SWAP2 SWAP1 POP JUMP JUMPDEST PUSH2 0xABB DUP1 PUSH2 0x13B PUSH0 CODECOPY PUSH0 RETURN INVALID PUSH1 0x80 PUSH1 0x40 MSTORE CALLVALUE DUP1 ISZERO PUSH2 0xF JUMPI PUSH0 DUP1 REVERT JUMPDEST POP PUSH1 0x4 CALLDATASIZE LT PUSH2 0x9C JUMPI PUSH0 CALLDATALOAD PUSH1 0xE0 SHR DUP1 PUSH4 0x9977C78A GT PUSH2 0x64 JUMPI DUP1 PUSH4 0x9977C78A EQ PUSH2 0x133 JUMPI DUP1 PUSH4 0xA00B7ACD EQ PUSH2 0x163 JUMPI DUP1 PUSH4 0xADE82BFD EQ PUSH2 0x17F JUMPI DUP1 PUSH4 0xB1CEBAC5 EQ PUSH2 0x189 JUMPI DUP1 PUSH4 0xD39FA233 EQ PUSH2 0x193 JUMPI PUSH2 0x9C JUMP JUMPDEST DUP1 PUSH4 0x20AAF79A EQ PUSH2 0xA0 JUMPI DUP1 PUSH4 0x4F9377DB EQ PUSH2 0xBF JUMPI DUP1 PUSH4 0x7F66B1B8 EQ PUSH2 0xDB JUMPI DUP1 PUSH4 0x89F915F6 EQ PUSH2 0xE5 JUMPI DUP1 PUSH4 0x8BC33AF3 EQ PUSH2 0x103 JUMPI JUMPDEST PUSH0 DUP1 REVERT JUMPDEST PUSH2 0xA8 PUSH2 0x1C3 JUMP JUMPDEST PUSH1 0x40 MLOAD PUSH2 0xB6 SWAP3 SWAP2 SWAP1 PUSH2 0x809 JUMP JUMPDEST PUSH1 0x40 MLOAD DUP1 SWAP2 SUB SWAP1 RETURN JUMPDEST PUSH2 0xD9 PUSH1 0x4 DUP1 CALLDATASIZE SUB DUP2 ADD SWAP1 PUSH2 0xD4 SWAP2 SWAP1 PUSH2 0x8A7 JUMP JUMPDEST PUSH2 0x3DD JUMP JUMPDEST STOP JUMPDEST PUSH2 0xE3 PUSH2 0x440 JUMP JUMPDEST STOP JUMPDEST PUSH2 0xED PUSH2 0x44F JUMP JUMPDEST PUSH1 0x40 MLOAD PUSH2 0xFA SWAP2 SWAP1 PUSH2 0x8F2 JUMP JUMPDEST PUSH1 0x40 MLOAD DUP1 SWAP2 SUB SWAP1 RETURN JUMPDEST PUSH2 0x11D PUSH1 0x4 DUP1 CALLDATASIZE SUB DUP2 ADD SWAP1 PUSH2 0x118 SWAP2 SWAP1 PUSH2 0x93C JUMP JUMPDEST PUSH2 0x4A4 JUMP JUMPDEST PUSH1 0x40 MLOAD PUSH2 0x12A SWAP2 SWAP1 PUSH2 0x976 JUMP JUMPDEST PUSH1 0x40 MLOAD DUP1 SWAP2 SUB SWAP1 RETURN JUMPDEST PUSH2 0x14D PUSH1 0x4 DUP1 CALLDATASIZE SUB DUP2 ADD SWAP1 PUSH2 0x148 SWAP2 SWAP1 PUSH2 0x93C JUMP JUMPDEST PUSH2 0x4C4 JUMP JUMPDEST PUSH1 0x40 MLOAD PUSH2 0x15A SWAP2 SWAP1 PUSH2 0x99E JUMP JUMPDEST PUSH1 0x40 MLOAD DUP1 SWAP2 SUB SWAP1 RETURN JUMPDEST PUSH2 0x17D PUSH1 0x4 DUP1 CALLDATASIZE SUB DUP2 ADD SWAP1 PUSH2 0x178 SWAP2 SWAP1 PUSH2 0x93C JUMP JUMPDEST PUSH2 0x4FF JUMP JUMPDEST STOP JUMPDEST PUSH2 0x187 PUSH2 0x588 JUMP JUMPDEST STOP JUMPDEST PUSH2 0x191 PUSH2 0x597 JUMP JUMPDEST STOP JUMPDEST PUSH2 0x1AD PUSH1 0x4 DUP1 CALLDATASIZE SUB DUP2 ADD SWAP1 PUSH2 0x1A8 SWAP2 SWAP1 PUSH2 0x93C JUMP JUMPDEST PUSH2 0x5EC JUMP JUMPDEST PUSH1 0x40 MLOAD PUSH2 0x1BA SWAP2 SWAP1 PUSH2 0x976 JUMP JUMPDEST PUSH1 0x40 MLOAD DUP1 SWAP2 SUB SWAP1 RETURN JUMPDEST PUSH1 0x60 DUP1 PUSH0 DUP1 PUSH1 0x2 DUP1 SLOAD SWAP1 POP SWAP1 POP PUSH0 JUMPDEST DUP2 DUP2 LT ISZERO PUSH2 0x224 JUMPI PUSH4 0x386D89D0 PUSH1 0x2 DUP3 DUP2 SLOAD DUP2 LT PUSH2 0x1F3 JUMPI PUSH2 0x1F2 PUSH2 0x9B7 JUMP JUMPDEST JUMPDEST SWAP1 PUSH0 MSTORE PUSH1 0x20 PUSH0 KECCAK256 ADD SLOAD GT ISZERO PUSH2 0x211 JUMPI DUP3 DUP1 PUSH2 0x20D SWAP1 PUSH2 0xA11 JUMP JUMPDEST SWAP4 POP POP JUMPDEST DUP1 DUP1 PUSH2 0x21C SWAP1 PUSH2 0xA11 JUMP JUMPDEST SWAP2 POP POP PUSH2 0x1D2 JUMP JUMPDEST POP DUP2 PUSH8 0xFFFFFFFFFFFFFFFF DUP2 GT ISZERO PUSH2 0x23F JUMPI PUSH2 0x23E PUSH2 0xA58 JUMP JUMPDEST JUMPDEST PUSH1 0x40 MLOAD SWAP1 DUP1 DUP3 MSTORE DUP1 PUSH1 0x20 MUL PUSH1 0x20 ADD DUP3 ADD PUSH1 0x40 MSTORE DUP1 ISZERO PUSH2 0x26D JUMPI DUP2 PUSH1 0x20 ADD PUSH1 0x20 DUP3 MUL DUP1 CALLDATASIZE DUP4 CALLDATACOPY DUP1 DUP3 ADD SWAP2 POP POP SWAP1 POP JUMPDEST POP SWAP4 POP DUP2 PUSH8 0xFFFFFFFFFFFFFFFF DUP2 GT ISZERO PUSH2 0x28A JUMPI PUSH2 0x289 PUSH2 0xA58 JUMP JUMPDEST JUMPDEST PUSH1 0x40 MLOAD SWAP1 DUP1 DUP3 MSTORE DUP1 PUSH1 0x20 MUL PUSH1 0x20 ADD DUP3 ADD PUSH1 0x40 MSTORE DUP1 ISZERO PUSH2 0x2B8 JUMPI DUP2 PUSH1 0x20 ADD PUSH1 0x20 DUP3 MUL DUP1 CALLDATASIZE DUP4 CALLDATACOPY DUP1 DUP3 ADD SWAP2 POP POP SWAP1 POP JUMPDEST POP SWAP3 POP PUSH0 DUP1 JUMPDEST DUP3 DUP2 LT ISZERO PUSH2 0x3D5 JUMPI PUSH4 0x386D89D0 PUSH1 0x2 DUP3 DUP2 SLOAD DUP2 LT PUSH2 0x2DF JUMPI PUSH2 0x2DE PUSH2 0x9B7 JUMP JUMPDEST JUMPDEST SWAP1 PUSH0 MSTORE PUSH1 0x20 PUSH0 KECCAK256 ADD SLOAD GT ISZERO PUSH2 0x3C2 JUMPI PUSH1 0x2 DUP2 DUP2 SLOAD DUP2 LT PUSH2 0x302 JUMPI PUSH2 0x301 PUSH2 0x9B7 JUMP JUMPDEST JUMPDEST SWAP1 PUSH0 MSTORE PUSH1 0x20 PUSH0 KECCAK256 ADD SLOAD DUP7 DUP4 DUP2 MLOAD DUP2 LT PUSH2 0x31E JUMPI PUSH2 0x31D PUSH2 0x9B7 JUMP JUMPDEST JUMPDEST PUSH1 0x20 MUL PUSH1 0x20 ADD ADD DUP2 DUP2 MSTORE POP POP PUSH1 0x1 DUP2 DUP2 SLOAD DUP2 LT PUSH2 0x33E JUMPI PUSH2 0x33D PUSH2 0x9B7 JUMP JUMPDEST JUMPDEST SWAP1 PUSH0 MSTORE PUSH1 0x20 PUSH0 KECCAK256 ADD PUSH0 SWAP1 SLOAD SWAP1 PUSH2 0x100 EXP SWAP1 DIV PUSH20 0xFFFFFFFFFFFFFFFFFFFFFFFFFFFFFFFFFFFFFFFF AND DUP6 DUP4 DUP2 MLOAD DUP2 LT PUSH2 0x379 JUMPI PUSH2 0x378 PUSH2 0x9B7 JUMP JUMPDEST JUMPDEST PUSH1 0x20 MUL PUSH1 0x20 ADD ADD SWAP1 PUSH20 0xFFFFFFFFFFFFFFFFFFFFFFFFFFFFFFFFFFFFFFFF AND SWAP1 DUP2 PUSH20 0xFFFFFFFFFFFFFFFFFFFFFFFFFFFFFFFFFFFFFFFF AND DUP2 MSTORE POP POP DUP2 DUP1 PUSH2 0x3BE SWAP1 PUSH2 0xA11 JUMP JUMPDEST SWAP3 POP POP JUMPDEST DUP1 DUP1 PUSH2 0x3CD SWAP1 PUSH2 0xA11 JUMP JUMPDEST SWAP2 POP POP PUSH2 0x2BE JUMP JUMPDEST POP POP POP POP SWAP1 SWAP2 JUMP JUMPDEST PUSH0 JUMPDEST DUP3 DUP3 SWAP1 POP DUP2 LT ISZERO PUSH2 0x43B JUMPI PUSH0 DUP4 DUP4 DUP4 DUP2 DUP2 LT PUSH2 0x3FE JUMPI PUSH2 0x3FD PUSH2 0x9B7 JUMP JUMPDEST JUMPDEST SWAP1 POP PUSH1 0x20 MUL ADD CALLDATALOAD SWAP1 DUP1 PUSH1 0x1 DUP2 SLOAD ADD DUP1 DUP3 SSTORE DUP1 SWAP2 POP POP PUSH1 0x1 SWAP1 SUB SWAP1 PUSH0 MSTORE PUSH1 0x20 PUSH0 KECCAK256 ADD PUSH0 SWAP1 SWAP2 SWAP1 SWAP2 SWAP1 SWAP2 POP SSTORE DUP1 DUP1 PUSH2 0x433 SWAP1 PUSH2 0xA11 JUMP JUMPDEST SWAP2 POP POP PUSH2 0x3DF JUMP JUMPDEST POP POP POP JUMP JUMPDEST PUSH1 0x1 PUSH0 PUSH2 0x44D SWAP2 SWAP1 PUSH2 0x60B JUMP JUMPDEST JUMP JUMPDEST PUSH1 0x60 PUSH0 DUP1 SLOAD DUP1 PUSH1 0x20 MUL PUSH1 0x20 ADD PUSH1 0x40 MLOAD SWAP1 DUP2 ADD PUSH1 0x40 MSTORE DUP1 SWAP3 SWAP2 SWAP1 DUP2 DUP2 MSTORE PUSH1 0x20 ADD DUP3 DUP1 SLOAD DUP1 ISZERO PUSH2 0x49A JUMPI PUSH1 0x20 MUL DUP3 ADD SWAP2 SWAP1 PUSH0 MSTORE PUSH1 0x20 PUSH0 KECCAK256 SWAP1 JUMPDEST DUP2 SLOAD DUP2 MSTORE PUSH1 0x20 ADD SWAP1 PUSH1 0x1 ADD SWAP1 DUP1 DUP4 GT PUSH2 0x486 JUMPI JUMPDEST POP POP POP POP POP SWAP1 POP SWAP1 JUMP JUMPDEST PUSH1 0x2 DUP2 DUP2 SLOAD DUP2 LT PUSH2 0x4B3 JUMPI PUSH0 DUP1 REVERT JUMPDEST SWAP1 PUSH0 MSTORE PUSH1 0x20 PUSH0 KECCAK256 ADD PUSH0 SWAP2 POP SWAP1 POP SLOAD DUP2 JUMP JUMPDEST PUSH1 0x1 DUP2 DUP2 SLOAD DUP2 LT PUSH2 0x4D3 JUMPI PUSH0 DUP1 REVERT JUMPDEST SWAP1 PUSH0 MSTORE PUSH1 0x20 PUSH0 KECCAK256 ADD PUSH0 SWAP2 POP SLOAD SWAP1 PUSH2 0x100 EXP SWAP1 DIV PUSH20 0xFFFFFFFFFFFFFFFFFFFFFFFFFFFFFFFFFFFFFFFF AND DUP2 JUMP JUMPDEST PUSH1 0x1 CALLER SWAP1 DUP1 PUSH1 0x1 DUP2 SLOAD ADD DUP1 DUP3 SSTORE DUP1 SWAP2 POP POP PUSH1 0x1 SWAP1 SUB SWAP1 PUSH0 MSTORE PUSH1 0x20 PUSH0 KECCAK256 ADD PUSH0 SWAP1 SWAP2 SWAP1 SWAP2 SWAP1 SWAP2 PUSH2 0x100 EXP DUP2 SLOAD DUP2 PUSH20 0xFFFFFFFFFFFFFFFFFFFFFFFFFFFFFFFFFFFFFFFF MUL NOT AND SWAP1 DUP4 PUSH20 0xFFFFFFFFFFFFFFFFFFFFFFFFFFFFFFFFFFFFFFFF AND MUL OR SWAP1 SSTORE POP PUSH1 0x2 DUP2 SWAP1 DUP1 PUSH1 0x1 DUP2 SLOAD ADD DUP1 DUP3 SSTORE DUP1 SWAP2 POP POP PUSH1 0x1 SWAP1 SUB SWAP1 PUSH0 MSTORE PUSH1 0x20 PUSH0 KECCAK256 ADD PUSH0 SWAP1 SWAP2 SWAP1 SWAP2 SWAP1 SWAP2 POP SSTORE POP JUMP JUMPDEST PUSH1 0x2 PUSH0 PUSH2 0x595 SWAP2 SWAP1 PUSH2 0x629 JUMP JUMPDEST JUMP JUMPDEST PUSH0 DUP1 PUSH2 0x5A3 SWAP2 SWAP1 PUSH2 0x629 JUMP JUMPDEST PUSH0 PUSH1 0x1 SWAP1 POP JUMPDEST PUSH1 0xA DUP2 GT PUSH2 0x5E9 JUMPI PUSH0 DUP2 SWAP1 DUP1 PUSH1 0x1 DUP2 SLOAD ADD DUP1 DUP3 SSTORE DUP1 SWAP2 POP POP PUSH1 0x1 SWAP1 SUB SWAP1 PUSH0 MSTORE PUSH1 0x20 PUSH0 KECCAK256 ADD PUSH0 SWAP1 SWAP2 SWAP1 SWAP2 SWAP1 SWAP2 POP SSTORE DUP1 DUP1 PUSH2 0x5E1 SWAP1 PUSH2 0xA11 JUMP JUMPDEST SWAP2 POP POP PUSH2 0x5A9 JUMP JUMPDEST POP JUMP JUMPDEST PUSH0 DUP2 DUP2 SLOAD DUP2 LT PUSH2 0x5FA JUMPI PUSH0 DUP1 REVERT JUMPDEST SWAP1 PUSH0 MSTORE PUSH1 0x20 PUSH0 KECCAK256 ADD PUSH0 SWAP2 POP SWAP1 POP SLOAD DUP2 JUMP JUMPDEST POP DUP1 SLOAD PUSH0 DUP3 SSTORE SWAP1 PUSH0 MSTORE PUSH1 0x20 PUSH0 KECCAK256 SWAP1 DUP2 ADD SWAP1 PUSH2 0x626 SWAP2 SWAP1 PUSH2 0x647 JUMP JUMPDEST POP JUMP JUMPDEST POP DUP1 SLOAD PUSH0 DUP3 SSTORE SWAP1 PUSH0 MSTORE PUSH1 0x20 PUSH0 KECCAK256 SWAP1 DUP2 ADD SWAP1 PUSH2 0x644 SWAP2 SWAP1 PUSH2 0x647 JUMP JUMPDEST POP JUMP JUMPDEST JUMPDEST DUP1 DUP3 GT ISZERO PUSH2 0x65E JUMPI PUSH0 DUP2 PUSH0 SWAP1 SSTORE POP PUSH1 0x1 ADD PUSH2 0x648 JUMP JUMPDEST POP SWAP1 JUMP JUMPDEST PUSH0 DUP2 MLOAD SWAP1 POP SWAP2 SWAP1 POP JUMP JUMPDEST PUSH0 DUP3 DUP3 MSTORE PUSH1 0x20 DUP3 ADD SWAP1 POP SWAP3 SWAP2 POP POP JUMP JUMPDEST PUSH0 DUP2 SWAP1 POP PUSH1 0x20 DUP3 ADD SWAP1 POP SWAP2 SWAP1 POP JUMP JUMPDEST PUSH0 DUP2 SWAP1 POP SWAP2 SWAP1 POP JUMP JUMPDEST PUSH2 0x69D DUP2 PUSH2 0x68B JUMP JUMPDEST DUP3 MSTORE POP POP JUMP JUMPDEST PUSH0 PUSH2 0x6AE DUP4 DUP4 PUSH2 0x694 JUMP JUMPDEST PUSH1 0x20 DUP4 ADD SWAP1 POP SWAP3 SWAP2 POP POP JUMP JUMPDEST PUSH0 PUSH1 0x20 DUP3 ADD SWAP1 POP SWAP2 SWAP1 POP JUMP JUMPDEST PUSH0 PUSH2 0x6D0 DUP3 PUSH2 0x662 JUMP JUMPDEST PUSH2 0x6DA DUP2 DUP6 PUSH2 0x66C JUMP JUMPDEST SWAP4 POP PUSH2 0x6E5 DUP4 PUSH2 0x67C JUMP JUMPDEST DUP1 PUSH0 JUMPDEST DUP4 DUP2 LT ISZERO PUSH2 0x715 JUMPI DUP2 MLOAD PUSH2 0x6FC DUP9 DUP3 PUSH2 0x6A3 JUMP JUMPDEST SWAP8 POP PUSH2 0x707 DUP4 PUSH2 0x6BA JUMP JUMPDEST SWAP3 POP POP PUSH1 0x1 DUP2 ADD SWAP1 POP PUSH2 0x6E8 JUMP JUMPDEST POP DUP6 SWAP4 POP POP POP POP SWAP3 SWAP2 POP POP JUMP JUMPDEST PUSH0 DUP2 MLOAD SWAP1 POP SWAP2 SWAP1 POP JUMP JUMPDEST PUSH0 DUP3 DUP3 MSTORE PUSH1 0x20 DUP3 ADD SWAP1 POP SWAP3 SWAP2 POP POP JUMP JUMPDEST PUSH0 DUP2 SWAP1 POP PUSH1 0x20 DUP3 ADD SWAP1 POP SWAP2 SWAP1 POP JUMP JUMPDEST PUSH0 PUSH20 0xFFFFFFFFFFFFFFFFFFFFFFFFFFFFFFFFFFFFFFFF DUP3 AND SWAP1 POP SWAP2 SWAP1 POP JUMP JUMPDEST PUSH0 PUSH2 0x774 DUP3 PUSH2 0x74B JUMP JUMPDEST SWAP1 POP SWAP2 SWAP1 POP JUMP JUMPDEST PUSH2 0x784 DUP2 PUSH2 0x76A JUMP JUMPDEST DUP3 MSTORE POP POP JUMP JUMPDEST PUSH0 PUSH2 0x795 DUP4 DUP4 PUSH2 0x77B JUMP JUMPDEST PUSH1 0x20 DUP4 ADD SWAP1 POP SWAP3 SWAP2 POP POP JUMP JUMPDEST PUSH0 PUSH1 0x20 DUP3 ADD SWAP1 POP SWAP2 SWAP1 POP JUMP JUMPDEST PUSH0 PUSH2 0x7B7 DUP3 PUSH2 0x722 JUMP JUMPDEST PUSH2 0x7C1 DUP2 DUP6 PUSH2 0x72C JUMP JUMPDEST SWAP4 POP PUSH2 0x7CC DUP4 PUSH2 0x73C JUMP JUMPDEST DUP1 PUSH0 JUMPDEST DUP4 DUP2 LT ISZERO PUSH2 0x7FC JUMPI DUP2 MLOAD PUSH2 0x7E3 DUP9 DUP3 PUSH2 0x78A JUMP JUMPDEST SWAP8 POP PUSH2 0x7EE DUP4 PUSH2 0x7A1 JUMP JUMPDEST SWAP3 POP POP PUSH1 0x1 DUP2 ADD SWAP1 POP PUSH2 0x7CF JUMP JUMPDEST POP DUP6 SWAP4 POP POP POP POP SWAP3 SWAP2 POP POP JUMP JUMPDEST PUSH0 PUSH1 0x40 DUP3 ADD SWAP1 POP DUP2 DUP2 SUB PUSH0 DUP4 ADD MSTORE PUSH2 0x821 DUP2 DUP6 PUSH2 0x6C6 JUMP JUMPDEST SWAP1 POP DUP2 DUP2 SUB PUSH1 0x20 DUP4 ADD MSTORE PUSH2 0x835 DUP2 DUP5 PUSH2 0x7AD JUMP JUMPDEST SWAP1 POP SWAP4 SWAP3 POP POP POP JUMP JUMPDEST PUSH0 DUP1 REVERT JUMPDEST PUSH0 DUP1 REVERT JUMPDEST PUSH0 DUP1 REVERT JUMPDEST PUSH0 DUP1 REVERT JUMPDEST PUSH0 DUP1 REVERT JUMPDEST PUSH0 DUP1 DUP4 PUSH1 0x1F DUP5 ADD SLT PUSH2 0x867 JUMPI PUSH2 0x866 PUSH2 0x846 JUMP JUMPDEST JUMPDEST DUP3 CALLDATALOAD SWAP1 POP PUSH8 0xFFFFFFFFFFFFFFFF DUP2 GT ISZERO PUSH2 0x884 JUMPI PUSH2 0x883 PUSH2 0x84A JUMP JUMPDEST JUMPDEST PUSH1 0x20 DUP4 ADD SWAP2 POP DUP4 PUSH1 0x20 DUP3 MUL DUP4 ADD GT ISZERO PUSH2 0x8A0 JUMPI PUSH2 0x89F PUSH2 0x84E JUMP JUMPDEST JUMPDEST SWAP3 POP SWAP3 SWAP1 POP JUMP JUMPDEST PUSH0 DUP1 PUSH1 0x20 DUP4 DUP6 SUB SLT ISZERO PUSH2 0x8BD JUMPI PUSH2 0x8BC PUSH2 0x83E JUMP JUMPDEST JUMPDEST PUSH0 DUP4 ADD CALLDATALOAD PUSH8 0xFFFFFFFFFFFFFFFF DUP2 GT ISZERO PUSH2 0x8DA JUMPI PUSH2 0x8D9 PUSH2 0x842 JUMP JUMPDEST JUMPDEST PUSH2 0x8E6 DUP6 DUP3 DUP7 ADD PUSH2 0x852 JUMP JUMPDEST SWAP3 POP SWAP3 POP POP SWAP3 POP SWAP3 SWAP1 POP JUMP JUMPDEST PUSH0 PUSH1 0x20 DUP3 ADD SWAP1 POP DUP2 DUP2 SUB PUSH0 DUP4 ADD MSTORE PUSH2 0x90A DUP2 DUP5 PUSH2 0x6C6 JUMP JUMPDEST SWAP1 POP SWAP3 SWAP2 POP POP JUMP JUMPDEST PUSH2 0x91B DUP2 PUSH2 0x68B JUMP JUMPDEST DUP2 EQ PUSH2 0x925 JUMPI PUSH0 DUP1 REVERT JUMPDEST POP JUMP JUMPDEST PUSH0 DUP2 CALLDATALOAD SWAP1 POP PUSH2 0x936 DUP2 PUSH2 0x912 JUMP JUMPDEST SWAP3 SWAP2 POP POP JUMP JUMPDEST PUSH0 PUSH1 0x20 DUP3 DUP5 SUB SLT ISZERO PUSH2 0x951 JUMPI PUSH2 0x950 PUSH2 0x83E JUMP JUMPDEST JUMPDEST PUSH0 PUSH2 0x95E DUP5 DUP3 DUP6 ADD PUSH2 0x928 JUMP JUMPDEST SWAP2 POP POP SWAP3 SWAP2 POP POP JUMP JUMPDEST PUSH2 0x970 DUP2 PUSH2 0x68B JUMP JUMPDEST DUP3 MSTORE POP POP JUMP JUMPDEST PUSH0 PUSH1 0x20 DUP3 ADD SWAP1 POP PUSH2 0x989 PUSH0 DUP4 ADD DUP5 PUSH2 0x967 JUMP JUMPDEST SWAP3 SWAP2 POP POP JUMP JUMPDEST PUSH2 0x998 DUP2 PUSH2 0x76A JUMP JUMPDEST DUP3 MSTORE POP POP JUMP JUMPDEST PUSH0 PUSH1 0x20 DUP3 ADD SWAP1 POP PUSH2 0x9B1 PUSH0 DUP4 ADD DUP5 PUSH2 0x98F JUMP JUMPDEST SWAP3 SWAP2 POP POP JUMP JUMPDEST PUSH32 0x4E487B7100000000000000000000000000000000000000000000000000000000 PUSH0 MSTORE PUSH1 0x32 PUSH1 0x4 MSTORE PUSH1 0x24 PUSH0 REVERT JUMPDEST PUSH32 0x4E487B7100000000000000000000000000000000000000000000000000000000 PUSH0 MSTORE PUSH1 0x11 PUSH1 0x4 MSTORE PUSH1 0x24 PUSH0 REVERT JUMPDEST PUSH0 PUSH2 0xA1B DUP3 PUSH2 0x68B JUMP JUMPDEST SWAP2 POP PUSH32 0xFFFFFFFFFFFFFFFFFFFFFFFFFFFFFFFFFFFFFFFFFFFFFFFFFFFFFFFFFFFFFFFF DUP3 SUB PUSH2 0xA4D JUMPI PUSH2 0xA4C PUSH2 0x9E4 JUMP JUMPDEST JUMPDEST PUSH1 0x1 DUP3 ADD SWAP1 POP SWAP2 SWAP1 POP JUMP JUMPDEST PUSH32 0x4E487B7100000000000000000000000000000000000000000000000000000000 PUSH0 MSTORE PUSH1 0x41 PUSH1 0x4 MSTORE PUSH1 0x24 PUSH0 REVERT INVALID LOG2 PUSH5 0x6970667358 0x22 SLT KECCAK256 0xB7 PUSH15 0x759327952BB1BAC8B6054206EDFEB4 0xEF RETURN 0xA7 BALANCE DUP15 0xF6 0xAC SWAP12 0x2A 0xDA ADDRESS 0xAA 0xAA 0x4E PUSH17 0x64736F6C63430008140033000000000000 "
		},
		"gasEstimates": {
			"creation": {
				"codeDepositCost": "549400",
				"executionCost": "infinite",
				"totalCost": "infinite"
			},
			"external": {
				"afterY2K()": "infinite",
				"appendToNumbers(uint256[])": "infinite",
				"getNumbers()": "infinite",
				"numbers(uint256)": "infinite",
				"resetNumbers()": "infinite",
				"resetSenders()": "infinite",
				"resetTimestamps()": "infinite",
				"saveTimestamp(uint256)": "95418",
				"senders(uint256)": "4944",
				"timestamps(uint256)": "infinite"
			}
		},
		"methodIdentifiers": {
			"afterY2K()": "20aaf79a",
			"appendToNumbers(uint256[])": "4f9377db",
			"getNumbers()": "89f915f6",
			"numbers(uint256)": "d39fa233",
			"resetNumbers()": "b1cebac5",
			"resetSenders()": "7f66b1b8",
			"resetTimestamps()": "ade82bfd",
			"saveTimestamp(uint256)": "a00b7acd",
			"senders(uint256)": "9977c78a",
			"timestamps(uint256)": "8bc33af3"
		}
	},
	"abi": [
		{
			"inputs": [],
			"stateMutability": "nonpayable",
			"type": "constructor"
		},
		{
			"inputs": [],
			"name": "afterY2K",
			"outputs": [
				{
					"internalType": "uint256[]",
					"name": "recentTimestamps",
					"type": "uint256[]"
				},
				{
					"internalType": "address[]",
					"name": "recentSenders",
					"type": "address[]"
				}
			],
			"stateMutability": "view",
			"type": "function"
		},
		{
			"inputs": [
				{
					"internalType": "uint256[]",
					"name": "_toAppend",
					"type": "uint256[]"
				}
			],
			"name": "appendToNumbers",
			"outputs": [],
			"stateMutability": "nonpayable",
			"type": "function"
		},
		{
			"inputs": [],
			"name": "getNumbers",
			"outputs": [
				{
					"internalType": "uint256[]",
					"name": "",
					"type": "uint256[]"
				}
			],
			"stateMutability": "view",
			"type": "function"
		},
		{
			"inputs": [
				{
					"internalType": "uint256",
					"name": "",
					"type": "uint256"
				}
			],
			"name": "numbers",
			"outputs": [
				{
					"internalType": "uint256",
					"name": "",
					"type": "uint256"
				}
			],
			"stateMutability": "view",
			"type": "function"
		},
		{
			"inputs": [],
			"name": "resetNumbers",
			"outputs": [],
			"stateMutability": "nonpayable",
			"type": "function"
		},
		{
			"inputs": [],
			"name": "resetSenders",
			"outputs": [],
			"stateMutability": "nonpayable",
			"type": "function"
		},
		{
			"inputs": [],
			"name": "resetTimestamps",
			"outputs": [],
			"stateMutability": "nonpayable",
			"type": "function"
		},
		{
			"inputs": [
				{
					"internalType": "uint256",
					"name": "_unixTimestamp",
					"type": "uint256"
				}
			],
			"name": "saveTimestamp",
			"outputs": [],
			"stateMutability": "nonpayable",
			"type": "function"
		},
		{
			"inputs": [
				{
					"internalType": "uint256",
					"name": "",
					"type": "uint256"
				}
			],
			"name": "senders",
			"outputs": [
				{
					"internalType": "address",
					"name": "",
					"type": "address"
				}
			],
			"stateMutability": "view",
			"type": "function"
		},
		{
			"inputs": [
				{
					"internalType": "uint256",
					"name": "",
					"type": "uint256"
				}
			],
			"name": "timestamps",
			"outputs": [
				{
					"internalType": "uint256",
					"name": "",
					"type": "uint256"
				}
			],
			"stateMutability": "view",
			"type": "function"
		}
	]
}