{
	"data": {
		"bytecode": {
			"linkReferences": {},
			"object": "608060405234801561000f575f80fd5b506101dd8061001d5f395ff3fe608060405234801561000f575f80fd5b5060043610610034575f3560e01c806391ae573814610038578063da91254c14610056575b5f80fd5b610040610074565b60405161004d9190610187565b60405180910390f35b61005e610083565b60405161006b9190610187565b60405180910390f35b606061007e6100c0565b905090565b60606040518060400160405280600a81526020017f636f6e7472616374204200000000000000000000000000000000000000000000815250905090565b60606040518060400160405280601381526020017f636f6e7472616374204220696e7465726e616c00000000000000000000000000815250905090565b5f81519050919050565b5f82825260208201905092915050565b5f5b83811015610134578082015181840152602081019050610119565b5f8484015250505050565b5f601f19601f8301169050919050565b5f610159826100fd565b6101638185610107565b9350610173818560208601610117565b61017c8161013f565b840191505092915050565b5f6020820190508181035f83015261019f818461014f565b90509291505056fea26469706673582212202e40f9d09145ca9268e66f808750f290eb84a2369bbd4c7a0157f1186db34b0b64736f6c63430008140033",
			"opcodes": "PUSH1 0x80 PUSH1 0x40 MSTORE CALLVALUE DUP1 ISZERO PUSH2 0xF JUMPI PUSH0 DUP1 REVERT JUMPDEST POP PUSH2 0x1DD DUP1 PUSH2 0x1D PUSH0 CODECOPY PUSH0 RETURN INVALID PUSH1 0x80 PUSH1 0x40 MSTORE CALLVALUE DUP1 ISZERO PUSH2 0xF JUMPI PUSH0 DUP1 REVERT JUMPDEST POP PUSH1 0x4 CALLDATASIZE LT PUSH2 0x34 JUMPI PUSH0 CALLDATALOAD PUSH1 0xE0 SHR DUP1 PUSH4 0x91AE5738 EQ PUSH2 0x38 JUMPI DUP1 PUSH4 0xDA91254C EQ PUSH2 0x56 JUMPI JUMPDEST PUSH0 DUP1 REVERT JUMPDEST PUSH2 0x40 PUSH2 0x74 JUMP JUMPDEST PUSH1 0x40 MLOAD PUSH2 0x4D SWAP2 SWAP1 PUSH2 0x187 JUMP JUMPDEST PUSH1 0x40 MLOAD DUP1 SWAP2 SUB SWAP1 RETURN JUMPDEST PUSH2 0x5E PUSH2 0x83 JUMP JUMPDEST PUSH1 0x40 MLOAD PUSH2 0x6B SWAP2 SWAP1 PUSH2 0x187 JUMP JUMPDEST PUSH1 0x40 MLOAD DUP1 SWAP2 SUB SWAP1 RETURN JUMPDEST PUSH1 0x60 PUSH2 0x7E PUSH2 0xC0 JUMP JUMPDEST SWAP1 POP SWAP1 JUMP JUMPDEST PUSH1 0x60 PUSH1 0x40 MLOAD DUP1 PUSH1 0x40 ADD PUSH1 0x40 MSTORE DUP1 PUSH1 0xA DUP2 MSTORE PUSH1 0x20 ADD PUSH32 0x636F6E7472616374204200000000000000000000000000000000000000000000 DUP2 MSTORE POP SWAP1 POP SWAP1 JUMP JUMPDEST PUSH1 0x60 PUSH1 0x40 MLOAD DUP1 PUSH1 0x40 ADD PUSH1 0x40 MSTORE DUP1 PUSH1 0x13 DUP2 MSTORE PUSH1 0x20 ADD PUSH32 0x636F6E7472616374204220696E7465726E616C00000000000000000000000000 DUP2 MSTORE POP SWAP1 POP SWAP1 JUMP JUMPDEST PUSH0 DUP2 MLOAD SWAP1 POP SWAP2 SWAP1 POP JUMP JUMPDEST PUSH0 DUP3 DUP3 MSTORE PUSH1 0x20 DUP3 ADD SWAP1 POP SWAP3 SWAP2 POP POP JUMP JUMPDEST PUSH0 JUMPDEST DUP4 DUP2 LT ISZERO PUSH2 0x134 JUMPI DUP1 DUP3 ADD MLOAD DUP2 DUP5 ADD MSTORE PUSH1 0x20 DUP2 ADD SWAP1 POP PUSH2 0x119 JUMP JUMPDEST PUSH0 DUP5 DUP5 ADD MSTORE POP POP POP POP JUMP JUMPDEST PUSH0 PUSH1 0x1F NOT PUSH1 0x1F DUP4 ADD AND SWAP1 POP SWAP2 SWAP1 POP JUMP JUMPDEST PUSH0 PUSH2 0x159 DUP3 PUSH2 0xFD JUMP JUMPDEST PUSH2 0x163 DUP2 DUP6 PUSH2 0x107 JUMP JUMPDEST SWAP4 POP PUSH2 0x173 DUP2 DUP6 PUSH1 0x20 DUP7 ADD PUSH2 0x117 JUMP JUMPDEST PUSH2 0x17C DUP2 PUSH2 0x13F JUMP JUMPDEST DUP5 ADD SWAP2 POP POP SWAP3 SWAP2 POP POP JUMP JUMPDEST PUSH0 PUSH1 0x20 DUP3 ADD SWAP1 POP DUP2 DUP2 SUB PUSH0 DUP4 ADD MSTORE PUSH2 0x19F DUP2 DUP5 PUSH2 0x14F JUMP JUMPDEST SWAP1 POP SWAP3 SWAP2 POP POP JUMP INVALID LOG2 PUSH5 0x6970667358 0x22 SLT KECCAK256 0x2E BLOCKHASH 0xF9 0xD0 SWAP2 GASLIMIT 0xCA SWAP3 PUSH9 0xE66F808750F290EB84 LOG2 CALLDATASIZE SWAP12 0xBD 0x4C PUSH27 0x157F1186DB34B0B64736F6C634300081400330000000000000000 "
		},
		"gasEstimates": {
			"creation": {
				"codeDepositCost": "95400",
				"executionCost": "139",
				"totalCost": "95539"
			},
			"external": {
				"whoAmExternal()": "infinite",
				"whoAmI()": "infinite"
			}
		},
		"methodIdentifiers": {
			"whoAmExternal()": "91ae5738",
			"whoAmI()": "da91254c"
		}
	},
	"abi": [
		{
			"inputs": [],
			"name": "whoAmExternal",
			"outputs": [
				{
					"internalType": "string",
					"name": "",
					"type": "string"
				}
			],
			"stateMutability": "pure",
			"type": "function"
		},
		{
			"inputs": [],
			"name": "whoAmI",
			"outputs": [
				{
					"internalType": "string",
					"name": "",
					"type": "string"
				}
			],
			"stateMutability": "pure",
			"type": "function"
		}
	]
}