{
	"data": {
		"bytecode": {
			"linkReferences": {},
			"object": "608060405234801562000010575f80fd5b505f6040518061012001604052806040518060400160405280600881526020017f546872696c6c657200000000000000000000000000000000000000000000000081525081526020016040518060400160405280600d81526020017f4261636b20696e20426c61636b0000000000000000000000000000000000000081525081526020016040518060400160405280600d81526020017f54686520426f647967756172640000000000000000000000000000000000000081525081526020016040518060400160405280601981526020017f546865204461726b2053696465206f6620746865204d6f6f6e0000000000000081525081526020016040518060400160405280601f81526020017f546865697220477265617465737420486974732028313937312d31393735290081525081526020016040518060400160405280601081526020017f486f74656c2043616c69666f726e69610000000000000000000000000000000081525081526020016040518060400160405280600c81526020017f436f6d65204f6e204f766572000000000000000000000000000000000000000081525081526020016040518060400160405280600781526020017f52756d6f7572730000000000000000000000000000000000000000000000000081525081526020016040518060400160405280601481526020017f5361747572646179204e6967687420466576657200000000000000000000000081525081525090505f5b6009811015620002f25760015f838360098110620002565762000255620002fa565b5b60200201516040516200026a91906200039b565b90815260200160405180910390205f6101000a81548160ff0219169083151502179055506002828260098110620002a657620002a5620002fa565b5b6020020151908060018154018082558091505060019003905f5260205f20015f909190919091509081620002db91906200060d565b508080620002e9906200071e565b91505062000233565b50506200076a565b7f4e487b71000000000000000000000000000000000000000000000000000000005f52603260045260245ffd5b5f81519050919050565b5f81905092915050565b5f5b838110156200035a5780820151818401526020810190506200033d565b5f8484015250505050565b5f620003718262000327565b6200037d818562000331565b93506200038f8185602086016200033b565b80840191505092915050565b5f620003a8828462000365565b915081905092915050565b7f4e487b71000000000000000000000000000000000000000000000000000000005f52604160045260245ffd5b7f4e487b71000000000000000000000000000000000000000000000000000000005f52602260045260245ffd5b5f60028204905060018216806200042557607f821691505b6020821081036200043b576200043a620003e0565b5b50919050565b5f819050815f5260205f209050919050565b5f6020601f8301049050919050565b5f82821b905092915050565b5f600883026200049f7fffffffffffffffffffffffffffffffffffffffffffffffffffffffffffffffff8262000462565b620004ab868362000462565b95508019841693508086168417925050509392505050565b5f819050919050565b5f819050919050565b5f620004f5620004ef620004e984620004c3565b620004cc565b620004c3565b9050919050565b5f819050919050565b6200051083620004d5565b620005286200051f82620004fc565b8484546200046e565b825550505050565b5f90565b6200053e62000530565b6200054b81848462000505565b505050565b5b818110156200057257620005665f8262000534565b60018101905062000551565b5050565b601f821115620005c1576200058b8162000441565b620005968462000453565b81016020851015620005a6578190505b620005be620005b58562000453565b83018262000550565b50505b505050565b5f82821c905092915050565b5f620005e35f1984600802620005c6565b1980831691505092915050565b5f620005fd8383620005d2565b9150826002028217905092915050565b620006188262000327565b67ffffffffffffffff811115620006345762000633620003b3565b5b6200064082546200040d565b6200064d82828562000576565b5f60209050601f83116001811462000683575f84156200066e578287015190505b6200067a8582620005f0565b865550620006e9565b601f198416620006938662000441565b5f5b82811015620006bc5784890151825560018201915060208501945060208101905062000695565b86831015620006dc5784890151620006d8601f891682620005d2565b8355505b6001600288020188555050505b505050505050565b7f4e487b71000000000000000000000000000000000000000000000000000000005f52601160045260245ffd5b5f6200072a82620004c3565b91507fffffffffffffffffffffffffffffffffffffffffffffffffffffffffffffffff82036200075f576200075e620006f1565b5b600182019050919050565b610d2880620007785f395ff3fe608060405234801561000f575f80fd5b5060043610610055575f3560e01c80631cf0830b14610059578063837f887814610077578063b374ac5914610081578063c7853148146100b1578063d81aa8c4146100e1575b5f80fd5b6100616100fd565b60405161006e91906108d7565b60405180910390f35b61007f6101d1565b005b61009b60048036038101906100969190610a34565b610379565b6040516100a89190610a95565b60405180910390f35b6100cb60048036038101906100c69190610b08565b6103ad565b6040516100d891906108d7565b60405180910390f35b6100fb60048036038101906100f69190610a34565b6106b4565b005b60606002805480602002602001604051908101604052809291908181526020015f905b828210156101c8578382905f5260205f2001805461013d90610b60565b80601f016020809104026020016040519081016040528092919081815260200182805461016990610b60565b80156101b45780601f1061018b576101008083540402835291602001916101b4565b820191905f5260205f20905b81548152906001019060200180831161019757829003601f168201915b505050505081526020019060010190610120565b50505050905090565b5f5b600280549050811015610376575f600282815481106101f5576101f4610b90565b5b905f5260205f2001805461020890610b60565b80601f016020809104026020016040519081016040528092919081815260200182805461023490610b60565b801561027f5780601f106102565761010080835404028352916020019161027f565b820191905f5260205f20905b81548152906001019060200180831161026257829003601f168201915b5050505050905060015f3373ffffffffffffffffffffffffffffffffffffffff1673ffffffffffffffffffffffffffffffffffffffff1681526020019081526020015f20816040516102d19190610bf7565b90815260200160405180910390205f9054906101000a900460ff1615610362575f60015f3373ffffffffffffffffffffffffffffffffffffffff1673ffffffffffffffffffffffffffffffffffffffff1681526020019081526020015f208260405161033d9190610bf7565b90815260200160405180910390205f6101000a81548160ff0219169083151502179055505b50808061036e90610c43565b9150506101d3565b50565b5f818051602081018201805184825260208301602085012081835280955050505050505f915054906101000a900460ff1681565b60605f805b6002805490508110156104f3575f600282815481106103d4576103d3610b90565b5b905f5260205f200180546103e790610b60565b80601f016020809104026020016040519081016040528092919081815260200182805461041390610b60565b801561045e5780601f106104355761010080835404028352916020019161045e565b820191905f5260205f20905b81548152906001019060200180831161044157829003601f168201915b5050505050905060015f8673ffffffffffffffffffffffffffffffffffffffff1673ffffffffffffffffffffffffffffffffffffffff1681526020019081526020015f20816040516104b09190610bf7565b90815260200160405180910390205f9054906101000a900460ff16156104df5782806104db90610c43565b9350505b5080806104eb90610c43565b9150506103b2565b505f8167ffffffffffffffff81111561050f5761050e610910565b5b60405190808252806020026020018201604052801561054257816020015b606081526020019060019003908161052d5790505b5090505f805b6002805490508110156106a8575f6002828154811061056a57610569610b90565b5b905f5260205f2001805461057d90610b60565b80601f01602080910402602001604051908101604052809291908181526020018280546105a990610b60565b80156105f45780601f106105cb576101008083540402835291602001916105f4565b820191905f5260205f20905b8154815290600101906020018083116105d757829003601f168201915b5050505050905060015f8873ffffffffffffffffffffffffffffffffffffffff1673ffffffffffffffffffffffffffffffffffffffff1681526020019081526020015f20816040516106469190610bf7565b90815260200160405180910390205f9054906101000a900460ff1615610694578084848151811061067a57610679610b90565b5b6020026020010181905250828061069090610c43565b9350505b5080806106a090610c43565b915050610548565b50819350505050919050565b5f816040516106c39190610bf7565b90815260200160405180910390205f9054906101000a900460ff1661071f57806040517f4f0ffc1b0000000000000000000000000000000000000000000000000000000081526004016107169190610cd2565b60405180910390fd5b6001805f3373ffffffffffffffffffffffffffffffffffffffff1673ffffffffffffffffffffffffffffffffffffffff1681526020019081526020015f208260405161076b9190610bf7565b90815260200160405180910390205f6101000a81548160ff02191690831515021790555050565b5f81519050919050565b5f82825260208201905092915050565b5f819050602082019050919050565b5f81519050919050565b5f82825260208201905092915050565b5f5b838110156107f25780820151818401526020810190506107d7565b5f8484015250505050565b5f601f19601f8301169050919050565b5f610817826107bb565b61082181856107c5565b93506108318185602086016107d5565b61083a816107fd565b840191505092915050565b5f610850838361080d565b905092915050565b5f602082019050919050565b5f61086e82610792565b610878818561079c565b93508360208202850161088a856107ac565b805f5b858110156108c557848403895281516108a68582610845565b94506108b183610858565b925060208a0199505060018101905061088d565b50829750879550505050505092915050565b5f6020820190508181035f8301526108ef8184610864565b905092915050565b5f604051905090565b5f80fd5b5f80fd5b5f80fd5b5f80fd5b7f4e487b71000000000000000000000000000000000000000000000000000000005f52604160045260245ffd5b610946826107fd565b810181811067ffffffffffffffff8211171561096557610964610910565b5b80604052505050565b5f6109776108f7565b9050610983828261093d565b919050565b5f67ffffffffffffffff8211156109a2576109a1610910565b5b6109ab826107fd565b9050602081019050919050565b828183375f83830152505050565b5f6109d86109d384610988565b61096e565b9050828152602081018484840111156109f4576109f361090c565b5b6109ff8482856109b8565b509392505050565b5f82601f830112610a1b57610a1a610908565b5b8135610a2b8482602086016109c6565b91505092915050565b5f60208284031215610a4957610a48610900565b5b5f82013567ffffffffffffffff811115610a6657610a65610904565b5b610a7284828501610a07565b91505092915050565b5f8115159050919050565b610a8f81610a7b565b82525050565b5f602082019050610aa85f830184610a86565b92915050565b5f73ffffffffffffffffffffffffffffffffffffffff82169050919050565b5f610ad782610aae565b9050919050565b610ae781610acd565b8114610af1575f80fd5b50565b5f81359050610b0281610ade565b92915050565b5f60208284031215610b1d57610b1c610900565b5b5f610b2a84828501610af4565b91505092915050565b7f4e487b71000000000000000000000000000000000000000000000000000000005f52602260045260245ffd5b5f6002820490506001821680610b7757607f821691505b602082108103610b8a57610b89610b33565b5b50919050565b7f4e487b71000000000000000000000000000000000000000000000000000000005f52603260045260245ffd5b5f81905092915050565b5f610bd1826107bb565b610bdb8185610bbd565b9350610beb8185602086016107d5565b80840191505092915050565b5f610c028284610bc7565b915081905092915050565b7f4e487b71000000000000000000000000000000000000000000000000000000005f52601160045260245ffd5b5f819050919050565b5f610c4d82610c3a565b91507fffffffffffffffffffffffffffffffffffffffffffffffffffffffffffffffff8203610c7f57610c7e610c0d565b5b600182019050919050565b5f82825260208201905092915050565b5f610ca4826107bb565b610cae8185610c8a565b9350610cbe8185602086016107d5565b610cc7816107fd565b840191505092915050565b5f6020820190508181035f830152610cea8184610c9a565b90509291505056fea2646970667358221220f73b138b454f54ec1beef2414556c5c7b73fe911591b0ef916bf38d06b3dd6a564736f6c63430008140033",
			"opcodes": "PUSH1 0x80 PUSH1 0x40 MSTORE CALLVALUE DUP1 ISZERO PUSH3 0x10 JUMPI PUSH0 DUP1 REVERT JUMPDEST POP PUSH0 PUSH1 0x40 MLOAD DUP1 PUSH2 0x120 ADD PUSH1 0x40 MSTORE DUP1 PUSH1 0x40 MLOAD DUP1 PUSH1 0x40 ADD PUSH1 0x40 MSTORE DUP1 PUSH1 0x8 DUP2 MSTORE PUSH1 0x20 ADD PUSH32 0x546872696C6C6572000000000000000000000000000000000000000000000000 DUP2 MSTORE POP DUP2 MSTORE PUSH1 0x20 ADD PUSH1 0x40 MLOAD DUP1 PUSH1 0x40 ADD PUSH1 0x40 MSTORE DUP1 PUSH1 0xD DUP2 MSTORE PUSH1 0x20 ADD PUSH32 0x4261636B20696E20426C61636B00000000000000000000000000000000000000 DUP2 MSTORE POP DUP2 MSTORE PUSH1 0x20 ADD PUSH1 0x40 MLOAD DUP1 PUSH1 0x40 ADD PUSH1 0x40 MSTORE DUP1 PUSH1 0xD DUP2 MSTORE PUSH1 0x20 ADD PUSH32 0x54686520426F6479677561726400000000000000000000000000000000000000 DUP2 MSTORE POP DUP2 MSTORE PUSH1 0x20 ADD PUSH1 0x40 MLOAD DUP1 PUSH1 0x40 ADD PUSH1 0x40 MSTORE DUP1 PUSH1 0x19 DUP2 MSTORE PUSH1 0x20 ADD PUSH32 0x546865204461726B2053696465206F6620746865204D6F6F6E00000000000000 DUP2 MSTORE POP DUP2 MSTORE PUSH1 0x20 ADD PUSH1 0x40 MLOAD DUP1 PUSH1 0x40 ADD PUSH1 0x40 MSTORE DUP1 PUSH1 0x1F DUP2 MSTORE PUSH1 0x20 ADD PUSH32 0x546865697220477265617465737420486974732028313937312D313937352900 DUP2 MSTORE POP DUP2 MSTORE PUSH1 0x20 ADD PUSH1 0x40 MLOAD DUP1 PUSH1 0x40 ADD PUSH1 0x40 MSTORE DUP1 PUSH1 0x10 DUP2 MSTORE PUSH1 0x20 ADD PUSH32 0x486F74656C2043616C69666F726E696100000000000000000000000000000000 DUP2 MSTORE POP DUP2 MSTORE PUSH1 0x20 ADD PUSH1 0x40 MLOAD DUP1 PUSH1 0x40 ADD PUSH1 0x40 MSTORE DUP1 PUSH1 0xC DUP2 MSTORE PUSH1 0x20 ADD PUSH32 0x436F6D65204F6E204F7665720000000000000000000000000000000000000000 DUP2 MSTORE POP DUP2 MSTORE PUSH1 0x20 ADD PUSH1 0x40 MLOAD DUP1 PUSH1 0x40 ADD PUSH1 0x40 MSTORE DUP1 PUSH1 0x7 DUP2 MSTORE PUSH1 0x20 ADD PUSH32 0x52756D6F75727300000000000000000000000000000000000000000000000000 DUP2 MSTORE POP DUP2 MSTORE PUSH1 0x20 ADD PUSH1 0x40 MLOAD DUP1 PUSH1 0x40 ADD PUSH1 0x40 MSTORE DUP1 PUSH1 0x14 DUP2 MSTORE PUSH1 0x20 ADD PUSH32 0x5361747572646179204E69676874204665766572000000000000000000000000 DUP2 MSTORE POP DUP2 MSTORE POP SWAP1 POP PUSH0 JUMPDEST PUSH1 0x9 DUP2 LT ISZERO PUSH3 0x2F2 JUMPI PUSH1 0x1 PUSH0 DUP4 DUP4 PUSH1 0x9 DUP2 LT PUSH3 0x256 JUMPI PUSH3 0x255 PUSH3 0x2FA JUMP JUMPDEST JUMPDEST PUSH1 0x20 MUL ADD MLOAD PUSH1 0x40 MLOAD PUSH3 0x26A SWAP2 SWAP1 PUSH3 0x39B JUMP JUMPDEST SWAP1 DUP2 MSTORE PUSH1 0x20 ADD PUSH1 0x40 MLOAD DUP1 SWAP2 SUB SWAP1 KECCAK256 PUSH0 PUSH2 0x100 EXP DUP2 SLOAD DUP2 PUSH1 0xFF MUL NOT AND SWAP1 DUP4 ISZERO ISZERO MUL OR SWAP1 SSTORE POP PUSH1 0x2 DUP3 DUP3 PUSH1 0x9 DUP2 LT PUSH3 0x2A6 JUMPI PUSH3 0x2A5 PUSH3 0x2FA JUMP JUMPDEST JUMPDEST PUSH1 0x20 MUL ADD MLOAD SWAP1 DUP1 PUSH1 0x1 DUP2 SLOAD ADD DUP1 DUP3 SSTORE DUP1 SWAP2 POP POP PUSH1 0x1 SWAP1 SUB SWAP1 PUSH0 MSTORE PUSH1 0x20 PUSH0 KECCAK256 ADD PUSH0 SWAP1 SWAP2 SWAP1 SWAP2 SWAP1 SWAP2 POP SWAP1 DUP2 PUSH3 0x2DB SWAP2 SWAP1 PUSH3 0x60D JUMP JUMPDEST POP DUP1 DUP1 PUSH3 0x2E9 SWAP1 PUSH3 0x71E JUMP JUMPDEST SWAP2 POP POP PUSH3 0x233 JUMP JUMPDEST POP POP PUSH3 0x76A JUMP JUMPDEST PUSH32 0x4E487B7100000000000000000000000000000000000000000000000000000000 PUSH0 MSTORE PUSH1 0x32 PUSH1 0x4 MSTORE PUSH1 0x24 PUSH0 REVERT JUMPDEST PUSH0 DUP2 MLOAD SWAP1 POP SWAP2 SWAP1 POP JUMP JUMPDEST PUSH0 DUP2 SWAP1 POP SWAP3 SWAP2 POP POP JUMP JUMPDEST PUSH0 JUMPDEST DUP4 DUP2 LT ISZERO PUSH3 0x35A JUMPI DUP1 DUP3 ADD MLOAD DUP2 DUP5 ADD MSTORE PUSH1 0x20 DUP2 ADD SWAP1 POP PUSH3 0x33D JUMP JUMPDEST PUSH0 DUP5 DUP5 ADD MSTORE POP POP POP POP JUMP JUMPDEST PUSH0 PUSH3 0x371 DUP3 PUSH3 0x327 JUMP JUMPDEST PUSH3 0x37D DUP2 DUP6 PUSH3 0x331 JUMP JUMPDEST SWAP4 POP PUSH3 0x38F DUP2 DUP6 PUSH1 0x20 DUP7 ADD PUSH3 0x33B JUMP JUMPDEST DUP1 DUP5 ADD SWAP2 POP POP SWAP3 SWAP2 POP POP JUMP JUMPDEST PUSH0 PUSH3 0x3A8 DUP3 DUP5 PUSH3 0x365 JUMP JUMPDEST SWAP2 POP DUP2 SWAP1 POP SWAP3 SWAP2 POP POP JUMP JUMPDEST PUSH32 0x4E487B7100000000000000000000000000000000000000000000000000000000 PUSH0 MSTORE PUSH1 0x41 PUSH1 0x4 MSTORE PUSH1 0x24 PUSH0 REVERT JUMPDEST PUSH32 0x4E487B7100000000000000000000000000000000000000000000000000000000 PUSH0 MSTORE PUSH1 0x22 PUSH1 0x4 MSTORE PUSH1 0x24 PUSH0 REVERT JUMPDEST PUSH0 PUSH1 0x2 DUP3 DIV SWAP1 POP PUSH1 0x1 DUP3 AND DUP1 PUSH3 0x425 JUMPI PUSH1 0x7F DUP3 AND SWAP2 POP JUMPDEST PUSH1 0x20 DUP3 LT DUP2 SUB PUSH3 0x43B JUMPI PUSH3 0x43A PUSH3 0x3E0 JUMP JUMPDEST JUMPDEST POP SWAP2 SWAP1 POP JUMP JUMPDEST PUSH0 DUP2 SWAP1 POP DUP2 PUSH0 MSTORE PUSH1 0x20 PUSH0 KECCAK256 SWAP1 POP SWAP2 SWAP1 POP JUMP JUMPDEST PUSH0 PUSH1 0x20 PUSH1 0x1F DUP4 ADD DIV SWAP1 POP SWAP2 SWAP1 POP JUMP JUMPDEST PUSH0 DUP3 DUP3 SHL SWAP1 POP SWAP3 SWAP2 POP POP JUMP JUMPDEST PUSH0 PUSH1 0x8 DUP4 MUL PUSH3 0x49F PUSH32 0xFFFFFFFFFFFFFFFFFFFFFFFFFFFFFFFFFFFFFFFFFFFFFFFFFFFFFFFFFFFFFFFF DUP3 PUSH3 0x462 JUMP JUMPDEST PUSH3 0x4AB DUP7 DUP4 PUSH3 0x462 JUMP JUMPDEST SWAP6 POP DUP1 NOT DUP5 AND SWAP4 POP DUP1 DUP7 AND DUP5 OR SWAP3 POP POP POP SWAP4 SWAP3 POP POP POP JUMP JUMPDEST PUSH0 DUP2 SWAP1 POP SWAP2 SWAP1 POP JUMP JUMPDEST PUSH0 DUP2 SWAP1 POP SWAP2 SWAP1 POP JUMP JUMPDEST PUSH0 PUSH3 0x4F5 PUSH3 0x4EF PUSH3 0x4E9 DUP5 PUSH3 0x4C3 JUMP JUMPDEST PUSH3 0x4CC JUMP JUMPDEST PUSH3 0x4C3 JUMP JUMPDEST SWAP1 POP SWAP2 SWAP1 POP JUMP JUMPDEST PUSH0 DUP2 SWAP1 POP SWAP2 SWAP1 POP JUMP JUMPDEST PUSH3 0x510 DUP4 PUSH3 0x4D5 JUMP JUMPDEST PUSH3 0x528 PUSH3 0x51F DUP3 PUSH3 0x4FC JUMP JUMPDEST DUP5 DUP5 SLOAD PUSH3 0x46E JUMP JUMPDEST DUP3 SSTORE POP POP POP POP JUMP JUMPDEST PUSH0 SWAP1 JUMP JUMPDEST PUSH3 0x53E PUSH3 0x530 JUMP JUMPDEST PUSH3 0x54B DUP2 DUP5 DUP5 PUSH3 0x505 JUMP JUMPDEST POP POP POP JUMP JUMPDEST JUMPDEST DUP2 DUP2 LT ISZERO PUSH3 0x572 JUMPI PUSH3 0x566 PUSH0 DUP3 PUSH3 0x534 JUMP JUMPDEST PUSH1 0x1 DUP2 ADD SWAP1 POP PUSH3 0x551 JUMP JUMPDEST POP POP JUMP JUMPDEST PUSH1 0x1F DUP3 GT ISZERO PUSH3 0x5C1 JUMPI PUSH3 0x58B DUP2 PUSH3 0x441 JUMP JUMPDEST PUSH3 0x596 DUP5 PUSH3 0x453 JUMP JUMPDEST DUP2 ADD PUSH1 0x20 DUP6 LT ISZERO PUSH3 0x5A6 JUMPI DUP2 SWAP1 POP JUMPDEST PUSH3 0x5BE PUSH3 0x5B5 DUP6 PUSH3 0x453 JUMP JUMPDEST DUP4 ADD DUP3 PUSH3 0x550 JUMP JUMPDEST POP POP JUMPDEST POP POP POP JUMP JUMPDEST PUSH0 DUP3 DUP3 SHR SWAP1 POP SWAP3 SWAP2 POP POP JUMP JUMPDEST PUSH0 PUSH3 0x5E3 PUSH0 NOT DUP5 PUSH1 0x8 MUL PUSH3 0x5C6 JUMP JUMPDEST NOT DUP1 DUP4 AND SWAP2 POP POP SWAP3 SWAP2 POP POP JUMP JUMPDEST PUSH0 PUSH3 0x5FD DUP4 DUP4 PUSH3 0x5D2 JUMP JUMPDEST SWAP2 POP DUP3 PUSH1 0x2 MUL DUP3 OR SWAP1 POP SWAP3 SWAP2 POP POP JUMP JUMPDEST PUSH3 0x618 DUP3 PUSH3 0x327 JUMP JUMPDEST PUSH8 0xFFFFFFFFFFFFFFFF DUP2 GT ISZERO PUSH3 0x634 JUMPI PUSH3 0x633 PUSH3 0x3B3 JUMP JUMPDEST JUMPDEST PUSH3 0x640 DUP3 SLOAD PUSH3 0x40D JUMP JUMPDEST PUSH3 0x64D DUP3 DUP3 DUP6 PUSH3 0x576 JUMP JUMPDEST PUSH0 PUSH1 0x20 SWAP1 POP PUSH1 0x1F DUP4 GT PUSH1 0x1 DUP2 EQ PUSH3 0x683 JUMPI PUSH0 DUP5 ISZERO PUSH3 0x66E JUMPI DUP3 DUP8 ADD MLOAD SWAP1 POP JUMPDEST PUSH3 0x67A DUP6 DUP3 PUSH3 0x5F0 JUMP JUMPDEST DUP7 SSTORE POP PUSH3 0x6E9 JUMP JUMPDEST PUSH1 0x1F NOT DUP5 AND PUSH3 0x693 DUP7 PUSH3 0x441 JUMP JUMPDEST PUSH0 JUMPDEST DUP3 DUP2 LT ISZERO PUSH3 0x6BC JUMPI DUP5 DUP10 ADD MLOAD DUP3 SSTORE PUSH1 0x1 DUP3 ADD SWAP2 POP PUSH1 0x20 DUP6 ADD SWAP5 POP PUSH1 0x20 DUP2 ADD SWAP1 POP PUSH3 0x695 JUMP JUMPDEST DUP7 DUP4 LT ISZERO PUSH3 0x6DC JUMPI DUP5 DUP10 ADD MLOAD PUSH3 0x6D8 PUSH1 0x1F DUP10 AND DUP3 PUSH3 0x5D2 JUMP JUMPDEST DUP4 SSTORE POP JUMPDEST PUSH1 0x1 PUSH1 0x2 DUP9 MUL ADD DUP9 SSTORE POP POP POP JUMPDEST POP POP POP POP POP POP JUMP JUMPDEST PUSH32 0x4E487B7100000000000000000000000000000000000000000000000000000000 PUSH0 MSTORE PUSH1 0x11 PUSH1 0x4 MSTORE PUSH1 0x24 PUSH0 REVERT JUMPDEST PUSH0 PUSH3 0x72A DUP3 PUSH3 0x4C3 JUMP JUMPDEST SWAP2 POP PUSH32 0xFFFFFFFFFFFFFFFFFFFFFFFFFFFFFFFFFFFFFFFFFFFFFFFFFFFFFFFFFFFFFFFF DUP3 SUB PUSH3 0x75F JUMPI PUSH3 0x75E PUSH3 0x6F1 JUMP JUMPDEST JUMPDEST PUSH1 0x1 DUP3 ADD SWAP1 POP SWAP2 SWAP1 POP JUMP JUMPDEST PUSH2 0xD28 DUP1 PUSH3 0x778 PUSH0 CODECOPY PUSH0 RETURN INVALID PUSH1 0x80 PUSH1 0x40 MSTORE CALLVALUE DUP1 ISZERO PUSH2 0xF JUMPI PUSH0 DUP1 REVERT JUMPDEST POP PUSH1 0x4 CALLDATASIZE LT PUSH2 0x55 JUMPI PUSH0 CALLDATALOAD PUSH1 0xE0 SHR DUP1 PUSH4 0x1CF0830B EQ PUSH2 0x59 JUMPI DUP1 PUSH4 0x837F8878 EQ PUSH2 0x77 JUMPI DUP1 PUSH4 0xB374AC59 EQ PUSH2 0x81 JUMPI DUP1 PUSH4 0xC7853148 EQ PUSH2 0xB1 JUMPI DUP1 PUSH4 0xD81AA8C4 EQ PUSH2 0xE1 JUMPI JUMPDEST PUSH0 DUP1 REVERT JUMPDEST PUSH2 0x61 PUSH2 0xFD JUMP JUMPDEST PUSH1 0x40 MLOAD PUSH2 0x6E SWAP2 SWAP1 PUSH2 0x8D7 JUMP JUMPDEST PUSH1 0x40 MLOAD DUP1 SWAP2 SUB SWAP1 RETURN JUMPDEST PUSH2 0x7F PUSH2 0x1D1 JUMP JUMPDEST STOP JUMPDEST PUSH2 0x9B PUSH1 0x4 DUP1 CALLDATASIZE SUB DUP2 ADD SWAP1 PUSH2 0x96 SWAP2 SWAP1 PUSH2 0xA34 JUMP JUMPDEST PUSH2 0x379 JUMP JUMPDEST PUSH1 0x40 MLOAD PUSH2 0xA8 SWAP2 SWAP1 PUSH2 0xA95 JUMP JUMPDEST PUSH1 0x40 MLOAD DUP1 SWAP2 SUB SWAP1 RETURN JUMPDEST PUSH2 0xCB PUSH1 0x4 DUP1 CALLDATASIZE SUB DUP2 ADD SWAP1 PUSH2 0xC6 SWAP2 SWAP1 PUSH2 0xB08 JUMP JUMPDEST PUSH2 0x3AD JUMP JUMPDEST PUSH1 0x40 MLOAD PUSH2 0xD8 SWAP2 SWAP1 PUSH2 0x8D7 JUMP JUMPDEST PUSH1 0x40 MLOAD DUP1 SWAP2 SUB SWAP1 RETURN JUMPDEST PUSH2 0xFB PUSH1 0x4 DUP1 CALLDATASIZE SUB DUP2 ADD SWAP1 PUSH2 0xF6 SWAP2 SWAP1 PUSH2 0xA34 JUMP JUMPDEST PUSH2 0x6B4 JUMP JUMPDEST STOP JUMPDEST PUSH1 0x60 PUSH1 0x2 DUP1 SLOAD DUP1 PUSH1 0x20 MUL PUSH1 0x20 ADD PUSH1 0x40 MLOAD SWAP1 DUP2 ADD PUSH1 0x40 MSTORE DUP1 SWAP3 SWAP2 SWAP1 DUP2 DUP2 MSTORE PUSH1 0x20 ADD PUSH0 SWAP1 JUMPDEST DUP3 DUP3 LT ISZERO PUSH2 0x1C8 JUMPI DUP4 DUP3 SWAP1 PUSH0 MSTORE PUSH1 0x20 PUSH0 KECCAK256 ADD DUP1 SLOAD PUSH2 0x13D SWAP1 PUSH2 0xB60 JUMP JUMPDEST DUP1 PUSH1 0x1F ADD PUSH1 0x20 DUP1 SWAP2 DIV MUL PUSH1 0x20 ADD PUSH1 0x40 MLOAD SWAP1 DUP2 ADD PUSH1 0x40 MSTORE DUP1 SWAP3 SWAP2 SWAP1 DUP2 DUP2 MSTORE PUSH1 0x20 ADD DUP3 DUP1 SLOAD PUSH2 0x169 SWAP1 PUSH2 0xB60 JUMP JUMPDEST DUP1 ISZERO PUSH2 0x1B4 JUMPI DUP1 PUSH1 0x1F LT PUSH2 0x18B JUMPI PUSH2 0x100 DUP1 DUP4 SLOAD DIV MUL DUP4 MSTORE SWAP2 PUSH1 0x20 ADD SWAP2 PUSH2 0x1B4 JUMP JUMPDEST DUP3 ADD SWAP2 SWAP1 PUSH0 MSTORE PUSH1 0x20 PUSH0 KECCAK256 SWAP1 JUMPDEST DUP2 SLOAD DUP2 MSTORE SWAP1 PUSH1 0x1 ADD SWAP1 PUSH1 0x20 ADD DUP1 DUP4 GT PUSH2 0x197 JUMPI DUP3 SWAP1 SUB PUSH1 0x1F AND DUP3 ADD SWAP2 JUMPDEST POP POP POP POP POP DUP2 MSTORE PUSH1 0x20 ADD SWAP1 PUSH1 0x1 ADD SWAP1 PUSH2 0x120 JUMP JUMPDEST POP POP POP POP SWAP1 POP SWAP1 JUMP JUMPDEST PUSH0 JUMPDEST PUSH1 0x2 DUP1 SLOAD SWAP1 POP DUP2 LT ISZERO PUSH2 0x376 JUMPI PUSH0 PUSH1 0x2 DUP3 DUP2 SLOAD DUP2 LT PUSH2 0x1F5 JUMPI PUSH2 0x1F4 PUSH2 0xB90 JUMP JUMPDEST JUMPDEST SWAP1 PUSH0 MSTORE PUSH1 0x20 PUSH0 KECCAK256 ADD DUP1 SLOAD PUSH2 0x208 SWAP1 PUSH2 0xB60 JUMP JUMPDEST DUP1 PUSH1 0x1F ADD PUSH1 0x20 DUP1 SWAP2 DIV MUL PUSH1 0x20 ADD PUSH1 0x40 MLOAD SWAP1 DUP2 ADD PUSH1 0x40 MSTORE DUP1 SWAP3 SWAP2 SWAP1 DUP2 DUP2 MSTORE PUSH1 0x20 ADD DUP3 DUP1 SLOAD PUSH2 0x234 SWAP1 PUSH2 0xB60 JUMP JUMPDEST DUP1 ISZERO PUSH2 0x27F JUMPI DUP1 PUSH1 0x1F LT PUSH2 0x256 JUMPI PUSH2 0x100 DUP1 DUP4 SLOAD DIV MUL DUP4 MSTORE SWAP2 PUSH1 0x20 ADD SWAP2 PUSH2 0x27F JUMP JUMPDEST DUP3 ADD SWAP2 SWAP1 PUSH0 MSTORE PUSH1 0x20 PUSH0 KECCAK256 SWAP1 JUMPDEST DUP2 SLOAD DUP2 MSTORE SWAP1 PUSH1 0x1 ADD SWAP1 PUSH1 0x20 ADD DUP1 DUP4 GT PUSH2 0x262 JUMPI DUP3 SWAP1 SUB PUSH1 0x1F AND DUP3 ADD SWAP2 JUMPDEST POP POP POP POP POP SWAP1 POP PUSH1 0x1 PUSH0 CALLER PUSH20 0xFFFFFFFFFFFFFFFFFFFFFFFFFFFFFFFFFFFFFFFF AND PUSH20 0xFFFFFFFFFFFFFFFFFFFFFFFFFFFFFFFFFFFFFFFF AND DUP2 MSTORE PUSH1 0x20 ADD SWAP1 DUP2 MSTORE PUSH1 0x20 ADD PUSH0 KECCAK256 DUP2 PUSH1 0x40 MLOAD PUSH2 0x2D1 SWAP2 SWAP1 PUSH2 0xBF7 JUMP JUMPDEST SWAP1 DUP2 MSTORE PUSH1 0x20 ADD PUSH1 0x40 MLOAD DUP1 SWAP2 SUB SWAP1 KECCAK256 PUSH0 SWAP1 SLOAD SWAP1 PUSH2 0x100 EXP SWAP1 DIV PUSH1 0xFF AND ISZERO PUSH2 0x362 JUMPI PUSH0 PUSH1 0x1 PUSH0 CALLER PUSH20 0xFFFFFFFFFFFFFFFFFFFFFFFFFFFFFFFFFFFFFFFF AND PUSH20 0xFFFFFFFFFFFFFFFFFFFFFFFFFFFFFFFFFFFFFFFF AND DUP2 MSTORE PUSH1 0x20 ADD SWAP1 DUP2 MSTORE PUSH1 0x20 ADD PUSH0 KECCAK256 DUP3 PUSH1 0x40 MLOAD PUSH2 0x33D SWAP2 SWAP1 PUSH2 0xBF7 JUMP JUMPDEST SWAP1 DUP2 MSTORE PUSH1 0x20 ADD PUSH1 0x40 MLOAD DUP1 SWAP2 SUB SWAP1 KECCAK256 PUSH0 PUSH2 0x100 EXP DUP2 SLOAD DUP2 PUSH1 0xFF MUL NOT AND SWAP1 DUP4 ISZERO ISZERO MUL OR SWAP1 SSTORE POP JUMPDEST POP DUP1 DUP1 PUSH2 0x36E SWAP1 PUSH2 0xC43 JUMP JUMPDEST SWAP2 POP POP PUSH2 0x1D3 JUMP JUMPDEST POP JUMP JUMPDEST PUSH0 DUP2 DUP1 MLOAD PUSH1 0x20 DUP2 ADD DUP3 ADD DUP1 MLOAD DUP5 DUP3 MSTORE PUSH1 0x20 DUP4 ADD PUSH1 0x20 DUP6 ADD KECCAK256 DUP2 DUP4 MSTORE DUP1 SWAP6 POP POP POP POP POP POP PUSH0 SWAP2 POP SLOAD SWAP1 PUSH2 0x100 EXP SWAP1 DIV PUSH1 0xFF AND DUP2 JUMP JUMPDEST PUSH1 0x60 PUSH0 DUP1 JUMPDEST PUSH1 0x2 DUP1 SLOAD SWAP1 POP DUP2 LT ISZERO PUSH2 0x4F3 JUMPI PUSH0 PUSH1 0x2 DUP3 DUP2 SLOAD DUP2 LT PUSH2 0x3D4 JUMPI PUSH2 0x3D3 PUSH2 0xB90 JUMP JUMPDEST JUMPDEST SWAP1 PUSH0 MSTORE PUSH1 0x20 PUSH0 KECCAK256 ADD DUP1 SLOAD PUSH2 0x3E7 SWAP1 PUSH2 0xB60 JUMP JUMPDEST DUP1 PUSH1 0x1F ADD PUSH1 0x20 DUP1 SWAP2 DIV MUL PUSH1 0x20 ADD PUSH1 0x40 MLOAD SWAP1 DUP2 ADD PUSH1 0x40 MSTORE DUP1 SWAP3 SWAP2 SWAP1 DUP2 DUP2 MSTORE PUSH1 0x20 ADD DUP3 DUP1 SLOAD PUSH2 0x413 SWAP1 PUSH2 0xB60 JUMP JUMPDEST DUP1 ISZERO PUSH2 0x45E JUMPI DUP1 PUSH1 0x1F LT PUSH2 0x435 JUMPI PUSH2 0x100 DUP1 DUP4 SLOAD DIV MUL DUP4 MSTORE SWAP2 PUSH1 0x20 ADD SWAP2 PUSH2 0x45E JUMP JUMPDEST DUP3 ADD SWAP2 SWAP1 PUSH0 MSTORE PUSH1 0x20 PUSH0 KECCAK256 SWAP1 JUMPDEST DUP2 SLOAD DUP2 MSTORE SWAP1 PUSH1 0x1 ADD SWAP1 PUSH1 0x20 ADD DUP1 DUP4 GT PUSH2 0x441 JUMPI DUP3 SWAP1 SUB PUSH1 0x1F AND DUP3 ADD SWAP2 JUMPDEST POP POP POP POP POP SWAP1 POP PUSH1 0x1 PUSH0 DUP7 PUSH20 0xFFFFFFFFFFFFFFFFFFFFFFFFFFFFFFFFFFFFFFFF AND PUSH20 0xFFFFFFFFFFFFFFFFFFFFFFFFFFFFFFFFFFFFFFFF AND DUP2 MSTORE PUSH1 0x20 ADD SWAP1 DUP2 MSTORE PUSH1 0x20 ADD PUSH0 KECCAK256 DUP2 PUSH1 0x40 MLOAD PUSH2 0x4B0 SWAP2 SWAP1 PUSH2 0xBF7 JUMP JUMPDEST SWAP1 DUP2 MSTORE PUSH1 0x20 ADD PUSH1 0x40 MLOAD DUP1 SWAP2 SUB SWAP1 KECCAK256 PUSH0 SWAP1 SLOAD SWAP1 PUSH2 0x100 EXP SWAP1 DIV PUSH1 0xFF AND ISZERO PUSH2 0x4DF JUMPI DUP3 DUP1 PUSH2 0x4DB SWAP1 PUSH2 0xC43 JUMP JUMPDEST SWAP4 POP POP JUMPDEST POP DUP1 DUP1 PUSH2 0x4EB SWAP1 PUSH2 0xC43 JUMP JUMPDEST SWAP2 POP POP PUSH2 0x3B2 JUMP JUMPDEST POP PUSH0 DUP2 PUSH8 0xFFFFFFFFFFFFFFFF DUP2 GT ISZERO PUSH2 0x50F JUMPI PUSH2 0x50E PUSH2 0x910 JUMP JUMPDEST JUMPDEST PUSH1 0x40 MLOAD SWAP1 DUP1 DUP3 MSTORE DUP1 PUSH1 0x20 MUL PUSH1 0x20 ADD DUP3 ADD PUSH1 0x40 MSTORE DUP1 ISZERO PUSH2 0x542 JUMPI DUP2 PUSH1 0x20 ADD JUMPDEST PUSH1 0x60 DUP2 MSTORE PUSH1 0x20 ADD SWAP1 PUSH1 0x1 SWAP1 SUB SWAP1 DUP2 PUSH2 0x52D JUMPI SWAP1 POP JUMPDEST POP SWAP1 POP PUSH0 DUP1 JUMPDEST PUSH1 0x2 DUP1 SLOAD SWAP1 POP DUP2 LT ISZERO PUSH2 0x6A8 JUMPI PUSH0 PUSH1 0x2 DUP3 DUP2 SLOAD DUP2 LT PUSH2 0x56A JUMPI PUSH2 0x569 PUSH2 0xB90 JUMP JUMPDEST JUMPDEST SWAP1 PUSH0 MSTORE PUSH1 0x20 PUSH0 KECCAK256 ADD DUP1 SLOAD PUSH2 0x57D SWAP1 PUSH2 0xB60 JUMP JUMPDEST DUP1 PUSH1 0x1F ADD PUSH1 0x20 DUP1 SWAP2 DIV MUL PUSH1 0x20 ADD PUSH1 0x40 MLOAD SWAP1 DUP2 ADD PUSH1 0x40 MSTORE DUP1 SWAP3 SWAP2 SWAP1 DUP2 DUP2 MSTORE PUSH1 0x20 ADD DUP3 DUP1 SLOAD PUSH2 0x5A9 SWAP1 PUSH2 0xB60 JUMP JUMPDEST DUP1 ISZERO PUSH2 0x5F4 JUMPI DUP1 PUSH1 0x1F LT PUSH2 0x5CB JUMPI PUSH2 0x100 DUP1 DUP4 SLOAD DIV MUL DUP4 MSTORE SWAP2 PUSH1 0x20 ADD SWAP2 PUSH2 0x5F4 JUMP JUMPDEST DUP3 ADD SWAP2 SWAP1 PUSH0 MSTORE PUSH1 0x20 PUSH0 KECCAK256 SWAP1 JUMPDEST DUP2 SLOAD DUP2 MSTORE SWAP1 PUSH1 0x1 ADD SWAP1 PUSH1 0x20 ADD DUP1 DUP4 GT PUSH2 0x5D7 JUMPI DUP3 SWAP1 SUB PUSH1 0x1F AND DUP3 ADD SWAP2 JUMPDEST POP POP POP POP POP SWAP1 POP PUSH1 0x1 PUSH0 DUP9 PUSH20 0xFFFFFFFFFFFFFFFFFFFFFFFFFFFFFFFFFFFFFFFF AND PUSH20 0xFFFFFFFFFFFFFFFFFFFFFFFFFFFFFFFFFFFFFFFF AND DUP2 MSTORE PUSH1 0x20 ADD SWAP1 DUP2 MSTORE PUSH1 0x20 ADD PUSH0 KECCAK256 DUP2 PUSH1 0x40 MLOAD PUSH2 0x646 SWAP2 SWAP1 PUSH2 0xBF7 JUMP JUMPDEST SWAP1 DUP2 MSTORE PUSH1 0x20 ADD PUSH1 0x40 MLOAD DUP1 SWAP2 SUB SWAP1 KECCAK256 PUSH0 SWAP1 SLOAD SWAP1 PUSH2 0x100 EXP SWAP1 DIV PUSH1 0xFF AND ISZERO PUSH2 0x694 JUMPI DUP1 DUP5 DUP5 DUP2 MLOAD DUP2 LT PUSH2 0x67A JUMPI PUSH2 0x679 PUSH2 0xB90 JUMP JUMPDEST JUMPDEST PUSH1 0x20 MUL PUSH1 0x20 ADD ADD DUP2 SWAP1 MSTORE POP DUP3 DUP1 PUSH2 0x690 SWAP1 PUSH2 0xC43 JUMP JUMPDEST SWAP4 POP POP JUMPDEST POP DUP1 DUP1 PUSH2 0x6A0 SWAP1 PUSH2 0xC43 JUMP JUMPDEST SWAP2 POP POP PUSH2 0x548 JUMP JUMPDEST POP DUP2 SWAP4 POP POP POP POP SWAP2 SWAP1 POP JUMP JUMPDEST PUSH0 DUP2 PUSH1 0x40 MLOAD PUSH2 0x6C3 SWAP2 SWAP1 PUSH2 0xBF7 JUMP JUMPDEST SWAP1 DUP2 MSTORE PUSH1 0x20 ADD PUSH1 0x40 MLOAD DUP1 SWAP2 SUB SWAP1 KECCAK256 PUSH0 SWAP1 SLOAD SWAP1 PUSH2 0x100 EXP SWAP1 DIV PUSH1 0xFF AND PUSH2 0x71F JUMPI DUP1 PUSH1 0x40 MLOAD PUSH32 0x4F0FFC1B00000000000000000000000000000000000000000000000000000000 DUP2 MSTORE PUSH1 0x4 ADD PUSH2 0x716 SWAP2 SWAP1 PUSH2 0xCD2 JUMP JUMPDEST PUSH1 0x40 MLOAD DUP1 SWAP2 SUB SWAP1 REVERT JUMPDEST PUSH1 0x1 DUP1 PUSH0 CALLER PUSH20 0xFFFFFFFFFFFFFFFFFFFFFFFFFFFFFFFFFFFFFFFF AND PUSH20 0xFFFFFFFFFFFFFFFFFFFFFFFFFFFFFFFFFFFFFFFF AND DUP2 MSTORE PUSH1 0x20 ADD SWAP1 DUP2 MSTORE PUSH1 0x20 ADD PUSH0 KECCAK256 DUP3 PUSH1 0x40 MLOAD PUSH2 0x76B SWAP2 SWAP1 PUSH2 0xBF7 JUMP JUMPDEST SWAP1 DUP2 MSTORE PUSH1 0x20 ADD PUSH1 0x40 MLOAD DUP1 SWAP2 SUB SWAP1 KECCAK256 PUSH0 PUSH2 0x100 EXP DUP2 SLOAD DUP2 PUSH1 0xFF MUL NOT AND SWAP1 DUP4 ISZERO ISZERO MUL OR SWAP1 SSTORE POP POP JUMP JUMPDEST PUSH0 DUP2 MLOAD SWAP1 POP SWAP2 SWAP1 POP JUMP JUMPDEST PUSH0 DUP3 DUP3 MSTORE PUSH1 0x20 DUP3 ADD SWAP1 POP SWAP3 SWAP2 POP POP JUMP JUMPDEST PUSH0 DUP2 SWAP1 POP PUSH1 0x20 DUP3 ADD SWAP1 POP SWAP2 SWAP1 POP JUMP JUMPDEST PUSH0 DUP2 MLOAD SWAP1 POP SWAP2 SWAP1 POP JUMP JUMPDEST PUSH0 DUP3 DUP3 MSTORE PUSH1 0x20 DUP3 ADD SWAP1 POP SWAP3 SWAP2 POP POP JUMP JUMPDEST PUSH0 JUMPDEST DUP4 DUP2 LT ISZERO PUSH2 0x7F2 JUMPI DUP1 DUP3 ADD MLOAD DUP2 DUP5 ADD MSTORE PUSH1 0x20 DUP2 ADD SWAP1 POP PUSH2 0x7D7 JUMP JUMPDEST PUSH0 DUP5 DUP5 ADD MSTORE POP POP POP POP JUMP JUMPDEST PUSH0 PUSH1 0x1F NOT PUSH1 0x1F DUP4 ADD AND SWAP1 POP SWAP2 SWAP1 POP JUMP JUMPDEST PUSH0 PUSH2 0x817 DUP3 PUSH2 0x7BB JUMP JUMPDEST PUSH2 0x821 DUP2 DUP6 PUSH2 0x7C5 JUMP JUMPDEST SWAP4 POP PUSH2 0x831 DUP2 DUP6 PUSH1 0x20 DUP7 ADD PUSH2 0x7D5 JUMP JUMPDEST PUSH2 0x83A DUP2 PUSH2 0x7FD JUMP JUMPDEST DUP5 ADD SWAP2 POP POP SWAP3 SWAP2 POP POP JUMP JUMPDEST PUSH0 PUSH2 0x850 DUP4 DUP4 PUSH2 0x80D JUMP JUMPDEST SWAP1 POP SWAP3 SWAP2 POP POP JUMP JUMPDEST PUSH0 PUSH1 0x20 DUP3 ADD SWAP1 POP SWAP2 SWAP1 POP JUMP JUMPDEST PUSH0 PUSH2 0x86E DUP3 PUSH2 0x792 JUMP JUMPDEST PUSH2 0x878 DUP2 DUP6 PUSH2 0x79C JUMP JUMPDEST SWAP4 POP DUP4 PUSH1 0x20 DUP3 MUL DUP6 ADD PUSH2 0x88A DUP6 PUSH2 0x7AC JUMP JUMPDEST DUP1 PUSH0 JUMPDEST DUP6 DUP2 LT ISZERO PUSH2 0x8C5 JUMPI DUP5 DUP5 SUB DUP10 MSTORE DUP2 MLOAD PUSH2 0x8A6 DUP6 DUP3 PUSH2 0x845 JUMP JUMPDEST SWAP5 POP PUSH2 0x8B1 DUP4 PUSH2 0x858 JUMP JUMPDEST SWAP3 POP PUSH1 0x20 DUP11 ADD SWAP10 POP POP PUSH1 0x1 DUP2 ADD SWAP1 POP PUSH2 0x88D JUMP JUMPDEST POP DUP3 SWAP8 POP DUP8 SWAP6 POP POP POP POP POP POP SWAP3 SWAP2 POP POP JUMP JUMPDEST PUSH0 PUSH1 0x20 DUP3 ADD SWAP1 POP DUP2 DUP2 SUB PUSH0 DUP4 ADD MSTORE PUSH2 0x8EF DUP2 DUP5 PUSH2 0x864 JUMP JUMPDEST SWAP1 POP SWAP3 SWAP2 POP POP JUMP JUMPDEST PUSH0 PUSH1 0x40 MLOAD SWAP1 POP SWAP1 JUMP JUMPDEST PUSH0 DUP1 REVERT JUMPDEST PUSH0 DUP1 REVERT JUMPDEST PUSH0 DUP1 REVERT JUMPDEST PUSH0 DUP1 REVERT JUMPDEST PUSH32 0x4E487B7100000000000000000000000000000000000000000000000000000000 PUSH0 MSTORE PUSH1 0x41 PUSH1 0x4 MSTORE PUSH1 0x24 PUSH0 REVERT JUMPDEST PUSH2 0x946 DUP3 PUSH2 0x7FD JUMP JUMPDEST DUP2 ADD DUP2 DUP2 LT PUSH8 0xFFFFFFFFFFFFFFFF DUP3 GT OR ISZERO PUSH2 0x965 JUMPI PUSH2 0x964 PUSH2 0x910 JUMP JUMPDEST JUMPDEST DUP1 PUSH1 0x40 MSTORE POP POP POP JUMP JUMPDEST PUSH0 PUSH2 0x977 PUSH2 0x8F7 JUMP JUMPDEST SWAP1 POP PUSH2 0x983 DUP3 DUP3 PUSH2 0x93D JUMP JUMPDEST SWAP2 SWAP1 POP JUMP JUMPDEST PUSH0 PUSH8 0xFFFFFFFFFFFFFFFF DUP3 GT ISZERO PUSH2 0x9A2 JUMPI PUSH2 0x9A1 PUSH2 0x910 JUMP JUMPDEST JUMPDEST PUSH2 0x9AB DUP3 PUSH2 0x7FD JUMP JUMPDEST SWAP1 POP PUSH1 0x20 DUP2 ADD SWAP1 POP SWAP2 SWAP1 POP JUMP JUMPDEST DUP3 DUP2 DUP4 CALLDATACOPY PUSH0 DUP4 DUP4 ADD MSTORE POP POP POP JUMP JUMPDEST PUSH0 PUSH2 0x9D8 PUSH2 0x9D3 DUP5 PUSH2 0x988 JUMP JUMPDEST PUSH2 0x96E JUMP JUMPDEST SWAP1 POP DUP3 DUP2 MSTORE PUSH1 0x20 DUP2 ADD DUP5 DUP5 DUP5 ADD GT ISZERO PUSH2 0x9F4 JUMPI PUSH2 0x9F3 PUSH2 0x90C JUMP JUMPDEST JUMPDEST PUSH2 0x9FF DUP5 DUP3 DUP6 PUSH2 0x9B8 JUMP JUMPDEST POP SWAP4 SWAP3 POP POP POP JUMP JUMPDEST PUSH0 DUP3 PUSH1 0x1F DUP4 ADD SLT PUSH2 0xA1B JUMPI PUSH2 0xA1A PUSH2 0x908 JUMP JUMPDEST JUMPDEST DUP2 CALLDATALOAD PUSH2 0xA2B DUP5 DUP3 PUSH1 0x20 DUP7 ADD PUSH2 0x9C6 JUMP JUMPDEST SWAP2 POP POP SWAP3 SWAP2 POP POP JUMP JUMPDEST PUSH0 PUSH1 0x20 DUP3 DUP5 SUB SLT ISZERO PUSH2 0xA49 JUMPI PUSH2 0xA48 PUSH2 0x900 JUMP JUMPDEST JUMPDEST PUSH0 DUP3 ADD CALLDATALOAD PUSH8 0xFFFFFFFFFFFFFFFF DUP2 GT ISZERO PUSH2 0xA66 JUMPI PUSH2 0xA65 PUSH2 0x904 JUMP JUMPDEST JUMPDEST PUSH2 0xA72 DUP5 DUP3 DUP6 ADD PUSH2 0xA07 JUMP JUMPDEST SWAP2 POP POP SWAP3 SWAP2 POP POP JUMP JUMPDEST PUSH0 DUP2 ISZERO ISZERO SWAP1 POP SWAP2 SWAP1 POP JUMP JUMPDEST PUSH2 0xA8F DUP2 PUSH2 0xA7B JUMP JUMPDEST DUP3 MSTORE POP POP JUMP JUMPDEST PUSH0 PUSH1 0x20 DUP3 ADD SWAP1 POP PUSH2 0xAA8 PUSH0 DUP4 ADD DUP5 PUSH2 0xA86 JUMP JUMPDEST SWAP3 SWAP2 POP POP JUMP JUMPDEST PUSH0 PUSH20 0xFFFFFFFFFFFFFFFFFFFFFFFFFFFFFFFFFFFFFFFF DUP3 AND SWAP1 POP SWAP2 SWAP1 POP JUMP JUMPDEST PUSH0 PUSH2 0xAD7 DUP3 PUSH2 0xAAE JUMP JUMPDEST SWAP1 POP SWAP2 SWAP1 POP JUMP JUMPDEST PUSH2 0xAE7 DUP2 PUSH2 0xACD JUMP JUMPDEST DUP2 EQ PUSH2 0xAF1 JUMPI PUSH0 DUP1 REVERT JUMPDEST POP JUMP JUMPDEST PUSH0 DUP2 CALLDATALOAD SWAP1 POP PUSH2 0xB02 DUP2 PUSH2 0xADE JUMP JUMPDEST SWAP3 SWAP2 POP POP JUMP JUMPDEST PUSH0 PUSH1 0x20 DUP3 DUP5 SUB SLT ISZERO PUSH2 0xB1D JUMPI PUSH2 0xB1C PUSH2 0x900 JUMP JUMPDEST JUMPDEST PUSH0 PUSH2 0xB2A DUP5 DUP3 DUP6 ADD PUSH2 0xAF4 JUMP JUMPDEST SWAP2 POP POP SWAP3 SWAP2 POP POP JUMP JUMPDEST PUSH32 0x4E487B7100000000000000000000000000000000000000000000000000000000 PUSH0 MSTORE PUSH1 0x22 PUSH1 0x4 MSTORE PUSH1 0x24 PUSH0 REVERT JUMPDEST PUSH0 PUSH1 0x2 DUP3 DIV SWAP1 POP PUSH1 0x1 DUP3 AND DUP1 PUSH2 0xB77 JUMPI PUSH1 0x7F DUP3 AND SWAP2 POP JUMPDEST PUSH1 0x20 DUP3 LT DUP2 SUB PUSH2 0xB8A JUMPI PUSH2 0xB89 PUSH2 0xB33 JUMP JUMPDEST JUMPDEST POP SWAP2 SWAP1 POP JUMP JUMPDEST PUSH32 0x4E487B7100000000000000000000000000000000000000000000000000000000 PUSH0 MSTORE PUSH1 0x32 PUSH1 0x4 MSTORE PUSH1 0x24 PUSH0 REVERT JUMPDEST PUSH0 DUP2 SWAP1 POP SWAP3 SWAP2 POP POP JUMP JUMPDEST PUSH0 PUSH2 0xBD1 DUP3 PUSH2 0x7BB JUMP JUMPDEST PUSH2 0xBDB DUP2 DUP6 PUSH2 0xBBD JUMP JUMPDEST SWAP4 POP PUSH2 0xBEB DUP2 DUP6 PUSH1 0x20 DUP7 ADD PUSH2 0x7D5 JUMP JUMPDEST DUP1 DUP5 ADD SWAP2 POP POP SWAP3 SWAP2 POP POP JUMP JUMPDEST PUSH0 PUSH2 0xC02 DUP3 DUP5 PUSH2 0xBC7 JUMP JUMPDEST SWAP2 POP DUP2 SWAP1 POP SWAP3 SWAP2 POP POP JUMP JUMPDEST PUSH32 0x4E487B7100000000000000000000000000000000000000000000000000000000 PUSH0 MSTORE PUSH1 0x11 PUSH1 0x4 MSTORE PUSH1 0x24 PUSH0 REVERT JUMPDEST PUSH0 DUP2 SWAP1 POP SWAP2 SWAP1 POP JUMP JUMPDEST PUSH0 PUSH2 0xC4D DUP3 PUSH2 0xC3A JUMP JUMPDEST SWAP2 POP PUSH32 0xFFFFFFFFFFFFFFFFFFFFFFFFFFFFFFFFFFFFFFFFFFFFFFFFFFFFFFFFFFFFFFFF DUP3 SUB PUSH2 0xC7F JUMPI PUSH2 0xC7E PUSH2 0xC0D JUMP JUMPDEST JUMPDEST PUSH1 0x1 DUP3 ADD SWAP1 POP SWAP2 SWAP1 POP JUMP JUMPDEST PUSH0 DUP3 DUP3 MSTORE PUSH1 0x20 DUP3 ADD SWAP1 POP SWAP3 SWAP2 POP POP JUMP JUMPDEST PUSH0 PUSH2 0xCA4 DUP3 PUSH2 0x7BB JUMP JUMPDEST PUSH2 0xCAE DUP2 DUP6 PUSH2 0xC8A JUMP JUMPDEST SWAP4 POP PUSH2 0xCBE DUP2 DUP6 PUSH1 0x20 DUP7 ADD PUSH2 0x7D5 JUMP JUMPDEST PUSH2 0xCC7 DUP2 PUSH2 0x7FD JUMP JUMPDEST DUP5 ADD SWAP2 POP POP SWAP3 SWAP2 POP POP JUMP JUMPDEST PUSH0 PUSH1 0x20 DUP3 ADD SWAP1 POP DUP2 DUP2 SUB PUSH0 DUP4 ADD MSTORE PUSH2 0xCEA DUP2 DUP5 PUSH2 0xC9A JUMP JUMPDEST SWAP1 POP SWAP3 SWAP2 POP POP JUMP INVALID LOG2 PUSH5 0x6970667358 0x22 SLT KECCAK256 0xF7 EXTCODESIZE SGT DUP12 GASLIMIT 0x4F SLOAD 0xEC SHL 0xEE CALLCODE COINBASE GASLIMIT JUMP 0xC5 0xC7 0xB7 EXTCODEHASH 0xE9 GT MSIZE SHL 0xE 0xF9 AND 0xBF CODESIZE 0xD0 PUSH12 0x3DD6A564736F6C6343000814 STOP CALLER "
		},
		"gasEstimates": {
			"creation": {
				"codeDepositCost": "673600",
				"executionCost": "infinite",
				"totalCost": "infinite"
			},
			"external": {
				"addRecord(string)": "infinite",
				"approvedRecords(string)": "infinite",
				"getApprovedRecords()": "infinite",
				"getUserFavorites(address)": "infinite",
				"resetUserFavorites()": "infinite"
			}
		},
		"methodIdentifiers": {
			"addRecord(string)": "d81aa8c4",
			"approvedRecords(string)": "b374ac59",
			"getApprovedRecords()": "1cf0830b",
			"getUserFavorites(address)": "c7853148",
			"resetUserFavorites()": "837f8878"
		}
	},
	"abi": [
		{
			"inputs": [],
			"stateMutability": "nonpayable",
			"type": "constructor"
		},
		{
			"inputs": [
				{
					"internalType": "string",
					"name": "name",
					"type": "string"
				}
			],
			"name": "NotApproved",
			"type": "error"
		},
		{
			"inputs": [
				{
					"internalType": "string",
					"name": "name",
					"type": "string"
				}
			],
			"name": "addRecord",
			"outputs": [],
			"stateMutability": "nonpayable",
			"type": "function"
		},
		{
			"inputs": [
				{
					"internalType": "string",
					"name": "",
					"type": "string"
				}
			],
			"name": "approvedRecords",
			"outputs": [
				{
					"internalType": "bool",
					"name": "",
					"type": "bool"
				}
			],
			"stateMutability": "view",
			"type": "function"
		},
		{
			"inputs": [],
			"name": "getApprovedRecords",
			"outputs": [
				{
					"internalType": "string[]",
					"name": "",
					"type": "string[]"
				}
			],
			"stateMutability": "view",
			"type": "function"
		},
		{
			"inputs": [
				{
					"internalType": "address",
					"name": "user",
					"type": "address"
				}
			],
			"name": "getUserFavorites",
			"outputs": [
				{
					"internalType": "string[]",
					"name": "",
					"type": "string[]"
				}
			],
			"stateMutability": "view",
			"type": "function"
		},
		{
			"inputs": [],
			"name": "resetUserFavorites",
			"outputs": [],
			"stateMutability": "nonpayable",
			"type": "function"
		}
	]
}